:020000041000EA
:1000000000B5324B212058609868022188439860DF
:10001000D860186158612E4B002199600221596106
:100020000121F02299502B49196001219960352056
:1000300000F044F80222904214D00621196600F024
:1000400034F8196E01211966002018661A6600F04E
:100050002CF8196E196E196E052000F02FF8012189
:100060000842F9D1002199601B49196000215960AB
:100070001A491B48016001219960EB211966A021F2
:10008000196600F012F800219960164914480160C1
:100090000121996001BC002800D000471248134993
:1000A000086003C880F30888084703B5996A0420EC
:1000B0000142FBD001200142F8D103BD02B5186610
:1000C0001866FFF7F2FF186E186E02BD00000240BE
:1000D000000000180000070000035F00212200005C
:1000E000F4000018222000A00001001008ED00E03C
:1000F00000000000000000000000000074B24E7A12
:1001000000200420F7010010C3010010C5010010F9
:10011000C1010010C1010010C1010010C101001097
:10012000C1010010C1010010C1010010C701001081
:10013000C1010010C1010010C9010010CB01001065
:10014000CD010010CD010010CD010010CD01001037
:10015000CD010010CD010010CD010010CD01001027
:10016000CD010010CD010010CD010010CD01001017
:10017000CD010010CD010010CD010010CD01001007
:10018000CD010010CD010010CD010010CD010010F7
:10019000CD010010CD010010CD010010CD010010E7
:1001A000CD010010CD010010CD010010CD010010D7
:1001B000CD010010CD010010CD010010CD010010C7
:1001C00000BE00BE00BE00BE00BE00BE00F04BF888
:1001D000103800BEF2EB8871649800108898001007
:1001E0003402001090A31AE700202149086006C8D5
:1001F00081F3088810471F48006800282FD10DA4FC
:100200000ECC002902D000F012F8F9E71A491B4A77
:10021000002000E001C19142FCD1194988471949E9
:1002200088471949884700BEFDE701C901C29A42C3
:10023000FBD3704788980010C0000020CC0B002032
:1002400094A30010000004200000042094A30010D8
:1002500000100420001004200000000070470B482C
:1002600003F01CFB0047EFF30580C0B270470000AD
:1002700008ED00E0000000D0D00B00200C21002091
:10028000B51D00103D070010D91E00105756000084
:1002900006005250ABB36053C09600100600525097
:1002A000861C0302D0960010060052505422A29DD4
:1002B000E496001005005250DE65F46894A3001027
:1002C000F8B5C04610B5064C2378002B07D1054B76
:1002D000002B02D0044800E000BF0123237010BDB2
:1002E000D00E00200000000090900010044B10B5CC
:1002F000002B03D00349044800E000BF10BDC046F6
:1003000000000000D40E00209090001070B583789B
:100310000400964D002B17D1E378002B00D0E0E0CD
:100320002379002B00D0B0E06379002B00D080E06F
:10033000A379002B56D1E379002B2CD12800082279
:10034000210004F09BF970BDAA789A42E4D0EA78C3
:100350009A42E1D02A799A42DED06A799A42DBD079
:10036000AA799A42D8D0EA799A42D5D02222017845
:100370005B000A40511E8A417D49CB189E5C3000CB
:1003800004F094FA0D2E00D1EBE07A4B1B689868CC
:1003900008F098FAC0E7AA789A42CFD0EA789A4251
:1003A000CCD02A799A42C9D06A799A42C6D0AA7921
:1003B0009A42C3D0EA799A42C0D0222221785B00C7
:1003C0000A40511E8A416A49CB189E5C300004F0F5
:1003D0006DFA0D2E00D1B0E0664B1B68986808F0EE
:1003E00071FAABE7AA789A42A5D0EA789A42A2D0ED
:1003F0002A799A429FD06A799A429CD0AA799A42E5
:1004000099D0EA799A4296D0222221785B000A405C
:10041000511E8A415649CB189E5C300004F046FAC2
:100420000D2E00D195E0534B1B68986808F04AFAEE
:1004300081E7AA789A4200D17AE7EA789A4200D115
:1004400076E72A799A4200D172E76A799A4200D116
:100450006EE7AA799A4200D16AE7EA799A4200D116
:1004600066E7222221785B000A40511E8A414049FA
:10047000CB189E5C300004F019FA0D2E6DD03D4B68
:100480001B68986808F01EFA52E7AA789A4200D1D1
:100490004AE7EA789A4200D146E72A799A4200D19F
:1004A00042E76A799A4200D13EE7AA799A4200D19E
:1004B0003AE7EA799A4200D136E7222221785B00B6
:1004C0000A40511E8A412A49CB189E5C300004F034
:1004D000EDF90D2E35D0274B1B68986808F0F2F91E
:1004E00022E7AA789A4200D11AE7EA789A4200D124
:1004F00016E72A799A4200D112E76A799A4200D126
:100500000EE7AA799A4200D10AE7EA799A4200D125
:1005100006E7222221785B000A40511E8A411449D5
:10052000CB189E5C300004F0C1F90D2E0DD0114B9C
:100530001B68986808F0C6F9F2E60A2004F0B6F9DC
:100540004AE70A2004F0B2F9C5E70A2004F0AEF940
:10055000EDE70A2004F0AAF965E70A2004F0A6F9FD
:100560008DE70A2004F0A2F90FE7C046942000208E
:10057000D8910010740300207047C046F0B5CE46F5
:10058000474680B585B005000C0001AE90460A00D4
:1005900001001C48994604F01DFB33001A4985C927
:1005A00085C32100280007F063F9830007009959EB
:1005B000164804F00FFB002F0AD02100280007F096
:1005C00067F900281AD005B0C0BCB946B046F0BDE6
:1005D000E60036190E4F7600B01C4B464246042109
:1005E000381807F05FFB0100B8550A4804F0F2FA2A
:1005F0002100280007F04CF90028E4D1064804F057
:10060000A5F9E0E7AC900010CC910010E09000104C
:1006100008200020009100101891001010B50A0069
:100620000100024804F0D6FA10BDC0464491001003
:10063000F8B507000D00160007F01AF9012836D0AA
:10064000022812D13378002B3ED10323022201214C
:10065000F356B2567156344804F0BCFA29003800FB
:1006600007F016F900282BD0F8BDEB002F495B19D5
:100670005B00585C0233C91801283AD033789C4695
:1006800000284DD00C00002304E00133DBB2043419
:10069000984245D9227821006245F6D101364B882F
:1006A000012BDBD14878022829D00628D6D130008A
:1006B000FFF72CFE2900380007F0EAF80028D3D114
:1006C0001B4804F043F9CFE71F222024D907C9179C
:1006D00011405A07D21722402D312D321840431EA7
:1006E00098414342252003402D33124804F072FA0A
:1006F000ABE70B78002BD2D033789C46C2E7347836
:10070000002CA2D023405A1E934159421F23620756
:100710001940D21701331A402D312D322040DEE727
:10072000054804F013F999E788910010082000208B
:10073000189100107C9100109891001070B5FA2665
:1007400007F0C8FF164804F001F9B60007F062FE92
:10075000144C154D16E0FA220023920003F03AF9EA
:100760002368C01AB0420BD3FA229200944628782C
:100770006344236007F0C6FF01222B7853402B709F
:10078000FFF7FAFE01200021404206F05FF900F079
:100790008BFF0029DFD1FA21890003F0D9F8DFE7C8
:1007A000D8920010E42000200721002010B504009A
:1007B0000100054804F00EFA0123402220000349FD
:1007C00006F060FE10BDC046FC9200109C20002088
:1007D00010B50100014804F0FDF910BD249300108C
:1007E00070B50400074D280004F0F4F928004022F9
:1007F000002103F03DFF290001234022200006F0E4
:1008000041FE70BD9C20002070B5137B04000D00DC
:10081000002B26D1154916480B000A002033103250
:10082000083104F0D7F92000697B07F04FFC697BA1
:100830000600200007F056FC010004008020400361
:1008400003F086F80100300003F082F80100094847
:1008500004F0C0F922003100074804F0BBF9012080
:1008600070BD064804F072F80020F9E75C20002013
:1008700060930010789300108C9300105093001038
:1008800010B5040082B0064804F060F8002300218F
:1008900000932000034B044A07F030FC02B010BD67
:1008A000B4930010090800105C20002010B5024825
:1008B00004F04CF810BDC046D8930010094A8300DC
:1008C00094464022634410B51C68C0006240C024B6
:1008D00014408022520113431C60034B9C46604429
:1008E000416010BD04C00140004001400123D022FE
:1008F0008340120693629361094A83009446402222
:1009000063441968C0004A40C0211140802252014E
:1009100013431960034B9C460523604443607047B2
:1009200004C001400040014070B5EFF3108C72B676
:100930000D4D2B68002BFCD0BFF35F8F0724CB0835
:10094000C618C05C01230C40A3401C0004400342B5
:1009500007D103433370BFF35F8F2C608CF3108893
:1009600070BD100001F0BAFA2C0100D0F8B547466E
:10097000CE46884680B5EFF3108C72B6214D2C68B8
:10098000002CFCD0BFF35F8F9A422CD8D4080727E5
:10099000055D061901241740BC402C421FD00721D9
:1009A0000127894609E0D408055D06194C4639003F
:1009B0001440A1400C00294211D001329342F2D2DE
:1009C00001204042BFF35F8F00220E4B1A608CF370
:1009D000108800280FDBC0BCB946B046F8BD2C43D8
:1009E00010003470EEE7BFF35F8F00232B608CF3B1
:1009F0001088012040424346002BECD0089801F0BB
:100A00006DFAC0462C0100D0024B18688007C00F59
:100A10007047C04600C006400021044B044ABFF3A3
:100A20005F8F02C39342FAD17047C046000100D0E5
:100A3000800100D0044A1078431CDBB2172B00D988
:100A4000102313707047C0469002002000B5054B7C
:100A500083B00100009318221F230348FFF786FF8D
:100A600003B000BDFC9300104C1D00200123834007
:100A7000002904D0034A1360034A13607047034AF5
:100A80001360FBE780E200E000E100E080E100E0CD
:100A9000024B10309B688000C058704700ED00E0AA
:100AA00070B50D00EFF3108672B60F4A1368002B75
:100AB000FCD0BFF35F8F0D4B10309B6884001B5937
:100AC0000B4A934203D09D4201D001F01FFA074B1D
:100AD0009B681D51BFF35F8FBFF35F8F0022024BF6
:100AE0001A6086F3108870BD240100D000ED00E08C
:100AF000CD010010F0B557464E46DE464546E0B5FE
:100B000085B0060002911700EFF3108B72B6674AAA
:100B10001368002BFCD0BFF35F8F0025644B5D573B
:100B20009A46002D00DAA5E06B00624C03935B1936
:100B30009B009846A146C1444B4652469B791036CD
:100B400013705D4BB2009B68019299580B1B2F2BC1
:100B500034D95A4B994200D0A5E0039B584A9C4691
:100B6000584B6544AD006353434602336519E4189E
:100B7000554B0121043B1B1B1B055B0D13436B8075
:100B8000524BEF71AB80FF23AB71029BAB604B46C6
:100B90000B431900484B019A9B689950BFF35F8F34
:100BA000BFF35F8F0022414B1A608BF3108805B0B2
:100BB000F0BCBB46B246A946A046F0BD01200A00E3
:100BC0008243D379BB422FD845464E461300404955
:100BD0001B1B5B415943090D3A4B63533A4B02359A
:100BE0006519043B5B1B1B05354D5B0D2B43738067
:100BF0000426B446E0444444131F1B1B4C46A17119
:100C000002991B05A16049465B0D2B43A380314B24
:100C1000E77101431360BDE75800C0188000201839
:100C2000C679BE422CD902000623D356002BF3DA34
:100C3000101D8246BD200002804604267642B4463E
:100C4000E14450464E46361A3005400D824656461F
:100C50001B48957106439680039A944665441D4A45
:100C6000AD00641922604246A371029BA280E77125
:100C7000A3608FE701F04AF9002553465D5753E71B
:100C8000101D824690884005001584464046D44495
:100C9000664604302018301AE0260005400D360262
:100CA00030438046C9E701F031F956E7240100D00E
:100CB000062100209402002000ED00E0CD0100108C
:100CC00000E0FFFF00A1FFFFC402002000BDFFFF06
:100CD000AAAA000001488047F0B5DE4657464E46B6
:100CE0004546E0B50C0083B0EFF3108A72B65A4A5D
:100CF0001368002BFCD0BFF35F8F10229146814414
:100D00004A46564B96009B689D59554B98469D42C6
:100D100005D0A54216D0534FEB1B2F2B14D94F4BA8
:100D20009B689D51BFF35F8FBFF35F8F00224A4BDB
:100D30001A608AF3108803B0F0BCBB46B246A946DD
:100D4000A046F0BD1D00EAE7012383409B465A46BA
:100D5000454B1B681A4000925A46444B1A60BFF339
:100D60005F8FFFF780FA0190002803D0814501D002
:100D700001F0CCF801232A009A4393689C4208D1E1
:100D80005FE04B005B189B00FB189968A14211D0F3
:100D90001A00062151560029F3DA009B002B05D0DA
:100DA0005A46334B1A60304B1A60B8E75A462F4BFD
:100DB0001A60B4E706215956002921DB4A00501871
:100DC00080003C188046A0689860E079D8710620C1
:100DD00020569871002824DBA488F81A640524158D
:100DE00044440019E0240005400D2402204398806B
:100DF0005218204B9200BF181A781970BA71CCE7BC
:100E00000199002910D1FF3191711B499180194935
:100E10000A789A71194ADB1B5B415A43120D0A701A
:100E2000BBE7BD200002E2E7154A1649D21A083A8C
:100E30005002400D01439980134952080A43DA8059
:100E4000ABE70621515613000029B7DA019A002AB0
:100E5000EAD14546DBE7C046240100D000ED00E0C2
:100E6000CD0100109402002000E100E080E100E0EC
:100E700080E200E00621002000BDFFFFAAAA0000DA
:100E8000CE02002000F0FFFF00F8FFFFF8B50125BB
:100E900004000543FFF7E7F9EFF3108C72B6214A1F
:100EA0001368002BFCD0BFF35F8F1F4E2100B76883
:100EB0001E4A1F4B891A49414B431B0D59B28300EF
:100EC000F858A8421CD00623D3568B421CD01223BC
:100ED000D3568B4222D01E23D3568B4220D02A23B6
:100EE000D35603208B4210D0124B1A781970A2717E
:100EF000BFF35F8F00220B4B1A608CF31088F8BD94
:100F0000B2680D48D050EFE7002043001B189B004B
:100F1000D218FF239371094B9380E5E70120F4E792
:100F20000220F2E7240100D000ED00E0940200204E
:100F3000AAAA000006210020CD01001000BDFFFF7D
:100F4000054B064A1360064A136053609360D360F2
:100F500013615361936170478080808000E400E0FA
:100F600004E400E0024B9C46614489000160704744
:100F70004000003483680B4810B5844661446244E5
:100F8000090112019A18591854684B6801209C42B3
:100F900001D802D00020C0B210BD12680B689A427E
:100FA000F9D8F7E7FFFFFF0F0A4B1968EFF310803E
:100FB00072B60A68002AFCD0BFF35F8F1B68BFF3CC
:100FC0005F8F00221A6080F3108840BF002000214C
:100FD0007047C046E0200020F8B557464E464546CB
:100FE000DE46E0B599460CAB1C780DAB1B780600CD
:100FF00090469A460768002C11D1BC7B002C42D049
:1010000065003B682D19033D59194B78BB73002BC4
:1010100000D1FB7300238B704B700B7004E06500F4
:101020003B682D19033D5919B2682A4B9446424634
:10103000E3181B0163441A604A465A600A9A9A6090
:101040000B9ADA6000238B704B700B707B7B9B4696
:10105000002B2BD022005946B8687B6898473A6825
:10106000002816D05B4658465B005B445519033B8D
:10107000A870D118D35C002B00D06B705B460C704D
:101080007B73A34513D0F0BCBB46B246A946A0462D
:10109000F8BD5B465B005B44033BD3189C70511961
:1010A000525D002A00D05A705B460B707C7342463A
:1010B0004B46307D00F082FB051E06D05346002BC8
:1010C00003D12100306800F09BFD0E9B002BDAD08D
:1010D0001D70D8E7FFFFFF0FF0B5DE464E465746BE
:1010E00045460023E0B58DB00A936B4B8200D35880
:1010F0000B90994600239B464B46079300F0D4FA89
:10110000079C06000F006268EFF3108572B6136843
:10111000002BFCD022000794BFF35F8F2468637B11
:101120009946002B67D092685C4B90464B441B015C
:10113000984443461A685B6810001900801BB94147
:1011400000295FDD0B9800F039FB0023002698464C
:1011500000279A46079C6368BFF35F8F5A461A6060
:1011600085F310885346002B08D10028C6D10DB056
:10117000F0BCBB46B246A946A046F0BD0A9B41461C
:1011800018024B461843D047089009916268EFF364
:10119000108572B61368002BFCD00794BFF35F8FE5
:1011A0000899099A002A48DB114303D0079B1B6961
:1011B000002B5DD1079B1B68D97B002907D04A0013
:1011C000521819688C4649466244033A51704A469F
:1011D000DA734B46079A013BD168CA5C0132CA54A4
:1011E0005B46079A13615368BFF35F8F5A461A60D4
:1011F00085F3108882E700230026984600279A4648
:101200000020A7E7002901D100289BD10021200060
:1012100000F078FC43461E685F689B68079A9A4610
:101220004346DB689846D3684B44013B1B780A93DE
:101230001B020343136100208CE72369002BB9D004
:1012400033003C005B1A94411A002300A74219D8CE
:101250009F421BD0594604910121039149460291B6
:1012600041460191514607980091FFF7B5FEB7E757
:1012700000F01AFA089A099B06000F0092197B41A8
:101280009942E5D901225242D317E3E79642E1D9C8
:1012900001225242D317DDE784200020FFFFFF0F19
:1012A000F8B557464E464546DE46E0B5404D8146C8
:1012B0008A466A68EFF3108872B61368002BFCD078
:1012C000BFF35F8F2E68B47B002C39D06700336882
:1012D0003F19033FDB195A78B273002A00D1F27329
:1012E000A968344A8C464946A2181201624411602A
:1012F00051465160304991600021D1609970597018
:101300001970737B9B46002B35D022001900B06802
:10131000736898473268002820D05B4658465B00C7
:101320005B44D719033BB870D118D35C002B00D0B5
:101330007B705B460C7073735C451DD0002626E005
:101340006B68BFF35F8F1C6088F3108801204042F8
:10135000F0BCBB46B246A946A046F8BD5B465B0062
:101360005B44033BD3189C70D119D25D002A00D096
:101370005A705B460B7074734A465346287D00F0E2
:101380001DFA061EDAD02100286800F039FCEB684F
:101390001B19013B19786B68BFF35F8F00221A603D
:1013A00088F310880020002ED2D108022043CFE716
:1013B000DC020020FFFFFF0FA90F001010B5124C38
:1013C0006368002B04D00A211048FFF7CBFD10BD45
:1013D00023000F4A1021206800F0B2FA032000F029
:1013E00057F9032000F05AFA03200A4900F0A0F947
:1013F000FFF720FB084B9C46032360442375074BF3
:1014000080006060DC60DEE7DC020020E02000207D
:10141000750F0010D9100010400000348420002007
:10142000F0B504000D0006267642F717C6463619B9
:101430006F4100B58F4213D810D000F035F932005B
:101440003B00121A8B41002B14DC002B37D02900F3
:10145000200000F05DF980BCB846F0BD8642ECD9B2
:101460000026002700F020F932003B00121A8B41C1
:10147000002BEADD30003900FFF712FF0028E6DB21
:1014800000239846BC460F4A0F4F7B6A9C4504D800
:10149000B96A8E42DBD99C45D9D11168EFF310802F
:1014A00072B60B68002BFCD0BFF35F8F1368BFF3DD
:1014B0005F8F4146196080F3108820BFE5E7002A5E
:1014C000C5D0D7E7E02000200040054070B50600F9
:1014D00000F0EAF8FA2204000D0000233000002199
:1014E000920003F05BF8001969418D4205D802D0E3
:1014F000FFF796FF70BD8442FAD901204042C11720
:10150000F6E7C046F8B5CE46474680B506000C0063
:10151000FFF7C6FE00280CDC2D4B0020596A8C42D8
:1015200003D89B6A0130B34245D3C0BCB946B0462C
:10153000F8BD20BF274D6A68EFF3108772B61368B5
:10154000002BFCD0BFF35F8F2B68C1B29C465B7B46
:101550008B4235D0FF2303405A0091466246126801
:10156000994490464A464244033A9278002A1DD054
:10157000EA68000A90464344013B1B78C0B28342AC
:1015800021D06B68BFF35F8F00221A6087F3108849
:101590000F4A0020536A9C42C7D8926A0130B24277
:1015A000C3D2E01A421E9041C0B2BEE72B699842F6
:1015B000E7D12A61E5E7601A431E9841C0B2B4E75B
:1015C000FF230340D4E7604600F01AFBD9E7C0468A
:1015D00000400540DC020020F0B5D6464F464646A6
:1015E000C0B5EFF305833F22134018001038EFF326
:1015F000108C72B6204D2A68002AFCD0BFF35F8F92
:101600000122110081401D4C884661631C4917006E
:101610000E788A463100C1400F400A4209D1BFF31B
:101620005F8F2F608CF31088E0BCBA46B146A846A5
:10163000F0BD14498200646A51588C420FD3124B9A
:10164000D25843469E4353461E70BFF35F8F00231C
:101650002B608CF31088002AE6D09047E4E70B4A11
:101660009B00904643441A681A60BFF35F8F0023C3
:101670002B608CF31088D7E7280100D0004005408C
:1016800008210020E8200020241D0020D03F054034
:1016900010B50100024A0348FFF746F910BDC046E5
:1016A0002094001004210020034B596A0A00986A14
:1016B000596A8A42FAD170470040054070B504006B
:1016C0000D00124A536A1900966A536A8B42FAD186
:1016D0003000190024184D41AB4211D80ED02B0018
:1016E0000A494A6A9A42FCD307D1084A02E0516A81
:1016F000994202D1916AA142F9D370BDA642EED9B6
:10170000012301246442E5175B42E9E700400540FC
:10171000064A536A9942FCD807D1044B02E05A6A40
:10172000914202D19A6A8242F9D370470040054043
:1017300070B504000D00EFF3108672B61A4A1368F4
:10174000002BFCD0BFF35F8F002D1BD02000FFF7D4
:101750009FF9164981420AD02000FFF7A1F9012123
:101760002000FFF783F90123A340114A1360114BB6
:10177000A400E550BFF35F8F00220B4B1A6086F385
:10178000108870BD0B4BA200D5500122A2400A491F
:1017900020000B7893430B700449FFF79DFA00215A
:1017A0002000FFF763F9E5E7280100D0D915001004
:1017B00038600540241D002008210020F0B54F4668
:1017C000D6464646C0B507002F4C616A0D00A66A92
:1017D000616AA942FAD18B4208D805D00120E0BC49
:1017E000BA46B146A846F0BDB242F7D9EFF3108A27
:1017F00072B6264801680029FCD0BFF35F8F01252F
:10180000BD402349204C8846097889462943C9B2FE
:101810008C46414660460870391D1E488900656344
:101820000A51B9000B50216A0020294219D0616A7F
:101830000800A66A616A8142FAD18B4219D801D1A7
:10184000B24216D8CC451DD00F4B1F201D625D63E0
:1018500001230740BB40104A1E38136043464A46E6
:101860001A70BFF35F8F0022084B1A608AF310884A
:10187000B5E70020BFF35F8F0022044B1A608AF3A4
:101880001088ACE70120ECE700400540280100D0BB
:1018900008210020E820002080E200E0EFF3108C17
:1018A00072B60A490B68002BFCD0BFF35F8F01238F
:1018B0008340074A0748136202789A430270BFF3D5
:1018C0005F8F00230B608CF310887047280100D0D5
:1018D000004005400821002070B5050014001600E6
:1018E000002915D00C00002A12D080686B68984738
:1018F000296800280ED073009B196200033B12195F
:10190000CB18033A9C7088188A5C002A15D106709F
:10191000200070BD63001B197200033B9219CB18A5
:10192000033A9E7088188A5C002A02D10470340041
:10193000EEE75A7004703400EAE75A700670E7E781
:1019400030B583600023CCB243730133047342602B
:101950008373C4730D000068012C06D9421C013347
:10196000DBB2137003329C42F9D1FF2129404B00B6
:101970005918002340180338437030BDF8B5CE46DF
:10198000474606000C0080B5002907D04D000368CB
:101990006D18033D5A195778002F04D12000C0BCA0
:1019A000B946B046F8BD7900C919033988464344A1
:1019B0005978894600215970517073683A002100A6
:1019C000806898473368002814D042469A1894706B
:1019D00059195B5D002B00D053700F7027004946EA
:1019E0003000FFF7CBFF390002003000FFF774FF33
:1019F0000400D3E7424641465D19AF709A185B5C1C
:101A0000002B00D06B701470E9E7C046F0B5574664
:101A10004546DE464E46E0B50D006B0001685B1999
:101A2000DF1E0400C85D83B00192CA1900284CD0A3
:101A300043001B18033BCB185E78B446002E16D12A
:101A4000019E002E3ED0E67B002E04D073009B1931
:101A5000CB18033B5D70E57300282FD10023537032
:101A600003B0F0BCBB46B246A946A046F0BD72002A
:101A70006244033A89184A78904600224A70914697
:101A80005A70010032002000FFF726FF43468246CD
:101A9000002B07D05B0021684344033BCB185A78E6
:101AA000002A16D1424651462000FFF715FF216853
:101AB000019BCA19002BC6D10028CFD043001B18A8
:101AC000033BCB1800219970C8E7019B002BBAD1CA
:101AD000C4E7500080180338091848788346484600
:101AE0004870587041462000FFF7F6FE5946804680
:101AF0002000FFF743FF414602002000FFF7ECFE05
:101B00008046CFE7F0B557464546DE464E46E0B53F
:101B100083B00191457B04006B0000685B19DF1EF8
:101B2000C15DC21900294ED04B005B18033BC3189E
:101B30005E78B446002E18D1019E002E40D0E67B80
:101B4000002E04D073009B19C318033B5D70E5732E
:101B5000002931D1002328005370617303B0F0BC19
:101B6000BB46B246A946A046F0BD72006244033AA5
:101B70008018427890460022427091465A702000A8
:101B80003200FFF7A9FE43468246002B07D05B00D8
:101B900021684344033BCB185A78002A17D14246A8
:101BA00051462000FFF798FE019B01002068C219F2
:101BB000002BC4D10029CDD04B005B18033BC318C8
:101BC00000209870C6E7019B002BB8D1C2E75000F7
:101BD000801803380918487883464846487058707A
:101BE00041462000FFF778FE594680462000FFF767
:101BF000C5FE414602002000FFF76EFE8046CEE79C
:101C000070B5040000292CD0437B8B422ED0056890
:101C100048004018033828188278002A21D0530041
:101C20009B18033BEA5CEE188A4202D11BE0002AB3
:101C300008D053009B18033BEB185A788A42F6D120
:101C400042785A7000230122837043702000FFF70E
:101C5000DDFE617B02002000FFF73EFE6073012085
:101C600000E0002070BD43783370EBE701221900DB
:101C7000FFF7CCFE60730120F4E7C04610B5040006
:101C8000FEF7D8FE01002000FFF76CF9FF23237157
:101C9000BFF35F8F10BDC04610B50400FEF7CAFE4B
:101CA00001002000FFF75EF9FF23A380BFF35F8FE1
:101CB00010BDC04610B504000120FEF7C7FE044B5E
:101CC0009C46604480002060BFF35F8F10BDC0461B
:101CD00040000034F8B5040006200D0000F07AFA48
:101CE000002844D02A4B2B49E21853425A41802302
:101CF000DB039C469205284B62441A60274B1A600E
:101D000010008B689843FBD1214B8021E3185A4285
:101D10005341234A5B0049009952062000F05AFAC9
:101D20002900C00001F014FEC30921D14027012180
:101D3000260080256162A36200232C36AD01354365
:101D40002B60062000F046FA3900800001F000FE0A
:101D50006023E26A53406E221A4080235B013343C2
:101D60001A60104B236310232B600D3BA364F8BD56
:101D70000D4A934203D900230C4F0D49D8E77F2227
:101D80001040013040089F0119003F180300CFE7C1
:101D90000080FCBF00C0004000E0004000F00040B8
:101DA000F820002001030000FEFF0000C0FF3F00FC
:101DB000FFFF00002C4B2D4A70B51A602C4A2D4BAA
:101DC0002D491A6014008B689C43FBD12B4D2C4E7F
:101DD000B54208D2013E761BB60808CD98472300CD
:101DE0000134B342F9D100F097F8264A214B1A602A
:101DF000214A9368DB43DB01DD09002BF9D1402246
:101E0000214B224C224E9A675A671A67DA66B4420F
:101E100008D223682000002B20D00834FFF73CFFB5
:101E2000B442F6D31B4E1C4CC022A168300002F015
:101E300025FCA660FEF7F0FDFFF782F8FFF7BEFA7B
:101E4000164C174EB44208D2013E361BB60808CCD9
:101E500098472B0001359E42F9D170BD0834FFF739
:101E60000DFFB442D5D3DDE700E00040BFCDFBFE5F
:101E7000FE7F3C0000F0004000C00040B80B002096
:101E8000C80B0020FFFFFF0100F00140B00B002055
:101E9000B80B00200000002000ED00E0C80B00207F
:101EA000CC0B0020094A03001068002805D008491F
:101EB000C3188B4207D81360704706480449C318FB
:101EC00010608B42F7D901204042F5E70420002042
:101ED000000004200C21002000BEFDE70FB400B577
:101EE000084883B002F032FD049B002B07D005A9FF
:101EF0001800019101F0B2FC034802F027FD00BE7A
:101F0000FDE7C046449400101491001010B501483C
:101F1000FFF7E4FF5494001030B50C2083B000F0BC
:101F2000B7F9FEF771FD00280ED0944B944A1A6061
:101F30005A609A60DA601A615A619A61DA611A62CB
:101F4000904A5A6203B030BD8F4CA06700F0A8F9E8
:101F500001228E4B1A60636C012BFCD103228C4B47
:101F60001A60894A936B012BFCD101330121894A04
:101F700089480093043300F033F90523874A00931E
:101F80000121874800F02CF9864B5A68FF2A02D8B5
:101F9000802252005A608022784C7D4B21691201C8
:101FA000804D1A60002905D0606901F0D1FC013034
:101FB0000138FDD1E0217B4B02201A6811408022BC
:101FC00052012A4311601968484003210140116001
:101FD00004219A681142FCD08022802192012A4378
:101FE00009011160802252005A606F4B23616F4BD0
:101FF0005968FF2900D85A600321644A6B4B11606D
:1020000002399A681142FCD0E0201A681040802200
:1020100052011A4310601868484003210140022011
:10202000116062498A681042FCD0802292011343F9
:10203000802212011A6080225D4B52004A60636167
:102040005C4B5968FF2900D85A6080225A4BE169DD
:102050001201584D1A60002905D0606901F078FC22
:1020600001300138FDD1E02252490B681A4080232B
:102070005B012B431A60802380229B012B431201BA
:102080001A6080223E4B52004A60E3614B4B596814
:10209000FF2900D85A608022494B216A1201474D1E
:1020A0001A60002905D0606901F052FC0130013846
:1020B000FDD1E02241490B681A4080235B012B438C
:1020C0001A60802380229B012B4312011A60802317
:1020D00080225B004B602A4BD2022362394B596845
:1020E000914200D25A608022374B616A1201354D0D
:1020F0001A60002905D0606901F02AFC013001381E
:10210000FDD1E0222F490B681A4080235B012B434D
:102110001A60802380229B012B4312011A608023C6
:10212000DB024B60174B6362284B5A68FF2A02D8C8
:10213000802252005A608022254BA1691201234D52
:102140001A60002905D0606901F002FC01300138F5
:10215000FDD1E0221D490B681A4080235B012B430F
:102160001A60802380229B012B4312011A60802376
:102170005B004B600E4BA361E4E6C046501D00209F
:10218000006CDC021BB70000008000403CB0004047
:1021900030B00040002F685900800240008C864714
:1021A00000C0024030800040001BB7003C8000406F
:1021B000405973075480004054B000406080004094
:1021C00060B000406C8000406CB00040488000402F
:1021D00048B00040014B8000C0587047501D00209F
:1021E000F0B5C646040000B50C2090461F000E0056
:1021F00001F0AEFB4101091A8D01691AC9000918E5
:102200008901404601F0A4FB069B3F041A032368A2
:102210001743002B22DB1A4B1A4DE21853425A4146
:1022200080235B019C461203174B62441A60174BD4
:102230001A601100AB689943FBD1C022231D9201A3
:102240001A4321232660A06013602368002BFCDA68
:102250000823E760136080BCB846F0BD3F232268C6
:102260001340B342D7D1A3681B051B0D8342D2D1C3
:10227000EE22E368D2021340BB42CCD1EBE7C0466A
:102280000040FDBF00C0004000E0004000F0004002
:102290008023024A9B000343D362704700800540BD
:1022A000AA23064A1B0113602F230549D360054B5F
:1022B00019605368002BFCDA7047C04600400240AA
:1022C00000B0FA00006002407047C046F8B55746BB
:1022D0004E464546DE46E0B599460A9B07009A46BB
:1022E0000D9B8846934615000B9E9B0710D10C9BB7
:1022F0009E420DD29D1B14000E005D4422004B46F1
:10230000013431002020B847A542F7D1B0460B9EDA
:10231000002E27D0444675195346AA1B013E985DEE
:1023200021004B46B847002EF6D123002C009846DA
:102330000D9B9B070FD55B46E51A0C9BAB420AD958
:102340004646984622004B46310020200135B847CA
:102350000134A845F6D82000F0BCBB46B246A946D9
:10236000A046F8BD2C00E3E7F0B54F464646D646FA
:10237000C0B584B098460EAB1B78129F9946944620
:102380000D9C109B119EBA0725D4002E4BD19C4268
:1023900000D3BFE001223A4092461F2C00D9B8E09A
:1023A0000C9A551E302201E0202C03D001342A550E
:1023B000A342F9D85246002A0DD0A6420BD9202CB0
:1023C00044D00C9A551E302201E0202C3ED001341E
:1023D0002A55B442F9D1FA064DD57A053FD4002CDE
:1023E00039D10F9B102B00D179E00F9B022B00D12C
:1023F0008AE030230C9A012413704B46002B3FD007
:102400002D230C9A135501340C9B624600930397BD
:10241000434602960194FFF759FF04B0E0BCBA4668
:10242000B146A846F0BD012215003D40AA463A42F9
:102430002FD04A46002A02D10C323A4200D0013E47
:102440009C42BAD21F2CABD9202E27D92024FA06C1
:10245000DAD57A0503D4A3422DD0A6422BD00F9B08
:10246000102B32D0022B20D0202CCDD030220C9B30
:102470001B191A700134202CC6D04B46002BBFD13B
:102480007B070DD43B07BFD520230C9A135501348D
:10249000BAE79C429FD21F2C00D881E720249AE7FC
:1024A0002B230C9A13550134AEE7202CACD00C9B97
:1024B0001B1901343AE0631E012C92D00F9A102AA6
:1024C0002AD0022A2FD01C00D0E7BB060ED4202C25
:1024D0009AD00C9B1A19013478231370C4E7BB06F9
:1024E0000DD478230C9A01241370BFE7202C00D15F
:1024F0008AE758220C9B1B191A700134B4E7582341
:102500000C9A01241370B1E70C9A60330124137004
:10251000ACE7202400265EE7023CBA06E9D40C9A18
:1025200012191C00D8E70C9A9246534462221A7082
:102530009AE7C04610B5002800D110BD02F0B6F9E8
:10254000FBE7C0460B0010B5002802D049681B68A5
:10255000984710BDF0B5DE4657464E464546E0B5B5
:102560009BB09B46249B89469846259B0B900C92DA
:102570004046424619009A4601F0BBFC002800D0B4
:10258000D9E0012240465146774B524201F0ACFC63
:10259000002800D0CFE0012240465146734B524202
:1025A00001F08CFC002800D0C5E00022002340464A
:1025B000514601F083FC002800D0B9E14246534661
:1025C0000A9209938023289ADB001A400E92289AD7
:1025D0001A4201D1062326930A9A099B1600134337
:1025E00000D0C7E0289B002500261B0500D49BE1F6
:1025F00000230D93269B19000D9B994200DC9EE160
:10260000C81A431E26938023289ADB001A4300230E
:10261000002728920D93279B0024BB4200D9DC1B86
:102620000223289A1A400E92289A134203D07B4222
:102630007B415B421C400D9B002B07D00A980999F7
:102640002A00330001F0D9FB0A90099100220023EF
:102650004046514601F032FC002805D0802000069B
:102660008446099961440991289A414B0B9D134076
:102670000493269B0A9A0293099B03940092019368
:1026800049465B4628000C9A00F08AF90400002FA6
:1026900062D0289B220098061F23C0179843631C12
:1026A000984649465B466530A8470D9B0025DA17DA
:1026B0009C18DB0F9A465440013F01E0202D13D0B7
:1026C0000AAA94461F23200063440A2101355E199B
:1026D00001F03EF93031317020000A2101F038F963
:1026E00026000400092EE9D805230693002304934D
:1026F0000A330393534605970B9F029312AB009343
:1027000042465B46494638000195FFF72DFE0E9B79
:102710000400002B20D00C9BC51A279BAB421BD971
:102720001E0022005B46494620200135B84701348F
:10273000AE42F6D810E0289B42460493279B4946B8
:102740000393269B0B9802935346009201935B469A
:102750000C9A00F025F9040020001BB0F0BCBB4629
:10276000B246A946A046F0BDFFFFEF7FFFFFEFFF97
:10277000FFF7FFFF734B099F9C467800400D6044B4
:1027800001F0CAFB704A714B01F055FB704A714B66
:1027900001F02AFB3B03704A1B0B1A4304000D0097
:1027A000300011006D4B002201F015FB6C4A6D4B9F
:1027B00001F041FB02000B002000290001F014FB96
:1027C00001F0C2FB0D9001F0A7FB674A674B0400C4
:1027D0000D0001F030FB0022654B01F005FB01F01C
:1027E000B3FB644A0600644B2000290001F023FB80
:1027F000040030000D000F9601F08EFB5F4A604B25
:1028000001F019FB02000B002000290001F0E3FA9F
:1028100002000B0006000F0001F00DFB3200040067
:102820000D003B003000390001F0DEFA002210906C
:102830001191544B2000290001F0DFFA0022524B85
:1028400001F0D2FA02000B002000290001F0D5FAB5
:1028500000224E4B01F0C8FA02000B0020002900B4
:1028600001F0CBFA0D008021320004003B00002073
:10287000C90501F0B0FA02000B002000290001F0A8
:10288000B3FA02000B001098119901F0B6FA002279
:10289000314B01F0A9FA3E4A0F9B94466344002253
:1028A0001B0501F0C8FA05000E0002000B000A9893
:1028B000099901F003FB00280AD00D9B2800013B79
:1028C00031000D930022304B01F097FA05000E0005
:1028D000C6270D992B0063318F42BF4128997F4253
:1028E0000437090500D496E6334300D182E6099CFB
:1028F000284A2100284B0A9801F0EEFA002808D057
:1029000000222100254B0A9801F0D8FA002800D0B7
:1029100070E6269B002B00D17DE60E9B5A1E93414C
:10292000269AD31A269376E6002304270D9372E69F
:1029300043460A9380231B065344099342E600232F
:10294000269360E601FCFFFFFB799F501344D33FC1
:10295000B3C8608B288AC63F0000F03F0000F83FF4
:1029600061436F63A787D23F71A379094F930A40F0
:102970000000E03F1655B5BBB16B0240EF39FAFEDF
:10298000422EE63F00002C4000002440000018408A
:10299000FF0300002D431CEBE2361A3F80842E41DA
:1029A000F0B54E46DE4657464546E0B597B09946E7
:1029B000209E219F229B8346984607910C923B00C4
:1029C00032003000390001F094FA002800D0A9E16B
:1029D000012230003900CA4B524201F06FFA002840
:1029E00000D0E1E0012230003900C64B524201F034
:1029F0007BFA002800D0B7E0002230003900C24B3B
:102A000001F072FA002800D099E00022300039006D
:102A1000BE4B01F053FA002800D090E000220023C2
:102A20003000390001F04AFA002800D0B1E000235C
:102A30000D93249B5B0501D40623984608AB9C4666
:102A40001722002430234146624404E00134135528
:102A50000139202C01D00929F8D8884630003900E6
:102A600001F072FA4346DA00A94B05009B181A6878
:102A70005B680892099301F04FFA02000B003000E6
:102A8000390001F0A8F9089A099B01F0D4F90A90DD
:102A90000B9101F07DFA824601F03AFA02000B0038
:102AA0000A980B9901F097F900229A4B0A900B9122
:102AB00001F01AFA002800D1C0E001239C46E2444C
:102AC000504601F025FA02000B000898099901F020
:102AD000FBF9002802D000239A4601354346002B1B
:102AE0006AD008AB17269C4608956644554614E004
:102AF00001235B4243440A2128009A4600F028FF44
:102B0000013430313719397028000A2100F020FFD4
:102B1000092D00D8D0E0D0460500202CE8D10EAB1E
:102B200098460323249A1340012B00D196E02023DA
:102B3000249A01930392239A434602921EE0249B17
:102B400058460493239B00960197039343460C9A9F
:102B5000029307994B46FFF7FDFC17B0F0BCBB464C
:102B6000B246A946A046F0BD249B5B070ED40322C3
:102B7000694B24990192039123990291009358463D
:102B80004B460C9A0799FFF7A1FBE6E70422634B3B
:102B9000EFE73B0032000020002101F01CF9012387
:102BA00006000F000D9344E7249B0393239B02939D
:102BB000042301935A4BE1E7280001F0ADF902002C
:102BC0000B003000390001F006F9524B00220600DC
:102BD0000F0001F073F90EAB984600280AD10022CD
:102BE000300039004B4B01F07FF9002802D1EB0790
:102BF00000D50135202C94D008AA9446172328002C
:102C000063440A2101341E1900F07AFE3031280095
:102C100031700A2100F074FE051EEBD10323249AC3
:102C20001340012B1BD0202C00D180E70D9B002BE3
:102C300035D02D224146631C0A5579E700220A98B7
:102C40000B99344B01F03AF9002800D046E753467F
:102C5000002B51D101239C46E2443FE72024239BD3
:102C6000002BE0D00D9B002B03D1249A0C33134290
:102C700002D0239B013B2393239BA342D3D908ABD0
:102C80009C46172230236244202C00D14FE7239921
:102C9000013413558C42C6D0202CF8D147E7249B31
:102CA0005B0724D4249A2300120700D440E7202293
:102CB000414601330A553BE75746089D202C00D179
:102CC0002DE7220030214046002F09D00132B154B7
:102CD000202A00D123E7D3431B191B18002BF5D161
:102CE0000EAB98462E234146541C8B5482E72B2270
:102CF0004146631C0A551BE7DB0700D4EEE6A9E753
:102D0000FFFFEFFFFFFFEF7F65CDCD4165CDCDC16B
:102D1000589600100000E03F60940010649400108A
:102D200070940010249B0393239B0293032301932D
:102D3000004B23E76C940010F0B5DE464E46574634
:102D40004546E0B59FB01C00289B91460993C94AAF
:102D5000C94B8B4608901A60002900D118E2002365
:102D600020789A46002800D11AE226001D005C4611
:102D70000AE02A006F1C4B46089D2100A8473D0031
:102D800001363078002870D02528F2D110239B46D8
:102D9000083B9A46043B9846023B00219C46721C25
:102DA000107816000300203BDBB2102B03D8B34F82
:102DB0009B00FB589F460300303B092B32D9002370
:102DC0000A932A2868D0002398462E283ED0030074
:102DD000683BDBB2122B1CD8A94A9B00D3589F46F4
:102DE000012301321943DBE7634601321943D7E778
:102DF000434601321943D3E75B4601321943CFE71B
:102E0000534601321943CBE780235B0070781943A6
:102E100001360300253BDBB2532BAAD8994A9B000D
:102E2000D3589F4600270300B800C0190136400060
:102E3000C018337830381A00303A0700092AF3D91D
:102E40000A901800002398462E28C0D1802370785D
:102E5000DB0019430300303B721C092B00D8A1E1B1
:102E60002A2800D1B2E11600B1E7A346AA462C00F9
:102E7000D14503D801235B424B449A464B46524608
:102E800059460020089DA84720001FB0F0BCBB4653
:102E9000B246A946A046F0BD099B40CB0A96002E3B
:102EA00003DB50780993561C8DE7283801437042A4
:102EB0000A9009935078561C85E7782800D1DFE105
:102EC000582800D14CE26F2800D14FE3622801D18D
:102ED00000F030FC10230A009A430B92692801D0BD
:102EE00000F0A9FC0A230C934B0500D5D0E10B9A06
:102EF000802311009B0019408B461A4200D0A1E2AA
:102F0000802311005B0019408A461A4200D0B6E3C4
:102F100013005B0600D5EDE2130009991B0601D4EE
:102F200000F076FC08C91BB2D8171A18424092B2BA
:102F300009919346DA0F1292002B09D180231022B7
:102F40000B99DB000B4091430B91002B00D0E4E286
:102F50000B9A6123920600D541230EA91F228C46AD
:102F6000DBB262440A3B5F461395A34655460C9C70
:102F7000B2460D9316000AE03033DBB201357355CB
:102F8000A74200D2EDE2202D00D1EAE207002100A5
:102F9000380000F0DDFCCBB20929EDD90D9A94463A
:102FA0006344DBB2EAE780239B0070781943013663
:102FB0002FE77078682800D1CDE1802301361943CE
:102FC00027E770786C2800D1BFE180235B001943AC
:102FD00001361EE7462800D19BE10722099B049198
:102FE000073393430A9A19000392424602920CC98E
:102FF00008980092019309912A004B462100FFF79F
:10300000CFFC01360500BCE62A006F1C4B46089D2C
:1030100021002520A84701363D00B2E68B0700D4E9
:10302000ADE1099B2A009A466B1C9846534601CB9A
:1030300021009A46089F4B46C0B2B8470A9B9C465F
:103040006544012B00D886E2089B4746B04626001F
:103050004C4699463A002300013731002020C847EA
:10306000AF42F7D1A1465346340046460993013694
:1030700087E6C046392D001080200020789400108B
:10308000BC94001008950010099B04CB9B46434656
:103090000992002B00D1C6E013789C46002B00D18A
:1030A000BDE34346013B099A0133D0180A9F130040
:1030B00001E0834203D05A780133002AF9D1099AFA
:1030C0000A979B1A0B9380230A00DB001A400C928C
:1030D000194204D00B9B434501D943460B9302236D
:1030E0001A000A400D920B4200D187E16046002889
:1030F00000D168E10C9B002B00D10DE1A844C24631
:10310000099B57465B1B9846089BB2462A0026003F
:103110004C46994609E023003100551CC8474346F8
:10312000585D002800D126E12A009742F3D1A1463C
:103130003D00340056460D9B002B00D043E15B461A
:10314000013609931DE6099B1A0008CA9246002B16
:1031500048D0212211438B460EA884461F2161448A
:10316000099500220F27A4460D0002E0202A0CD06A
:103170000B003C001C4020003730092C00D80738D9
:103180000132A85419090F2BF0D86446099D32E08A
:10319000DC4B2078089300239A46002800D0E4E511
:1031A000002465E6434606000A9F9800C0180132D5
:1031B000400080191678030030003038303B092871
:1031C000F3D93000984616000A9700E6099B0236AC
:1031D00004CB9046D2434046D21710408046099314
:1031E0003078F4E5102208009043113210438346F2
:1031F00000224905B0D55B46069308230593434654
:103200000493102303930023029316AB01920093BF
:103210002A004B4621000898FFF7A6F85346050000
:1032200001360993ADE513789C46002B00D1F7E2F7
:1032300002235B4237E7202302009A43472A04D146
:1032400080231B01194302239843452801D12023E1
:1032500019430722099B0491073393430A9A1900E3
:103260000392424602920CC9089800920193099178
:103270002A004B462100FFF76DF90136050080E575
:1032800010230C930C230A009A430B924B0503D591
:1032900001230B9A9A430B92692800D127E66428F0
:1032A00000D124E60B9A802311009B0019408B4625
:1032B0001A4200D066E1802311005B0019408A4663
:1032C0001A4200D039E213005B0600D53CE113003E
:1032D0001B0600D4A6E2099B04CB1204120C9346F1
:1032E00009935B46002B00D09AE10B9A1033110032
:1032F00099430B91520500D492E100239A460B9B0F
:1033000006930A9B0593434604930C9B0393002367
:103310000CE12023194360E6099B0A9A5B1B98463F
:103320004B4691461F00B2462600089C2A003B00EF
:103330003100A04743460135585D0028F6D14A4682
:103340003400B94656460A92F5E6C0239B00B07891
:10335000194302365DE5C023B0781943023658E5BB
:103360000C230A009A4314331A43103B0B920C931C
:103370004B058DD496E7A14634005646DBE60A9A03
:10338000012A00D853E26B1E9F18089BB046260006
:103390004C4699462A002300013531002020C847B9
:1033A000BD42F7D1A14634004646099B3A0001CB05
:1033B000210098467D1C4B46089FC0B2B847434643
:1033C00001360993DDE40B9B0A99A846994200D87F
:1033D000B5E68C466544ED1A089B4746B046260084
:1033E0004C4699463A002300013731002020C84757
:1033F000AF42F7D1A14634004646A0E60B9A0A98A0
:10340000531C904200D814E243199B1A1F00089BDA
:10341000B24626004C4699462A0023000135310069
:103420002020C847BD42F7D10A9BA14601330B9328
:10343000099B34001B7856469C466046002800D005
:1034400058E67CE60722099B0733934301329446F2
:103450009C4462465F6809921A68FB1710931193A7
:1034600010981199030053400E930B007B400F936B
:1034700094460E9A0F9B121A8B410E920F93FB0FDC
:103480006246129300233A439B463DD00B9A612338
:10349000920600D541230022DBB20EA90A3B8C46DE
:1034A00092460D9343461F32624413951596554636
:1034B0000E9E0F9FA24690460C9C14930CE0303257
:1034C000D2B2434601355A55BB4500D18AE1202D81
:1034D00000D18AE106000F002200002330003900ED
:1034E00000F078FAD2B2092AE9D90D9B9C466244D1
:1034F000D2B2E6E7FF23099904C913401A000991E3
:1035000017E5C046C92200100B9A103311009943E9
:103510000B915205BAD500239A460B9B06930A9B42
:103520000593434604930C9B0393129B02935346CB
:10353000019316AB2A00009321004B460898FEF732
:1035400013FF013605001CE4FF22099B02CB11404A
:103550008B460993C5E65346454609930136FFF766
:1035600010FC56465C46AA46139DD6E708230C93EA
:103570000B910B99642800D084E60B9B5B0500D56A
:1035800086E6B4E40722099B07339343013294464D
:103590009C44624609921A685B6810009B461300BF
:1035A0005A46134307D10B9A1033110099430B91DC
:1035B000520500D5A1E60B9A6123920600D541235E
:1035C0000022DBB20EA90A3B8C4692460D9343467D
:1035D0001F3262445F461295A34655460400B24628
:1035E00090460C9E13930DE03032D2B24346013523
:1035F0005A550023BB4200D100E1202D00D100E14B
:1036000004000F00320000232000390000F0E2F92E
:10361000D2B2092AE8D90D9B9C466244D2B2E5E7B2
:103620000B9A6123920600D54123DBB20EA90A3B17
:103630001F228C460D93230062445C4612951700AE
:1036400055469B46B2460C9E08E03033DBB201354E
:103650007B55B4420ED3202D0CD004003100200045
:1036600000F076F9CBB20929EFD90D9A944663445C
:10367000DBB2ECE756465C46AA46129D3FE6099B44
:103680001A0008CAD91713925A184A409246DA0FFC
:103690001292002B08D1802310220B99DB000B40E3
:1036A00091430B91002B2BD10B9A6123920600D5ED
:1036B00041230EAA1F279446DBB20A3B0D956744AF
:1036C0005D460993A3465446B2460C9E08E030334B
:1036D000DBB201357B55B4420ED3202D0CD0040053
:1036E0003100200000F034F9CBB20929EFD9099A52
:1036F00094466344DBB2ECE756465C46AB460D9D10
:103700000B9B2A0006930A9B2100059343460493D2
:103710000C9B08980393129B013602935B4601931E
:1037200016AB00934B46FEF71FFE139B0500099353
:10373000FFF727FB02230C931AE7099B04CB924661
:103740001293002A08D1802310220B99DB000B4032
:1037500091430B91002B2BD10B9A6123920600D53C
:1037600041230EAA1F279446DBB20A3B0D956744FE
:103770005D460993A3465446B2460C9E08E030339A
:10378000DBB201357B55B4420ED3202D0CD00400A2
:103790003100200000F0DCF8CBB20929EFD9099AFA
:1037A00094466344DBB2ECE756465C46AB460D9D5F
:1037B0000B9B2A0006930A9B210005934346049322
:1037C0000C9B08980393002302935B46019316AB6E
:1037D00000934B46FEF7C8FD129B05000993013686
:1037E000FFF7CFFAB44200D871E6149B54460E9608
:1037F0000F97AA469846159E139D8EE6A64200D8BE
:10380000FBE6139B56469846AA465C46129D76E513
:1038100008C9D8171A1842400991FFF78AFB0023FC
:103820000B9350E4099B04CB9346099359E52F0071
:10383000BBE50B9301E6063B0C939AE600B585B019
:103840000391012102900093034813004A4202A908
:10385000FFF772FA05B000BD4525001010B5094A02
:103860000300146884B0002C08D00122009106489F
:10387000524203A9A047012004B010BD01F066F830
:103880000020F9E7802000203525001001480421A0
:10389000014B184710030020BD380010142310B549
:1038A0000100188804331B88984710BD162310B5F3
:1038B0000100188802331B88984710BDF8B54746A9
:1038C000CE4680B50F1E19D0142399460433040048
:1038D0000025012698464B461888434621681B88D8
:1038E000984701C4431E9841013540420640AF420B
:1038F000F1D13000C0BCB946B046F8BD0126F8E7AA
:10390000124A936F9B0815D29066D166002905D0A4
:10391000FFE7FFE7FFE7516F106F704704B58021A5
:103920000906C2175140002800D0C84305F088FBA3
:10393000002104BDF0B5146E556E576F166FFFF77A
:10394000E3FF1466556657671667F0BD000000D0A8
:10395000114A936F9B0813D210665166002905D057
:10396000FFE7FFE7FFE7516F106F704704B50028CE
:1039700001D00020C04305F063FB002104BDC04618
:10398000F0B5146E556E576F166FFFF7E5FF1466AE
:10399000556657671667F0BD000000D094464E4A42
:1039A000926F9208624601D230E0C046F0B54A4EAE
:1039B000B56F6D08FCD3346E756E776F366F00F09F
:1039C00025F89446444A146655665767166762465A
:1039D000F0BDC0469446404A926F9208624601D2BA
:1039E00058E0C046F0B53C4EB56F6D08FCD3346E60
:1039F000756E776F366F00F04DF89446364A146650
:103A00005566576716676246F0BDC046002B24DB3B
:103A100011D000293EDA00B5C943404200D101313E
:103A200000F038F8C943404200D10131DB43524233
:103A300000D1013300BD002AEBD1002801D10029BB
:103A400005D00020C90FC90701D1C043410800B506
:103A500005F0EEFA0022002300BD00B500290ADBC4
:103A6000DB43524200D1013300F014F8C943404215
:103A700000D1013100BDC943404200D10131DB43D7
:103A8000524200D1013300F005F8DB43524200D12D
:103A9000013300BD002923D1002B18D1002A0CD0FE
:103AA000BC460D4F38667A6600210023FFE7FFE72A
:103AB000FFE77A6F386F67467047002801D00748E4
:103AC000010000B505F0B4FA0022002300BD020099
:103AD0000B00002000217047000000D0FFFFFFFF17
:103AE000002B00D0BFE0130C28D1002AE7D080B40F
:103AF000114F39667A66FFE7FFE730B4040C7B6F3D
:103B0000396F1B0423433B667A66FFE7FFE7FFE755
:103B1000C04684B27B6F3D6F1B0423433B667A66CD
:103B2000FFE7FFE7C04600232C042D0C7A6F386FA7
:103B300000196941B0BC7047000000D0F0B5944650
:103B40000025140E01D112020835140F01D1120103
:103B50000435940F01D192000235D40F01D15200E7
:103B60000135D40B0134254F7C66254C3C660E0C88
:103B700093B2FFE7FFE7FFE73C6F6643360C77033E
:103B8000BE467343DF0B5B04C01AB941130C734389
:103B9000DB18C91ACE086643360CB64493B2734399
:103BA0001F0F1B01C01AB941130C73431F0B1B05D8
:103BB000C01AB941860D8F023E436643360C092D6B
:103BC00024DB520A7243801A7703460A6643360C96
:103BD00016235B1BDE40DF40BF1964466643821B31
:103BE0007046043506330100D940A840C01900D3FF
:103BF0000131A24206D20023F0BD0000000000D037
:103C0000FFFFFFFF121B0130F3D3F1E709277F1BF2
:103C1000FE406446A2B27243801A00D20139220CDF
:103C20007243130C1204821A99410B00704604353A
:103C300013370100F940A840801900D30131002B4F
:103C400002D1A2420AD2F0BD013000D30131121BD1
:103C5000FAD2013BF8D1A24200D2F0BD013000D32C
:103C60000131121BF7E7F0B51C0C00D080E00CB45A
:103C700000251C0A04D11B02160E3343120208351C
:103C80001C0B04D11B01160F3343120104359C0B8E
:103C900004D19B00960F334392000235DC0B02D116
:103CA00092185B4101351C00971864410134464F5E
:103CB0007C66464C3C660E0CFFE7FFE7FFE7C0461C
:103CC0003C6F6643360C7703BE4697B27743C01B02
:103CD00000D20139C01B00D201399FB27743C91B02
:103CE000C91B170C77437E04FF0B801BB941CE081C
:103CF0006643360C0C2D33DBB644120B1F053A43DA
:103D00001B0B97B27743C01B00D201399FB2774398
:103D1000C91B170C77433E043F0C801BB941860D2D
:103D20008F023E43664329277F1BFE400C3D7746AA
:103D3000AF40BF1930BCA2B2ABB272437343801A1A
:103D40009941220C7243130C1204801A994102000B
:103D50000B000137001BA941F9D2781E0021F0BDEC
:103D60000C277F1BFE4077467F0BAF40FF19E0E733
:103D700000245D1C07D0144F7D663966FFE7FFE71E
:103D8000FFE7FFE73C6F95B29EB265436643401B79
:103D9000B141150C1E0C6543664336042F0C3E439F
:103DA0002D04401BB141994204D202000B002000B7
:103DB0000021F0BD01D19042F7D3801A994101341E
:103DC0009942F2D3F6E70000000000D0FFFFFFFFAA
:103DD00048404140484018B41B4B5B68FC46019387
:103DE00008BD04DF6F40001018B4174B1B68FC4679
:103DF000019308BD00DF794000109446134A926F8A
:103E0000920809D2624618B40F4BDB68FC46019356
:103E100008BD0CDF314300100C4AF0B5146E556E2E
:103E2000576F166F6246FFF7EEFF084A1466556635
:103E300057671667F0BD18B4034B9B68FC460193A7
:103E400008BD08DFD5410010D00C0020000000D0D4
:103E5000FFB550404240504059404B40594000E06F
:103E6000FFB5154F4C00640D03D0BC4204D10C03C8
:103E700014D80020090D09055C00640D03D0BC4274
:103E800004D11C030AD800221B0D1B0501264B4040
:103E900009D44B4003D58B4200D18242FFBD9942E9
:103EA000FCD19042FFBD0B43DB1803431343F5D015
:103EB000C9434918FFBD0000FF07000000B5FFF728
:103EC000CFFF804100BDC04600B5FFF7C9FF01D953
:103ED000002000BD012000BD00B5FFF7B9FF01D9EA
:103EE000002000BD012000BD00B5FFF7B1FF8041FB
:103EF00000BD012040054A00121804D85A001218CB
:103F000001D8002070470120704700207047000052
:103F10000021002805D17047C1174840401AFAD047
:103F2000C90713B5064B1B6898470CBC441CA2403C
:103F30001005120B0349091B09051943114310BD54
:103F4000DC2000201F04000010B54C00620D80230F
:103F5000D218DB00D21A5B057E2A10DD9E3A13DAF6
:103F6000CC170903490819435242D1406400013477
:103F70001532202A05DAD0400843604310BD0020E6
:103F800010BD0846604310BDC80FC018013810BDF1
:103F900018B4044B5B6AFC46019308BD24DFE1447E
:103FA00000100000D00C0020132370B51D78012DE7
:103FB00015D010DD1C48FFF779FC1C4C0100802255
:103FC000200000F05BFB022D06D01948FFF766FCCD
:103FD000184B186070BD154C174BA364F5E7164BD2
:103FE000124C23606360A360E36023616361A3619B
:103FF000E36123626362A362E36223636363A36397
:10400000E36323646364A364E36423656365A36576
:10401000E36523666366A366E36623676367A36756
:10402000E367A364D1E7C04653440000D00C0020EE
:104030004C330000DC2000203D40001007B56046F6
:1040400001880A0A0230DF2AFAD1C9B2820804D3F1
:10405000028840880004104300E00068014A505084
:10406000039007BDD00C00200FB403BC0CBCF0B50E
:104070000124E407634000E0F0B50C0DCF0F661E8D
:104080003605891B640503D3C943404200D301317F
:10409000640D03D0661CF60A07D0E41B00207F00E5
:1040A000791C89078912803C24031D0DDF0F6E1EC9
:1040B00036059B1B6D0503D3DB43524200D301330E
:1040C0006D0D03D06E1CF60A07D0ED1B00227F0099
:1040D0007B1C9B079B12803D2D032F1B661B58D416
:1040E000A446202E46DA20371400BC401D00BD40F7
:1040F000F24033412A4380185941CB0F05D0C943C0
:10410000C043002264425041514162464D0D28D1C6
:104110000D0D07D100281FD0241940414941013A13
:104120000D0DF9D0640006D3013000D30131002C0D
:1041300001D140084000013A0BD4941CE40A04D198
:1041400012051144DB071944F0BDD907204B194370
:1041500000E0D9070020F0BD0029DDD1002CDBD123
:10416000F0BD0132C6074008CD0728434908002E9C
:10417000E1D0D9E73C2E29DA203E40371400BC407C
:1041800000D00124F24014431A00BB401C43D31753
:10419000ACE7AC46202F08DA20360400B4400D000E
:1041A000B540F84039412843A5E73C2F0CDA203FC1
:1041B00040360400B44000D00124F8400443080015
:1041C000B1400C43C117EAE710001900002494E73E
:1041D0000000F07FF0B50C0D661E3605891BE60A5F
:1041E0006405640D02D0651CED0A04D00020012195
:1041F0000905803C2403A4461C0D671E3F05DB1BFC
:10420000E70A6405640D02D0651CED0A04D00022A3
:1042100001231B05803C24037740644497B484B297
:1042200096B27443070C7E43150C6F4380B268430B
:10423000361802D3012000043F183004350C001951
:104240007D41844688B29AB250430C0C62431F0CE5
:104250007C438EB27E43921902D301263604A41900
:104260001604170C3618674101BC81B29AB251434B
:10427000040C62431B0C5C4380B25843121802D3F7
:104280000120000424181004130C401863412D1859
:104290005E410020474106BC88B293B258430C0CE3
:1042A0006343120C544389B251435B1802D301217A
:1042B0000904641819041A0C091862416D18564152
:1042C0000020474118BCF902720D1143F0026A0D3B
:1042D0001043ED020A0D03D16D1940414941013BE4
:1042E000124E9B1B7600B3420ED26D0007D30130F5
:1042F000002671416646354301D1400840001B0548
:10430000C918E4072144F0BD0BDA013306D10130AE
:1043100004D101314F0D01D04908F2E7E107002037
:10432000F0BD013631050020EBE70000FF0300007F
:10433000F0B51C0D671E3F05DB1BE70A6405640D25
:1043400002D0661CF60A04D0002201231B05803C23
:104350002403D0252D060026F6432E661E096E6620
:10436000CE0FF619B44649004F0D02D07E1CF60A56
:1043700003D000200021403F3F033E1BB600B44461
:10438000013F7F05C91B49082E6F013676089C0244
:10439000950D25437543ED137543AD1301356D1030
:1043A000F603761B0CB4CC02450D2C43A2B2B3B27B
:1043B0005A43270C7B43350C6F43A4B26C431B1943
:1043C00002D3012424043F191C041D0CA4187D41B0
:1043D00024196D41009A91B2ACB26143170C7C4331
:1043E0002B0C5F4392B25A43A41802D30122120449
:1043F000BF182204230C52187B41019C6C431B19EB
:10440000520ED9010A434401A01A81B2B2B25143FB
:1044100003145A43360C734387B27743D617D21925
:1044200000277E4136049B191704160C7F185E4145
:104430007316ED18F301002680337541A90F06D1DC
:104440006400690AE8055B0A184309D22FE00422D8
:10445000944480337541A90AA8059B0A184326D3C2
:10446000404149412404009A019B0D005543641BBF
:104470004343E41A95B286B27543170C7E43030C8E
:104480005F4392B25A43B61802D301221204BF18F6
:104490003204330C52197B4152429C41002C02D40D
:1044A0000022013051414008CA071043490802B0B8
:1044B0006246D7079210084BD218084B9A4203D293
:1044C00012058918C919F0BD0020002A01DC390045
:1044D000F0BD01331905F5E7FD030000FE070000FC
:1044E000002200B5203200F004F8080000BD0000F2
:1044F00000220B150AD410B5944600F031F81414BC
:10450000013400DA0021CB17144C20470020002191
:1045100070476244343A0CD40C2A07DA0400914004
:10452000904052422032D440214310BDD843D94359
:1045300010BD203207D40C46944052422032114123
:10454000D040204310BD0800C917203203D4524286
:104550002032104110BD1800190010BD1345001085
:104560000A0DCC0F531E1B05C91A520503D3C943AC
:10457000404200D30131520D03D0531CDB0A07D057
:10458000121B00206400611C89078912803A120303
:10459000014BD21A70470000FF0300005143434310
:1045A000C9188C46110C83B24B4310B4040C614300
:1045B00092B280B2504362431C041B0C001910BC21
:1045C00059411304120CC018514161447047000056
:1045D000132310B512481C78FFF768F90100012C6D
:1045E0000AD003DD80220F4800F048F80E48FFF79C
:1045F00055F90E4B186010BD0A4C5422200000F0F3
:104600003DF80B4B6365A365E36523666366A366AC
:10461000E36623676367A367E3672362E361E5E714
:1046200053460000D00D00204C330000DC20002059
:104630003546001007B5604601880A0A0230DF2AB5
:10464000FAD1C9B2820804D302884088000410431A
:1046500000E00068014A5050039007BDD00D0020D3
:1046600001480421014B184720030020BD380010E9
:10467000014B1B681847000020030020014B5B68BA
:104680001847000020030020030010B508001100A7
:104690001B68984710BDC046F0B546464F46D64603
:1046A000C0B5437C80460E001700002B46D0002A80
:1046B0003FDD4B1E9946244B0125002400209A46DD
:1046C0000DE04B461B5D0D3B5A425341325DDBB260
:1046D0000A2A0BD02B00013401359F421ADD002C31
:1046E000EFD14346325D1B7C0A2AF3D1002BF1D176
:1046F000A04204DA4346211A1B6830189847434603
:1047000050461B6802219847013428002B000135D0
:104710009F42E4DC874204DD4346391A1B683018A7
:104720009847F619013E33780D3B5A4253414246B1
:104730001374E0BCBA46B146A846F0BD0368110048
:1047400030009847F5E7C04614970010F0B5C6460C
:104750000C000968060000B5802906D04B1C2360B8
:104760006418267180BCB846F0BD0F4B1D68002D43
:1047700016D0231D98460D4F02E0ED68002D0FD096
:104780002B68002BF9D03B68002B01D0AB42F4D151
:10479000280041462268FFF77FFFED68002DEFD12A
:1047A00001230021DBE7C046B81D002000200020C7
:1047B000F0B557464E464546DE461C00D023E0B5D0
:1047C0001B061F68344B83B006000D00180001A9BA
:1047D00091469A4604F03CFC8046002808D1019B93
:1047E0007FB29F4204D0504604F04AFC0123984611
:1047F0006B1C03D1300004F017FB0500002C27D1FF
:10480000264F274B1C68002C18D04B46002B21D17B
:10481000244B994602E0E468002C0FD02368002B5B
:10482000F9D04B461B68002B01D0A342F3D12000E6
:104830002A003100B847E468002CEFD14346002B32
:1048400025D103B0F0BCBB46B246A946A046F0BD98
:10485000154FD6E7134B99460A239B4602E0E468BE
:10486000002CEBD02368002BF9D04B461B68002BA3
:1048700001D0A342F3D12A0031002000B8475A46A4
:104880006B4620001A7101A90122B847E7E750469C
:1048900004F0C6FBD5E7C046B00B002099460010D7
:1048A000B81D00200020002089460010F0B5CE463B
:1048B000474680B583B06B46DE1CD02330701B06A4
:1048C0001C681F4B804601A91800994604F0C0FBE4
:1048D000071E20D01B4B1C68002C28D01A4D02E06C
:1048E000E468002C0FD02368002BF9D02B68002B34
:1048F00001D0A342F4D1200001223100FFF7CCFE09
:10490000E468002CEFD1002F11D1404603B0C0BCA9
:10491000B946B046F0BD019B64B29C420BD04846FC
:1049200004F0AEFB074B01271C68002CD6D148468B
:1049300004F076FBE9E7034B1C68002CCED1E4E7DA
:10494000B00B0020B81D00200020002070B504002E
:1049500004F06AFA00230100050001222000FFF79D
:1049600027FF084B1C68002C06D06368002B05D07D
:104970009847E468002CF8D1280070BDE468002C4A
:10498000F3D1F9E7B81D0020F0B54746D64680B50B
:1049900016000F0083B000282DD11C4B1C4D1A6847
:1049A0005B68019200931B4B9A461B4B98465346FB
:1049B0001C68002C03D114E0E468002C11D02B6893
:1049C000002B01D0A342F7D1A368002BF4D0310013
:1049D000380098470028EFDD03B0C0BCBA46B046A7
:1049E000F0BD434600995B6A994209D84246019856
:1049F000926A824202D301204042EDE79942FAD105
:104A000001200021FCF75AFED1E7C046189400109F
:104A100000200020B81D002000400540F0B54F46A2
:104A2000D6464646C0B501380D00170082B00128B1
:104A300042D8D0231B061C68214B01A918009A46B6
:104A400004F006FB8146002808D1019B64B29C4219
:104A500004D0504604F014FB01239946B8467B1C51
:104A600003D1280004F0E0F98046164B1C68002CA6
:104A700014D0154E02E0E468002C0FD02368002B00
:104A8000F9D03368002B01D0A342F4D12000424674
:104A90002900FFF701FEE468002CEFD14B46002B04
:104AA00006D1380002B0E0BCBA46B146A846F0BD17
:104AB000504604F0B5FAF4E701277F42F1E7C0461B
:104AC000B00B0020B81D0020002000200A4A136807
:104AD000002B05D10CE01A00DB680C32002B07D04C
:104AE0009842F8D1002902D1C3681360C1607047B1
:104AF0000029FCD01060FAE7B81D0020F0B5474649
:104B0000CE46D02380B51B061D682E4BA5B00700EE
:104B10000C00180003A9984604F09AFA061E07D163
:104B2000039B6DB29D4203D0404604F0A9FA0136C2
:104B30008422002103A8FFF79BFD23003A002248AE
:104B400003A9FEF77BFE039B0700002B14D11F4B2C
:104B50001C68002C06D06368002B0BD09847E468D3
:104B6000002CF8D1002E27D1380025B0C0BCB946A2
:104B7000B046F0BDE468ECE7144B1D689946002D83
:104B80001ED0134C02E0ED68002D11D02B68002BD5
:104B9000F9D02368002B01D0AB42F4D1039B28004D
:104BA0001A0004A90193FFF777FDED68002DEDD100
:104BB0004B4603951C68CCE7404604F031FAD3E736
:104BC0000395CFE7B00B00204D470010B81D002023
:104BD000002000200FB400B583B004A901C90191E1
:104BE000FFF78CFF03B008BC04B01847F0B50D1EEA
:104BF00015DD0E4B0D271A680D4B4519D318594278
:104C00004B410C495B005E5E20210478A64207D030
:104C100093691942FCD101301460A842F5D1F0BD6E
:104C200093691942FCD11760F2E7C04600210020C9
:104C30000080FCBFF820002030B504000D1E12DDFE
:104C400000201021094B013C1A689369194208D1D0
:104C5000013093691942FCD1136823548542F4D181
:104C600030BD0028FCD103204042F9E7002100209C
:104C700070B51C000A4B15001860FDF72BF8002DCD
:104C800003DB02212800FBF719FE002C03DB0221C5
:104C90002000FBF713FE01210248FFF717FF70BD4C
:104CA00000210020300300209823C34AF0B5D358D8
:104CB0004E469946DE465746454601234C464946F0
:104CC000E0B51C408DB00B4200D1D4E0136D9B05C4
:104CD0009B0F00D030E1802208A952008A800B810E
:104CE00009A8012104F0C4F9C0225121B34B92005C
:104CF0001A65B34B03919B46B24B08310493B24BF8
:104D000002910593B14B40390693B14B019108399B
:104D10008A4607934946412349229846AD4FAE4EF5
:104D2000AE4D383B490500D4C6E08022A34BAC48C9
:104D300092051A65C37F09AC9A4683780193818AEC
:104D4000884600F033FF082200212000FFF790FC86
:104D500002235146637063714346019AA170227128
:104D6000012120000B9304F083F90499B8460391C4
:104D700005993200029106995B46019107992C0032
:104D80008A464946C90600D49AE08B4B9D6D0123A3
:104D90002B4200D0DFE001239846884B03249B463A
:104DA000904E09AF07E04346A3402B4232D1023474
:104DB0002436212C54D0002D00D1C6E04246631E7B
:104DC0009A4013002A42EED095435A46300093652C
:104DD00000F08CFF0028E6D0F37FB278B18A300073
:104DE00004930592069100F0E1FE082200213800AC
:104DF000FFF73EFC02230699059A7B70049BB9607D
:104E0000BB70012138003A7104F032F94346A340E7
:104E10002B42CCD05A46300093659D4300F066FF8C
:104E20000028C4D0F37FB278B18A30000493059291
:104E3000069100F0BBFE082200213800FFF718FCA5
:104E400002230699059A7B70049BB9603800012102
:104E5000BB703A71023404F00BF92436212CAAD12C
:104E6000039B54469846029A019B002D28D02900A6
:104E70005D48FDF733F881235021DB009B46483322
:104E8000049303910833083105930291403B403964
:104E900006930191083B0839882789268A46802590
:104EA00007934946402348229846FF00F600383BC6
:104EB000ED00490500D538E74946C90600D564E745
:104EC000082649460E4222D0802002273B49C002D4
:104ED000086539499046C96C1C000F4217D04048FC
:104EE00009ADC37F86829A4683789B4600F05EFEBA
:104EF000002108222800FFF7BBFB5346AB705B463E
:104F0000012128006F702B71AE6004F0B1F84B46A0
:104F10005B060BD44B469B0646D44C453FD10DB0A7
:104F2000F0BCBB46B246A946A046F0BD8022234B4A
:104F3000120544461A65EDE7002308AA0121938073
:104F4000138109A804F094F8CEE6039B54469846D2
:104F5000029A019BB4E7224C9D43626820001268CC
:104F6000164A936500F0C2FE002800D113E7E37FE4
:104F7000A778A68A200009AC984600F017FE082200
:104F800000212000FFF774FB022363704346277162
:104F9000A370012120000B9604F06AF8FBE6494655
:104FA00012486140FCF79AFF8022044B1206104819
:104FB0001A65FCF793FFC0460000115000301150F5
:104FC0000904000051040000590400001904000005
:104FD0001104000041040000490400000104000025
:104FE000BC1D0020E01D0020189700104497001001
:104FF0003097001070B500F0B3FD0C230D4C0E4D32
:10500000A36729000520FBF767FE2900FF22052082
:10501000FBF770FD9022002192000848FFF728FB63
:1050200003232364064B074AE36490230120E250E4
:1050300070BDC04600001150A94C0010BC1D0020DE
:10504000008600207B0400007047C0467047C046C1
:10505000044B186DC0239B001840431E9841C0B2FA
:105060007047C04600001150064B10B5186D800502
:10507000800F012802D0022801D1002010BD024873
:10508000FCF72CFF000011505897001070B50D1E52
:105090004FD04323DC4CE35C8B4200D114E2672306
:1050A000E35CAB4200D1F3E18B23E35CAB4200D184
:1050B000D2E1AF23E35CAB4200D1AFE1D323E35CA9
:1050C000AB4200D181E1F723E35CAB4200D15EE16A
:1050D0001C23FF33E35CAB4200D138E14023FF33B4
:1050E000E35CAB4200D110E16423FF33E35CAB42ED
:1050F00000D1E8E08823FF33E35CAB4200D1C0E09D
:10510000AC23FF33E35CAB4200D198E0D023FF3304
:10511000E35CAB4200D170E0F423FF33E35CAB42CD
:105120004AD0BA4BE35CAB4225D0B94BE35CAB420F
:1051300000D070BD87239B00E25C002AF9D08F224B
:1051400001219200A25C501C8140B248920041654E
:10515000B1498C46002162445160E1540433E35864
:10516000196089239B00E358196087239B00E0188E
:1051700000F01CFDDDE7FC235B00E25C002AD4D0DC
:10518000862201219200A25C501C8140A14892001D
:105190004165A14920008C46002162445160E154E0
:1051A0000433E358F930196080239B00E358FF3043
:1051B000196000F0FBFCB8E7EA235B00E25C002A20
:1051C000AFD0FA2201215200A25C501C81409148CC
:1051D00092004165904920008C4600216244516054
:1051E000E1540433E358D5301960EE235B00E358F3
:1051F000FF30196000F0DAFC93E7D8235B00E25C33
:10520000002A00D188E7E82201215200A25C501C4C
:1052100081408048920041657F4920008C460021F2
:1052200062445160E1540433E358B1301960DC2327
:105230005B00E358FF30196000F0B8FC6CE7C62350
:105240005B00E25C002A00D160E7D6220121520017
:10525000A25C501C81406F48920041656E4920005D
:105260008C46002162445160E1540433E3588D3090
:105270001960CA235B00E358FF30196000F096FC08
:1052800044E7B4235B00E25C002A00D138E7C42283
:1052900001215200A25C501C81405E489200416591
:1052A0005D4920008C46002162445160E154043382
:1052B000E35869301960B8235B00E358FF30196088
:1052C00000F074FC1CE7A2235B00E25C002A00D122
:1052D00010E7B22201215200A25C501C81404D48CF
:1052E000920041654C4920008C4600216244516087
:1052F000E1540433E35845301960A6235B00E358BA
:10530000FF30196000F052FCF4E690235B00E25C91
:10531000002A00D1E8E6A02201215200A25C501C24
:1053200081403C48920041653B4920008C46002169
:1053300062445160E1540433E358213019609423EE
:105340005B00E358FF30196000F030FCCCE6FC2332
:10535000E25C002A00D1C1E68E2201215200A25C4B
:10536000501C81402B48920041652B4920008C46FF
:10537000002162445160E1540433E358FC30196069
:1053800082235B00E358196000F010FCA6E6D823E6
:10539000E25C002A00D19BE6F8220121A25C501CAD
:1053A00081401C48920041651B4920008C46002129
:1053B00062445160E1540433E358D8301960E0236B
:1053C000E358196000F0F2FB82E6B423E25C002AA5
:1053D00000D178E6D4220121A25C501C81400D4806
:1053E000920041650C4920008C46002162445160C6
:1053F000E1540433E358B4301960BC23E358196016
:1054000000F0D4FB5FE6C046BC1D00201702000080
:105410003B02000000301150000011509023E25C6C
:10542000002A00D14AE6B0220121A25C501C814032
:10543000334892004165334920008C460021624484
:105440005160E1540433E358903019609823E358D5
:10545000196000F0ABFB31E66C23E25C002A00D15E
:1054600027E68C220121A25C501C81402448920036
:105470004165244920008C46002162445160E1547A
:10548000236F6C301960636F196000F08FFB10E6BA
:105490004823E25C002A00D106E668220121A25CD2
:1054A000501C8140164892004165164920008C46E8
:1054B000002162445160E154E36C48301960236D6F
:1054C000196000F073FBEFE52423E25C002A00D1B1
:1054D000E5E544220121A25C501C8140084892006D
:1054E0004165084920008C46002162445160E15426
:1054F000A36A24301960E36A196000F057FBCEE517
:10550000003011500000115010B501210520FBF7AB
:10551000ADFA10BDF0B5DE4657464E464546E0B5FD
:10552000D37808009B07990F83B08C460191002B1C
:105530006ED024247B4B1C5D002C00D1CBE0482492
:105540001C5D002C00D1D0E06C241C5D002C00D12F
:10555000CDE090241C5D002C00D1CAE0B4241C5D79
:10556000002C00D1C7E0D8241C5D002C00D1C4E081
:10557000FC241C5D002C00D1C1E0902464001C5D63
:10558000002C00D1BDE0A22464001C5D002C00D1E1
:10559000B9E0B42464001C5D002C00D1B5E0C62441
:1055A00064001C5D002C00D1B1E0D82464001C5DB7
:1055B000002C00D1ADE0EA2464001C5D002C00D179
:1055C000A9E0FC2464001C5D002C00D1A5E0872428
:1055D000A4001C5D0F27002C00D17DE08F240F2735
:1055E000A4001D5DC53CFF3C4F49EE00E41977184F
:1055F0004E49A40088464E49464488461C19A76077
:10560000AD014C4F45446F40B8466660E5600AE026
:10561000C021444B484C49009C60484C8846DC60A3
:105620001C00474E5E6015799778A9464946557922
:1056300092792D020D43F9098A46617061466D0524
:105640006D0DA5834546A1770199914689062943A9
:105650007F22A0253A402D06A77029435742574183
:105660004D46E077E770002D03D04D46013D2D04F7
:1056700029433160012121709C4224D053461604F5
:105680000643002B02D180239B041E432D4B1D6D2E
:10569000AD05AD0F012D02D0022D40D1002501F046
:1056A00055F9A84202D08023DB041E43202325495C
:1056B000E35C8C469A0062445660012201339A40B2
:1056C0001300214A5365012003B0F0BCBB46B2462B
:1056D000A946A046F0BD0127FC00E619B6007D1ED4
:1056E0009E19EDB2203635707EE70227F4E70327D6
:1056F000F2E70427F0E70527EEE70627ECE70727A0
:10570000EAE70827E8E70927E6E70A27E4E70B279F
:10571000E2E70C27E0E70D27DEE70E27DCE70B4882
:10572000FCF7DCFBBC1D0020880010500800105066
:1057300000021050000010508000105080011050E6
:105740000001105000001150002011505897001017
:10575000F0B54F46D6464646C0B5984608AB1B88BE
:105760000D009A467F231F00D1098946C24C17407D
:10577000134200D19BE05B3BE35C002B04D043234E
:10578000E35CAB4200D1FCE04823E35C002B04D097
:105790006723E35CAB4200D1FAE06C23E35C002BAF
:1057A00004D08B23E35CAB4200D1F8E09023E35CB0
:1057B000002B04D0AF23E35CAB4200D1FDE0B42367
:1057C000E35C002B04D0D323E35CAB4200D1FBE0CD
:1057D000D823E35C002B04D0F723E35CAB4200D179
:1057E000F9E0FC23E35C002B05D01C23FF33E35CD2
:1057F000AB4200D1F6E090235B00E35C002B05D0C8
:105800004023FF33E35CAB4200D1F2E0A2235B0014
:10581000E35C002B05D06423FF33E35CAB4200D193
:10582000EFE0B4235B00E35C002B05D08823FF335B
:10583000E35CAB4200D1ECE0C6235B00E35C002BF1
:1058400005D0AC23FF33E35CAB4200D1E9E0D823C1
:105850005B00E35C002B05D0D023FF33E35CAB425D
:1058600000D1E6E0EA235B00E35C002B05D0F423E3
:10587000FF33E35CAB4200D1E3E0FC235B00E35C7D
:10588000002B04D07D4BE35CAB4200D1E1E08723E9
:105890009B00E05C002805D0794B0020E35CAB4224
:1058A00000D1DEE0E0BCBA46B146A846F0BDA37820
:1058B0002600934243D04B46B27073707B427B41CB
:1058C000F268F3706F4BB17F5340A0228906120635
:1058D0000B4313437268F577136001233370A642BC
:1058E0002DD04B463F042F43002B02D180239B0435
:1058F0001F43654B1C6DA405A40F012C03D0022C83
:1059000000D0B5E00024280001F020F8A04202D029
:105910008023DB041F4320235B49F35C8C469A0001
:1059200062445760012201339A401300574A53657D
:1059300030005246414600F03FF90120B2E752469E
:105940002000414600F038F94A469600504A4E4B36
:1059500094463F042F431F601C6D6644A405A40FAA
:10596000012C03D0022C00D082E00024280000F09B
:10597000EDFFA04201D040231E43434B0120DE64D3
:1059800090E72623E35C934200D0FDE601230CE080
:105990004A23E35C934200D0FFE6022305E06E2336
:1059A000E35C934200D001E70323DE00F618B60063
:1059B000A619B3789342BBD07DE79223E35C934270
:1059C00000D0FCE60423F0E7B623E35C934200D06A
:1059D000FEE60523E9E7DA23E35C934200D000E723
:1059E0000623E2E7FE23E35C934200D003E70723AC
:1059F000DBE791235B00E35C934200D006E70823DA
:105A0000D3E7A3235B00E35C934200D009E70923BB
:105A1000CBE7B5235B00E35C934200D00CE70A239D
:105A2000C3E7C7235B00E35C934200D00FE70B237F
:105A3000BBE7D9235B00E35C934200D012E70C2361
:105A4000B3E7EB235B00E35C934200D015E70D2343
:105A5000ABE7FD235B00E35C934200D017E70E2326
:105A6000A3E70C4BE35C934200D01BE70F239CE7BA
:105A70000948FCF733FAC046BC1D0020170200009D
:105A80003B02000000001050000011500020115097
:105A9000058600201E0200005897001010B5204B0C
:105AA0000800117880241970517864005970917839
:105AB0009970D178D9701179197151795971917999
:105AC0009971D2791749DA71174B184AD9600021B8
:105AD0009A605970164A997716495C805A60D8774F
