:020000041000EA
:1000000000B5324B212058609868022188439860DF
:10001000D860186158612E4B002199600221596106
:100020000121F02299502B49196001219960352056
:1000300000F044F80222904214D00621196600F024
:1000400034F8196E01211966002018661A6600F04E
:100050002CF8196E196E196E052000F02FF8012189
:100060000842F9D1002199601B49196000215960AB
:100070001A491B48016001219960EB211966A021F2
:10008000196600F012F800219960164914480160C1
:100090000121996001BC002800D000471248134993
:1000A000086003C880F30888084703B5996A0420EC
:1000B0000142FBD001200142F8D103BD02B5186610
:1000C0001866FFF7F2FF186E186E02BD00000240BE
:1000D000000000180000070000035F00212200005C
:1000E000F4000018222000A00001001008ED00E03C
:1000F00000000000000000000000000074B24E7A12
:1001000000200420F7010010C3010010C5010010F9
:10011000C1010010C1010010C1010010C101001097
:10012000C1010010C1010010C1010010C701001081
:10013000C1010010C1010010C9010010CB01001065
:10014000CD010010CD010010CD010010CD01001037
:10015000CD010010CD010010CD010010CD01001027
:10016000CD010010CD010010CD010010CD01001017
:10017000CD010010CD010010CD010010CD01001007
:10018000CD010010CD010010CD010010CD010010F7
:10019000CD010010CD010010CD010010CD010010E7
:1001A000CD010010CD010010CD010010CD010010D7
:1001B000CD010010CD010010CD010010CD010010C7
:1001C00000BE00BE00BE00BE00BE00BE00F04BF888
:1001D000103800BEF2EB887134E9021058E90210C1
:1001E0003402001090A31AE700202149086006C8D5
:1001F00081F3088810471F48006800282FD10DA4FC
:100200000ECC002902D000F012F8F9E71A491B4A77
:10021000002000E001C19142FCD1194988471949E9
:1002200088471949884700BEFDE701C901C29A42C3
:10023000FBD3704758E90210C0000020880400205A
:1002400020ED0210000004200000042020ED021028
:1002500000100420001004200000000070470B482C
:1002600005F072F80047EFF30580C0B27047000058
:1002700008ED00E0000000D088040020F40802200F
:1002800095380010DD080010853900105756000021
:1002900006005250ABB36053C8E70210060052503C
:1002A000861C0302D8E70210060052505422A29D79
:1002B000E8E7021005005250DE65F46820ED0210F8
:1002C000F8B5C04610B5064C2378002B07D1054B76
:1002D000002B02D0044800E000BF0123237010BDB2
:1002E0009807002000000000288E0010044B10B575
:1002F000002B03D00349044800E000BF10BDC046F6
:10030000000000009C070020288E0010F0B5DE469B
:10031000574645464E46E0B58FB000F0F7FA002349
:100320000A93CB4B00279846CA4BCB4D9B46CB4BF1
:10033000CB4C9A468723F0220A9E07930692059794
:100340000497039302927F2E29DCC64BF021019380
:10035000280000230097693A3F2E00DD44E101F0B8
:1003600069FAA42306930293BF4B402201936323AF
:100370009B1B03920093F0212623280007960597E4
:100380000497473201F056FA731C0A93280001F0D3
:10039000D9F8B14B9D4200D124E11D00CAE7B34B0F
:1003A000F02128000193693A0023009701F042FAF6
:1003B000002001F0FBFE0600030600D555E273069F
:1003C00000D513E2B30600D5FBE1F30600D5E3E167
:1003D000330700D56CE1730700D580E1B30700D582
:1003E00094E1F30700D5A8E1012001F0DFFE030648
:1003F00000D5BCE1042001F0D9FE10231A0006004C
:100400000240034200D11BE208231A00324033426B
:1004100000D100E2012001F0C9FE81460B900220CC
:1004200001F0C4FE0C90032001F0C0FE0D900420EA
:1004300001F0BCFE0990052001F0B8FE4B46DB063A
:1004400006009B0F02D0420700D52CE2884A9B0091
:100450002000D258874904F043FF53460293864B4D
:10046000872201930723F02100932800039401F0D1
:1004700081FA0B9B5B069B0F02D0B20700D509E205
:100480007B4A9B002000D2587C4904F029FF534648
:100490000293794B07269946019318238722F0216E
:1004A000280000930394113B01F064FA33000B9A87
:1004B00073499343734A9B00D258200004F010FF05
:1004C000534602934B46019328238722F0212800AC
:1004D00000930394213B01F04DFA0C9B694A9B1059
:1004E00033409B00D2586849200004F0F9FE524680
:1004F000392302924A46F021280001920093872274
:10050000323B039401F036FA0D9A6049531133409F
:100510005C4A9B00D258200004F0E2FE5246492378
:1005200002924A46F0212800019200938722423B22
:10053000039401F01FFA0C9B554958110640514B8A
:10054000B6009A59200004F0CBFE534602934B4666
:100550000193592387220093F021523B28000394F2
:1005600001F008FA099B1B0669D52300494A03CA12
:1005700003C312781A70534602933F4B87220193AC
:100580006823F02100932800613B039401F0F2F905
:10059000099B5B0640D4404B1B680B9323603E4B8A
:1005A0009B88A3800D9BDB0640D40320099B184049
:1005B0003A4B80001958200008F086FB53460293FE
:1005C0002D4B872201930723F021280000930394E9
:1005D000783301F0CFF9280000F0B4FF1E4B9D42A4
:1005E00000D0DAE62E4DA5E601F024F9A423069307
:1005F00002931D4B40220193232307920392009301
:10060000F0210333280005970497473201F012F9CF
:100610000A9B01330A93B9E6224B1B680B932360B4
:10062000204B9B88A3800D9BDB06BED5200008F0E5
:1006300079FB06221C49201805F076FDB5E723005A
:100640001A4A43CA43C31188198092789A7092E774
:10065000740300207003002010080020D0E0021076
:10066000600202208C8F0110D08E02104C9100107D
:10067000E0E30210348E0010FFFF0000488E0010EF
:10068000508E0010F0E30210588E0010608E0010A3
:10069000688E0010708E00108C8E0010D0E3021057
:1006A00030050120948E00109C8E00107C8E00106E
:1006B00043465A461B681268069302937E4B079284
:1006C00001937923039200938722043BF0212800B1
:1006D0000597049701F0AEF8730700D47EE6434611
:1006E0005A461B68126806930293734B0792019354
:1006F00079230392009387221233F0212800059773
:10070000049701F097F8B30700D46AE643465A46C7
:100710001B68126806930293674B07920193792333
:100720000392009387222833F0212800059704972D
:1007300001F080F8F30700D456E643465A461B689A
:100740001268069302935C4B280001937923079269
:100750000392009387223E33F0210597049701F01E
:1007600069F8012001F022FD030600D442E6534B54
:10077000534A1B68126806930293524B07920193E7
:100780007923039200938722F0212800059704978C
:10079000723B01F04FF82DE643465A461B6812683B
:1007A00006930293444B079201937923039200939B
:1007B0008722F0212800059704971A3B01F03AF8A8
:1007C00006E643465A461B681268069302933A4B64
:1007D000079201937923039200938722F021280046
:1007E00005970497303B01F025F8EEE543465A465D
:1007F0001B681268069302932F4B0792019379238B
:10080000039200938722F021280005970497463B26
:1008100001F010F8D6E52C4B2C491B6809680693AB
:1008200002932B4B07910193792305920492039134
:1008300000938722F0212800653300F0FBFFE9E5F3
:10084000214B22491B68096806930293204B0791AC
:100850000193792305920492039100938722F0215A
:100860002800593300F0E6FFCEE543465A461B68A0
:10087000126806930293104B079201937923039217
:1008800000938722F0212800059704975C3B00F035
:10089000D1FF94E523000F4A03CA03C311881980CE
:1008A00092789A70F3E523000B4A03CA03C31188B8
:1008B000198092789A70D0E5AC8C02107C030020ED
:1008C00078030020288F001084030020800300207C
:1008D0006C8E01103C8E0010288E001010B508F0B0
:1008E000D1F901F0FDF801F0A5FB074805F0BCFEC9
:1008F00001F062FC01200021404207F06BFC01F096
:1009000021F901F099FBF5E70D030010F0B5E84C73
:1009100083B0E849200005F0D1FD0722236880203C
:100920005A40CF234001134020430360012102209D
:1009300001F02AFD0121032001F026FD002005F031
:1009400039FEDD4A030010600020002B01DA00F0C0
:10095000F1FDDA48DB020340D948DA4A03430020BC
:10096000136001F041FD052001F03EFD012001F082
:100970003BFD042001F038FD162001F035FDD026A6
:10098000802301240221102220273606DB03746213
:100990000120776271627262736277617161726164
:1009A000B461736102F02CFB7461012002F028FB3A
:1009B0006B469D1D1123C44C2B802368002B00D156
:1009C000B761D026022701333606236001222900B1
:1009D000B748B76108F010FA23687761013B2360DC
:1009E000002B01D120337361012002F009FB132396
:1009F0002B802368002B03D1D02220211206916185
:100A0000D026022701333606236001222900A84898
:100A1000B76108F0F1F923687761012B02D1202238
:100A20007261B261D0263622022736062A80236000
:100A300029009F48B761353A08F0DEF923687761ED
:100A4000012B02D120227261B261D02623600822DC
:100A5000022336062A70290073619548073A08F088
:100A6000CBF92368012B02D120227261B261D0261A
:100A7000B622022736062A80236029008C48B761F7
:100A8000B53A08F0B9F923687761012B02D1202229
:100A90007261B261D02623600A22022336062A70D0
:100AA000290073618248093A08F0A6F92368012BEE
:100AB00002D120227261B261D026236082220223F9
:100AC00036062A70290073617948813A08F094F952
:100AD0002368012B02D120227261B261D026B0229C
:100AE000022736062A80236029007148B761AF3A91
:100AF00008F082F923687761012B02D1202272610C
:100B0000B261D02623600022022336062A70290013
:100B100073616748013208F06FF92368012B02D135
:100B200020227261B261D0262360E02202233606C1
:100B30002A70290073615E48DF3A08F05DF9236886
:100B4000012B02D120227261B261D0263A22022703
:100B500036062A80236029005548B761393A08F0E3
:100B60004BF923687761012B02D120227261B261B7
:100B7000D02623605522022336062A70290073618D
:100B80004B48543A08F038F92368013B2360002BA6
:100B900001D1203373610A2002F032FAB2232B8094
:100BA0002368002B03D1D022202112069161D02688
:100BB0000227013336062360012229003C48B76131
:100BC00008F01AF923687761012B02D120227261A3
:100BD000B261D02623600C22022336062A70290037
:100BE000736133480B3A08F007F92368012B02D1EF
:100BF00020227261B261D02623600C2202233606C5
:100C00002A70290073612A480B3A08F0F5F8236826
:100C1000012B02D120227261B261D0262360002212
:100C2000022336062A70290073612148013208F038
:100C3000E3F82368012B02D120227261B261D02631
:100C400023603322022336062A7029007361184874
:100C5000323A08F0D1F82368012B02D120227261C8
:100C6000B261D02623603322022336062A7029007F
:100C700073610F48323A08F0BFF82368012B02D1A4
:100C800020227261B261D026B722022736062A805E
:100C9000236029000648B761B63A08F0ADF823682A
:100CA0007761012B12D120227261B2610EE0C04641
:100CB00000C00340005A6202EC070020FD7F00FFE5
:100CC00011000800E8070020F0070020D02623606C
:100CD0003522022336062A7029007361E448343A2B
:100CE00008F08AF82368012B02D120227261B261D8
:100CF000D026BB22022736062A8023602900DC4842
:100D0000B761BA3A08F078F823687761012B02D10D
:100D100020227261B261D026236028220223360687
:100D20002A7029007361D248273A08F065F82368D1
:100D3000012B02D120227261B261D026C02202278B
:100D400036062A8023602900C948B761BF3A08F0F7
:100D500053F823687761012B02D120227261B261BE
:100D6000D02623600C22022336062A7029007361E4
:100D7000BF480B3A08F040F82368012B02D120222B
:100D80007261B261D026C222022736062A80236011
:100D90002900B748B761C13A08F02EF82368776197
:100DA000012B02D120227261B261D0262360012280
:100DB000022336062A7029007361AD4808F01CF83A
:100DC0002368012B02D120227261B261D0262360F8
:100DD000FF22022336062A7029007361A448FE3AD6
:100DE00008F00AF82368012B02D120227261B26157
:100DF000D026C322022736062A80236029009C4879
:100E0000B761C23A07F0F8FF23687761012B02D17E
:100E100020227261B261D02623601022022336069E
:100E20002A702900736192480F3A07F0E5FF2368A2
:100E3000012B02D120227261B261D026C422022786
:100E400036062A80236029008948B761C33A07F033
:100E5000D3FF23687761012B02D120227261B26136
:100E6000D02623602027022336062F7001227361CB
:100E700029007F4807F0C0FF2368012B01D177616B
:100E8000B761D026C622022736062A8023602900B1
:100E90007748B761C53A07F0AFFF23687761012B48
:100EA00002D120227261B261D02623600F22022378
:100EB00036062A70290073616D480E3A07F09CFFD0
:100EC0002368012B02D120227261B261D026D02288
:100ED000022736062A80236029006548B761CF3A89
:100EE00007F08AFF23687761012B02D1202272610B
:100EF000B261D0262360A422022336062A7029007C
:100F000073615B48A33A07F077FF2368012B02D196
:100F100020227261B261D0262360A122022336060C
:100F20002A70290073615248A03A07F065FF2368D0
:100F3000012B02D120227261B261D026E022022769
:100F400036062A80236029004948B761DF3A07F056
:100F500053FF23687761012B02D120227261B261B5
:100F6000D0262360D022022336062A70290073611E
:100F70003F48CF3A07F040FF2368012B02D12022DF
:100F80007261B261D02623600022022336062A70E5
:100F9000290001323648736107F02EFF2268012ACA
:100FA00002D120237361B361D026022336062B7051
:100FB00022602900736101222D4807F01DFF23687C
:100FC000012B02D120227261B261D0262360072258
:100FD000022336062A70290073612548063A07F075
:100FE0000BFF2368012B02D120227261B261D0264F
:100FF00023600A22022336062A70290073611C48E6
:10100000093A07F0F9FE2368012B02D12022726110
:10101000B261D02623602822022336062A702900D6
:1010200073611348273A07F0E7FE2368012B02D1CA
:1010300020227261B261D02623603222022336065A
:101040002A70290073610A48313A07F0D5FE2368F7
:10105000012B02D120227261B261D026236044228A
:10106000022336062A70290073610148433A01E0E1
:1010700000C0034007F0C0FE2368012B02D12022EC
:101080007261B261D02623604222022336062A70A2
:1010900029007361E448413A07F0AEFE2368012B52
:1010A00002D120227261B261D0262360062202237F
:1010B00036062A7029007361DB48053A07F09CFE6A
:1010C0002368012B02D120227261B261D0262360F5
:1010D0000E22022336062A7029007361D2480D3A87
:1010E00007F08AFE2368012B02D120227261B261CF
:1010F000D02623601222022336062A70290073614B
:10110000C948113A07F078FE2368012B02D120224A
:101110007261B261D02623601422022336062A703F
:1011200029007361C048133A07F066FE2368012B5B
:1011300002D120227261B261D026236017220223DD
:1011400036062A7029007361B748163A07F054FE34
:101150002368012B02D120227261B261D026E122E4
:10116000022736062A8023602900AF48B761E03A9B
:1011700007F042FE23687761012B02D120227261C1
:10118000B261D0262360D022022336062A702900BD
:101190007361A548CF3A07F02FFE2368012B02D1D7
:1011A00020227261B261D02623600022022336061B
:1011B0002A70290001329C48736107F01DFE2268E5
:1011C000012A02D120237361B361D026022336069F
:1011D0002B702260290073610122934807F00CFEF6
:1011E0002368012B02D120227261B261D0262360D4
:1011F0000722022336062A70290073618A48063ABC
:1012000007F0FAFD2368012B02D120227261B2613E
:10121000D02623600A22022336062A702900736131
:101220008148093A07F0E8FD2368012B02D120220A
:101230007261B261D02623602822022336062A700A
:10124000290073617848273A07F0D6FD2368012BFF
:1012500002D120227261B261D026236031220223A2
:1012600036062A70290073616F48303A07F0C4FDD2
:101270002368012B02D120227261B261D026236043
:101280005422022336062A70290073616648533AB5
:1012900007F0B2FD2368012B02D120227261B261F6
:1012A000D02623604722022336062A702900736164
:1012B0005D48463A07F0A0FD2368012B02D12022A9
:1012C0007261B261D02623600E22022336062A7094
:1012D0002900736154480D3A07F08EFD2368012BF5
:1012E00002D120227261B261D02623601C22022327
:1012F00036062A70290073614B481B3A07F07CFDC3
:101300002368012B02D120227261B261D0262360B2
:101310001722022336062A70290073614248163AC2
:1013200007F06AFD2368012B02D120227261B261AD
:10133000D02623601B22022336062A7029007361FF
:1013400039481A3A07F058FD2368012B02D12022B0
:101350007261B261D02623601E22022336062A70F3
:101360002900736130481D3A07F046FD2368012BC0
:1013700002D120227261B261D026212202273606D4
:101380002A80236029002848B761203A07F034FDFD
:1013900023687761012B02D120227261B261D026CD
:1013A0002A22022736062A80236029001E48B761B8
:1013B000293A07F021FD23687761012B02D1202211
:1013C0007261B261D02623600022022336062A70A1
:1013D000290073611448013207F00EFD2368012BC8
:1013E00002D120227261B261D0262360282202231A
:1013F00036062A70290073610B48273A07F0FCFC77
:101400002368012B02D120227261B261D0262360B1
:101410000122022336062A7029007361024807F070
:10142000EBFC236802E0C04600C00340012B02D160
:1014300020227261B261D026236017220223360671
:101440002A70290073613E48163A07F0D5FC2368DC
:10145000012B02D120227261B261D0262B220227F9
:1014600036062A80236029003548B7612A3A07F0FA
:10147000C3FC23687761012B02D120227261B26123
:10148000D02623600022022336062A7029007361C9
:101490002B48013207F0B0FC2368012B02D1202237
:1014A0007261B261D02623603522022336062A708B
:1014B000290073612248343A07F09EFC2368012B0F
:1014C00002D120227261B261D02623600022022361
:1014D00036062A70290073611948013207F08CFC26
:1014E0002368012B02D120227261B261D0262360D1
:1014F000BB22022336062A70290073611048BA3ACB
:1015000007F07AFC2368012B02D120227261B261BC
:10151000D0262922022736062A802360290008487F
:10152000B761283A07F068FC23687761012B03D084
:101530000120236003B0F0BD20227261B261F7E7A1
:1015400000C00340F0B54746CE4680B5B24F80217B
:101550003B6806009A01B14B83B09C464904624443
:1015600013680B42FCD11022AD49CB681A42FCD162
:10157000AC4C2368012B04D1D022202112065161EA
:1015800091612360D0231B066A4698460223951D6D
:101590009946362243462A804A4629009A61A04845
:1015A000013A07F029FC43464A465A612368012B59
:1015B00003D141461E324A618A612360D0231B0653
:1015C000682298462A7002234246290053619448B3
:1015D000012207F011FC2368012B00D013E1202227
:1015E00041464A618A610A322A8001332360D0234E
:1015F0001B0698460223994643464A4629009A61AB
:101600008748013A07F0F8FB43464A465A61236887
:10161000012B03D141461E324A618A612360D023E7
:101620001B06002298462A70022342462900536175
:101630007B48012207F0E0FB2368012B03D1202225
:1016400041464A618A612360D0231B0628229846BE
:101650002A7002234246290053617148012207F093
:10166000CBFB2368012B03D1202241464A618A61CA
:101670002360D0231B06012298462A70022342468B
:10168000290053616648012207F0B6FB2368012B4D
:1016900003D1202241464A618A612360D0231B0680
:1016A000172298462A7002234246290053615C485B
:1016B000012207F0A1FB2368012B03D12022414620
:1016C0004A618A612360D0231B06984602232B229D
:1016D00099462A8043464A4629009A615048013A71
:1016E00007F08AFB43464A465A612368012B03D11F
:1016F00041461E324A618A612360D0231B060022C4
:1017000098462A7002234246290053614448012228
:1017100007F072FB2368012B03D1202241464A6166
:101720008A612360D0231B06352298462A70022343
:101730004246290053613A48012207F05DFB2368C5
:10174000012B03D1202241464A618A612360D023C4
:101750001B06002298462A70022342462900536144
:101760002F48012207F048FB2368012B03D12022D8
:1017700041464A618A612360D0231B06BB229846FA
:101780002A7002234246290053612548012207F0AE
:1017900033FB2368012B03D1202241464A618A6131
:1017A0002360D0231B06984602232C2299462A80C8
:1017B00043464A4629009A611948013A07F01CFB42
:1017C00043464A465A612368013B2360002B02D1FD
:1017D00042462033536110221149CB681A42FCD192
:1017E000A022D20594463B680F4A9B0163441E60C9
:1017F0005A600E4A9A600E4A1268DA6003B0C0BCA2
:10180000B946B046F0BD2A222A80002B00D0ECE673
:10181000202241468A61E8E6EC07002010000050D3
:1018200000C00340F007002008C0034020FD000076
:10183000E8070020F0B55746DE464E464546E0B57F
:1018400089B00C00149901928A46199904930029D1
:1018500068DD0A0093461A005B00C318139890468F
:101860008446169A05939146169B26005B006344B6
:101870000793189B574643449C46189B12994B4428
:101880009846179D4E436F438B44189B002B43DDB6
:10189000019B8B4240DD00293EDB002D29DB159B9F
:1018A000AB4253DD079A7B009146059A4B44914623
:1018B000039373004B440293B14600204646049ABA
:1018C0008846169B51460695BA460EE099420EDDB3
:1018D000039F3F5A002A03DB944201DD029D2F52F1
:1018E000013301320230B34223D0002BEEDA00275D
:1018F000F0E7059B7200994660464A448946049B7E
:10190000002B03DB9C4201DD0021118001330232F8
:101910009842F5D14946844601313619574401357C
:101920008B45B2D109B0F0BCBB46B246A946A04631
:10193000F0BD57468A464146B0464E46069D0131A7
:101940003619574401358B459FD1EBE7059B720053
:10195000994660464A448946049B002B03DB9C421F
:1019600001DD00211180013302328342F5D1494665
:101970008446D1E7F0B54E4657464546DE46E0B5CB
:101980008BB01E0014AB914604CB80271B88904679
:1019900002934B009C46179B0C001B780990002B70
:1019A00000D194E07F2018400A2800D196E0602200
:1019B0001A4200D193E04146099B61439A46731C49
:1019C0000493B31C0593F31C9B46331D0693731DB0
:1019D0000793B31D0893F31D89190393169B424681
:1019E0004900454651449A462038C000801A504468
:1019F0000835B24601902E006046019B9B5C002A90
:101A000052DB914550DD5DB2002D06DA5546002DC2
:101A100003DBA24501DA029D0D805D002F4206D056
:101A2000049D002D03DBAC4201DD029D4D809D0035
:101A30002F4206D0059D002D03DBAC4201DD029D47
:101A40008D80DD002F4206D05D46002D03DB5C4516
:101A500001DD029DCD801D012F4206D0069D002D87
:101A600003DBAC4201DD029D0D815D012F4206D0FA
:101A7000079D002D03DBAC4201DD029D4D819D01E0
:101A80002F4206D0089D002D03DBAC4201DD029DF4
:101A90008D81FF25DB011D4206D0039B002B03DB5C
:101AA0009C4201DD029BCB81013209189642A4D1F0
:101AB0003500564608368446B44201DCA846002666
:101AC000179B013317931B78002B00D06AE70BB0EC
:101AD000F0BCBB46B246A946A046F0BDFEE7FEE715
:101AE00010B50B2000F080FC0A2000F07DFC0022E5
:101AF00001210B2000F060FC002201210A2000F0EF
:101B00005BFCD023802180221B060901D200996250
:101B10009A6299619A610023064A07481360074A4E
:101B200001211360064A1360012200F0A5FF012085
:101B300010BDC046D0070020080800200008002083
:101B400004080020F8B5C74C23683C2B1AD8C64AB5
:101B50009B00D3589F4601F041FBC44D2A686B6837
:101B6000801A9941002901D103280BD9D023802262
:101B70001B0612015A6223680133236001F02EFB19
:101B800028606960F8BD01F029FBB84D2A686B68D0
:101B9000801A9941002901D10328F3D9D02380224A
:101BA0001B0612019A62E6E701F018FBAF4D2A68A6
:101BB0006B68801A9941002900D19BE1D0231B0654
:101BC0005B681B0500D4B0E123680133D02280217B
:101BD000120609015162236001F000FB2860696070
:101BE000D0E701F0FBFAA14D2A686B68801A994191
:101BF000002900D17AE1D0231B065B681B0500D4C5
:101C00008FE123685A1C9A490B68D80700D57DE1FB
:101C1000D02080260006F60046625B100B60226032
:101C200001F0DCFA28606960ACE701F0D7FA8F4D6B
:101C30002A686B68801A9941002900D14CE1D021B3
:101C400080238C4A09061B018B6213785B08137092
:101C50004968490500D48EE7802149420B4313703F
:101C60000121854A13784B40137084E701F0B6FADE
:101C70007E4B1A685B68801A9941002900D127E1E0
:101C8000D02380221B0612019A62002302222360C5
:101C90007A4B1A6076E7D02380221B0612019A62E3
:101CA0005B681B0500D429E1754D764F2A683B68B7
:101CB0009A4200D166E7744E300007F085F82A6832
:101CC0003B689A4200D140E12B68704AD35C0722FE
:101CD00029685B0001310A402A608025AD001D4360
:101CE000300007F051F80022614B1D60634B1A6011
:101CF0001B23236046E7D02380221B06D2009A6272
:101D00005B685B05DA0F002B0CDB02232360594B69
:101D10001A70594B1A7035E7D0231B065B681B05F8
:101D200000D5CDE001F05AFA504B1A685B68801A72
:101D30009941002965D1564B984200D822E760E0CE
:101D400001F04CFA494D2A686B68801A99410029C4
:101D500002D1012800D815E7D02380221B06D2002B
:101D60005A6208E701F03AFA404D2A686B68801A17
:101D70009941002900D0F9E6022800D802E7F5E6EB
:101D800001F02CFA394B1A685B68801A99410029D6
:101D900002D1032800D8F5E6D02380223A4E1B0654
:101DA00012019A62300007F00FF80F21394A3A48C1
:101DB0001368056801330B40AB420ED0136800680E
:101DC00001330B40834208D02A4B34481D781368F6
:101DD000C5541368013319401160300006F0D4FF78
:101DE0001A232360CEE601F0F9F9204B1A685B68EC
:101DF000801A9941002976D0D02380221B06D20078
:101E00009A6200232360BDE601F0E8F9174D2A68C5
:101E10006B68801A9941002956D0D02380221B0676
:101E200012019A625B685B0500D4A4E618E701F032
:101E3000D5F90E4D2A686B68801A994100294FD058
:101E4000D0231B065B681B057AD5236801330A4A39
:101E50001278002A6ED0D02280211206C900516269
:101E6000B9E6C046D007002010E402108804002024
:101E700054020220EB080220EA080220CC070020CE
:101E8000F4070020F807002008080020580202206C
:101E9000983A00000408002000080020D407002021
:101EA000D02380221B0612019A621C232360284B38
:101EB00000221A7001F092F9264B1860596061E611
:101EC00003232360244BF3E7032800D85AE6A4E752
:101ED000032800D856E6D3E6032800D852E6AEE63B
:101EE0000128ADD84EE6012886D84BE6012800D956
:101EF00081E647E6012800D960E643E60123236036
:101F000001F06CF9134B186059603BE6D020802635
:101F100001270006F60086620D4E3078784030705A
:101F20007BE601220D4B1A606DE601220B4B1A6015
:101F300001234BE6D02280211206C90091624AE6B5
:101F40000122064B1A60012381E78025AD00C7E618
:101F5000EA08022088040020EB080220CC070020B9
:101F6000F8B5114C114E2268336805009A4216D01C
:101F70000F4F380006F028FF226833689A4210D0CD
:101F800023680C4AD35C0F222168DBB201310A407E
:101F9000226038002B7006F0F7FE0120F8BD00200B
:101FA000FCE70023F5E7C0460008002004080020F5
:101FB00008080020D4070020F0B5C6460725124CBB
:101FC000124F23683A680133060000B52B40934254
:101FD00018D00F4B1800984606F0F6FE23683A68B2
:101FE00001332B40934206D023680A4AD654236813
:101FF00001331D402560404606F0C6FE012080BC2E
:10200000B846F0BD0020FAE7F8070020F4070020EA
:102010000808002058020220044B1868044B1B6873
:10202000C01A43425841C0B27047C046F40700206E
:10203000F80700207047C046F0B5564C83B02368BF
:10204000012B05D0022B3CD0002B28D003B0F0BDD3
:10205000FFF7E2FF0028F9D000F0BAF800285FD1BE
:102060006E4600273080B51C7080FA20FFF7A4FF71
:102070003800FFF7A1FF3078FFF79EFF2878FFF7C1
:102080009BFF022300222360434B1A60434B013A1B
:102090001A6001F0A3F8424B18605960D6E701A816
:1020A000FFF75EFF0028D1D06B461B79FF2B5DD078
:1020B000F32B53D0282B51D0EB2BC7D1EA3B236015
:1020C000C4E701A8FFF74CFF00281CD001F086F8F8
:1020D000334B324A186059601368591C42D0002BA8
:1020E0000ED02D480168052906DC6D464E1C2D7961
:1020F00006602C4889000D50013B1360002BA5D1D0
:1021000000232360A2E701F069F8254B1A685B6899
:10211000801A99410029F3D1234B984296D9EFE7D1
:102120006B466E469D1C01AA1800290000F05AF863
:102130000022B35E1A00803227DA80235B423380AC
:102140002B885B421BB21A00803219DA80235B4273
:102150002B800827019B1F43FFB286E7FA20FFF779
:102160002BFF73E76B461B7913606FE7FA20FFF7CD
:1021700023FFAA20FFF720FF1020FFF71DFF65E7D0
:102180007F2B00DD7F232B80E3E77F2BD8DD7F23B0
:102190003380D5E750020220FC070020E40700202E
:1021A00090040020B407002050C30000014B8000C1
:1021B000C0587047B407002010B506F003FC012298
:1021C0000121024800F058FC10BDC046B8080220AA
:1021D000034B1878013843425841C0B27047C0469B
:1021E000ED080220F8B5104B06001B780D00140016
:1021F000012B04D0002303800B801360F8BD0B4F2C
:10220000380006F0E1FD0A4938000B883380094B9D
:102210001A882A80084A1268226000220A801A80DE
:1022200006F0B2FDEAE7C046ED080220B808022039
:10223000E6080220E8080220A0080220F8B5474678
:10224000CE4680B505000C0090461F0006F0BCF994
:1022500000281FD002280DD0002006F02BFD0222FE
:10226000144B1A702800210006F0BCF9C0BCB94616
:10227000B046F8BD013806F01DFD01220D4B1A7065
:1022800000230D4A13800D4A13800D4A13600D4A36
:102290001360E7E70C4BE600994636197600B01C50
:1022A0003B0042460421484406F026FB4B46985525
:1022B000D2E7C046ED080220E6080220E808022026
:1022C000A0080220A4080220780802200022014B66
:1022D0001A707047ED080220F0B5C64600B504003C
:1022E0000D00160006F070F9022806D02900200023
:1022F00006F078F980BCB846F0BD1F4F380006F0F4
:1023000063FD01231D49F3560A8812B29B18181C5D
:102310001BB27F2B2BDC02B27F3224DB184B00B2C6
:102320001A889C460223F35612B29B181A1C1BB241
:102330007F2B12DC131C12B27F320BDB07223678A4
:10234000088032400F4E380032606246138006F03B
:102350001BFDCBE77F235B42F0E77F22131C12B209
:102360007F32EBDAF6E77F235B42181CD6E77F204B
:1023700002B27F32D2DAF6E7B8080220E60802207D
:10238000E8080220A0080220094A8300944640225F
:10239000634410B51C68C0006240C0241440802211
:1023A000520113431C60034B9C466044416010BDC6
:1023B00004C00140004001400A4B80009C460423B9
:1023C0006044002901D00C230821002A00D10B0011
:1023D000026853400C221A4080235B0118430260BC
:1023E0007047C04604C001400123D022834012063A
:1023F00093629361094A83009446402263441968BA
:10240000C0004A40C021114080225201134319608C
:10241000034B9C46052360444360704704C0014061
:102420000040014070B5EFF3108C72B60D4D2B6873
:10243000002BFCD0BFF35F8F0724CB08C618C05C0D
:1024400001230C40A3401C000440034207D1034376
:102450003370BFF35F8F2C608CF3108870BD100059
:1024600001F092FA2C0100D0F8B54746CE468846D6
:1024700080B5EFF3108C72B6214D2C68002CFCD087
:10248000BFF35F8F9A422CD8D4080727055D061941
:1024900001241740BC402C421FD007210127894648
:1024A00009E0D408055D06194C4639001440A140E6
:1024B0000C00294211D001329342F2D20120404255
:1024C000BFF35F8F00220E4B1A608CF31088002838
:1024D0000FDBC0BCB946B046F8BD2C4310003470C9
:1024E000EEE7BFF35F8F00232B608CF31088012091
:1024F00040424346002BECD0089801F045FAC04614
:102500002C0100D0024B18688007C00F7047C046EE
:1025100000C006400021044B044ABFF35F8F02C392
:102520009342FAD17047C046000100D0800100D02C
:10253000044A1078431CDBB2172B00D91023137008
:102540007047C0468803002000B5054B83B00100EA
:10255000009318221F230348FFF786FF03B000BD36
:1025600004E50210C405022001238340002904D0A1
:10257000034A1360034A13607047034A1360FBE782
:1025800080E200E000E100E080E100E00122824022
:10259000034B1B6813405A1E9341D8B27047C04684
:1025A00000E100E0024B10309B688000C05870478B
:1025B00000ED00E070B50D00EFF3108672B60F4A23
:1025C0001368002BFCD0BFF35F8F0D4B10309B685E
:1025D00084001B590B4A934203D09D4201D001F065
:1025E000EBF9074B9B681D51BFF35F8FBFF35F8F04
:1025F0000022024B1A6086F3108870BD240100D0BF
:1026000000ED00E0CD010010F0B557464E46DE4625
:102610004546E0B585B0060002911700EFF3108B38
:1026200072B6674A1368002BFCD0BFF35F8F00259A
:10263000644B5D579A46002D00DAA5E06B00624CB2
:1026400003935B199B009846A146C1444B465246F2
:102650009B79103613705D4BB2009B6801929958BC
:102660000B1B2F2B34D95A4B994200D0A5E0039B6A
:10267000584A9C46584B6544AD0063534346023369
:102680006519E418554B0121043B1B1B1B055B0D11
:1026900013436B80524BEF71AB80FF23AB71029BF6
:1026A000AB604B460B431900484B019A9B6899500D
:1026B000BFF35F8FBFF35F8F0022414B1A608BF334
:1026C000108805B0F0BCBB46B246A946A046F0BD96
:1026D00001200A008243D379BB422FD845464E469B
:1026E000130040491B1B5B415943090D3A4B63538F
:1026F0003A4B02356519043B5B1B1B05354D5B0DE1
:102700002B4373800426B446E0444444131F1B1B30
:102710004C46A17102991B05A16049465B0D2B43F4
:10272000A380314BE77101431360BDE75800C01827
:1027300080002018C679BE422CD902000623D35649
:10274000002BF3DA101D8246BD20000280460426CD
:102750007642B446E14450464E46361A3005400DA6
:10276000824656461B48957106439680039A9446C6
:1027700065441D4AAD00641922604246A371029B64
:10278000A280E771A3608FE701F016F90025534698
:102790005D5753E7101D824690884005001584461A
:1027A0004046D444664604302018301AE02600051E
:1027B000400D360230438046C9E701F0FDF856E788
:1027C000240100D0EF0802208C03002000ED00E07F
:1027D000CD01001000E0FFFF00A1FFFFBC030020BF
:1027E00000BDFFFFAAAA000001488047F0B5DE4601
:1027F00057464E464546E0B50C0083B0EFF3108ACD
:1028000072B65A4A1368002BFCD0BFF35F8F1022B8
:10281000914681444A46564B96009B689D59554BBC
:1028200098469D4205D0A54216D0534FEB1B2F2B47
:1028300014D94F4B9B689D51BFF35F8FBFF35F8FE0
:1028400000224A4B1A608AF3108803B0F0BCBB46E2
:10285000B246A946A046F0BD1D00EAE70123834029
:102860009B465A46454B1B681A4000925A46444BB9
:102870001A60BFF35F8FFDF7F6FC0190002803D0CC
:10288000814501D001F098F801232A009A4393680A
:102890009C4208D15FE04B005B189B00FB189968D5
:1028A000A14211D01A00062151560029F3DA009BEB
:1028B000002B05D05A46334B1A60304B1A60B8E7EC
:1028C0005A462F4B1A60B4E706215956002921DBDE
:1028D0004A00501880003C188046A0689860E07953
:1028E000D871062020569871002824DBA488F81A95
:1028F0006405241544440019E0240005400D240219
:10290000204398805218204B9200BF181A781970F3
:10291000BA71CCE70199002910D1FF3191711B499F
:10292000918019490A789A71194ADB1B5B415A4315
:10293000120D0A70BBE7BD200002E2E7154A1649F6
:10294000D21A083A5002400D0143998013495208A7
:102950000A43DA80ABE70621515613000029B7DAA3
:10296000019A002AEAD14546DBE7C046240100D09F
:1029700000ED00E0CD0100108C03002000E100E03C
:1029800080E100E080E200E0EF08022000BDFFFFF0
:10299000AAAA0000C603002000F0FFFF00F8FFFF16
:1029A000F8B5012504000543FDF75DFCEFF3108C3D
:1029B00072B6214A1368002BFCD0BFF35F8F1F4E05
:1029C0002100B7681E4A1F4B891A49414B431B0D12
:1029D00059B28300F858A8421CD00623D3568B4224
:1029E0001CD01223D3568B4222D01E23D3568B42A7
:1029F00020D02A23D35603208B4210D0124B1A78B2
:102A00001970A271BFF35F8F00220B4B1A608CF319
:102A10001088F8BDB2680D48D050EFE700204300A1
:102A20001B189B00D218FF239371094B9380E5E795
:102A30000120F4E70220F2E7240100D000ED00E0DD
:102A40008C030020AAAA0000EF080220CD0100108C
:102A500000BDFFFF054B064A1360064A1360536032
:102A60009360D3601361536193617047808080806D
:102A700000E400E004E400E070B504000E0015007E
:102A8000FFF756FD0100200000F006F8A680E58063
:102A9000BFF35F8F70BDC046024B9C466144890006
:102AA000016070474000003483680B4810B58446CD
:102AB00061446244090112019A18591854684B681C
:102AC00001209C4201D802D00020C0B210BD126883
:102AD0000B689A42F9D8F7E7FFFFFF0F0A4B196816
:102AE000EFF3108072B60A68002AFCD0BFF35F8F44
:102AF0001B68BFF35F8F00221A6080F3108840BF0D
:102B0000002000217047C046C4080220F8B557468F
:102B10004E464546DE46E0B599460CAB1C780DABFB
:102B20001B78060090469A460768002C11D1BC7BA2
:102B3000002C42D065003B682D19033D59194B7894
:102B4000BB73002B00D1FB7300238B704B700B7099
:102B500004E065003B682D19033D5919B2682A4B02
:102B600094464246E3181B0163441A604A465A6081
:102B70000A9A9A600B9ADA6000238B704B700B7084
:102B80007B7B9B46002B2BD022005946B8687B6884
:102B900098473A68002816D05B4658465B005B446D
:102BA0005519033BA870D118D35C002B00D06B7073
:102BB0005B460C707B73A34513D0F0BCBB46B2469A
:102BC000A946A046F8BD5B465B005B44033BD318B7
:102BD0009C705119525D002A00D05A705B460B70F0
:102BE0007C7342464B46307D00F058FB051E06D0F4
:102BF0005346002B03D12100306800F071FD0E9B7D
:102C0000002BDAD01D70D8E7FFFFFF0FF0B5DE46CE
:102C10004E46574645460023E0B58DB00A936B4BB0
:102C20008200D3580B90994600239B464B4607934E
:102C300000F0D4FA079C06000F006268EFF31085DD
:102C400072B61368002BFCD022000794BFF35F8F8D
:102C50002468637B9946002B67D092685C4B904652
:102C60004B441B01984443461A685B6810001900E6
:102C7000801BB94100295FDD0B9800F00FFB00239A
:102C80000026984600279A46079C6368BFF35F8F2B
:102C90005A461A6085F310885346002B08D1002845
:102CA000C6D10DB0F0BCBB46B246A946A046F0BDA9
:102CB0000A9B414618024B461843D0470890099199
:102CC0006268EFF3108572B61368002BFCD007948E
:102CD000BFF35F8F0899099A002A48DB114303D09C
:102CE000079B1B69002B5DD1079B1B68D97B0029C3
:102CF00007D04A00521819688C4649466244033A84
:102D000051704A46DA734B46079A013BD168CA5C58
:102D10000132CA545B46079A13615368BFF35F8F51
:102D20005A461A6085F3108882E7002300269846E9
:102D300000279A460020A7E7002901D100289BD14F
:102D40000021200000F04EFC43461E685F689B682F
:102D5000079A9A464346DB689846D3684B44013B42
:102D60001B780A931B020343136100208CE723693D
:102D7000002BB9D033003C005B1A94411A002300A9
:102D8000A74219D89F421BD05946049101210391B3
:102D90004946029141460191514607980091FFF73B
:102DA000B5FEB7E700F01AFA089A099B06000F0073
:102DB00092197B419942E5D901225242D317E3E7A8
:102DC0009642E1D901225242D317DDE7A80802203A
:102DD000FFFFFF0FF8B557464E464546DE46E0B5C5
:102DE000404D81468A466A68EFF3108872B61368D0
:102DF000002BFCD0BFF35F8F2E68B47B002C39D042
:102E0000670033683F19033FDB195A78B273002A11
:102E100000D1F273A968344A8C464946A2181201BF
:102E20006244116051465160304991600021D16087
:102E3000997059701970737B9B46002B35D0220016
:102E40001900B068736898473268002820D05B4644
:102E500058465B005B44D719033BB870D118D35C6C
:102E6000002B00D07B705B460C7073735C451DD0EB
:102E7000002626E06B68BFF35F8F1C6088F3108824
:102E800001204042F0BCBB46B246A946A046F8BD70
:102E90005B465B005B44033BD3189C70D119D25D49
:102EA000002A00D05A705B460B7074734A46534632
:102EB000287D00F0F3F9061EDAD02100286800F022
:102EC0000FFCEB681B19013B19786B68BFF35F8F30
:102ED00000221A6088F310880020002ED2D1080248
:102EE0002043CFE7D4030020FFFFFF0FDD2A0010AF
:102EF00010B5124C6368002B04D00A211048FFF76C
:102F0000CBFD10BD23000F4A1021206800F088FA85
:102F1000032000F057F9032000F030FA03200A499B
:102F200000F076F9FFF704FB084B9C46032360444E
:102F30002375074B80006060DC60DEE7D40300206F
:102F4000C4080220A92A00100D2C001040000034F3
:102F5000A8080220F0B504000D0006267642F717F7
:102F6000C64636196F4100B58F4213D810D000F015
:102F700035F932003B00121A8B41002B14DC002B78
:102F800037D02900200000F033F980BCB846F0BDEE
:102F90008642ECD90026002700F020F932003B00E1
:102FA000121A8B41002BEADD30003900FFF712FFC7
:102FB0000028E6DB00239846BC460F4A0F4F7B6A89
:102FC0009C4504D8B96A8E42DBD99C45D9D1116899
:102FD000EFF3108072B60B68002BFCD0BFF35F8F4D
:102FE0001368BFF35F8F4146196080F3108820BFDC
:102FF000E5E7002AC5D0D7E7C40802200040054015
:1030000070B5060000F0EAF8FA2204000D00002373
:1030100030000021920003F017F8001969418D4239
:1030200005D802D0FFF796FF70BD8442FAD901207F
:103030004042C117F6E7C046F8B5CE46474680B5D0
:1030400006000C00FFF7C6FE00280CDC2D4B00200C
:10305000596A8C4203D89B6A0130B34245D3C0BC45
:10306000B946B046F8BD20BF274D6A68EFF3108718
:1030700072B61368002BFCD0BFF35F8F2B68C1B210
:103080009C465B7B8B4235D0FF2303405A00914620
:1030900062461268994490464A464244033A9278FE
:1030A000002A1DD0EA68000A90464344013B1B7881
:1030B000C0B2834221D06B68BFF35F8F00221A60D9
:1030C00087F310880F4A0020536A9C42C7D8926A3F
:1030D0000130B242C3D2E01A421E9041C0B2BEE7F4
:1030E0002B699842E7D12A61E5E7601A431E9841AF
:1030F000C0B2B4E7FF230340D4E7604600F0F0FA23
:10310000D9E7C04600400540D4030020F0B5D646BC
:103110004F464646C0B5EFF305833F2213401800E3
:103120001038EFF3108C72B6204D2A68002AFCD0BC
:10313000BFF35F8F0122110081401D4C88466163FF
:103140001C4917000E788A463100C1400F400A42E0
:1031500009D1BFF35F8F2F608CF31088E0BCBA46B3
:10316000B146A846F0BD14498200646A51588C42A9
:103170000FD3124BD25843469E4353461E70BFF3A3
:103180005F8F00232B608CF31088002AE6D09047D5
:10319000E4E70B4A9B00904643441A681A60BFF369
:1031A0005F8F00232B608CF31088D7E7280100D0B5
:1031B00000400540F0080220C8080220B4050220A3
:1031C000D03F054010B50100024A0348FFF72AF935
:1031D00010BDC04620E50210EC080220034B596ADE
:1031E0000A00986A596A8A42FAD17047004005403D
:1031F000064A536A9942FCD807D1044B02E05A6A46
:10320000914202D19A6A8242F9D370470040054048
:1032100070B504000D00EFF3108672B61A4A1368F9
:10322000002BFCD0BFF35F8F002D1BD02000FFF7D9
:10323000B9F9164981420AD02000FFF7BBF90121F4
:103240002000FFF791F90123A340114A1360114BAD
:10325000A400E550BFF35F8F00220B4B1A6086F38A
:10326000108870BD0B4BA200D5500122A2400A4924
:1032700020000B7893430B700449FFF7B7FA002145
:103280002000FFF771F9E5E7280100D00D310010AB
:1032900038600540B4050220F0080220F0B54F4622
:1032A000D6464646C0B507002F4C616A0D00A66A97
:1032B000616AA942FAD18B4208D805D00120E0BC4E
:1032C000BA46B146A846F0BDB242F7D9EFF3108A2C
:1032D00072B6264801680029FCD0BFF35F8F012534
:1032E000BD402349204C8846097889462943C9B204
:1032F0008C46414660460870391D1E48890065634A
:103300000A51B9000B50216A0020294219D0616A84
:103310000800A66A616A8142FAD18B4219D801D1AC
:10332000B24216D8CC451DD00F4B1F201D625D63E5
:1033300001230740BB40104A1E38136043464A46EB
:103340001A70BFF35F8F0022084B1A608AF310884F
:10335000B5E70020BFF35F8F0022044B1A608AF3A9
:103360001088ACE70120ECE700400540280100D0C0
:10337000F0080220C808022080E200E0EFF3108C81
:1033800072B60A490B68002BFCD0BFF35F8F012394
:103390008340074A0748136202789A430270BFF3DA
:1033A0005F8F00230B608CF310887047280100D0DA
:1033B00000400540F008022070B50500140016001A
:1033C000002915D00C00002A12D080686B6898473D
:1033D000296800280ED073009B196200033B121964
:1033E000CB18033A9C7088188A5C002A15D10670A5
:1033F000200070BD63001B197200033B9219CB18AB
:10340000033A9E7088188A5C002A02D10470340046
:10341000EEE75A7004703400EAE75A700670E7E786
:1034200030B583600023CCB2437301330473426030
:103430008373C4730D000068012C06D9421C01334C
:10344000DBB2137003329C42F9D1FF2129404B00BB
:103450005918002340180338437030BDF8B5CE46E4
:10346000474606000C0080B5002907D04D000368D0
:103470006D18033D5A195778002F04D12000C0BCA5
:10348000B946B046F8BD7900C919033988464344A6
:103490005978894600215970517073683A002100AB
:1034A000806898473368002814D042469A18947070
:1034B00059195B5D002B00D053700F7027004946EF
:1034C0003000FFF7CBFF390002003000FFF774FF38
:1034D0000400D3E7424641465D19AF709A185B5C21
:1034E000002B00D06B701470E9E7C046F0B557466A
:1034F0004546DE464E46E0B50D006B0001685B199F
:10350000DF1E0400C85D83B00192CA1900284CD0A8
:1035100043001B18033BCB185E78B446002E16D12F
:10352000019E002E3ED0E67B002E04D073009B1936
:10353000CB18033B5D70E57300282FD10023537037
:1035400003B0F0BCBB46B246A946A046F0BD72002F
:103550006244033A89184A78904600224A7091469C
:103560005A70010032002000FFF726FF43468246D2
:10357000002B07D05B0021684344033BCB185A78EB
:10358000002A16D1424651462000FFF715FF216858
:10359000019BCA19002BC6D10028CFD043001B18AD
:1035A000033BCB1800219970C8E7019B002BBAD1CF
:1035B000C4E7500080180338091848788346484605
:1035C0004870587041462000FFF7F6FE5946804685
:1035D0002000FFF743FF414602002000FFF7ECFE0A
:1035E0008046CFE7F0B557464546DE464E46E0B545
:1035F00083B00191457B04006B0000685B19DF1EFE
:10360000C15DC21900294ED04B005B18033BC318A3
:103610005E78B446002E18D1019E002E40D0E67B85
:10362000002E04D073009B19C318033B5D70E57333
:10363000002931D1002328005370617303B0F0BC1E
:10364000BB46B246A946A046F0BD72006244033AAA
:103650008018427890460022427091465A702000AD
:103660003200FFF7A9FE43468246002B07D05B00DD
:1036700021684344033BCB185A78002A17D14246AD
:1036800051462000FFF798FE019B01002068C219F7
:10369000002BC4D10029CDD04B005B18033BC318CD
:1036A00000209870C6E7019B002BB8D1C2E75000FC
:1036B000801803380918487883464846487058707F
:1036C00041462000FFF778FE594680462000FFF76C
:1036D000C5FE414602002000FFF76EFE8046CEE7A1
:1036E00070B5040000292CD0437B8B422ED0056896
:1036F00048004018033828188278002A21D0530047
:103700009B18033BEA5CEE188A4202D11BE0002AB8
:1037100008D053009B18033BEB185A788A42F6D125
:1037200042785A7000230122837043702000FFF713
:10373000DDFE617B02002000FFF73EFE607301208A
:1037400000E0002070BD43783370EBE701221900E0
:10375000FFF7CCFE60730120F4E7C04610B504000B
:10376000FEF7E6FE01002000FFF796F9FF23237124
:10377000BFF35F8F10BDC04610B50400FEF7D8FE42
:1037800001002000FFF788F9FF23A380BFF35F8FBC
:1037900010BDC04610B504000120FEF7D5FE044B55
:1037A0009C46604480002060BFF35F8F10BDC04620
:1037B00040000034F8B5040006200D0000F060FA67
:1037C000002844D02A4B2B49E21853425A41802307
:1037D000DB039C469205284B62441A60274B1A6013
:1037E00010008B689843FBD1214B8021E3185A428B
:1037F0005341234A5B0049009952062000F040FAE9
:103800002900C00001F0FAFDC30921D140270121A0
:10381000260080256162A36200232C36AD0135436A
:103820002B60062000F02CFA3900800001F0E6FD44
:103830006023E26A53406E221A4080235B013343C7
:103840001A60104B236310232B600D3BA364F8BD5B
:103850000D4A934203D900230C4F0D49D8E77F222C
:103860001040013040089F0119003F180300CFE7C6
:103870000080FCBF00C0004000E0004000F00040BD
:10388000D808022001030000FEFF0000C0FF3F0037
:10389000FFFF00002C4B2D4A70B51A602C4A2D4BAF
:1038A0002D491A6014008B689C43FBD12B4D2C4E84
:1038B000B54208D2013E761BB60808CD98472300D2
:1038C0000134B342F9D100F07DF8264A214B1A6049
:1038D000214A9368DB43DB01DD09002BF9D140224B
:1038E000214B224C224E9A675A671A67DA66B44215
:1038F00008D223682000002B20D00834FFF73CFFBB
:10390000B442F6D31B4E1C4CC022A168300002F01A
:103910000BFCA660FEF7FEFDFFF79CF8FFF7E8FA48
:10392000164C174EB44208D2013E361BB60808CCDE
:1039300098472B0001359E42F9D170BD0834FFF73E
:103940000DFFB442D5D3DDE700E00040BFCDFBFE64
:10395000FE7F3C0000F0004000C0004074040020E6
:1039600084040020FFFFFF0100F0014064040020F8
:10397000740400200000002000ED00E0840400201A
:103980008804002000BEFDE70FB400B5084883B0EE
:1039900002F000FD049B002B07D005A9180001913F
:1039A00001F0B2FC034802F0F5FC00BEFDE7C046A2
:1039B00044E5021054E5021010B50148FFF7E4FF9A
:1039C00058E5021030B50C2083B000F0B7F9FEF7CF
:1039D00099FD00280ED0944B944A1A605A609A6060
:1039E000DA601A615A619A61DA611A62904A5A621F
:1039F00003B030BD8F4CA06700F0A8F901228E4BB8
:103A00001A60636C012BFCD103228C4B1A60894A2B
:103A1000936B012BFCD101330121894A8948009322
:103A2000043300F033F90523874A009301218748C6
:103A300000F02CF9864B5A68FF2A02D880225200E7
:103A40005A608022784C7D4B21691201804D1A60AA
:103A5000002905D0606901F0D1FC01300138FDD1A9
:103A6000E0217B4B02201A681140802252012A4338
:103A700011601968484003210140116004219A68CF
:103A80001142FCD08022802192012A430901116059
:103A9000802252005A606F4B23616F4B5968FF2997
:103AA00000D85A600321644A6B4B116002399A684E
:103AB0001142FCD0E0201A681040802252011A43C3
:103AC00010601868484003210140022011606249DB
:103AD0008A681042FCD08022920113438022120196
:103AE0001A6080225D4B52004A6063615C4B5968EA
:103AF000FF2900D85A6080225A4BE1691201584DC3
:103B00001A60002905D0606901F078FC01300138A5
:103B1000FDD1E02252490B681A4080235B012B4300
:103B20001A60802380229B012B4312011A6080229D
:103B30003E4B52004A60E3614B4B5968FF2900D865
:103B40005A608022494B216A1201474D1A600029B0
:103B500005D0606901F052FC01300138FDD1E0224E
:103B600041490B681A4080235B012B431A60802374
:103B700080229B012B4312011A60802380225B006C
:103B80004B602A4BD2022362394B5968914200D2D2
:103B90005A608022374B616A1201354D1A60002944
:103BA00005D0606901F02AFC01300138FDD1E02226
:103BB0002F490B681A4080235B012B431A60802336
:103BC00080229B012B4312011A608023DB024B6091
:103BD000174B6362284B5A68FF2A02D88022520092
:103BE0005A608022254BA1691201234D1A600029D9
:103BF00005D0606901F002FC01300138FDD1E022FE
:103C00001D490B681A4080235B012B431A608023F7
:103C100080229B012B4312011A6080235B004B60C2
:103C20000E4BA361E4E6C046C8050220006CDC022E
:103C30001BB70000008000403CB0004030B00040A6
:103C4000002F685900800240008C864700C0024067
:103C500030800040001BB7003C8000404059730793
:103C60005480004054B000406080004060B000408C
:103C70006C8000406CB000404880004048B000407C
:103C8000014B8000C0587047C8050220F0B5C646F9
:103C9000040000B50C2090461F000E0001F0AEFBA2
:103CA0004101091A8D01691AC900091889014046A4
:103CB00001F0A4FB069B3F041A0323681743002B63
:103CC00022DB1A4B1A4DE21853425A4180235B0102
:103CD0009C461203174B62441A60174B1A6011007E
:103CE000AB689943FBD1C022231D92011A432123C3
:103CF0002660A06013602368002BFCDA0823E760CD
:103D0000136080BCB846F0BD3F2322681340B34225
:103D1000D7D1A3681B051B0D8342D2D1EE22E368E5
:103D2000D2021340BB42CCD1EBE7C0460040FDBFFE
:103D300000C0004000E0004000F000408023024A44
:103D40009B000343D362704700800540AA23064AC4
:103D50001B0113602F230549D360054B196053687D
:103D6000002BFCDA7047C0460040024000B0FA0069
:103D7000006002409A4200D2885470477047C046A3
:103D8000F8B557464E464546DE46E0B599460A9B8D
:103D900007009A460D9B8846934615000B9E9B078D
:103DA00010D10C9B9E420DD29D1B14000E005D4451
:103DB00022004B46013431002020B847A542F7D1FC
:103DC000B0460B9E002E27D0444675195346AA1BB9
:103DD000013E985D21004B46B847002EF6D12300E6
:103DE0002C0098460D9B9B070FD55B46E51A0C9B54
:103DF000AB420AD94646984622004B463100202065
:103E00000135B8470134A845F6D82000F0BCBB46C0
:103E1000B246A946A046F8BD2C00E3E7F0B54F46F0
:103E20004646D646C0B584B098460EAB1B78129F66
:103E3000994694460D9C109B119EBA0725D4002EDE
:103E40004BD19C4200D3BFE001223A4092461F2C46
:103E500000D9B8E00C9A551E302201E0202C03D086
:103E600001342A55A342F9D85246002A0DD0A64261
:103E70000BD9202C44D00C9A551E302201E0202C66
:103E80003ED001342A55B442F9D1FA064DD57A050F
:103E90003FD4002C39D10F9B102B00D179E00F9B20
:103EA000022B00D18AE030230C9A012413704B4678
:103EB000002B3FD02D230C9A135501340C9B6246E6
:103EC00000930397434602960194FFF759FF04B00D
:103ED000E0BCBA46B146A846F0BD012215003D40FF
:103EE000AA463A422FD04A46002A02D10C323A4220
:103EF00000D0013E9C42BAD21F2CABD9202E27D92C
:103F00002024FA06DAD57A0503D4A3422DD0A6429E
:103F10002BD00F9B102B32D0022B20D0202CCDD0B9
:103F200030220C9B1B191A700134202CC6D04B4632
:103F3000002BBFD17B070DD43B07BFD520230C9AA4
:103F400013550134BAE79C429FD21F2C00D881E759
:103F500020249AE72B230C9A13550134AEE7202C2A
:103F6000ACD00C9B1B1901343AE0631E012C92D09B
:103F70000F9A102A2AD0022A2FD01C00D0E7BB06A5
:103F80000ED4202C9AD00C9B1A190134782313706C
:103F9000C4E7BB060DD478230C9A01241370BFE745
:103FA000202C00D18AE758220C9B1B191A7001346F
:103FB000B4E758230C9A01241370B1E70C9A6033CC
:103FC00001241370ACE7202400265EE7023CBA0609
:103FD000E9D40C9A12191C00D8E70C9A9246534463
:103FE00062221A709AE7C04610B5002800D110BDB1
:103FF00002F080F9FBE7C046F0B5DE4657464E4674
:104000004546E0B59BB09B46249B89469846259B38
:104010000B900C924046424619009A4601F0BFFCB4
:10402000002800D0D9E0012240465146774B524249
:1040300001F0B0FC002800D0CFE0012240465146FC
:10404000734B524201F090FC002800D0C5E00022E2
:1040500000234046514601F087FC002800D0B9E11A
:10406000424653460A9209938023289ADB001A405D
:104070000E92289A1A4201D1062326930A9A099B86
:104080001600134300D0C7E0289B002500261B051F
:1040900000D49BE100230D93269B19000D9B9942B0
:1040A00000DC9EE1C81A431E26938023289ADB0079
:1040B0001A430023002728920D93279B0024BB421C
:1040C00000D9DC1B0223289A1A400E92289A134228
:1040D00003D07B427B415B421C400D9B002B07D0F1
:1040E0000A9809992A00330001F0DDFB0A90099132
:1040F000002200234046514601F036FC002805D03E
:10410000802000068446099961440991289A414B10
:104110000B9D13400493269B0A9A0293099B0394D8
:104120000092019349465B4628000C9A00F08AF9F8
:104130000400002F62D0289B220098061F23C0177E
:104140009843631C984649465B466530A8470D9BDB
:104150000025DA179C18DB0F9A465440013F01E016
:10416000202D13D00AAA94461F23200063440A215D
:1041700001355E1901F042F93031317020000A2119
:1041800001F03CF926000400092EE9D80523069326
:10419000002304930A330393534605970B9F02931E
:1041A00012AB009342465B46494638000195FFF743
:1041B00035FE0E9B0400002B20D00C9BC51A279BBC
:1041C000AB421BD91E0022005B4649462020013528
:1041D000B8470134AE42F6D810E0289B424604931B
:1041E000279B49460393269B0B98029353460092C4
:1041F00001935B460C9A00F025F9040020001BB0E7
:10420000F0BCBB46B246A946A046F0BDFFFFEF7F1B
:10421000FFFFEFFFFFF7FFFF734B099F9C467800FE
:10422000400D604401F0CEFB704A714B01F059FB28
:10423000704A714B01F02EFB3B03704A1B0B1A4373
:1042400004000D00300011006D4B002201F019FB3D
:104250006C4A6D4B01F045FB02000B002000290069
:1042600001F018FB01F0C6FB0D9001F0ABFB674AB3
:10427000674B04000D0001F034FB0022654B01F098
:1042800009FB01F0B7FB644A0600644B20002900DB
:1042900001F027FB040030000D000F9601F092FBA7
:1042A0005F4A604B01F01DFB02000B00200029005B
:1042B00001F0E7FA02000B0006000F0001F011FB0D
:1042C000320004000D003B003000390001F0E2FA3A
:1042D000002210901191544B2000290001F0E3FAC4
:1042E0000022524B01F0D6FA02000B0020002900F8
:1042F00001F0D9FA00224E4B01F0CCFA02000B007B
:104300002000290001F0CFFA0D00802132000400C6
:104310003B000020C90501F0B4FA02000B002000A8
:10432000290001F0B7FA02000B001098119901F072
:10433000BAFA0022314B01F0ADFA3E4A0F9B944687
:10434000634400221B0501F0CCFA05000E000200B8
:104350000B000A98099901F007FB00280AD00D9B71
:104360002800013B31000D930022304B01F09BFAF5
:1043700005000E00C6270D992B0063318F42BF4107
:1043800028997F420437090500D496E6334300D1CB
:1043900082E6099C284A2100284B0A9801F0F2FA8B
:1043A000002808D000222100254B0A9801F0DCFAF1
:1043B000002800D070E6269B002B00D17DE60E9BE6
:1043C0005A1E9341269AD31A269376E60023042791
:1043D0000D9372E643460A9380231B0653440993C8
:1043E00042E60023269360E601FCFFFFFB799F5025
:1043F0001344D33FB3C8608B288AC63F0000F03F08
:104400000000F83F61436F63A787D23F71A379092A
:104410004F930A400000E03F1655B5BBB16B024018
:10442000EF39FAFE422EE63F00002C400000244007
:1044300000001840FF0300002D431CEBE2361A3F3A
:1044400080842E41F0B54E46DE4657464546E0B5DF
:1044500097B09946209E219F229B834698460791BC
:104460000C923B0032003000390001F098FA00282D
:1044700000D0A9E1012230003900CA4B524201F0BC
:1044800073FA002800D0E1E0012230003900C64B69
:10449000524201F07FFA002800D0B7E0002230003D
:1044A0003900C24B01F076FA002800D099E00022D2
:1044B00030003900BE4B01F057FA002800D090E0E0
:1044C000002200233000390001F04EFA002800D00D
:1044D000B1E000230D93249B5B0501D4062398468D
:1044E00008AB9C461722002430234146624404E076
:1044F000013413550139202C01D00929F8D88846F8
:104500003000390001F076FA4346DA00A94B050085
:104510009B181A685B680892099301F053FA02002D
:104520000B003000390001F0ACF9089A099B01F04A
:10453000D8F90A900B9101F081FA824601F03EFA17
:1045400002000B000A980B9901F09BF900229A4B8C
:104550000A900B9101F01EFA002800D1C0E001235F
:104560009C46E244504601F029FA02000B000898EC
:10457000099901F0FFF9002802D000239A4601357D
:104580004346002B6AD008AB17269C460895664424
:10459000554614E001235B4243440A2128009A4611
:1045A00000F02CFF013430313719397028000A210E
:1045B00000F024FF092D00D8D0E0D0460500202CC3
:1045C000E8D10EAB98460323249A1340012B00D167
:1045D00096E02023249A01930392239A4346029261
:1045E0001EE0249B58460493239B00960197039357
:1045F00043460C9A029307994B46FFF7FDFC17B010
:10460000F0BCBB46B246A946A046F0BD249B5B0762
:104610000ED40322694B24990192039123990291AC
:10462000009358464B460C9A0799FFF7A9FBE6E71B
:104630000422634BEFE73B0032000020002101F031
:1046400020F9012306000F000D9344E7249B0393F8
:10465000239B0293042301935A4BE1E7280001F0C6
:10466000B1F902000B003000390001F00AF9524B99
:10467000002206000F0001F077F90EAB98460028E3
:104680000AD10022300039004B4B01F083F9002899
:1046900002D1EB0700D50135202C94D008AA94460E
:1046A0001723280063440A2101341E1900F07EFEFE
:1046B0003031280031700A2100F078FE051EEBD160
:1046C0000323249A1340012B1BD0202C00D180E718
:1046D0000D9B002B35D02D224146631C0A5579E7EE
:1046E00000220A980B99344B01F03EF9002800D0C3
:1046F00046E75346002B51D101239C46E2443FE755
:104700002024239B002BE0D00D9B002B03D1249A67
:104710000C33134202D0239B013B2393239BA342E0
:10472000D3D908AB9C46172230236244202C00D1F9
:104730004FE72399013413558C42C6D0202CF8D171
:1047400047E7249B5B0724D4249A2300120700D454
:1047500040E72022414601330A553BE75746089D72
:10476000202C00D12DE7220030214046002F09D017
:104770000132B154202A00D123E7D3431B191B185F
:10478000002BF5D10EAB98462E234146541C8B547A
:1047900082E72B224146631C0A551BE7DB0700D446
:1047A000EEE6A9E7FFFFEFFFFFFFEF7F65CDCD410D
:1047B00065CDCDC160E702100000E03F64E5021066
:1047C00068E5021074E50210249B0393239B029377
:1047D00003230193004B23E770E50210F0B5DE469A
:1047E0004E4657464546E0B59FB01C00289B914673
:1047F0000993C94AC94B8B4608901A60002900D119
:1048000018E2002320789A46002800D11AE22600F8
:104810001D005C460AE02A006F1C4B46089D2100E3
:10482000A8473D0001363078002870D02528F2D105
:1048300010239B46083B9A46043B9846023B0021C6
:104840009C46721C107816000300203BDBB2102B34
:1048500003D8B34F9B00FB589F460300303B092B06
:1048600032D900230A932A2868D0002398462E289C
:104870003ED00300683BDBB2122B1CD8A94A9B0038
:10488000D3589F46012301321943DBE763460132C7
:104890001943D7E7434601321943D3E75B46013258
:1048A0001943CFE7534601321943CBE780235B001E
:1048B0007078194301360300253BDBB2532BAAD88D
:1048C000994A9B00D3589F4600270300B800C0199F
:1048D00001364000C018337830381A00303A0700EB
:1048E000092AF3D90A901800002398462E28C0D12F
:1048F00080237078DB0019430300303B721C092BC6
:1049000000D8A1E12A2800D1B2E11600B1E7A34600
:10491000AA462C00D14503D801235B424B449A465A
:104920004B46524659460020089DA84720001FB01C
:10493000F0BCBB46B246A946A046F0BD099B40CBA1
:104940000A96002E03DB50780993561C8DE7283811
:10495000014370420A9009935078561C85E77828E5
:1049600000D1DFE1582800D14CE26F2800D14FE39D
:10497000622801D100F030FC10230A009A430B9208
:10498000692801D000F0A9FC0A230C934B0500D53F
:10499000D0E10B9A802311009B0019408B461A42EC
:1049A00000D0A1E2802311005B0019408A461A4220
:1049B00000D0B6E313005B0600D5EDE213000999C1
:1049C0001B0601D400F076FC08C91BB2D8171A18D0
:1049D000424092B209919346DA0F1292002B09D10C
:1049E000802310220B99DB000B4091430B91002B8D
:1049F00000D0E4E20B9A6123920600D541230EA970
:104A00001F228C46DBB262440A3B5F461395A346E5
:104A100055460C9CB2460D9316000AE03033DBB2CB
:104A200001357355A74200D2EDE2202D00D1EAE214
:104A300007002100380000F0E1FCCBB20929EDD9D4
:104A40000D9A94466344DBB2EAE780239B007078BA
:104A5000194301362FE77078682800D1CDE1802313
:104A60000136194327E770786C2800D1BFE1802315
:104A70005B00194301361EE7462800D19BE107225F
:104A8000099B0491073393430A9A19000392424603
:104A900002920CC908980092019309912A004B4692
:104AA0002100FFF7CFFC01360500BCE62A006F1C91
:104AB0004B46089D21002520A84701363D00B2E65F
:104AC0008B0700D4ADE1099B2A009A466B1C9846DF
:104AD000534601CB21009A46089F4B46C0B2B847C7
:104AE0000A9B9C466544012B00D886E2089B4746FA
:104AF000B04626004C4699463A0023000137310063
:104B00002020C847AF42F7D1A1465346340046465D
:104B10000993013687E6C046DD4700109C08022055
:104B20007CE50210C0E502100CE60210099B04CBE4
:104B30009B4643460992002B00D1C6E013789C4661
:104B4000002B00D1BDE34346013B099A0133D01845
:104B50000A9F130001E0834203D05A780133002AF0
:104B6000F9D1099A0A979B1A0B9380230A00DB005C
:104B70001A400C92194204D00B9B434501D943467D
:104B80000B9302231A000A400D920B4200D187E1D9
:104B90006046002800D168E10C9B002B00D10DE19C
:104BA000A844C246099B57465B1B9846089BB246E1
:104BB0002A0026004C46994609E023003100551C86
:104BC000C8474346585D002800D126E12A00974295
:104BD000F3D1A1463D00340056460D9B002B00D07A
:104BE00043E15B46013609931DE6099B1A0008CA9A
:104BF0009246002B48D0212211438B460EA88446B2
:104C00001F216144099500220F27A4460D0002E0F0
:104C1000202A0CD00B003C001C4020003730092C0F
:104C200000D807380132A85419090F2BF0D8644670
:104C3000099D32E0DC4B2078089300239A46002837
:104C400000D0E4E5002465E6434606000A9F98008C
:104C5000C018013240008019167803003000303847
:104C6000303B0928F3D93000984616000A9700E631
:104C7000099B023604CB9046D2434046D2171040DF
:104C8000804609933078F4E51022080090431132F1
:104C90001043834600224905B0D55B46069308239E
:104CA000059343460493102303930023029316AB0A
:104CB000019200932A004B4621000898FFF7AEF8B6
:104CC0005346050001360993ADE513789C46002B49
:104CD00000D1F7E202235B4237E7202302009A4328
:104CE000472A04D180231B011943022398434528F6
:104CF00001D1202319430722099B049107339343D1
:104D00000A9A19000392424602920CC9089800922E
:104D1000019309912A004B462100FFF76DF90136F6
:104D2000050080E510230C930C230A009A430B9294
:104D30004B0503D501230B9A9A430B92692800D1A6
:104D400027E6642800D124E60B9A802311009B00FB
:104D500019408B461A4200D066E1802311005B00A7
:104D600019408A461A4200D039E213005B0600D58A
:104D70003CE113001B0600D4A6E2099B04CB1204FD
:104D8000120C934609935B46002B00D09AE10B9AD4
:104D90001033110099430B91520500D492E1002386
:104DA0009A460B9B06930A9B0593434604930C9BE0
:104DB000039300230CE12023194360E6099B0A9A20
:104DC0005B1B98464B4691461F00B2462600089C46
:104DD0002A003B003100A04743460135585D0028BA
:104DE000F6D14A463400B94656460A92F5E6C02343
:104DF0009B00B078194302365DE5C023B0781943B3
:104E0000023658E50C230A009A4314331A43103B28
:104E10000B920C934B058DD496E7A1463400564671
:104E2000DBE60A9A012A00D853E26B1E9F18089B02
:104E3000B04626004C4699462A0023000135310031
:104E40002020C847BD42F7D1A14634004646099B01
:104E50003A0001CB210098467D1C4B46089FC0B20A
:104E6000B847434601360993DDE40B9B0A99A846EF
:104E7000994200D8B5E68C466544ED1A089B474632
:104E8000B04626004C4699463A00230001373100CF
:104E90002020C847AF42F7D1A14634004646A0E6DD
:104EA0000B9A0A98531C904200D814E243199B1A9B
:104EB0001F00089BB24626004C4699462A00230054
:104EC000013531002020C847BD42F7D10A9BA146D9
:104ED00001330B93099B34001B7856469C46604671
:104EE000002800D058E67CE60722099B073393434D
:104EF000013294469C4462465F6809921A68FB1727
:104F00001093119310981199030053400E930B00C6
:104F10007B400F9394460E9A0F9B121A8B410E9270
:104F20000F93FB0F6246129300233A439B463DD0FA
:104F30000B9A6123920600D541230022DBB20EA911
:104F40000A3B8C4692460D9343461F3262441395AA
:104F5000159655460E9E0F9FA24690460C9C1493A4
:104F60000CE03032D2B2434601355A55BB4500D130
:104F70008AE1202D00D18AE106000F0022000023E3
:104F80003000390000F07CFAD2B2092AE9D90D9B31
:104F90009C466244D2B2E6E7FF23099904C9134054
:104FA0001A00099117E5C0467D3D00100B9A103399
:104FB000110099430B915205BAD500239A460B9BD9
:104FC00006930A9B0593434604930C9B0393129B01
:104FD00002935346019316AB2A00009321004B46DF
:104FE0000898FEF71BFF013605001CE4FF22099B11
:104FF00002CB11408B460993C5E6534645460993BB
:105000000136FFF710FC56465C46AA46139DD6E7CC
:1050100008230C930B910B99642800D084E60B9B1A
:105020005B0500D586E6B4E40722099B073393436A
:10503000013294469C44624609921A685B681000EB
:105040009B4613005A46134307D10B9A10331100A5
:1050500099430B91520500D5A1E60B9A6123920664
:1050600000D541230022DBB20EA90A3B8C469246B2
:105070000D9343461F3262445F461295A346554640
:105080000400B24690460C9E13930DE03032D2B22B
:10509000434601355A550023BB4200D100E1202D83
:1050A00000D100E104000F0032000023200039008D
:1050B00000F0E6F9D2B2092AE8D90D9B9C46624479
:1050C000D2B2E5E70B9A6123920600D54123DBB209
:1050D0000EA90A3B1F228C460D93230062445C46B6
:1050E0001295170055469B46B2460C9E08E0303399
:1050F000DBB201357B55B4420ED3202D0CD0040019
:105100003100200000F07AF9CBB20929EFD90D9ACD
:1051100094466344DBB2ECE756465C46AA46129DD1
:105120003FE6099B1A0008CAD91713925A184A4039
:105130009246DA0F1292002B08D1802310220B998D
:10514000DB000B4091430B91002B2BD10B9A612379
:10515000920600D541230EAA1F279446DBB20A3BD4
:105160000D9567445D460993A3465446B2460C9E8E
:1051700008E03033DBB201357B55B4420ED3202D2D
:105180000CD004003100200000F038F9CBB209291E
:10519000EFD9099A94466344DBB2ECE756465C4685
:1051A000AB460D9D0B9B2A0006930A9B210005939D
:1051B000434604930C9B08980393129B0136029379
:1051C0005B46019316AB00934B46FEF727FE139BFD
:1051D00005000993FFF727FB02230C931AE7099BAD
:1051E00004CB92461293002A08D1802310220B99F7
:1051F000DB000B4091430B91002B2BD10B9A6123C9
:10520000920600D541230EAA1F279446DBB20A3B23
:105210000D9567445D460993A3465446B2460C9EDD
:1052200008E03033DBB201357B55B4420ED3202D7C
:105230000CD004003100200000F0E0F8CBB20929C6
:10524000EFD9099A94466344DBB2ECE756465C46D4
:10525000AB460D9D0B9B2A0006930A9B21000593EC
:10526000434604930C9B08980393002302935B46E8
:10527000019316AB00934B46FEF7D0FD129B050041
:1052800009930136FFF7CFFAB44200D871E6149BB8
:1052900054460E960F97AA469846159E139D8EE685
:1052A000A64200D8FBE6139B56469846AA465C46A3
:1052B000129D76E508C9D8171A1842400991FFF7E0
:1052C0008AFB00230B9350E4099B04CB934609937C
:1052D00059E52F00BBE50B9301E6063B0C939AE6DC
:1052E0000EB4012210B585B007AC08CC01000094C3
:1052F000524204480394FFF771FA05B010BC08BC91
:1053000003B01847753D001010B5094A0300146832
:1053100084B0002C08D0012200910648524203A913
:10532000A047012004B010BD01F034F80020F9E7D7
:105330009C080220E93F001001480421014B184756
:105340000004002069530010142310B501001888D0
:1053500004331B88984710BD162310B50100188828
:1053600002331B88984710BDF8B54746CE4680B536
:105370000F1E19D01423994604330400002501267A
:1053800098464B461888434621681B88984701C4B5
:10539000431E9841013540420640AF42F1D13000F2
:1053A000C0BCB946B046F8BD0126F8E7124A936F73
:1053B0009B0815D29066D166002905D0FFE7FFE76C
:1053C000FFE7516F106F704704B580210906C217BF
:1053D0005140002800D0C84303F0EEFC002104BD7A
:1053E000F0B5146E556E576F166FFFF7E3FF146636
:1053F000556657671667F0BD000000D0114A936FDD
:105400009B0813D210665166002905D0FFE7FFE71D
:10541000FFE7516F106F704704B5002801D00020DE
:10542000C04303F0C9FC002104BDC046F0B5146EB2
:10543000556E576F166FFFF7E5FF14665566576791
:105440001667F0BD000000D094464E4A926F920855
:10545000624601D230E0C046F0B54A4EB56F6D08E5
:10546000FCD3346E756E776F366F00F025F8944676
:10547000444A14665566576716676246F0BDC046D3
:105480009446404A926F9208624601D258E0C04664
:10549000F0B53C4EB56F6D08FCD3346E756E776F0A
:1054A000366F00F04DF89446364A146655665767D5
:1054B00016676246F0BDC046002B24DB11D00029E0
:1054C0003EDA00B5C943404200D1013100F038F85E
:1054D000C943404200D10131DB43524200D1013384
:1054E00000BD002AEBD1002801D1002905D0002001
:1054F000C90FC90701D1C043410800B503F054FCEE
:105500000022002300BD00B500290ADBDB43524224
:1055100000D1013300F014F8C943404200D10131F9
:1055200000BDC943404200D10131DB43524200D1AA
:10553000013300F005F8DB43524200D1013300BDD6
:10554000002923D1002B18D1002A0CD0BC460D4FC6
:1055500038667A6600210023FFE7FFE7FFE77A6FEE
:10556000386F67467047002801D00748010000B532
:1055700003F01AFC0022002300BD02000B000020F3
:1055800000217047000000D0FFFFFFFF002B00D07C
:10559000BFE0130C28D1002AE7D080B4114F396640
:1055A0007A66FFE7FFE730B4040C7B6F396F1B04AA
:1055B00023433B667A66FFE7FFE7FFE7C04684B216
:1055C0007B6F3D6F1B0423433B667A66FFE7FFE773
:1055D000C04600232C042D0C7A6F386F00196941E6
:1055E000B0BC7047000000D0F0B594460025140E02
:1055F00001D112020835140F01D112010435940FA4
:1056000001D192000235D40F01D152000135D40BE3
:105610000134254F7C66254C3C660E0C93B2FFE7A7
:10562000FFE7FFE73C6F6643360C7703BE467343E4
:10563000DF0B5B04C01AB941130C7343DB18C91AA2
:10564000CE086643360CB64493B273431F0F1B015A
:10565000C01AB941130C73431F0B1B05C01AB94183
:10566000860D8F023E436643360C092D24DB520A19
:105670007243801A7703460A6643360C16235B1B77
:10568000DE40DF40BF1964466643821B7046043526
:1056900006330100D940A840C01900D30131A2420D
:1056A00006D20023F0BD0000000000D0FFFFFFFF86
:1056B000121B0130F3D3F1E709277F1BFE4064463C
:1056C000A2B27243801A00D20139220C7243130C29
:1056D0001204821A99410B007046043513370100F9
:1056E000F940A840801900D30131002B02D1A24219
:1056F0000AD2F0BD013000D30131121BFAD2013BB6
:10570000F8D1A24200D2F0BD013000D30131121B0A
:10571000F7E7F0B51C0C00D080E00CB400251C0AA3
:1057200004D11B02160E3343120208351C0B04D1A0
:105730001B01160F3343120104359C0B04D19B004F
:10574000960F334392000235DC0B02D192185B4175
:1057500001351C00971864410134464F7C66464C65
:105760003C660E0CFFE7FFE7FFE7C0463C6F664371
:10577000360C7703BE4697B27743C01B00D201397F
:10578000C01B00D201399FB27743C91BC91B170C3C
:1057900077437E04FF0B801BB941CE086643360C6D
:1057A0000C2D33DBB644120B1F053A431B0B97B28B
:1057B0007743C01B00D201399FB27743C91B170C36
:1057C00077433E043F0C801BB941860D8F023E4358
:1057D000664329277F1BFE400C3D7746AF40BF192B
:1057E00030BCA2B2ABB272437343801A9941220C0F
:1057F0007243130C1204801A994102000B00013706
:10580000001BA941F9D2781E0021F0BD0C277F1B97
:10581000FE4077467F0BAF40FF19E0E700245D1C98
:1058200007D0144F7D663966FFE7FFE7FFE7FFE724
:105830003C6F95B29EB265436643401BB141150C67
:105840001E0C6543664336042F0C3E432D04401B5B
:10585000B141994204D202000B0020000021F0BDAA
:1058600001D19042F7D3801A994101349942F2D381
:10587000F6E70000000000D0FFFFFFFF4840414076
:10588000484018B41B4B5B68FC46019308BD04DF1D
:105890001B5B001018B4174B1B68FC46019308BD36
:1058A00000DF255B00109446134A926F920809D2DC
:1058B000624618B40F4BDB68FC46019308BD0CDF51
:1058C000DD5D00100C4AF0B5146E556E576F166F03
:1058D0006246FFF7EEFF084A14665566576716677B
:1058E000F0BD18B4034B9B68FC46019308BD08DF6C
:1058F000815C001098050020000000D0FFB55040EA
:105900004240504059404B40594000E0FFB5154FD0
:105910004C00640D03D0BC4204D10C0314D8002009
:10592000090D09055C00640D03D0BC4204D11C03C1
:105930000AD800221B0D1B0501264B4009D44B4001
:1059400003D58B4200D18242FFBD9942FCD19042E7
:10595000FFBD0B43DB1803431343F5D0C94349187C
:10596000FFBD0000FF07000000B5FFF7CFFF80413B
:1059700000BDC04600B5FFF7C9FF01D9002000BD3A
:10598000012000BD00B5FFF7B9FF01D9002000BD1F
:10599000012000BD00B5FFF7B1FF804100BD01202F
:1059A00040054A00121804D85A00121801D80020E5
:1059B0007047012070470020704700000021002838
:1059C00005D17047C1174840401AFAD0C90713B52E
:1059D000064B1B6898470CBC441CA2401005120BD8
:1059E0000349091B09051943114310BDC0080220D2
:1059F0001F04000010B54C00620D8023D218DB009C
:105A0000D21A5B057E2A10DD9E3A13DACC17090301
:105A1000490819435242D140640001341532202A0A
:105A200005DAD0400843604310BD002010BD084691
:105A3000604310BDC80FC018013810BD18B4044B26
:105A40005B6AFC46019308BD24DF8D5F00100000F7
:105A500098050020132370B51D78012D15D010DD99
:105A60001C48FFF779FC1C4C01008022200000F04C
:105A70005BFB022D06D01948FFF766FC184B186037
:105A800070BD154C174BA364F5E7164B124C236001
:105A90006360A360E36023616361A361E3612362E8
:105AA0006362A362E36223636363A363E3632364C8
:105AB0006364A364E36423656365A365E3652366A8
:105AC0006366A366E36623676367A367E367A3640C
:105AD000D1E7C04653440000980500204C33000035
