:020000041000EA
:1000000000B5324B212058609868022188439860DF
:10001000D860186158612E4B002199600221596106
:100020000121F02299502B49196001219960352056
:1000300000F044F80222904214D00621196600F024
:1000400034F8196E01211966002018661A6600F04E
:100050002CF8196E196E196E052000F02FF8012189
:100060000842F9D1002199601B49196000215960AB
:100070001A491B48016001219960EB211966A021F2
:10008000196600F012F800219960164914480160C1
:100090000121996001BC002800D000471248134993
:1000A000086003C880F30888084703B5996A0420EC
:1000B0000142FBD001200142F8D103BD02B5186610
:1000C0001866FFF7F2FF186E186E02BD00000240BE
:1000D000000000180000070000035F00212200005C
:1000E000F4000018222000A00001001008ED00E03C
:1000F00000000000000000000000000074B24E7A12
:1001000000200420F7010010C3010010C5010010F9
:10011000C1010010C1010010C1010010C101001097
:10012000C1010010C1010010C1010010C701001081
:10013000C1010010C1010010C9010010CB01001065
:10014000CD010010CD010010CD010010CD01001037
:10015000CD010010CD010010CD010010CD01001027
:10016000CD010010CD010010CD010010CD01001017
:10017000CD010010CD010010CD010010CD01001007
:10018000CD010010CD010010CD010010CD010010F7
:10019000CD010010CD010010CD010010CD010010E7
:1001A000CD010010CD010010CD010010CD010010D7
:1001B000CD010010CD010010CD010010CD010010C7
:1001C00000BE00BE00BE00BE00BE00BE00F04BF888
:1001D000103800BEF2EB8871B4C10210D8C1021011
:1001E0003402001090A31AE700202149086006C8D5
:1001F00081F3088810471F48006800282FD10DA4FC
:100200000ECC002902D000F012F8F9E71A491B4A77
:10021000002000E001C19142FCD1194988471949E9
:1002200088471949884700BEFDE701C901C29A42C3
:10023000FBD37047D8C10210C00000207804002012
:1002400090C50210000004200000042090C5021098
:1002500000100420001004200000000070470B482C
:1002600003F010FC0047EFF30580C0B270470000B8
:1002700008ED00E0000000D078040020B40802205F
:10028000553500104D070010453600105756000038
:1002900006005250ABB3605348C0021006005250E3
:1002A000861C030258C00210060052505422A29D20
:1002B00068C0021005005250DE65F46890C5021057
:1002C000F8B5C04610B5064C2378002B07D1054B76
:1002D000002B02D0044800E000BF0123237010BDB2
:1002E000800700200000000068690010044B10B572
:1002F000002B03D00349044800E000BF10BDC046F6
:10030000000000008407002068690010F0B5DE4698
:100310004E4645465746E0B58FB000F02BFA4323D2
:10032000099335330893DB4B00269B46DA4B0024B8
:100330009A46DA4BDA4D9946872398464346F0228F
:100340000793069205940494039302923F2E00DCD7
:100350001CE17F2E00DDDDE0D24B693A0193F021F4
:1003600000232800009401F099F9A4230693029336
:10037000CD4B4022019323230792009305940494CC
:1003800003920333F0212800473201F087F9013648
:1003900001F07EFD002800D0E3E04B461B68072BF0
:1003A00012D8C24A9B00D3589F46FA2001F02AFD7A
:1003B000BF4B002800D103E1BE4A83CA83C3126841
:1003C0001A6007234A461360B94B87220393BA4B3E
:1003D000F0210293B94B280001930094002301F00F
:1003E000FDF9280000F0E2FFAD4B9D4200D1E5E0B1
:1003F0001D00A3E7FA2001F005FDAD4B002800D158
:10040000DEE0AC4A83CA83C312681A604B461C60A4
:10041000DAE7002001F0F6FCA54B002800D1D9E076
:10042000A74AEFE7AA2001F0EDFCA14B002800D17C
:10043000D2E0A44A83CA83C312681A604B464A4674
:100440001B6801331360BFE7FA2001F0DBFC984B17
:10045000002800D1B4E0974A83CA83C312681A60A7
:1004600003234A461360AFE702AA27239446634456
:10047000180001F09FFC0028A6D0272202AB9B1891
:100480001B78FF2B00D1EEE0F32B00D1F2E0C82B5C
:1004900000D1FBE0642B00D130E1502B00D130E1E2
:1004A000F22B00D139E1F42B8ED1814B864A83CADD
:1004B00083C383CA83C31168196091889980927934
:1004C0009A7106234A4613607EE701F0C7FC0028B4
:1004D00000D179E702AB1C855C8501F0D9FC0823CB
:1004E00000287BD1180001F08DFC282202AB9B185C
:1004F000187801F087FC2A2202AB9B18187801F0CB
:1005000081FC61E7FA2001F07DFC694B002857D09F
:10051000684A8FE76D4BF02128000193693A002368
:10052000009401F0BBF801F0B3FC002800D12FE7E4
:100530005B4652461B68126806930293644BF02197
:10054000019368232800079203920093872268335F
:100550000594049401F0A2F801F09AFC002800D15F
:100560001BE75B4652461B68126806930293584B82
:1005700007920193099B039200938722F0212800A0
:10058000089B0594049401F089F806E7454B693A05
:100590000193F02100232800009401F07FF8A423A8
:1005A00006930293404B4022019363239B1B0093CD
:1005B00007962623059404940392E3E6454DBDE691
:1005C000454A83CA83C311681960918899809279DA
:1005D0009A71F9E6414AF4E7414AF2E702A98C46EA
:1005E0002233634419000DAA0CA801F05BFC02AB96
:1005F0002820185E02AB2A229B5E089A8118F029F7
:100600001CDDF0220892099A991887291EDD87229D
:1006100009920200803220DA802202A952420A8521
:100620005B421BB21A00803262DA802302AA5B426C
:10063000538508230D9A1343DBB253E7CA43D217FD
:100640001140099A089199188729E0DCCA43D2170A
:100650001140020009918032DEDB7F28E0DD7F223D
:1006600002A90A85DCE7124B1E4A83CA83C383CAE8
:1006700083C3E3E60E4B1C4A83CA83C383CA83C386
:1006800012881A8004234A4613609DE6084B174AD5
:10069000F2E7C0467403002070030020100202201D
:1006A000D0070020DC670110FC6402109C6A001077
:1006B00020020220F0690010FCB60210FFFF0000CB
:1006C000386A0010146A00105C6A0010BC6A0010DE
:1006D000FCB90210F0040120006A0010486A001002
:1006E000246A001068690010806900109C6900107D
:1006F0007F2B00DD7F2302AA53859AE70F4B104A18
:10070000BAE70E4B0F4A83CA83C383CA83C31278E6
:100710001A7004234A46136056E6084B0A4A83CAF5
:1007200083C383CA83C311681960918899809279C1
:100730009A7105234A46136046E6C046200202200D
:10074000B8690010D46900107C6A001010B506F07A
:100750006FF801F0F9F8064803F05CFD01F08CFB3E
:1007600001200021404205F00BFB01F01FF9F7E7E3
:100770000D030010F0B5E84C83B0E849200003F009
:1007800073FC0722236880205A40CF234001134086
:10079000204303600121022001F056FC01210320C7
:1007A00001F052FC002003F0DBFCDD4A0300106086
:1007B0000020002B01DA00F0F1FDDA48DB020340F3
:1007C000D948DA4A03430020136001F06DFC05208C
:1007D00001F06AFC012001F067FC042001F064FCD8
:1007E000162001F061FCD026802301240221102272
:1007F00020273606DB037462012077627162726221
:100800007362776171617261B461736102F058FA69
:100810007461012002F054FA6B469D1D1123C44CF3
:100820002B802368002B00D1B761D026022701332B
:100830003606236001222900B748B76106F07CF82C
:1008400023687761013B2360002B01D12033736162
:10085000012002F035FA13232B802368002B03D1EB
:10086000D022202112069161D026022701333606BC
:10087000236001222900A848B76106F05DF82368CB
:100880007761012B02D120227261B261D02636221B
:10089000022736062A80236029009F48B761353A2F
:1008A00006F04AF823687761012B02D12022726199
:1008B000B261D02623600822022336062A7029005E
:1008C00073619548073A06F037F82368012B02D187
:1008D00020227261B261D026B622022736062A8013
:1008E000236029008C48B761B53A06F025F82368E3
:1008F0007761012B02D120227261B261D026236080
:100900000A22022336062A70290073618248093AB6
:1009100006F012F82368012B02D120227261B26125
:10092000D02623608222022336062A7029007361B2
:100930007948813A06F000F82368012B02D1202281
:100940007261B261D026B022022736062A80236067
:1009500029007148B761AF3A05F0EEFF236877616F
:10096000012B02D120227261B261D02623600022C5
:10097000022336062A70290073616748013205F0A8
:10098000DBFF2368012B02D120227261B261D026E5
:100990002360E022022336062A70290073615E4834
:1009A000DF3A05F0C9FF2368012B02D120227261D2
:1009B000B261D0263A22022736062A802360290017
:1009C0005548B761393A05F0B7FF23687761012BC5
:1009D00002D120227261B261D02623605522022307
:1009E00036062A70290073614B48543A05F0A4FF7B
:1009F0002368013B2360002B01D1203373610A205F
:100A000002F05EF9B2232B802368002B03D1D022A1
:100A1000202112069161D026022701333606236079
:100A2000012229003C48B76105F086FF2368776101
:100A3000012B02D120227261B261D02623600C22E8
:100A4000022336062A702900736133480B3A05F0F9
:100A500073FF2368012B02D120227261B261D0267C
:100A600023600C22022336062A70290073612A486B
:100A70000B3A05F061FF2368012B02D1202272613D
:100A8000B261D02623600022022336062A70290094
:100A900073612148013205F04FFF2368012B02D119
:100AA00020227261B261D0262360332202233606EF
:100AB0002A70290073611848323A05F03DFF236817
:100AC000012B02D120227261B261D0262360332231
:100AD000022336062A70290073610F48323A05F066
:100AE0002BFF2368012B02D120227261B261D02634
:100AF000B722022736062A80236029000648B761FC
:100B0000B63A05F019FF23687761012B12D1202234
:100B10007261B2610EE0C04600C00340005A62023A
:100B2000B0070020FD7F00FF11000800AC07002087
:100B3000B4070020D02623603522022336062A700F
:100B400029007361E448343A05F0F6FE2368012B6E
:100B500002D120227261B261D026BB220227360662
:100B60002A8023602900DC48B761BA3A05F0E4FE28
:100B700023687761012B02D120227261B261D026F5
:100B800023602822022336062A7029007361D24886
:100B9000273A05F0D1FE2368012B02D12022726191
:100BA000B261D026C022022736062A80236029009F
:100BB000C948B761BF3A05F0BFFE23687761012BD2
:100BC00002D120227261B261D02623600C2202235E
:100BD00036062A7029007361BF480B3A05F0ACFE57
:100BE0002368012B02D120227261B261D026C22279
:100BF000022736062A8023602900B748B761C13A28
:100C000005F09AFE23687761012B02D120227261E0
:100C1000B261D02623600122022336062A70290001
:100C20007361AD4805F088FE2368012B02D12022B4
:100C30007261B261D0262360FF22022336062A7039
:100C400029007361A448FE3A05F076FE2368012B63
:100C500002D120227261B261D026C3220227360659
:100C60002A80236029009C48B761C23A05F064FEDF
:100C700023687761012B02D120227261B261D026F4
:100C800023601022022336062A70290073619248DD
:100C90000F3A05F051FE2368012B02D12022726128
:100CA000B261D026C422022736062A80236029009A
:100CB0008948B761C33A05F03FFE23687761012B8D
:100CC00002D120227261B261D02623602027022344
:100CD00036062F700122736129007F4805F02CFE33
:100CE0002368012B01D17761B761D026C622022784
:100CF00036062A80236029007748B761C53A05F097
:100D00001BFE23687761012B02D120227261B26140
:100D1000D02623600F22022336062A702900736131
:100D20006D480E3A05F008FE2368012B02D12022FF
:100D30007261B261D026D022022736062A80236053
:100D400029006548B761CF3A05F0F6FD2368776161
:100D5000012B02D120227261B261D0262360A4222D
:100D6000022336062A70290073615B48A33A05F016
:100D7000E3FD2368012B02D120227261B261D026EB
:100D80002360A122022336062A702900736152488B
:100D9000A03A05F0D1FD2368012B02D12022726117
:100DA000B261D026E022022736062A80236029007D
:100DB0004948B761DF3A05F0BFFD23687761012B31
:100DC00002D120227261B261D0262360D022022398
:100DD00036062A70290073613F48CF3A05F0ACFD12
:100DE0002368012B02D120227261B261D0262360D8
:100DF0000022022336062A70290001323648736128
:100E000005F09AFD2268012A02D120237361B361A3
:100E1000D026022336062B7022602900736101223E
:100E20002D4805F089FD2368012B02D12022726133
:100E3000B261D02623600722022336062A702900D9
:100E400073612548063A05F077FD2368012B02D12E
:100E500020227261B261D02623600A220223360664
:100E60002A70290073611C48093A05F065FD236862
:100E7000012B02D120227261B261D0262360282288
:100E8000022336062A70290073611348273A05F0B9
:100E900053FD2368012B02D120227261B261D0265A
:100EA00023603222022336062A70290073610A4821
:100EB000313A05F041FD2368012B02D120227261F5
:100EC000B261D02623604422022336062A7029000C
:100ED00073610148433A01E000C0034005F02CFD76
:100EE0002368012B02D120227261B261D0262360D7
:100EF0004222022336062A7029007361E448413AEF
:100F000005F01AFD2368012B02D120227261B26123
:100F1000D02623600622022336062A702900736138
:100F2000DB48053A05F008FD2368012B02D1202299
:100F30007261B261D02623600E22022336062A7027
:100F400029007361D2480D3A05F0F6FC2368012BA5
:100F500002D120227261B261D026236012220223C4
:100F600036062A7029007361C948113A05F0E4FC7D
:100F70002368012B02D120227261B261D026236046
:100F80001422022336062A7029007361C048133ADE
:100F900005F0D2FC2368012B02D120227261B261DC
:100FA000D02623601722022336062A702900736197
:100FB000B748163A05F0C0FC2368012B02D1202265
:100FC0007261B261D026E122022736062A802360B0
:100FD0002900AF48B761E03A05F0AEFC23687761BD
:100FE000012B02D120227261B261D0262360D0226F
:100FF000022336062A7029007361A548CF3A05F00E
:101000009BFC2368012B02D120227261B261D026A1
:1010100023600022022336062A70290001329C48F0
:10102000736105F089FC2268012A02D120237361D3
:10103000B361D026022336062B702260290073612B
:101040000122934805F078FC2368012B02D120226D
:101050007261B261D02623600722022336062A700D
:10106000290073618A48063A05F066FC2368012B63
:1010700002D120227261B261D02623600A220223AB
:1010800036062A70290073618148093A05F054FC3C
:101090002368012B02D120227261B261D026236025
:1010A0002822022336062A70290073617848273ADD
:1010B00005F042FC2368012B02D120227261B2614B
:1010C000D02623603122022336062A70290073615C
:1010D0006F48303A05F030FC2368012B02D1202202
:1010E0007261B261D02623605422022336062A7030
:1010F000290073616648533A05F01EFC2368012BF2
:1011000002D120227261B261D026236047220223DD
:1011100036062A70290073615D48463A05F00CFCDA
:101120002368012B02D120227261B261D026236094
:101130000E22022336062A702900736154480D3AA4
:1011400005F0FAFB2368012B02D120227261B26103
:10115000D02623601C22022336062A7029007361E0
:101160004B481B3A05F0E8FB2368012B02D12022F3
:101170007261B261D02623601722022336062A70DC
:10118000290073614248163A05F0D6FB2368012B0B
:1011900002D120227261B261D02623601B22022379
:1011A00036062A702900736139481A3A05F0C4FBE3
:1011B0002368012B02D120227261B261D026236004
:1011C0001E22022336062A702900736130481D3A18
:1011D00005F0B2FB2368012B02D120227261B261BB
:1011E000D0262122022736062A802360290028489B
:1011F000B761203A05F0A0FB23687761012B02D18B
:1012000020227261B261D0262A22022736062A8065
:10121000236029001E48B761293A05F08DFB236839
:101220007761012B02D120227261B261D026236046
:101230000022022336062A70290073611448013205
:1012400005F07AFB2368012B02D120227261B26182
:10125000D02623602822022336062A7029007361D3
:101260000B48273A05F068FB2368012B02D12022A6
:101270007261B261D02623600122022336062A70F1
:1012800029007361024805F057FB236802E0C0465D
:1012900000C00340012B02D120227261B261D0262E
:1012A00023601722022336062A70290073613E4804
:1012B000163A05F041FB2368012B02D1202272610E
:1012C000B261D0262B22022736062A80236029000D
:1012D0003548B7612A3A05F02FFB23687761012B67
:1012E00002D120227261B261D02623600022022343
:1012F00036062A70290073612B48013205F01CFB69
:101300002368012B02D120227261B261D0262360B2
:101310003522022336062A70290073612248343AA6
:1013200005F00AFB2368012B02D120227261B26111
:10133000D02623600022022336062A70290073611A
:101340001948013205F0F8FA2368012B02D1202256
:101350007261B261D0262360BB22022336062A7056
:10136000290073611048BA3A05F0E6FA2368012BA8
:1013700002D120227261B261D026292202273606CC
:101380002A80236029000848B761283A05F0D4FA7A
:1013900023687761012B03D00120236003B0F0BDE7
:1013A00020227261B261F7E700C00340F0B5474602
:1013B000CE4680B5B24F80213B6806009A01B14B02
:1013C00083B09C464904624413680B42FCD110224E
:1013D000AD49CB681A42FCD1AC4C2368012B04D137
:1013E000D02220211206516191612360D0231B0677
:1013F0006A4698460223951D9946362243462A801E
:101400004A4629009A61A048013A05F095FA4346F8
:101410004A465A612368012B03D141461E324A6174
:101420008A612360D0231B06682298462A70022313
:101430004246290053619448012205F07DFA236851
:10144000012B00D013E1202241464A618A610A3211
:101450002A8001332360D0231B0698460223994635
:1014600043464A4629009A618748013A05F064FAE2
:1014700043464A465A612368012B03D141461E3236
:101480004A618A612360D0231B06002298462A7095
:1014900002234246290053617B48012205F04CFAA1
:1014A0002368012B03D1202241464A618A612360CF
:1014B000D0231B06282298462A7002234246290080
:1014C00053617148012205F037FA2368012B03D1DB
:1014D000202241464A618A612360D0231B060122F3
:1014E00098462A7002234246290053616648012229
:1014F00005F022FA2368012B03D1202241464A61DC
:101500008A612360D0231B06172298462A70022383
:101510004246290053615C48012205F00DFA236818
:10152000012B03D1202241464A618A612360D023E6
:101530001B06984602232B2299462A8043464A4698
:1015400029009A615048013A05F0F6F943464A46A7
:101550005A612368012B03D141461E324A618A61D8
:101560002360D0231B06002298462A70022342469D
:10157000290053614448012205F0DEF92368012B5C
:1015800003D1202241464A618A612360D0231B0691
:10159000352298462A7002234246290053613A4870
:1015A000012205F0C9F92368012B03D1202241460D
:1015B0004A618A612360D0231B06002298462A7064
:1015C00002234246290053612F48012205F0B4F955
:1015D0002368012B03D1202241464A618A6123609E
:1015E000D0231B06BB2298462A70022342462900BC
:1015F00053612548012205F09FF92368012B03D18F
:10160000202241464A618A612360D0231B06984606
:1016100002232C2299462A8043464A4629009A6191
:101620001948013A05F088F943464A465A61236849
:10163000013B2360002B02D142462033536110222C
:101640001149CB681A42FCD1A022D20594463B68CE
:101650000F4A9B0163441E605A600E4A9A600E4A0C
:101660001268DA6003B0C0BCB946B046F0BD2A22A9
:101670002A80002B00D0ECE6202241468A61E8E671
:10168000B00700201000005000C00340B407002045
:1016900008C0034020FD0000AC070020F0B557460D
:1016A000DE464E464546E0B589B00C0014990192DD
:1016B0008A4619990493002968DD0A0093461A00A6
:1016C0005B00C318139890468446169A059391467A
:1016D000169B26005B0063440793189B57464344C0
:1016E0009C46189B12994B449846179D4E436F4356
:1016F0008B44189B002B43DD019B8B4240DD00296E
:101700003EDB002D29DB159BAB4253DD079A7B00A6
:101710009146059A4B449146039373004B440293C0
:10172000B14600204646049A8846169B51460695C7
:10173000BA460EE099420EDD039F3F5A002A03DBB2
:10174000944201DD029D2F52013301320230B34237
:1017500023D0002BEEDA0027F0E7059B72009946B4
:1017600060464A448946049B002B03DB9C4201DD12
:1017700000211180013302329842F5D14946844656
:1017800001313619574401358B45B2D109B0F0BC4F
:10179000BB46B246A946A046F0BD57468A464146DA
:1017A000B0464E46069D01313619574401358B45EA
:1017B0009FD1EBE7059B7200994660464A448946F3
:1017C000049B002B03DB9C4201DD002111800133CF
:1017D00002328342F5D149468446D1E7F0B54E4600
:1017E00057464546DE46E0B58BB01E0014AB914629
:1017F00004CB80271B88904602934B009C46179B86
:101800000C001B780990002B00D194E07F20184039
:101810000A2800D196E060221A4200D193E04146A6
:10182000099B61439A46731C0493B31C0593F31CF4
:101830009B46331D0693731D0793B31D0893F31D39
:1018400089190393169B42464900454651449A46DE
:101850002038C000801A50440835B24601902E004E
:101860006046019B9B5C002A52DB914550DD5DB2D6
:10187000002D06DA5546002D03DBA24501DA029D54
:101880000D805D002F4206D0049D002D03DBAC428D
:1018900001DD029D4D809D002F4206D0059D002D4B
:1018A00003DBAC4201DD029D8D80DD002F4206D0BE
:1018B0005D46002D03DB5C4501DD029DCD801D01F1
:1018C0002F4206D0069D002D03DBAC4201DD029DB8
:1018D0000D815D012F4206D0079D002D03DBAC4238
:1018E00001DD029D4D819D012F4206D0089D002DF6
:1018F00003DBAC4201DD029D8D81FF25DB011D4232
:1019000006D0039B002B03DB9C4201DD029BCB81B5
:10191000013209189642A4D135005646083684464D
:10192000B44201DCA8460026179B013317931B78AD
:10193000002B00D06AE70BB0F0BCBB46B246A9460C
:10194000A046F0BDFEE7FEE710B50B2000F0ACFBB3
:101950000A2000F0A9FB002201210B2000F08CFBE3
:10196000002201210A2000F087FBD0238021802261
:101970001B060901D20099629A6299619A6100235B
:10198000064A07481360074A01211360064A13609C
:10199000012200F0D1FE012010BDC046A0070020AA
:1019A000C8070020C0070020C4070020F8B5CB4CB2
:1019B00023683C2B1AD8CA4A9B00D3589F4601F093
:1019C0006DFAC84D2A686B68801A9941002901D1C7
:1019D0001E280BD9D02380221B0612015A622368CD
:1019E0000133236001F05AFA28606960F8BD01F004
:1019F00055FABC4D2A686B68801A9941002901D1BB
:101A00001E28F3D9D02380221B0612019A62E6E732
:101A100001F044FAB34D2A686B68801A9941002995
:101A200000D189E1D0231B065B681B0500D4A7E128
:101A300023680133D02280211206090151622360FC
:101A400001F02CFA28606960D0E701F027FAA54D73
:101A50002A686B68801A9941002900D164E1D0237B
:101A60001B065B681B0500D485E12368591C9E4A50
:101A70001368D80700D573E1D02080260006F60051
:101A800046625B101360216001F008FA286069600B
:101A9000ACE701F003FA934D2A686B68801A99410C
:101AA000002900D144E1D0218023904A09061B017E
:101AB0008B6213785B0813704968490500D48EE780
:101AC000802149420B4313700121894A13784B400E
:101AD000137084E701F0E2F9824B1A685B68801AA0
:101AE0009941002900D11BE1D02380221B0612015D
:101AF0009A620023022223607E4B1A6076E7D0238D
:101B000080221B0612019A625B681B0500D41FE14C
:101B1000794E7A4F33683A68934200D166E7784D40
:101B2000280004F0F1FE33683A68934200D137E1AF
:101B30000721744AD25C01330B4033608026520087
:101B4000B6001643280004F0C7FE0022664B1E6054
:101B5000684B1A601B23236048E7D02380221B06B2
:101B6000D2009A625B685B05DA0F002B0CDB022364
:101B700023605E4B1A705E4B1A7037E7D0231B064A
:101B80005B681B0500D5A5E001F088F9554B1A6884
:101B90005B68801A9941002903D15B4B984200D8B9
:101BA00024E70023236021E701F078F94D4D2A68EE
:101BB0006B68801A9941002902D1052800D815E7E1
:101BC000D02380221B06D2005A6208E701F066F992
:101BD000444D2A686B68801A9941002900D0F9E6C3
:101BE000192800D802E7F5E601F058F93D4B1A68CC
:101BF0005B68801A9941002902D11E2800D8F5E6B9
:101C0000D02380223E4D1B0612019A62280004F068
:101C10007BFE07233D4A1168481C03403C4800688E
:101C2000834204D03148136006783A48465428006D
:101C300004F052FE1A232360D8E601F02FF9294B55
:101C40001A685B68801A9941002965D0D0238022E8
:101C50001B06D2009A62A4E701F020F9214D2A6800
:101C60006B68801A994100296ED0D02380221B0610
:101C700012019A625B685B0500D4B0E624E701F0CC
:101C80000DF9184D2A686B68801A9941002957D0C0
:101C9000D0231B065B681B0500D47CE0236801335E
:101CA000134A1278002A70D0D02280211206C9006F
:101CB0005162C4E6D02380221B0612019A621C23C3
:101CC00023600B4B00221A7001F0E8F8054B1860F6
:101CD00059608BE603232360044BF3E7A007002041
:101CE000DCBE02107804002014020220AB0802209F
:101CF000AA0802209C070020B8070020BC0700208B
:101D0000C807002018020220983A0000C4070020EB
:101D1000C0070020A4070020052800D866E695E744
:101D20001E2800D862E6DFE60F2800D85EE696E6B9
:101D30001E2800D85AE6B6E60F2800D856E671E607
:101D40000F2800D852E6A3E71E2800D84EE68CE7FD
:101D50000123236001F0A2F8134B1860596045E697
:101D6000D020802601270006F60086620F4E3078CC
:101D70007840307085E601220D4B01211A6076E62D
:101D800001220B4B1A60012354E6D0228021120657
:101D9000C900916253E60122054B1A6001237FE7D7
:101DA0008026B600CEE6C04678040020AA080220AD
:101DB0009C070020F8B50F4E0F4C336822680500D1
:101DC000934213D00D4F380004F09EFD3368226813
:101DD00093420DD00A4AD15C07220133134033608D
:101DE0003800297004F078FD0120F8BD0020FCE7E0
:101DF0000021F5E7C0070020C4070020C807002025
:101E0000A4070020F0B5C6460724104D104E2B68DD
:101E100032680133070000B52340934214D00D4BC4
:101E20001800984604F070FD2B685A1C1440326864
:101E3000944202D0084A2C60D754404604F04CFD2E
:101E4000012080BCB846F0BD0020FAE7BC070020A6
:101E5000B8070020C807002018020220044B1868A9
:101E6000044B1B68C01A43425841C0B27047C04679
:101E7000B8070020BC07002010B504F079FB012250
:101E80000121024800F058FC10BDC046780802202D
:101E9000034B1878013843425841C0B27047C046DE
:101EA000AD080220F8B5104B06001B780D00140099
:101EB000012B04D0002303800B801360F8BD0B4F6F
:101EC000380004F021FD0A480A4903880A4A338091
:101ED0000B882B80136823600023038038000B805D
:101EE000136004F0F9FCE9E7AD080220780802204D
:101EF000A6080220A808022060080220F8B547467C
:101F0000CE4680B505000C0090461F0004F032F963
:101F100000281FD002280DD0002004F0A1FC0222CE
:101F2000144B1A702800210004F032F9C0BCB946E5
:101F3000B046F8BD013804F093FC01220D4B1A7035
:101F400000230D4A13800D4A13800D4A13600D4A79
:101F50001360E7E70C4BE600994636197600B01C93
:101F60003B0042460421484404F09CFA4B469855F5
:101F7000D2E7C046AD080220A6080220A808022029
:101F80006008022064080220380802200022014B69
:101F90001A707047AD080220F0B5C64600B50400BF
:101FA0000D00160004F0E6F8022806D029002000F3
:101FB00004F0EEF880BCB846F0BD1F4F380004F0C6
:101FC000A3FC01231D49F3560A8812B29B18181C62
:101FD0001BB27F2B2BDC02B27F3224DB184B00B20A
:101FE0001A889C460223F35612B29B181A1C1BB285
:101FF0007F2B12DC131C12B27F320BDB07223678E8
:10200000088032400F4E380032606246138004F080
:1020100063FCCBE77F235B42F0E77F22131C12B205
:102020007F32EBDAF6E77F235B42181CD6E77F208E
:1020300002B27F32D2DAF6E778080220A608022040
:10204000A808022060080220094A83009446402222
:10205000634410B51C68C0006240C0241440802254
:10206000520113431C60034B9C466044416010BD09
:1020700004C00140004001400A4B80009C460423FC
:102080006044002901D00C230821002A00D10B0054
:10209000026853400C221A4080235B0118430260FF
:1020A0007047C04604C001400123D022834012067D
:1020B00093629361094A83009446402263441968FD
:1020C000C0004A40C02111408022520113431960D0
:1020D000034B9C46052360444360704704C00140A5
:1020E0000040014070B5EFF3108C72B60D4D2B68B7
:1020F000002BFCD0BFF35F8F0724CB08C618C05C51
:1021000001230C40A3401C000440034207D10343B9
:102110003370BFF35F8F2C608CF3108870BD10009C
:1021200001F092FA2C0100D0F8B54746CE46884619
:1021300080B5EFF3108C72B6214D2C68002CFCD0CA
:10214000BFF35F8F9A422CD8D4080727055D061984
:1021500001241740BC402C421FD00721012789468B
:1021600009E0D408055D06194C4639001440A14029
:102170000C00294211D001329342F2D20120404298
:10218000BFF35F8F00220E4B1A608CF3108800287B
:102190000FDBC0BCB946B046F8BD2C43100034700C
:1021A000EEE7BFF35F8F00232B608CF310880120D4
:1021B00040424346002BECD0089801F045FAC04657
:1021C0002C0100D0024B18688007C00F7047C04632
:1021D00000C006400021044B044ABFF35F8F02C3D6
:1021E0009342FAD17047C046000100D0800100D070
:1021F000044A1078431CDBB2172B00D9102313704C
:102200007047C0467803002000B5054B83B001003D
:10221000009318221F230348FFF786FF03B000BD79
:10222000D0BF02108405022001238340002904D07E
:10223000034A1360034A13607047034A1360FBE7C5
:1022400080E200E000E100E080E100E00122824065
:10225000034B1B6813405A1E9341D8B27047C046C7
:1022600000E100E0024B10309B688000C0587047CE
:1022700000ED00E070B50D00EFF3108672B60F4A66
:102280001368002BFCD0BFF35F8F0D4B10309B68A1
:1022900084001B590B4A934203D09D4201D001F0A8
:1022A000EBF9074B9B681D51BFF35F8FBFF35F8F47
:1022B0000022024B1A6086F3108870BD240100D002
:1022C00000ED00E0CD010010F0B557464E46DE4669
:1022D0004546E0B585B0060002911700EFF3108B7C
:1022E00072B6674A1368002BFCD0BFF35F8F0025DE
:1022F000644B5D579A46002D00DAA5E06B00624CF6
:1023000003935B199B009846A146C1444B46524635
:102310009B79103613705D4BB2009B6801929958FF
:102320000B1B2F2B34D95A4B994200D0A5E0039BAD
:10233000584A9C46584B6544AD00635343460233AC
:102340006519E418554B0121043B1B1B1B055B0D54
:1023500013436B80524BEF71AB80FF23AB71029B39
:10236000AB604B460B431900484B019A9B68995050
:10237000BFF35F8FBFF35F8F0022414B1A608BF377
:10238000108805B0F0BCBB46B246A946A046F0BDD9
:1023900001200A008243D379BB422FD845464E46DE
:1023A000130040491B1B5B415943090D3A4B6353D2
:1023B0003A4B02356519043B5B1B1B05354D5B0D24
:1023C0002B4373800426B446E0444444131F1B1B74
:1023D0004C46A17102991B05A16049465B0D2B4338
:1023E000A380314BE77101431360BDE75800C0186B
:1023F00080002018C679BE422CD902000623D3568D
:10240000002BF3DA101D8246BD2000028046042610
:102410007642B446E14450464E46361A3005400DE9
:10242000824656461B48957106439680039A944609
:1024300065441D4AAD00641922604246A371029BA7
:10244000A280E771A3608FE701F016F900255346DB
:102450005D5753E7101D824690884005001584465D
:102460004046D444664604302018301AE026000561
:10247000400D360230438046C9E701F0FDF856E7CB
:10248000240100D0AF0802207C03002000ED00E012
:10249000CD01001000E0FFFF00A1FFFFAC03002012
:1024A00000BDFFFFAAAA000001488047F0B5DE4644
:1024B00057464E464546E0B50C0083B0EFF3108A10
:1024C00072B65A4A1368002BFCD0BFF35F8F1022FC
:1024D000914681444A46564B96009B689D59554B00
:1024E00098469D4205D0A54216D0534FEB1B2F2B8B
:1024F00014D94F4B9B689D51BFF35F8FBFF35F8F24
:1025000000224A4B1A608AF3108803B0F0BCBB4625
:10251000B246A946A046F0BD1D00EAE7012383406C
:102520009B465A46454B1B681A4000925A46444BFC
:102530001A60BFF35F8FFDF796FE0190002803D06D
:10254000814501D001F098F801232A009A4393684D
:102550009C4208D15FE04B005B189B00FB18996818
:10256000A14211D01A00062151560029F3DA009B2E
:10257000002B05D05A46334B1A60304B1A60B8E72F
:102580005A462F4B1A60B4E706215956002921DB21
:102590004A00501880003C188046A0689860E07996
:1025A000D871062020569871002824DBA488F81AD8
:1025B0006405241544440019E0240005400D24025C
:1025C000204398805218204B9200BF181A78197037
:1025D000BA71CCE70199002910D1FF3191711B49E3
:1025E000918019490A789A71194ADB1B5B415A4359
:1025F000120D0A70BBE7BD200002E2E7154A16493A
:10260000D21A083A5002400D0143998013495208EA
:102610000A43DA80ABE70621515613000029B7DAE6
:10262000019A002AEAD14546DBE7C046240100D0E2
:1026300000ED00E0CD0100107C03002000E100E08F
:1026400080E100E080E200E0AF08022000BDFFFF73
:10265000AAAA0000B603002000F0FFFF00F8FFFF69
:10266000F8B5012504000543FDF7FDFDEFF3108CDF
:1026700072B6214A1368002BFCD0BFF35F8F1F4E48
:102680002100B7681E4A1F4B891A49414B431B0D55
:1026900059B28300F858A8421CD00623D3568B4267
:1026A0001CD01223D3568B4222D01E23D3568B42EA
:1026B00020D02A23D35603208B4210D0124B1A78F5
:1026C0001970A271BFF35F8F00220B4B1A608CF35D
:1026D0001088F8BDB2680D48D050EFE700204300E5
:1026E0001B189B00D218FF239371094B9380E5E7D9
:1026F0000120F4E70220F2E7240100D000ED00E021
:102700007C030020AAAA0000AF080220CD0100101F
:1027100000BDFFFF054B064A1360064A1360536075
:102720009360D360136153619361704780808080B0
:1027300000E400E004E400E070B504000E001500C1
:10274000FFF756FD0100200000F006F8A680E580A6
:10275000BFF35F8F70BDC046024B9C466144890049
:10276000016070474000003483680B4810B5844610
:1027700061446244090112019A18591854684B685F
:1027800001209C4201D802D00020C0B210BD1268C6
:102790000B689A42F9D8F7E7FFFFFF0F0A4B196859
:1027A000EFF3108072B60A68002AFCD0BFF35F8F87
:1027B0001B68BFF35F8F00221A6080F3108840BF50
:1027C000002000217047C04684080220F8B5574613
:1027D0004E464546DE46E0B599460CAB1C780DAB3F
:1027E0001B78060090469A460768002C11D1BC7BE6
:1027F000002C42D065003B682D19033D59194B78D8
:10280000BB73002B00D1FB7300238B704B700B70DC
:1028100004E065003B682D19033D5919B2682A4B45
:1028200094464246E3181B0163441A604A465A60C4
:102830000A9A9A600B9ADA6000238B704B700B70C7
:102840007B7B9B46002B2BD022005946B8687B68C7
:1028500098473A68002816D05B4658465B005B44B0
:102860005519033BA870D118D35C002B00D06B70B6
:102870005B460C707B73A34513D0F0BCBB46B246DD
:10288000A946A046F8BD5B465B005B44033BD318FA
:102890009C705119525D002A00D05A705B460B7033
:1028A0007C7342464B46307D00F058FB051E06D037
:1028B0005346002B03D12100306800F071FD0E9BC0
:1028C000002BDAD01D70D8E7FFFFFF0FF0B5DE4612
:1028D0004E46574645460023E0B58DB00A936B4BF4
:1028E0008200D3580B90994600239B464B46079392
:1028F00000F0D4FA079C06000F006268EFF3108521
:1029000072B61368002BFCD022000794BFF35F8FD0
:102910002468637B9946002B67D092685C4B904695
:102920004B441B01984443461A685B681000190029
:10293000801BB94100295FDD0B9800F00FFB0023DD
:102940000026984600279A46079C6368BFF35F8F6E
:102950005A461A6085F310885346002B08D1002888
:10296000C6D10DB0F0BCBB46B246A946A046F0BDEC
:102970000A9B414618024B461843D04708900991DC
:102980006268EFF3108572B61368002BFCD00794D1
:10299000BFF35F8F0899099A002A48DB114303D0DF
:1029A000079B1B69002B5DD1079B1B68D97B002906
:1029B00007D04A00521819688C4649466244033AC7
:1029C00051704A46DA734B46079A013BD168CA5C9C
:1029D0000132CA545B46079A13615368BFF35F8F95
:1029E0005A461A6085F3108882E70023002698462D
:1029F00000279A460020A7E7002901D100289BD193
:102A00000021200000F04EFC43461E685F689B6872
:102A1000079A9A464346DB689846D3684B44013B85
:102A20001B780A931B020343136100208CE7236980
:102A3000002BB9D033003C005B1A94411A002300EC
:102A4000A74219D89F421BD05946049101210391F6
:102A50004946029141460191514607980091FFF77E
:102A6000B5FEB7E700F01AFA089A099B06000F00B6
:102A700092197B419942E5D901225242D317E3E7EB
:102A80009642E1D901225242D317DDE768080220BD
:102A9000FFFFFF0FF8B557464E464546DE46E0B508
:102AA000404D81468A466A68EFF3108872B6136813
:102AB000002BFCD0BFF35F8F2E68B47B002C39D085
:102AC000670033683F19033FDB195A78B273002A55
:102AD00000D1F273A968344A8C464946A218120103
:102AE0006244116051465160304991600021D160CB
:102AF000997059701970737B9B46002B35D022005A
:102B00001900B068736898473268002820D05B4687
:102B100058465B005B44D719033BB870D118D35CAF
:102B2000002B00D07B705B460C7073735C451DD02E
:102B3000002626E06B68BFF35F8F1C6088F3108867
:102B400001204042F0BCBB46B246A946A046F8BDB3
:102B50005B465B005B44033BD3189C70D119D25D8C
:102B6000002A00D05A705B460B7074734A46534675
:102B7000287D00F0F3F9061EDAD02100286800F065
:102B80000FFCEB681B19013B19786B68BFF35F8F73
:102B900000221A6088F310880020002ED2D108028B
:102BA0002043CFE7C4030020FFFFFF0F9D27001045
:102BB00010B5124C6368002B04D00A211048FFF7AF
:102BC000CBFD10BD23000F4A1021206800F088FAC9
:102BD000032000F057F9032000F030FA03200A49DF
:102BE00000F076F9FFF704FB084B9C460323604492
:102BF0002375074B80006060DC60DEE7C4030020C3
:102C00008408022069270010CD28001040000034FD
:102C100068080220F0B504000D0006267642F7177A
:102C2000C64636196F4100B58F4213D810D000F058
:102C300035F932003B00121A8B41002B14DC002BBB
:102C400037D02900200000F033F980BCB846F0BD31
:102C50008642ECD90026002700F020F932003B0024
:102C6000121A8B41002BEADD30003900FFF712FF0A
:102C70000028E6DB00239846BC460F4A0F4F7B6ACC
:102C80009C4504D8B96A8E42DBD99C45D9D11168DC
:102C9000EFF3108072B60B68002BFCD0BFF35F8F90
:102CA0001368BFF35F8F4146196080F3108820BF1F
:102CB000E5E7002AC5D0D7E7840802200040054098
:102CC00070B5060000F0EAF8FA2204000D000023B7
:102CD00030000021920000F08DFF001969418D4203
:102CE00005D802D0FFF796FF70BD8442FAD90120C3
:102CF0004042C117F6E7C046F8B5CE46474680B514
:102D000006000C00FFF7C6FE00280CDC2D4B00204F
:102D1000596A8C4203D89B6A0130B34245D3C0BC88
:102D2000B946B046F8BD20BF274D6A68EFF310875B
:102D300072B61368002BFCD0BFF35F8F2B68C1B253
:102D40009C465B7B8B4235D0FF2303405A00914663
:102D500062461268994490464A464244033A927841
:102D6000002A1DD0EA68000A90464344013B1B78C4
:102D7000C0B2834221D06B68BFF35F8F00221A601C
:102D800087F310880F4A0020536A9C42C7D8926A82
:102D90000130B242C3D2E01A421E9041C0B2BEE737
:102DA0002B699842E7D12A61E5E7601A431E9841F2
:102DB000C0B2B4E7FF230340D4E7604600F0F0FA66
:102DC000D9E7C04600400540C4030020F0B5D64610
:102DD0004F464646C0B5EFF305833F221340180027
:102DE0001038EFF3108C72B6204D2A68002AFCD000
:102DF000BFF35F8F0122110081401D4C8846616343
:102E00001C4917000E788A463100C1400F400A4223
:102E100009D1BFF35F8F2F608CF31088E0BCBA46F6
:102E2000B146A846F0BD14498200646A51588C42EC
:102E30000FD3124BD25843469E4353461E70BFF3E6
:102E40005F8F00232B608CF31088002AE6D0904718
:102E5000E4E70B4A9B00904643441A681A60BFF3AC
:102E60005F8F00232B608CF31088D7E7280100D0F8
:102E700000400540B00802208808022074050220A6
:102E8000D03F054010B50100024A0348FFF72AF978
:102E900010BDC046ECBF0210AC080220034B596ABB
:102EA0000A00986A596A8A42FAD170470040054080
:102EB000064A536A9942FCD807D1044B02E05A6A89
:102EC000914202D19A6A8242F9D37047004005408C
:102ED00070B504000D00EFF3108672B61A4A13683D
:102EE000002BFCD0BFF35F8F002D1BD02000FFF71D
:102EF000B9F9164981420AD02000FFF7BBF9012138
:102F00002000FFF791F90123A340114A1360114BF0
:102F1000A400E550BFF35F8F00220B4B1A6086F3CD
:102F2000108870BD0B4BA200D5500122A2400A4967
:102F300020000B7893430B700449FFF7B7FA002188
:102F40002000FFF771F9E5E7280100D0CD2D001032
:102F50003860054074050220B0080220F0B54F46E5
:102F6000D6464646C0B507002F4C616A0D00A66ADA
:102F7000616AA942FAD18B4208D805D00120E0BC91
:102F8000BA46B146A846F0BDB242F7D9EFF3108A6F
:102F900072B6264801680029FCD0BFF35F8F012577
:102FA000BD402349204C8846097889462943C9B247
:102FB0008C46414660460870391D1E48890065638D
:102FC0000A51B9000B50216A0020294219D0616AC8
:102FD0000800A66A616A8142FAD18B4219D801D1F0
:102FE000B24216D8CC451DD00F4B1F201D625D6329
:102FF00001230740BB40104A1E38136043464A462F
:103000001A70BFF35F8F0022084B1A608AF3108892
:10301000B5E70020BFF35F8F0022044B1A608AF3EC
:103020001088ACE70120ECE700400540280100D003
:10303000B00802208808022080E200E0EFF3108C44
:1030400072B60A490B68002BFCD0BFF35F8F0123D7
:103050008340074A0748136202789A430270BFF31D
:103060005F8F00230B608CF310887047280100D01D
:1030700000400540B008022070B50500140016009D
:10308000002915D00C00002A12D080686B68984780
:10309000296800280ED073009B196200033B1219A7
:1030A000CB18033A9C7088188A5C002A15D10670E8
:1030B000200070BD63001B197200033B9219CB18EE
:1030C000033A9E7088188A5C002A02D1047034008A
:1030D000EEE75A7004703400EAE75A700670E7E7CA
:1030E00030B583600023CCB2437301330473426074
:1030F0008373C4730D000068012C06D9421C013390
:10310000DBB2137003329C42F9D1FF2129404B00FE
:103110005918002340180338437030BDF8B5CE4627
:10312000474606000C0080B5002907D04D00036813
:103130006D18033D5A195778002F04D12000C0BCE8
:10314000B946B046F8BD7900C919033988464344E9
:103150005978894600215970517073683A002100EE
:10316000806898473368002814D042469A189470B3
:1031700059195B5D002B00D053700F702700494632
:103180003000FFF7CBFF390002003000FFF774FF7B
:103190000400D3E7424641465D19AF709A185B5C64
:1031A000002B00D06B701470E9E7C046F0B55746AD
:1031B0004546DE464E46E0B50D006B0001685B19E2
:1031C000DF1E0400C85D83B00192CA1900284CD0EC
:1031D00043001B18033BCB185E78B446002E16D173
:1031E000019E002E3ED0E67B002E04D073009B197A
:1031F000CB18033B5D70E57300282FD1002353707B
:1032000003B0F0BCBB46B246A946A046F0BD720072
:103210006244033A89184A78904600224A709146DF
:103220005A70010032002000FFF726FF4346824615
:10323000002B07D05B0021684344033BCB185A782E
:10324000002A16D1424651462000FFF715FF21689B
:10325000019BCA19002BC6D10028CFD043001B18F0
:10326000033BCB1800219970C8E7019B002BBAD112
:10327000C4E7500080180338091848788346484648
:103280004870587041462000FFF7F6FE59468046C8
:103290002000FFF743FF414602002000FFF7ECFE4D
:1032A0008046CFE7F0B557464546DE464E46E0B588
:1032B00083B00191457B04006B0000685B19DF1E41
:1032C000C15DC21900294ED04B005B18033BC318E7
:1032D0005E78B446002E18D1019E002E40D0E67BC9
:1032E000002E04D073009B19C318033B5D70E57377
:1032F000002931D1002328005370617303B0F0BC62
:10330000BB46B246A946A046F0BD72006244033AED
:103310008018427890460022427091465A702000F0
:103320003200FFF7A9FE43468246002B07D05B0020
:1033300021684344033BCB185A78002A17D14246F0
:1033400051462000FFF798FE019B01002068C2193A
:10335000002BC4D10029CDD04B005B18033BC31810
:1033600000209870C6E7019B002BB8D1C2E750003F
:1033700080180338091848788346484648705870C2
:1033800041462000FFF778FE594680462000FFF7AF
:10339000C5FE414602002000FFF76EFE8046CEE7E4
:1033A00070B5040000292CD0437B8B422ED00568D9
:1033B00048004018033828188278002A21D053008A
:1033C0009B18033BEA5CEE188A4202D11BE0002AFC
:1033D00008D053009B18033BEB185A788A42F6D169
:1033E00042785A7000230122837043702000FFF757
:1033F000DDFE617B02002000FFF73EFE60730120CE
:1034000000E0002070BD43783370EBE70122190023
:10341000FFF7CCFE60730120F4E7C04610B504004E
:10342000FEF7E6FE01002000FFF796F9FF23237167
:10343000BFF35F8F10BDC04610B50400FEF7D8FE85
:1034400001002000FFF788F9FF23A380BFF35F8FFF
:1034500010BDC04610B504000120FEF7D5FE044B98
:103460009C46604480002060BFF35F8F10BDC04663
:1034700040000034F8B5040006200D0000F060FAAA
:10348000002844D02A4B2B49E21853425A4180234A
:10349000DB039C469205284B62441A60274B1A6056
:1034A00010008B689843FBD1214B8021E3185A42CE
:1034B0005341234A5B0049009952062000F040FA2C
:1034C0002900C00000F010FBC30921D140270121D1
:1034D000260080256162A36200232C36AD013543AE
:1034E0002B60062000F02CFA3900800000F0FCFA76
:1034F0006023E26A53406E221A4080235B0133430B
:103500001A60104B236310232B600D3BA364F8BD9E
:103510000D4A934203D900230C4F0D49D8E77F226F
:103520001040013040089F0119003F180300CFE709
:103530000080FCBF00C0004000E0004000F0004000
:103540009808022001030000FEFF0000C0FF3F00BA
:10355000FFFF00002C4B2D4A70B51A602C4A2D4BF2
:103560002D491A6014008B689C43FBD12B4D2C4EC7
:10357000B54208D2013E761BB60808CD9847230015
:103580000134B342F9D100F07DF8264A214B1A608C
:10359000214A9368DB43DB01DD09002BF9D140228E
:1035A000214B224C224E9A675A671A67DA66B44258
:1035B00008D223682000002B20D00834FFF73CFFFE
:1035C000B442F6D31B4E1C4CC022A168300000F060
:1035D00081FBA660FEF7FEFDFFF79CF8FFF7E8FA17
:1035E000164C174EB44208D2013E361BB60808CC22
:1035F00098472B0001359E42F9D170BD0834FFF782
:103600000DFFB442D5D3DDE700E00040BFCDFBFEA7
:10361000FE7F3C0000F0004000C000406404002039
:1036200074040020FFFFFF0100F00140540400205B
:10363000640400200000002000ED00E0740400207D
:103640007804002000BEFDE70FB400B5084883B041
:1036500000F076FC049B002B07D005A9180001910F
:1036600000F0F0F9034800F06BFC00BEFDE7C04637
:1036700010C0021020C0021010B50148FFF7E4FF8F
:1036800024C0021030B50C2083B000F0B7F9FEF76B
:1036900099FD00280ED0944B944A1A605A609A60A3
:1036A000DA601A615A619A61DA611A62904A5A6262
:1036B00003B030BD8F4CA06700F0A8F901228E4BFB
:1036C0001A60636C012BFCD103228C4B1A60894A6F
:1036D000936B012BFCD101330121894A8948009366
:1036E000043300F033F90523874A0093012187480A
:1036F00000F02CF9864B5A68FF2A02D8802252002B
:103700005A608022784C7D4B21691201804D1A60ED
:10371000002905D0606900F0E7F901300138FDD1DA
:10372000E0217B4B02201A681140802252012A437B
:1037300011601968484003210140116004219A6812
:103740001142FCD08022802192012A43090111609C
:10375000802252005A606F4B23616F4B5968FF29DA
:1037600000D85A600321644A6B4B116002399A6891
:103770001142FCD0E0201A681040802252011A4306
:10378000106018684840032101400220116062491E
:103790008A681042FCD080229201134380221201D9
:1037A0001A6080225D4B52004A6063615C4B59682D
:1037B000FF2900D85A6080225A4BE1691201584D06
:1037C0001A60002905D0606900F08EF901300138D7
:1037D000FDD1E02252490B681A4080235B012B4344
:1037E0001A60802380229B012B4312011A608022E1
:1037F0003E4B52004A60E3614B4B5968FF2900D8A9
:103800005A608022494B216A1201474D1A600029F3
:1038100005D0606900F068F901300138FDD1E0227F
:1038200041490B681A4080235B012B431A608023B7
:1038300080229B012B4312011A60802380225B00AF
:103840004B602A4BD2022362394B5968914200D215
:103850005A608022374B616A1201354D1A60002987
:1038600005D0606900F040F901300138FDD1E02257
:103870002F490B681A4080235B012B431A60802379
:1038800080229B012B4312011A608023DB024B60D4
:10389000174B6362284B5A68FF2A02D880225200D5
:1038A0005A608022254BA1691201234D1A6000291C
:1038B00005D0606900F018F901300138FDD1E0222F
:1038C0001D490B681A4080235B012B431A6080233B
:1038D00080229B012B4312011A6080235B004B6006
:1038E0000E4BA361E4E6C04688050220006CDC02B2
:1038F0001BB70000008000403CB0004030B00040EA
:10390000002F685900800240008C864700C00240AA
:1039100030800040001BB7003C80004040597307D6
:103920005480004054B000406080004060B00040CF
:103930006C8000406CB000404880004048B00040BF
:10394000014B8000C058704788050220F0B5C6467C
:10395000040000B50C2090461F000E0000F0C4F8D3
:103960004101091A8D01691AC900091889014046E7
:1039700000F0BAF8069B3F041A0323681743002B94
:1039800022DB1A4B1A4DE21853425A4180235B0145
:103990009C461203174B62441A60174B1A601100C1
:1039A000AB689943FBD1C022231D92011A43212306
:1039B0002660A06013602368002BFCDA0823E76010
:1039C000136080BCB846F0BD3F2322681340B34269
:1039D000D7D1A3681B051B0D8342D2D1EE22E36829
:1039E000D2021340BB42CCD1EBE7C0460040FDBF42
:1039F00000C0004000E0004000F000408023024A88
:103A00009B000343D362704700800540AA23064A07
:103A10001B0113602F230549D360054B19605368C0
:103A2000002BFCDA7047C0460040024000B0FA00AC
:103A30000060024010B5002800D110BD00F030FA3F
:103A4000FBE7C04610B5094A0300146884B0002C97
:103A500008D0012200910648524203A9A047012044
:103A600004B010BD00F06CFA0020F9E75C080220F9
:103A7000353A001001480421014B1847F00300209B
:103A8000A53A0010142310B50100188804331B88D0
:103A9000984710BD162310B50100188802331B8803
:103AA000984710BDF8B54746CE4680B50F1E19D0D1
:103AB00014239946043304000025012698464B46FA
:103AC0001888434621681B88984701C4431E9841C3
:103AD000013540420640AF42F1D13000C0BCB9468A
:103AE000B046F8BD0126F8E7114A936F9B0813D240
:103AF00010665166002905D0FFE7FFE7FFE7516F29
:103B0000106F704704B5002801D00020C04302F0B8
:103B1000F3FE002104BDC046F0B5146E556E576F1C
:103B2000166FFFF7E5FF1466556657671667F0BD19
:103B3000000000D0132370B51D78012D15D010DDC5
:103B40001C48FFF7A7FF1C4C01008022200000F05A
:103B5000C1F8022D06D01948FFF794FF184B1860E2
:103B600070BD154C174BA364F5E7164B124C236040
:103B70006360A360E36023616361A361E361236227
:103B80006362A362E36223636363A363E363236407
:103B90006364A364E36423656365A365E3652366E7
:103BA0006366A366E36623676367A367E367A3644B
:103BB000D1E7C04653440000800500204C3300008C
:103BC00080080220C93B001007B5604601880A0A38
:103BD0000230DF2AFAD1C9B2820804D302884088B1
:103BE0000004104300E00068014A5050039007BDF4
:103BF0008005002051434343C9188C46110C83B201
:103C00004B4310B4040C614392B280B25043624300
:103C10001C041B0C001910BC59411304120CC018D1
:103C20005141614470470000132310B512481C78BD
:103C3000FFF730FF0100012C0AD003DD80220F487E
:103C400000F048F80E48FFF71DFF0E4B186010BD3E
:103C50000A4C5422200000F03DF80B4B6365A3652D
:103C6000E36523666366A366E36623676367A3670A
:103C7000E3672362E361E5E7534600008006002026
:103C80004C330000800802208D3C001007B56046D0
:103C900001880A0A0230DF2AFAD1C9B2820804D3A5
:103CA000028840880004104300E00068014A505038
:103CB000039007BD8006002001480421014B1847EE
:103CC00000040020A53A0010014B1B6818470000B3
:103CD00000040020014B5B6818470000000400202E
:103CE000030010B5080011001B68984710BDC046BE
:103CF000F0B546464F46D646C0B5437C80460E00DA
:103D00001700002B46D0002A3FDD4B1E9946244B5E
:103D10000125002400209A460DE04B461B5D0D3B1B
:103D20005A425341325DDBB20A2A0BD02B000134D8
:103D300001359F421ADD002CEFD14346325D1B7CDA
:103D40000A2AF3D1002BF1D1A04204DA4346211A0A
:103D50001B6830189847434650461B680221984715
:103D6000013428002B0001359F42E4DC874204DD4A
:103D70004346391A1B6830189847F619013E3378C4
:103D80000D3B5A42534142461374E0BCBA46B14619
:103D9000A846F0BD0368110030009847F5E7C0461B
:103DA00098C00210F0B557464E464546DE461C0008
:103DB000D023E0B51B061F68344B83B006000D000E
:103DC000180001A991469A4602F0A6FD80460028F7
:103DD00008D1019B7FB29F4204D0504602F0BCFD47
:103DE000012398466B1C03D1300002F043FD05000F
:103DF000002C27D1264F274B1C68002C18D04B468F
:103E0000002B21D1244B994602E0E468002C0FD00E
:103E10002368002BF9D04B461B68002B01D0A3422E
:103E2000F3D120002A003100B847E468002CEFD11C
:103E30004346002B25D103B0F0BCBB46B246A94691
:103E4000A046F0BD154FD6E7134B99460A239B4673
:103E500002E0E468002CEBD02368002BF9D04B463D
:103E60001B68002B01D0A342F3D12A0031002000AF
:103E7000B8475A466B4620001A7101A90122B8477B
:103E8000E7E7504602F030FDD5E7C0465C0400206D
:103E9000F13C0010F005022034080220E13C001043
:103EA000F0B5CE46474680B583B06B46DE1CD023C6
:103EB00030701B061C681F4B804601A918009946EC
:103EC00002F02AFD071E20D01B4B1C68002C28D0B6
:103ED0001A4D02E0E468002C0FD02368002BF9D0C3
:103EE0002B68002B01D0A342F4D120000122310025
:103EF000FFF7FEFEE468002CEFD1002F11D1404601
:103F000003B0C0BCB946B046F0BD019B64B29C4250
:103F10000BD0484602F020FD074B01271C68002CFF
:103F2000D6D1484602F0E0FCE9E7034B1C68002CC0
:103F3000CED1E4E75C040020F00502203408022022
:103F400070B5040002F096FC002301000500012278
:103F50002000FFF727FF084B1C68002C06D0636881
:103F6000002B05D09847E468002CF8D1280070BDDC
:103F7000E468002CF3D1F9E7F00502200A4A13683F
:103F8000002B05D10CE01A00DB680C32002B07D0A7
:103F90009842F8D1002902D1C3681360C16070470C
:103FA0000029FCD01060FAE7F0050220F0B50D1EE4
:103FB00015DD0E4B0D271A680D4B4519D3185942C4
:103FC0004B410C495B005E5E20210478A64207D07D
:103FD00093691942FCD101301460A842F5D1F0BDBB
:103FE00093691942FCD11760F2E7C046A00802208D
:103FF0000080FCBF9808022030B504000D1E12DDC1
:1040000000201021094B013C1A689369194208D11C
:10401000013093691942FCD1136823548542F4D1CD
:1040200030BD0028FCD103204042F9E7A00802205F
:1040300070B51C000A4B15001860FFF71BFA002D25
:1040400003DB02212800FDF7FFFF002C03DB022128
:104050002000FDF7F9FF01210248FFF78FFF70BD37
:10406000A008022010040020F8B557468246384BBD
:10407000454653445A425341802292029446DE46BA
:104080004E465B421B0C334A1B046344E0B513608D
:10409000314A0D003149136018008A689043814607
:1040A000FAD10620FFF74CFC804680200221EF0D5C
:1040B0006E02AB0DAA02400005E0904507D39219AD
:1040C0007B4181423FD00C000231002BF5D080268D
:1040D00027023F1B760002E03F1B012E35D039003E
:1040E0004046B346013EFFF7FFFC8542F4D25946F5
:1040F00033029946614353464A461C611B68504649
:104100005340FF22120213408022520102431360E7
:10411000036807205840CF23034013605246802392
:1041200003209B0124321A4310605246101D18438D
:10413000022303604046FFF7D7FCF0BCBB46B24603
:10414000A946A046F8BD0C00C1E72100D3E7C04650
:104150000040FCBF00E0004000F0004000C0004014
:1041600000B5054B83B00100009300220B230348E8
:10417000FDF7DAFF03B000BD9CC00210A4080220C6
:1041800003BDC04610B50400FEF7C4FAA04710BD39
:10419000F0B5040087B00F200E001700FEF756F8A8
:1041A000002105000F20FEF73FF8002300220092B7
:1041B000019301230293D023049605940026002442
:1041C0000121022003971B06002C14D01A6D104207
:1041D000FCD05C6540BF1A6D114203D120BF1A6D3F
:1041E0001142FBD09A6DA2420AD000266C46B20062
:1041F000A458E9E79A6D1A6D1142FBD140BFE5E77B
:104200000136052EF2D929000F20FEF70DF807B070
:10421000F0BDC0460B4B0C4A10B5934201D20123AE
:104220005B421900094A985004329B50084A094BD6
:104230000948CA50094B9A68044B9C466144FFF7F1
:10424000A7FF10BD0008042000000420F4070000B0
:1042500085410010FC0700008141001000ED00E0E6
:104260009823C34AF0B5D3584E469946DE46574682
:10427000454601234C464946E0B51C408DB00B42F3
:1042800000D1D4E0136D9B059B0F00D030E180225C
:1042900008A952008A800B8109A8012102F054FB71
:1042A000C0225121B34B92001A65B34B03919B4638
:1042B000B24B08310493B24B02910593B14B403994
:1042C0000693B14B019108398A4607934946412329
:1042D00049229846AD4FAE4EAE4D383B490500D40D
:1042E000C6E08022A34BAC4892051A65C37F09AC97
:1042F0009A4683780193818A884600F033FF08222A
:1043000000212000FFF7E0FC022351466370637137
:104310004346019AA1702271012120000B9302F003
:1043200013FB0499B846039105993200029106994E
:104330005B46019107992C008A464946C90600D47C
:104340009AE08B4B9D6D01232B4200D0DFE00123CF
:104350009846884B03249B46904E09AF07E043469E
:10436000A3402B4232D102342436212C54D0002DCC
:1043700000D1C6E04246631E9A4013002A42EED0A6
:1043800095435A463000936500F08CFF0028E6D034
:10439000F37FB278B18A300004930592069100F061
:1043A000E1FE082200213800FFF78EFC0223069967
:1043B000059A7B70049BB960BB70012138003A718B
:1043C00002F0C2FA4346A3402B42CCD05A463000FA
:1043D00093659D4300F066FF0028C4D0F37FB27858
:1043E000B18A300004930592069100F0BBFE0822CA
:1043F00000213800FFF768FC02230699059A7B70BC
:10440000049BB96038000121BB703A71023402F09C
:104410009BFA2436212CAAD1039B54469846029A33
:10442000019B002D28D029005D48FFF70DF981235D
:104430005021DB009B464833049303910833083135
:1044400005930291403B403906930191083B08399E
:10445000882789268A468025079349464023482293
:104460009846FF00F600383BED00490500D538E7D7
:104470004946C90600D564E7082649460E4222D0BF
:10448000802002273B49C002086539499046C96C23
:104490001C000F4217D0404809ADC37F86829A4660
:1044A00083789B4600F05EFE002108222800FFF77B
:1044B0000BFC5346AB705B46012128006F702B71DB
:1044C000AE6002F041FA4B465B060BD44B469B06AE
:1044D00046D44C453FD10DB0F0BCBB46B246A946D0
:1044E000A046F0BD8022234B120544461A65EDE735
:1044F000002308AA01219380138109A802F024FA5D
:10450000CEE6039B54469846029A019BB4E7224CA0
:104510009D43626820001268164A936500F0C2FE4F
:10452000002800D113E7E37FA778A68A200009AC12
:10453000984600F017FE082200212000FFF7C4FB78
:104540000223637043462771A370012120000B965C
:1045500002F0FAF9FBE6494612486140FFF774F8A9
:104560008022044B120610481A65FFF76DF8C0460A
:1045700000001150003011500904000051040000E7
:104580005904000019040000110400004104000057
:104590004904000001040000F4050220180602206E
:1045A000BCC00210E8C00210D4C0021070B500F008
:1045B000B3FD0C230D4C0E4DA36729000520FDF71C
:1045C00075FF2900FF220520FDF77EFE90220021C5
:1045D00092000848FFF778FB03232364064B074A41
:1045E000E36490230120E25070BDC04600001150EA
:1045F00061420010F4050220008600207B040000C8
:104600007047C0467047C046044B186DC0239B00DE
:104610001840431E9841C0B27047C0460000115078
:10462000064B10B5186D8005800F012802D00228B6
:1046300001D1002010BD0248FFF706F8000011501C
:10464000FCC0021070B50D1E4FD04323DC4CE35C60
:104650008B4200D114E26723E35CAB4200D1F3E16B
:104660008B23E35CAB4200D1D2E1AF23E35CAB42EE
:1046700000D1AFE1D323E35CAB4200D181E1F7236A
:10468000E35CAB4200D15EE11C23FF33E35CAB4251
:1046900000D138E14023FF33E35CAB4200D110E1AD
:1046A0006423FF33E35CAB4200D1E8E08823FF33AF
:1046B000E35CAB4200D1C0E0AC23FF33E35CAB4230
:1046C00000D198E0D023FF33E35CAB4200D170E02F
:1046D000F423FF33E35CAB424AD0BA4BE35CAB421A
:1046E00025D0B94BE35CAB4200D070BD87239B0063
:1046F000E25C002AF9D08F2201219200A25C501CBA
:104700008140B24892004165B1498C460021624423
:104710005160E1540433E358196089239B00E35846
:10472000196087239B00E01800F01CFDDDE7FC23E7
:104730005B00E25C002AD4D0862201219200A25CB8
:10474000501C8140A14892004165A14920008C463F
:10475000002162445160E1540433E358F930196098
:1047600080239B00E358FF30196000F0FBFCB8E7A2
:10477000EA235B00E25C002AAFD0FA22012152005A
:10478000A25C501C814091489200416590492000F4
:104790008C46002162445160E1540433E358D53023
:1047A0001960EE235B00E358FF30196000F0DAFC7B
:1047B00093E7D8235B00E25C002A00D188E7E82277
:1047C00001215200A25C501C81408048920041654A
:1047D0007F4920008C46002162445160E15404333B
:1047E000E358B1301960DC235B00E358FF301960F7
:1047F00000F0B8FC6CE7C6235B00E25C002A00D145
:1048000060E7D62201215200A25C501C81406F4813
:10481000920041656E4920008C460021624451603F
:10482000E1540433E3588D301960CA235B00E35828
:10483000FF30196000F096FC44E7B4235B00E25CB3
:10484000002A00D138E7C42201215200A25C501C8A
:1048500081405E48920041655D4920008C46002100
:1048600062445160E1540433E35869301960B8235D
:104870005B00E358FF30196000F074FC1CE7A223D2
:104880005B00E25C002A00D110E7B2220121520055
:10489000A25C501C81404D48920041654C4920006B
:1048A0008C46002162445160E1540433E3584530A2
:1048B0001960A6235B00E358FF30196000F052FC3A
:1048C000F4E690235B00E25C002A00D1E8E6A02237
:1048D00001215200A25C501C81403C48920041657D
:1048E0003B4920008C46002162445160E15404336E
:1048F000E3582130196094235B00E358FF301960BE
:1049000000F030FCCCE6FC23E25C002A00D1C1E6DA
:104910008E2201215200A25C501C81402B48920043
:1049200041652B4920008C46002162445160E154CE
:104930000433E358FC30196082235B00E3581960AC
:1049400000F010FCA6E6D823E25C002A00D19BE62A
:10495000F8220121A25C501C81401C489200416554
:104960001B4920008C46002162445160E15404330D
:10497000E358D8301960E023E358196000F0F2FBE7
:1049800082E6B423E25C002A00D178E6D422012139
:10499000A25C501C81400D48920041650C492000EA
:1049A0008C46002162445160E1540433E358B43032
:1049B0001960BC23E358196000F0D4FB5FE6C046E1
:1049C000F4050220170200003B02000000301150E5
:1049D000000011509023E25C002A00D14AE6B02288
:1049E0000121A25C501C814033489200416533494B
:1049F00020008C46002162445160E1540433E358A6
:104A0000903019609823E358196000F0ABFB31E651
:104A10006C23E25C002A00D127E68C220121A25CF3
:104A2000501C8140244892004165244920008C4656
:104A3000002162445160E154236F6C301960636F50
:104A4000196000F08FFB10E64823E25C002A00D1D9
:104A500006E668220121A25C501C814016489200A3
:104A60004165164920008C46002162445160E154A2
:104A7000E36C48301960236D196000F073FBEFE5BB
:104A80002423E25C002A00D1E5E544220121A25C56
:104A9000501C8140084892004165084920008C461E
:104AA000002162445160E154A36A24301960E36A32
:104AB000196000F057FBCEE5003011500000115096
:104AC00010B501210520FDF7AFFB10BDF0B5DE46A6
:104AD00057464E464546E0B5D37808009B07990FE8
:104AE00083B08C460191002B6ED024247B4B1C5D3F
:104AF000002C00D1CBE048241C5D002C00D1D0E07C
:104B00006C241C5D002C00D1CDE090241C5D002C99
:104B100000D1CAE0B4241C5D002C00D1C7E0D82429
:104B20001C5D002C00D1C4E0FC241C5D002C00D1D5
:104B3000C1E0902464001C5D002C00D1BDE0A224E3
:104B400064001C5D002C00D1B9E0B42464001C5D3D
:104B5000002C00D1B5E0C62464001C5D002C00D1FF
:104B6000B1E0D82464001C5D002C00D1ADE0EA2443
:104B700064001C5D002C00D1A9E0FC2464001C5DD5
:104B8000002C00D1A5E08724A4001C5D0F27002C79
:104B900000D17DE08F240F27A4001D5DC53CFF3CA4
:104BA0004F49EE00E41977184E49A40088464E4953
:104BB000464488461C19A760AD014C4F45446F40E0
:104BC000B8466660E5600AE0C021444B484C4900A5
:104BD0009C60484C8846DC601C00474E5E6015793E
:104BE0009778A9464946557992792D020D43F909DE
:104BF0008A46617061466D056D0DA5834546A177B6
:104C000001999146890629437F22A0253A402D0625
:104C1000A7702943574257414D46E077E770002D72
:104C200003D04D46013D2D042943316001212170FF
:104C30009C4224D0534616040643002B02D1802305
:104C40009B041E432D4B1D6DAD05AD0F012D02D0F4
:104C5000022D40D1002501F02BF8A84202D080237C
:104C6000DB041E4320232549E35C8C469A00624402
:104C70005660012201339A401300214A53650120F6
:104C800003B0F0BCBB46B246A946A046F0BD012722
:104C9000FC00E619B6007D1E9E19EDB22036357077
:104CA0007EE70227F4E70327F2E70427F0E705276A
:104CB000EEE70627ECE70727EAE70827E8E70927F2
:104CC000E6E70A27E4E70B27E2E70C27E0E70D27F2
:104CD000DEE70E27DCE70B48FEF7B6FCF405022002
:104CE00088001050080010500002105000001050B2
:104CF0008000105080011050000110500000115031
:104D000000201150FCC00210F0B54F46D646464672
:104D1000C0B5984608AB1B880D009A467F231F003C
:104D2000D1098946C24C1740134200D19BE05B3B3E
:104D3000E35C002B04D04323E35CAB4200D1FCE0F6
:104D40004823E35C002B04D06723E35CAB4200D133
:104D5000FAE06C23E35C002B04D08B23E35CAB42D2
:104D600000D1F8E09023E35C002B04D0AF23E35C98
:104D7000AB4200D1FDE0B423E35C002B04D0D3238D
:104D8000E35CAB4200D1FBE0D823E35C002B04D012
:104D9000F723E35CAB4200D1F9E0FC23E35C002B9A
:104DA00005D01C23FF33E35CAB4200D1F6E0902337
:104DB0005B00E35C002B05D04023FF33E35CAB4298
:104DC00000D1F2E0A2235B00E35C002B05D064235A
:104DD000FF33E35CAB4200D1EFE0B4235B00E35C64
:104DE000002B05D08823FF33E35CAB4200D1ECE01D
:104DF000C6235B00E35C002B05D0AC23FF33E35CF0
:104E0000AB4200D1E9E0D8235B00E35C002B05D086
:104E1000D023FF33E35CAB4200D1E6E0EA235B0042
:104E2000E35C002B05D0F423FF33E35CAB4200D1FD
:104E3000E3E0FC235B00E35C002B04D07D4BE35CF0
:104E4000AB4200D1E1E087239B00E05C002805D065
:104E5000794B0020E35CAB4200D1DEE0E0BCBA4617
:104E6000B146A846F0BDA3782600934243D04B46F6
:104E7000B27073707B427B41F268F3706F4BB17F0D
:104E80005340A022890612060B4313437268F5773C
:104E9000136001233370A6422DD04B463F042F43AD
:104EA000002B02D180239B041F43654B1C6DA4057E
:104EB000A40F012C03D0022C00D0B5E00024280060
:104EC00000F0F6FEA04202D08023DB041F43202323
:104ED0005B49F35C8C469A006244576001220133BF
:104EE0009A401300574A536530005246414600F03D
:104EF0003FF90120B2E752462000414600F038F960
:104F00004A469600504A4E4B94463F042F431F603A
:104F10001C6D6644A405A40F012C03D0022C00D004
:104F200082E00024280000F0C3FEA04201D040230C
:104F30001E43434B0120DE6490E72623E35C93424B
:104F400000D0FDE601230CE04A23E35C934200D04D
:104F5000FFE6022305E06E23E35C934200D001E705
:104F60000323DE00F618B600A619B3789342BBD02F
:104F70007DE79223E35C934200D0FCE60423F0E754
:104F8000B623E35C934200D0FEE60523E9E7DA238B
:104F9000E35C934200D000E70623E2E7FE23E35CF4
:104FA000934200D003E70723DBE791235B00E35C38
:104FB000934200D006E70823D3E7A3235B00E35C1A
:104FC000934200D009E70923CBE7B5235B00E35CFC
:104FD000934200D00CE70A23C3E7C7235B00E35CDE
:104FE000934200D00FE70B23BBE7D9235B00E35CC0
:104FF000934200D012E70C23B3E7EB235B00E35CA2
:10500000934200D015E70D23ABE7FD235B00E35C83
:10501000934200D017E70E23A3E70C4BE35C9342C7
:1050200000D01BE70F239CE70948FEF70DFBC046A5
:10503000F4050220170200003B020000000010509F
:105040000000115000201150058600201E020000B3
:10505000FCC0021010B5204B080011788024197094
:1050600051786400597091789970D178D97011791C
:1050700019715179597191799971D2791749DA7108
:10508000174B184AD96000219A605970164A9977CF
:1050900016495C805A60D8771160012208211A7085
:1050A00059821A74124B18601B6D9B059C0F012CC2
:1050B00002D0022C0DD1002400F0FAFD031B5A1E71
:1050C00093410C4A9B019446094A63440120D364EE
:1050D00010BD0948FEF7B8FA0000105080011050CA
:1050E000F40502208000105000011050800100A043
:1050F0000000115003860020FCC002107F21C3096C
:10510000034A9B00014010B59A580248FEF79CFAEA
:10511000240400200CC1021080220D4B520410B553
:105120001A600C4B0C491A6010008B689843FBD135
:105130000A4C9C2200212000FEF7C6FD802200219F
:1051400052010748FEF7C0FD0923636710BDC04642
:1051500000E0004000F0004000C00040000011509E
:1051600000001050002303744382838283617047E0
:10517000F0B5C646002300B583820133037443684B
:1051800004001F68838B81611E1C934200D9161C8A
:105190008025B6B2921B93B2E278ED00638235436C
:1051A000002A02D09025AD01354301204240E27033
:1051B0006278002A50D0002B02D18022D201154300
:1051C000802252011543334A126C920714D4A278FC
:1051D000D20911D1304B3B408027BF051F43636884
:1051E0001F60A3681A68520551D42C4A2A401A60DD
:1051F0001D6080BCB846F0BD264A126C920702D5ED
:10520000A2785206E6D1002BE4D0A28B111C9A4260
:1052100000D9191C80268AB2F6009B1A90461643C4
:10522000E2789BB26382002A03D090264146B60101
:105230000E4301214A40E2706278002A19D0002B07
:1052400002D18023DB011E43154B36043B40A027CF
:10525000FF0535431F43C2E73200E068FEF73AFD21
:10526000A3699C46802366441B021D43A661638A92
:10527000A1E7E0684246A1694030FEF72BFDA36933
:105280004344A36180231B021E43638AD7E7A078AF
:10529000FFF734FF00001150FFFFFFAFFFFBFFFFE0
:1052A000FFFFFFDFF0B5C64600B5067C0400002E08
:1052B00000D1D2E083681A681D684378AD05AD0D52
:1052C000002B00D07CE0838AEB189BB28382A18BF9
:1052D0008D4207D20023638263681B68300080BC64
:1052E000B846F0BD62681268520001D58D4274D094
:1052F000638A002BF2D062681F1C16688B4200D9AB
:105300000F1C8025BFB2DB1BE2789BB2ED006382ED
:105310003D43002A02D09025AD013D4301214A4082
:10532000E2706278002A67D0002B02D18022D2017D
:1053300015438022520115434E4A126C920714D431
:10534000A278D20911D14C4B33408026B6051E43BA
:1053500063681E60A3681A68520500D587E0474A53
:1053600000262A401A601D60B8E7424A126C920774
:1053700002D5A2785206E6D1002BE4D0A28B111CF4
:105380009A424CD880278AB2FF009B1A9046174356
:10539000E2789BB26382002A3CD101214A40E2704C
:1053A0006278002A4BD0002B02D18023DB011F43FF
:1053B000334B3F043340A026F6053D431E43C7E769
:1053C0002A00C1688069FEF785FCA38AA269EB18F0
:1053D0009BB25219A382A26179E7A268156862782C
:1053E000AD01AD0D002A1CD1EB18A3828D4200D374
:1053F0007EE70023638271E73A00A169E068FEF767
:1054000069FCA3699C46802367441B021D43A76176
:10541000638A89E790274146BF010F43BDE7191C06
:10542000B0E7E1682A004031A069FEF753FCA38A87
:10543000A18BEB18A382A3695B19A361D6E7E0688F
:105440004246A1694030FEF745FCA3694344A3618D
:1054500080231B021F43638AA5E77F2281780948C6
:10546000CB091140084A9B009A58FEF7EDF8A07846
:10547000FFF744FE00001150FFFFFFAFFFFBFFFFEF
:10548000FFFFFFDF2CC1021024040020C278436913
:105490001A707047F0B5C64600B505000C008AB01A
:1054A00001283AD14D4B1F78002C0DD14C4E717D07
:1054B000CBB2022934D0032B00D169E0012B4AD0B2
:1054C0000AB080BCB846F0BD454E02AF3B0032008A
:1054D00003CA03C31120022200216844FEF7F4FB33
:1054E0006B460121DC741D74F38A3E4C0593B3684E
:1054F00049420793F3682068089333690697099334
:1055000001F012FA00232068737501F0EDF9089B91
:10551000002BD5D004A89847D2E7334B1F78C3E7B8
:105520000121304B92B2186849429846F28201F04C
:10553000FBF9032373754346186801F0D5F93378F6
:10554000DB0900D1802400232200290038000093C9
:10555000FFF7DAFBB4E7F388002BE1D00121214B00
:1055600049421868984601F0DFF9022373754346F3
:10557000186801F0B9F93378DB0900D08024F2888B
:10558000B3682900009238002200FFF7BDFB97E7BF
:1055900002AF3B00320003CA03C3112002220021E4
:1055A0006844FEF791FB6B4601211D74DC74F38A9D
:1055B0000C4D0593B36849420793F3682868089334
:1055C00033690697099301F0AFF92868747501F003
:1055D0008BF9089B002B9DD172E7C0467C0402200A
:1055E00040020220A404022058020220F0B54646E0
:1055F0004F46D646824C834BC0B5270098468CB0A8
:1056000003AE0D3743461D68EA69EFF3108172B6A9
:105610001368002BFCD0BFF35F8F29622800310094
:1056200001F054F8EA692B6ABFF35F8F0021116023
:1056300083F31088002800D1D5E07378022B00D1C5
:10564000A3E043D8002B49D035782178337972799B
:10565000A942D7D1002B02D061789942D2D1002A39
:1056600002D0A3789342CDD12379DB07CAD5664B0C
:10567000002B02D0012000E000BF012000F004FE5A
:1056800028000121FEF7DEFF262200212000FEF780
:105690001BFB0822FF213800FEF716FB2000082222
:1056A000FF211530FEF710FB584D2B7D012BA9D1A2
:1056B0000121574B49421868994601F035F90023FA
:1056C0006B754B46186801F00FF99BE7032B99D1D6
:1056D0007368002B96D0B068984793E733794D4DA7
:1056E00099464A463078737928706A70AB70002A00
:1056F00088D1FEF785FFFA204000FDF7E1FA28780F
:10570000FEF780FF2878FEF77FFF002800D179E7B9
:105710002878FEF785FF4A46E8701A203E4B0021A4
:105720001A7068440522FEF7CFFA6A463B4B002107
:10573000138308239A466B46524628789A8306AA12
:10574000FFF7C4F9002800D15CE7802301AD2B707E
:105750007A3B6B70FA336B804B46AB805346082222
:10576000002106A8EB80FEF7AFFA2D4B08950993B0
:105770002C4B0A9307230B93244B5B7D002B00D00B
:1057800040E706A800F050F83CE77F233179B27873
:105790000B40002A07D1002B25D100207179B26877
:1057A000FFF778FE2EE7012A1DD1580084461448E1
:1057B000CD09604440191825AC46844465466D798E
:1057C00095436246557104255279AA4365466A712C
:1057D000002B0ED0437D002B05D17279B3680120D8
:1057E00000F012FD0EE70CB0E0BCBA46B146A84688
:1057F000F0BD01207179B268FFF74CFE02E7C046A8
:105800007C040220B00402200000000040020220BC
:10581000A404022058020220AE080220070500005E
:105820007C030220FD580010F0B5C646012100B5EA
:105830002D4E0378050082B030684942984601F049
:1058400073F82A4C637DDAB2002B08D0306801F07F
:105850004BF80026300002B080BCB846F0BD0133E2
:10586000637543462375A968E28220000822FEF78B
:1058700031FAEB683068A3602B69E3606B692361E0
:1058800001F032F84346012B0AD1194B18782B69E5
:10589000002B0AD022004146FFF7DCFB0600D9E7C7
:1058A000144B18782B69002BF4D16B46DF1D0423B1
:1058B0003B70114B220041462761E360FFF7CAFBB2
:1058C000061EC7D03B78042B08D100F057FE0028F5
:1058D000F8D0FFF78BFE3B78042BF6D03B78EB70CB
:1058E000E38A6B60B6E7C046A404022040020220AF
:1058F0007C040220580202208D540010F0B5D646D8
:105900004F464646C0B5C178040088B000290AD188
:10591000C14B067819704369033B092B07D8BF4A6E
:105920009B00D3589F46BC4A1378022B05D908B078
:10593000E0BCBA46B146A846F0BD013364201370FE
:10594000FDF7BEF96378002BF1D1A368002BEED0F0
:10595000B34B5B7D002BEAD12000FFF765FFE6E744
:105960000A20052200216844FEF7AEF96A460824A1
:10597000AC4B94811381AC4B0021187802AAFFF73D
:10598000A5F80028D3D06A46802313707A3B537061
:10599000FA3353800023D48093800021082202A888
:1059A000FEF792F96B460493A04B0593A04B069328
:1059B000072307939A4B5B7D002BB8D102A8FFF712
:1059C00033FFB4E799490B79092BB0D0994A137981
:1059D000DB07DC0F002BAAD10125934B02A81B6823
:1059E000136013792B431371CB79002153716B46EC
:1059F0006A461C7005235370043B53809480D48006
:105A00001022FEF761F96B460493894B0693082335
:105A10000793834B5B7D002B00D088E7CEE783683C
:105A20009D78012D00D082E70222824C002123794B
:105A3000134323717C4B1878FEF704FE0A200522DD
:105A4000002168446679FEF73FF96A46754B9681F6
:105A500013810121207802AAFFF738F8002800D12D
:105A600065E76A46802313707A3B5370FA3353809C
:105A7000002393801233D3800021082202A8FEF76E
:105A800023F96B461D720493684B0593684B06938C
:105A900009230793624B5B7D002B00D047E78DE71E
:105AA000012E00D043E7614D624B2A8902ACDA80B7
:105AB0006A8900211A81EA8920005A812A7C1A7396
:105AC0006A46802313707A3B5370FB33FF33538055
:105AD000002393800933D3800822FEF7F5F86B4644
