:020000041000EA
:1000000000B5324B212058609868022188439860DF
:10001000D860186158612E4B002199600221596106
:100020000121F02299502B49196001219960352056
:1000300000F044F80222904214D00621196600F024
:1000400034F8196E01211966002018661A6600F04E
:100050002CF8196E196E196E052000F02FF8012189
:100060000842F9D1002199601B49196000215960AB
:100070001A491B48016001219960EB211966A021F2
:10008000196600F012F800219960164914480160C1
:100090000121996001BC002800D000471248134993
:1000A000086003C880F30888084703B5996A0420EC
:1000B0000142FBD001200142F8D103BD02B5186610
:1000C0001866FFF7F2FF186E186E02BD00000240BE
:1000D000000000180000070000035F00212200005C
:1000E000F4000018222000A00001001008ED00E03C
:1000F00000000000000000000000000074B24E7A12
:1001000000200420F7010010C3010010C5010010F9
:10011000C1010010C1010010C1010010C101001097
:10012000C1010010C1010010C1010010C701001081
:10013000C1010010C1010010C9010010CB01001065
:10014000CD010010CD010010CD010010CD01001037
:10015000CD010010CD010010CD010010CD01001027
:10016000CD010010CD010010CD010010CD01001017
:10017000CD010010CD010010CD010010CD01001007
:10018000CD010010CD010010CD010010CD010010F7
:10019000CD010010CD010010CD010010CD010010E7
:1001A000CD010010CD010010CD010010CD010010D7
:1001B000CD010010CD010010CD010010CD010010C7
:1001C00000BE00BE00BE00BE00BE00BE00F04BF888
:1001D000103800BEF2EB8871686A0010886A00105F
:1001E0003402001090A31AE700202149086006C8D5
:1001F00081F3088810471F48006800282FD10DA4FC
:100200000ECC002902D000F012F8F9E71A491B4A77
:10021000002000E001C19142FCD1194988471949E9
:1002200088471949884700BEFDE701C901C29A42C3
:10023000FBD37047886A0010C0000020000900202E
:10024000C87200100000042000000420C8720010D2
:1002500000100420001004200000000070470B482C
:1002600003F00EFA0047EFF30580C0B270470000BC
:1002700008ED00E0000000D0000900208C6E022094
:10028000B93000100D030010A931001057560000BE
:1002900006005250ABB36053046800100600525081
:1002A000861C030214680010060052505422A29DBE
:1002B0002468001005005250DE65F468C872001012
:1002C000F8B5C04610B5064C2378002B07D1054B76
:1002D000002B02D0044800E000BF0123237010BDB2
:1002E000080C00200000000060670010044B10B5EF
:1002F000002B03D00349044800E000BF10BDC046F6
:10030000000000000C0C00206067001070B503F0C6
:100310004BFC00F01BF80B4D96232C009B02EE18B3
:1003200006F09CF920800234B442F9D1064C20003A
:1003300003F004FC280001F007FAFA20800002F024
:10034000E1FAF4E7280C002060670010F0B5E44CF7
:1003500083B0E449200006F0F5F8072223688020E6
:100360005A40CF2340011340204303600121022063
:1003700001F0A2FB0121032001F09EFB002006F00A
:100380005DF90023002801DA01F0D5F9002001F021
:10039000ABFB052001F0A8FB012001F0A5FB042028
:1003A00001F0A2FBD0261620802501F09DFB012440
:1003B0001023022220273606ED03746201207762A3
:1003C000726273627562776172617361746102F067
:1003D00099FA7561052002F095FA1420B46102F0D3
:1003E00091FA7461962002F08DFA6B469D1D1123DF
:1003F000BD4C2B802368002B00D1B761D02602278B
:1004000001333606236001222900B548B76106F0A2
:1004100097F923687761013B2360002B01D12033DA
:1004200073614620002102F055FA782002F06AFA42
:1004300013232B802368002B03D1D0222021120606
:100440009161D0260227013336062360012229005C
:10045000A348B76106F074F923687761013B236014
:10046000002B01D1203373614620002102F032FAC3
:1004700036232B802368002B03D1D02220211206A3
:100480009161D0260227013336062360012229001C
:100490009348B76106F054F923687761013B236004
:1004A000002B01D1203373614620002102F012FAA3
:1004B00008232B702368002B03D1D02220211206A1
:1004C00091610133D0262360022336067361012235
:1004D0002900834806F034F92368013B2360002B90
:1004E00001D1203373614620002102F0F3F9B623D5
:1004F0002B802368002B03D1D0222021120691618A
:10050000D0260227013336062360012229007448D1
:10051000B76106F015F923687761013B2360002B72
:1005200001D1203373614620002102F0D3F90A2360
:100530002B702368002B03D1D02220211206916159
:100540000133D0262360022336067361012229007D
:10055000634806F0F5F82368013B2360002B01D1C6
:10056000203373614620002102F0B4F982232B70FE
:100570002368002B03D1D022202112069161013380
:10058000D0262360022336067361012229005448D5
:1005900006F0D6F82368013B2360002B01D12033FD
:1005A00073614620002102F095F9B0232B80236867
:1005B000002B03D1D022202112069161D0260227E0
:1005C000013336062360012229004548B76106F051
:1005D000B7F823687761013B2360002B01D12033FA
:1005E00073614620002102F075F900232B70236807
:1005F000002B03D1D0222021120691610133D02695
:10060000236002233606736101222900344806F074
:1006100097F82368013B2360002B01D120337361DD
:100620004620002102F056F9E0232B702368002BAE
:1006300003D1D0222021120691610133D0262360FC
:1006400002233606736101222900254806F078F856
:100650002368013B2360002B01D1203373614620C6
:10066000002102F037F93A232B802368002B03D1B5
:10067000D022202112069161D026022701333606AE
:100680002360012229001648B76106F059F8236853
:100690007761013B2360002B01D120337361462039
:1006A000002102F017F955232B702368002B03D18A
:1006B000D0222021120691610133D026236002232B
:1006C0003606736101222900054806F039F82368CF
:1006D000013B2360002B09D12033736106E0C04643
:1006E00000C00340005A6202240C00204620002172
:1006F00002F0F0F80A2002F005F9B2232B802368FB
:10070000002B03D1D022202112069161D02602278E
:1007100001333606236001222900E148B76106F063
:100720000FF823687761013B2360002B01D1203350
:1007300073614620002102F0CDF80C232B70236852
:10074000002B03D1D0222021120691610133D02643
:10075000236002233606736101222900D04805F088
:10076000EFFF2368013B2360002B01D1203373612D
:100770004620002102F0AEF80C232B702368002BDA
:1007800003D1D0222021120691610133D0262360AB
:1007900002233606736101222900C14805F0D0FF0B
:1007A0002368013B2360002B01D120337361462075
:1007B000002102F08FF800232B702368002B03D157
:1007C000D0222021120691610133D026236002231A
:1007D0003606736101222900B14805F0B1FF236894
:1007E000013B2360002B01D120337361462000219F
:1007F00002F070F833232B702368002B03D1D02232
:100800002021120691610133D0262360022336068F
:10081000736101222900A24805F092FF2368013B81
:100820002360002B01D1203373614620002102F0A8
:1008300051F833232B702368002B03D1D0222021C1
:10084000120691610133D0262360022336067361BC
:1008500001222900924805F073FF2368013B2360C1
:10086000002B01D1203373614620002102F032F8C1
:10087000B7232B802368002B03D1D022202112061E
:100880009161D02602270133360623600122290018
:100890008348B76105F054FF23687761013B23600B
:1008A000002B01D1203373614620002102F012F8A1
:1008B00035232B702368002B03D1D0222021120670
:1008C00091610133D0262360022336067361012231
:1008D0002900734805F034FF2368013B2360002B97
:1008E00001D1203373614620002101F0F3FFBB23C7
:1008F0002B802368002B03D1D02220211206916186
:10090000D0260227013336062360012229006448DD
:10091000B76105F015FF23687761013B2360002B69
:1009200001D1203373614620002101F0D3FF282339
:100930002B702368002B03D1D02220211206916155
:100940000133D02623600223360673610122290079
:10095000534805F0F5FE2368013B2360002B01D1CD
:10096000203373614620002101F0B4FFC0232B80A7
:100970002368002B03D1D022202112069161D026BA
:100980000227013336062360012229004448B7615B
:1009900005F0D6FE23687761013B2360002B01D16F
:1009A000203373614620002101F094FF0C232B704B
:1009B0002368002B03D1D02220211206916101333C
:1009C000D0262360022336067361012229003448B1
:1009D00005F0B6FE2368013B2360002B01D12033D4
:1009E00073614620002101F075FFC2232B8023682C
:1009F000002B03D1D022202112069161D02602279C
:100A0000013336062360012229002548B76105F02D
:100A100097FE23687761013B2360002B01D12033CF
:100A200073614620002101F055FF01232B702368DC
:100A3000002B03D1D0222021120691610133D02650
:100A4000236002233606736101222900144805F051
:100A500077FE2368013B2360002B01D120337361B3
:100A60004620002101F036FFFF232B702368002B66
:100A700003D1D0222021120691610133D0262360B8
:100A800002233606736101222900054805F058FE4D
:100A90002368013B2360002B04D12033736101E004
:100AA00000C003404620002101F014FFC3232B8027
:100AB0002368002B03D1D022202112069161D02679
:100AC000022701333606236001222900E048B7617E
:100AD00005F036FE23687761013B2360002B01D1CE
:100AE000203373614620002101F0F4FE10232B70A7
:100AF0002368002B03D1D0222021120691610133FB
:100B0000D026236002233606736101222900D048D3
:100B100005F016FE2368013B2360002B01D1203332
:100B200073614620002101F0D5FEC4232B80236889
:100B3000002B03D1D022202112069161D02602275A
:100B400001333606236001222900C148B76105F050
:100B5000F7FD23687761013B2360002B01D120332F
:100B600073614620002101F0B5FE202223682A701F
:100B7000002B02D1D02109068A610133D0262360DF
:100B800002233606736101222900B14805F0D8FD21
:100B90002368013B2360002B01D120337361462081
:100BA000002101F097FEC6232B802368002B03D180
:100BB000D022202112069161D02602270133360669
:100BC000236001222900A248B76105F0B9FD23681E
:100BD0007761013B2360002B01D1203373614620F4
:100BE000002101F077FE0F232B702368002B03D127
:100BF000D0222021120691610133D02623600223E6
:100C00003606736101222900914805F099FD236899
:100C1000013B2360002B01D120337361462000216A
:100C200001F058FED0232B802368002B03D1D02263
:100C3000202112069161D026022701333606236057
:100C4000012229008248B76105F07AFD23687761A7
:100C5000013B2360002B01D120337361462000212A
:100C600001F038FEA4232B702368002B03D1D0227F
:100C70002021120691610133D0262360022336061B
:100C8000736101222900724805F05AFD2368013B77
:100C90002360002B01D1203373614620002101F035
:100CA00019FEA1232B702368002B03D1D022202111
:100CB000120691610133D026236002233606736148
:100CC00001222900624805F03BFD2368013B2360B7
:100CD000002B01D1203373614620002101F0FAFD81
:100CE000E0232B802368002B03D1D0222021120681
:100CF0009161D026022701333606236001222900A4
:100D00005348B76105F01CFD23687761013B236000
:100D1000002B01D1203373614620002101F0DAFD60
:100D2000D0232B702368002B03D1D0222021120660
:100D300091610133D02623600223360673610122BC
:100D40002900434805F0FCFC2368013B2360002B8D
:100D500001D1203373614620002101F0BBFD002347
:100D60002B702368002B03D1D02220211206916121
:100D70000133D02623600223360673610122290045
:100D8000334805F0DDFC2368013B2360002B01D1D3
:100D9000203373614620002101F09CFD02232B705B
:100DA0002368002B03D1D022202112069161013348
:100DB000D0262360022336067361012229002448CD
:100DC00005F0BEFC2368013B2360002B01D12033DA
:100DD00073614620002101F07DFD07232B702368FD
:100DE000002B03D1D0222021120691610133D0269D
:100DF000236002233606736101222900144805F09E
:100E00009FFC2368013B2360002B01D120337361D9
:100E10004620002101F05EFD0A232B702368002B81
:100E200003D1D0222021120691610133D026236004
:100E300002233606736101222900054805F080FC73
:100E40002368013B2360002B04D12033736101E050
:100E500000C003404620002101F03CFD28232B70F8
:100E60002368002B03D1D022202112069161013387
:100E7000D026236002233606736101222900DF4851
:100E800005F05EFC2368013B2360002B01D1203379
:100E900073614620002101F01DFD32232B70236871
:100EA000002B03D1D0222021120691610133D026DC
:100EB000236002233606736101222900CF4805F022
:100EC0003FFC2368013B2360002B01D12033736179
:100ED0004620002101F0FEFC44232B702368002BE8
:100EE00003D1D0222021120691610133D026236044
:100EF00002233606736101222900C04805F020FC58
:100F00002368013B2360002B01D12033736146200D
:100F1000002101F0DFFC42232B702368002B03D15A
:100F2000D0222021120691610133D02623600223B2
:100F30003606736101222900B04805F001FC2368E0
:100F4000013B2360002B01D1203373614620002137
:100F500001F0C0FC06232B702368002B03D1D022A4
:100F60002021120691610133D02623600223360628
:100F7000736101222900A14805F0E2FB2368013BCF
:100F80002360002B01D1203373614620002101F042
:100F9000A1FC0E232B702368002B03D1D02220212B
:100FA000120691610133D026236002233606736155
:100FB00001222900914805F0C3FB2368013B23600F
:100FC000002B01D1203373614620002101F082FC07
:100FD00012232B702368002B03D1D022202112066C
:100FE00091610133D026236002233606736101220A
:100FF0002900824805F0A4FB2368013B2360002BF5
:1010000001D1203373614620002101F063FC1423D9
:101010002B702368002B03D1D0222021120691616E
:101020000133D02623600223360673610122290092
:10103000724805F085FB2368013B2360002B01D13A
:10104000203373614620002101F044FC17232B70EC
:101050002368002B03D1D022202112069161013395
:10106000D0262360022336067361012229006348DB
:1010700005F066FB2368013B2360002B01D1203380
:1010800073614620002101F025FCE1232B802368B9
:10109000002B03D1D022202112069161D0260227F5
:1010A000013336062360012229005448B76105F058
:1010B00047FB23687761013B2360002B01D120337C
:1010C00073614620002101F005FCD0232B702368BA
:1010D000002B03D1D0222021120691610133D026AA
:1010E000236002233606736101222900434805F07C
:1010F00027FB2368013B2360002B01D12033736160
:101100004620002101F0E6FB00232B702368002B12
:1011100003D1D0222021120691610133D026236011
:1011200002233606736101222900344805F008FBCA
:101130002368013B2360002B01D1203373614620DB
:10114000002101F0C7FB02232B702368002B03D181
:10115000D0222021120691610133D0262360022380
:101160003606736101222900244805F0E9FA236854
:10117000013B2360002B01D1203373614620002105
:1011800001F0A8FB07232B702368002B03D1D0228A
:101190002021120691610133D026236002233606F6
:1011A000736101222900154805F0CAFA2368013B42
:1011B0002360002B01D1203373614620002101F010
:1011C00089FB0A232B702368002B03D1D022202116
:1011D000120691610133D026236002233606736123
:1011E00001222900054805F0ABFA2368013B236082
:1011F000002B05D12033736102E0C04600C00340DC
:101200004620002101F066FB28232B702368002B69
:1012100003D1D0222021120691610133D026236010
:1012200002233606736101222900DF4805F088FA9F
:101230002368013B2360002B01D1203373614620DA
:10124000002101F047FB31232B702368002B03D1D1
:10125000D0222021120691610133D026236002237F
:101260003606736101222900CF4805F069FA236828
:10127000013B2360002B01D1203373614620002104
:1012800001F028FB54232B702368002B03D1D022BC
:101290002021120691610133D026236002233606F5
:1012A000736101222900C04805F04AFA2368013B16
:1012B0002360002B01D1203373614620002101F00F
:1012C00009FB47232B702368002B03D1D022202158
:1012D000120691610133D026236002233606736122
:1012E00001222900B04805F02BFA2368013B236056
:1012F000002B01D1203373614620002101F0EAFA6E
:101300000E232B702368002B03D1D022202112063C
:1013100091610133D02623600223360673610122D6
:101320002900A14805F00CFA2368013B2360002B3B
:1013300001D1203373614620002101F0CBFA1C2338
:101340002B702368002B03D1D0222021120691613B
:101350000133D0262360022336067361012229005F
:10136000914805F0EDF92368013B2360002B01D182
:10137000203373614620002101F0ACFA17232B7053
:101380002368002B03D1D022202112069161013362
:10139000D026236002233606736101222900824889
:1013A00005F0CEF92368013B2360002B01D12033E7
:1013B00073614620002101F08DFA1B232B702368F6
:1013C000002B03D1D0222021120691610133D026B7
:1013D000236002233606736101222900724805F05A
:1013E000AFF92368013B2360002B01D120337361E7
:1013F0004620002101F06EFA1E232B702368002B7B
:1014000003D1D0222021120691610133D02623601E
:1014100002233606736101222900634805F090F922
:101420002368013B2360002B01D1203373614620E8
:10143000002101F04FFA202223682A80002B02D1DC
:10144000D02109068A61D02602270133360623609F
:10145000012229005448B76105F072F923687761C9
:10146000013B2360002B01D1203373614620002112
:1014700001F030FA2A232B802368002B03D1D022DD
:10148000202112069161D0260227013336062360FF
:10149000012229004448B76105F052F923687761B9
:1014A000013B2360002B01D12033736146200021D2
:1014B00001F010FA00232B702368002B03D1D022F7
:1014C0002021120691610133D026236002233606C3
:1014D000736101222900344805F032F92368013B89
:1014E0002360002B01D1203373614620002101F0DD
:1014F000F1F900232B702368002B03D1D022202187
:10150000120691610133D0262360022336067361EF
:1015100001222900244805F013F92368013B2360C8
:10152000002B01D1203373614620002101F0D2F954
:1015300000232B702368002B03D1D0222021120618
:1015400091610133D02623600223360673610122A4
:101550002900154805F0F4F82368013B2360002BAF
:1015600001D1203373614620002101F0B3F9E52356
:101570002B702368002B03D1D02220211206916109
:101580000133D0262360022336067361012229002D
:10159000054805F0D5F82368013B2360002B05D1F1
:1015A0002033736102E0C04600C0034046200021A2
:1015B00001F090F92B232B802368002B03D1D0223C
:1015C000202112069161D0260227013336062360BE
:1015D000012229005B48B76105F0B2F82368776102
:1015E000013B2360002B01D1203373614620002191
:1015F00001F070F900232B702368002B03D1D02257
:101600002021120691610133D02623600223360681
:101610007361012229004B4805F092F82368013BD1
:101620002360002B01D1203373614620002101F09B
:1016300051F900232B702368002B03D1D0222021E5
:10164000120691610133D0262360022336067361AE
:10165000012229003B4805F073F82368013B236011
:10166000002B01D1203373614620002101F032F9B3
:1016700001232B702368002B03D1D02220211206D6
:1016800091610133D0262360022336067361012263
:1016900029002C4805F054F82368013B2360002BF7
:1016A00001D1203373614620002101F013F93F235B
:1016B0002B702368002B03D1D022202112069161C8
:1016C0000133D026236002233606736101222900EC
:1016D0001C4805F035F82368013B2360002B01D13D
:1016E000203373614620002101F0F4F8782001F0E6
:1016F00009F929232B802368002B03D1D022202134
:1017000012069161D026022701333606236001229A
:1017100029000C48B76105F013F823687761013B95
:101720002360002B0AD04620002101F0D3F8782056
:1017300001F0E8F80123180003B0F0BD2033736115
:10174000F1E7C04600C00340F0B5CE46474680B53D
:1017500083B06B469E1D3623D54D33802B68002BFE
:1017600003D1D022202112069161D0240227013317
:1017700024062B6001223100CE48A76104F0E0FF6F
:101780002B686761013B2B60002B01D12033636123
:101790004620002101F09EF8082333702B68002BAF
:1017A00003D1D0222021120691610133D0242B6075
:1017B00002232406636101223100BE4804F0C0FF09
:1017C0002B68013B2B60002B01D120336361462045
:1017D000002101F07FF8362333802B68002B03D1E2
:1017E000D022202112069161D02402270133240641
:1017F0002B6001223100AF48A76104F0A1FF2B68E4
:101800006761013B2B60002B01D1203363614620CF
:10181000002101F05FF8682333702B68002B03D19F
:10182000D0222021120691610133D0242B600223A3
:1018300024066361012231009E4804F081FF2B6879
:10184000013B2B60002B01D1203363614620002136
:1018500001F040F82A68002A00D01DE1D023203290
:101860001B069A612A233380293BD02402270133A7
:1018700024062B60012231008E48A76104F060FF2E
:101880002B686761012B02D120226261A261D02402
:101890002B600022022324063270310063618548E8
:1018A000013204F04DFF2B68012B02D1202262612E
:1018B000A261D0242B60282202232406327031003A
:1018C00063617C48273A04F03BFF2B68012B02D16F
:1018D00020226261A261D0242B600122022324060F
:1018E000327031006361734804F02AFF2B68012BCA
:1018F00002D120226261A261D0242B601722022330
:1019000024063270310063616A48163A04F018FF09
:101910002B68012B02D120226261A261D0242B22EC
:101920000227240632802B6031006248A7612A3AE0
:1019300004F006FF2B686761012B02D1202262614F
:10194000A261D0242B6000220223240632703100D1
:1019500063615848013204F0F3FE2B68012B02D179
:1019600020226261A261D0242B603522022324064A
:101970003270310063614F48343A04F0E1FE2B6865
:10198000012B02D120226261A261D0242B600022AF
:10199000022324063270310063614648013204F0AC
:1019A000CFFE2B68012B02D120226261A261D024DC
:1019B0002B60BB22022324063270310063613D4854
:1019C000BA3A04F0BDFE2B68012B02D120226261DD
:1019D000A261D0242C220227240632802B60310001
:1019E0003448A7612B3A04F0ABFE2B686761013BDA
:1019F0002B60002B01D12033636196235B02984654
:101A00000223D02799463F0604F028FE03123370C4
:101A10002B680400002B01D12022BA6101332B6016
:101A20004B4601227B613100224804F089FE2B687D
:101A3000012B1DD12022E4B27A61BA612B604B46A2
:101A40000122347031007B611A4804F079FE2A6863
:101A5000531E2B60002B0DD120337B61213B9C4614
:101A6000E0444346002BCFD101235B422B600EE0C4
:101A7000E4B2E3E701235B429C46E0444346002B8B
:101A8000C2D1023A2A60002A01D120337B6103B01F
:101A9000C0BCB946B046F0BD2A21531C318001328A
:101AA00000D0E2E6D0220A3912069161DDE6C04696
:101AB000240C002000C00340094A830094464022C1
:101AC000634410B51C68C0006240C02414408022EA
:101AD000520113431C60034B9C466044416010BD9F
:101AE00004C00140004001400123D022834012067F
:101AF00093629361094A83009446402263441968C3
:101B0000C0004A40C0211140802252011343196095
:101B1000034B9C46052360444360704704C001406A
:101B20000040014070B5EFF3108C72B60D4D2B687C
:101B3000002BFCD0BFF35F8F0724CB08C618C05C16
:101B400001230C40A3401C000440034207D103437F
:101B50003370BFF35F8F2C608CF3108870BD100062
:101B600001F024FB2C0100D0F8B54746CE4688464C
:101B700080B5EFF3108C72B6214D2C68002CFCD090
:101B8000BFF35F8F9A422CD8D4080727055D06194A
:101B900001241740BC402C421FD007210127894651
:101BA00009E0D408055D06194C4639001440A140EF
:101BB0000C00294211D001329342F2D2012040425E
:101BC000BFF35F8F00220E4B1A608CF31088002841
:101BD0000FDBC0BCB946B046F8BD2C4310003470D2
:101BE000EEE7BFF35F8F00232B608CF3108801209A
:101BF00040424346002BECD0089801F0D7FAC0468B
:101C00002C0100D0024B18688007C00F7047C046F7
:101C100000C006400021044B044ABFF35F8F02C39B
:101C20009342FAD17047C046000100D0800100D035
:101C3000044A1078431CDBB2172B00D91023137011
:101C40007047C046D003002000B5054B83B00100AB
:101C5000009318221F230348FFF786FF03B000BD3F
:101C6000706700108C69022001238340002904D092
:101C7000034A1360034A13607047034A1360FBE78B
:101C800080E200E000E100E080E100E00123834029
:101C9000014A13607047C04600E200E0084B103074
:101CA0009B688000C358002B07D0064A00209B1A6F
:101CB0002F229A424041C0B270470020FCE7C04644
:101CC00000ED00E0D4030020024B10309B68800040
:101CD000C058704700ED00E070B50D00EFF31086BE
:101CE00072B60F4A1368002BFCD0BFF35F8F0D4B09
:101CF00010309B6884001B590B4A934203D09D42CD
:101D000001D001F06BFA074B9B681D51BFF35F8F49
:101D1000BFF35F8F0022024B1A6086F3108870BDFC
:101D2000240100D000ED00E0CD010010F0B55746D1
:101D30004E46DE464546E0B585B0060002911700E6
:101D4000EFF3108B72B6674A1368002BFCD0BFF319
:101D50005F8F0025644B5D579A46002D00DAA5E0A1
:101D60006B00624C03935B199B009846A146C144EB
:101D70004B4652469B79103613705D4BB2009B6800
:101D8000019299580B1B2F2B34D95A4B994200D0F2
:101D9000A5E0039B584A9C46584B6544AD006353ED
:101DA000434602336519E418554B0121043B1B1BC4
:101DB0001B055B0D13436B80524BEF71AB80FF2310
:101DC000AB71029BAB604B460B431900484B019A29
:101DD0009B689950BFF35F8FBFF35F8F0022414B29
:101DE0001A608BF3108805B0F0BCBB46B246A9461A
:101DF000A046F0BD01200A008243D379BB422FD810
:101E000045464E46130040491B1B5B415943090D93
:101E10003A4B63533A4B02356519043B5B1B1B0578
:101E2000354D5B0D2B4373800426B446E044444497
:101E3000131F1B1B4C46A17102991B05A16049464B
:101E40005B0D2B43A380314BE77101431360BDE76A
:101E50005800C01880002018C679BE422CD9020054
:101E60000623D356002BF3DA101D8246BD20000254
:101E7000804604267642B446E14450464E46361A21
:101E80003005400D824656461B48957106439680A4
:101E9000039A944665441D4AAD0064192260424687
:101EA000A371029BA280E771A3608FE701F096F90E
:101EB000002553465D5753E7101D82469088400524
:101EC000001584464046D444664604302018301A33
:101ED000E0260005400D360230438046C9E701F098
:101EE0007DF956E7240100D0886E0220D40300203B
:101EF00000ED00E0CD01001000E0FFFF00A1FFFFBA
:101F00000404002000BDFFFFAAAA0000014880478A
:101F1000F0B5DE4657464E464546E0B50C0083B068
:101F2000EFF3108A72B65A4A1368002BFCD0BFF345
:101F30005F8F1022914681444A46564B96009B681B
:101F40009D59554B98469D4205D0A54216D0534FFA
:101F5000EB1B2F2B14D94F4B9B689D51BFF35F8F09
:101F6000BFF35F8F00224A4B1A608AF3108803B0D8
:101F7000F0BCBB46B246A946A046F0BD1D00EAE74C
:101F8000012383409B465A46454B1B681A400092EA
:101F90005A46444B1A60BFF35F8FFEF764F9019015
:101FA000002803D0814501D001F018F901232A004F
:101FB0009A4393689C4208D15FE04B005B189B00FA
:101FC000FB189968A14211D01A0006215156002928
:101FD000F3DA009B002B05D05A46334B1A60304B86
:101FE0001A60B8E75A462F4B1A60B4E706215956D3
:101FF000002921DB4A00501880003C188046A06868
:102000009860E079D871062020569871002824DB6A
:10201000A488F81A6405241544440019E024000536
:10202000400D2402204398805218204B9200BF1884
:102030001A781970BA71CCE70199002910D1FF31D3
:1020400091711B49918019490A789A71194ADB1BD1
:102050005B415A43120D0A70BBE7BD200002E2E764
:10206000154A1649D21A083A5002400D0143998088
:10207000134952080A43DA80ABE706215156130090
:102080000029B7DA019A002AEAD14546DBE7C046C3
:10209000240100D000ED00E0CD010010D4030020A9
:1020A00000E100E080E100E080E200E0886E0220D4
:1020B00000BDFFFFAAAA00000E04002000F0FFFFF1
:1020C00000F8FFFFF8B5012504000543FEF7CBF843
:1020D000EFF3108C72B6214A1368002BFCD0BFF3CB
:1020E0005F8F1F4E2100B7681E4A1F4B891A494156
:1020F0004B431B0D59B28300F858A8421CD006234D
:10210000D3568B421CD01223D3568B4222D01E238F
:10211000D3568B4220D02A23D35603208B4210D093
:10212000124B1A781970A271BFF35F8F00220B4B0C
:102130001A608CF31088F8BDB2680D48D050EFE7F4
:10214000002043001B189B00D218FF239371094BFA
:102150009380E5E70120F4E70220F2E7240100D0B4
:1021600000ED00E0D4030020AAAA0000886E02203F
:10217000CD01001000BDFFFF054B064A1360064A63
:10218000136053609360D360136153619361704730
:102190008080808000E400E004E400E0D02300B50B
:1021A0001B061B680100074883B0C018064B0022BD
:1021B00000930523FFF7D8FC002801DB1F23181A22
:1021C00003B000BD806E02208C670010024B9C465D
:1021D00061448900016070474000003483680B4807
:1021E00010B5844661446244090112019A185918D5
:1021F00054684B6801209C4201D802D00020C0B234
:1022000010BD12680B689A42F9D8F7E7FFFFFF0F7D
:102210000A4B1968EFF3108072B60A68002AFCD0E6
:10222000BFF35F8F1B68BFF35F8F00221A6080F3DC
:10223000108840BF002000217047C046506E022029
:10224000F8B557464E464546DE46E0B599460CABD6
:102250001C780DAB1B78060090469A460768002C48
:1022600011D1BC7B002C42D065003B682D19033D89
:1022700059194B78BB73002B00D1FB7300238B7073
:102280004B700B7004E065003B682D19033D591934
:10229000B2682A4B94464246E3181B0163441A6015
:1022A0004A465A600A9A9A600B9ADA6000238B7049
:1022B0004B700B707B7B9B46002B2BD0220059462A
:1022C000B8687B6898473A68002816D05B4658463D
:1022D0005B005B445519033BA870D118D35C002BFD
:1022E00000D06B705B460C707B73A34513D0F0BCC1
:1022F000BB46B246A946A046F8BD5B465B005B44C0
:10230000033BD3189C705119525D002A00D05A70BB
:102310005B460B707C7342464B46307D00F040FCC0
:10232000051E06D05346002B03D12100306800F073
:1023300059FE0E9B002BDAD01D70D8E7FFFFFF0F70
:10234000F0B5DE464E46574645460023E0B58DB013
:102350000A936B4B8200D3580B90994600239B46FF
:102360004B46079300F0BCFB079C06000F00626819
:10237000EFF3108572B61368002BFCD0220007948F
:10238000BFF35F8F2468637B9946002B67D0926808
:102390005C4B90464B441B01984443461A685B686B
:1023A00010001900801BB94100295FDD0B9800F077
:1023B000F7FB00230026984600279A46079C63688F
:1023C000BFF35F8F5A461A6085F310885346002B7F
:1023D00008D10028C6D10DB0F0BCBB46B246A94614
:1023E000A046F0BD0A9B414618024B461843D04711
:1023F000089009916268EFF3108572B61368002B9C
:10240000FCD00794BFF35F8F0899099A002A48DB34
:10241000114303D0079B1B69002B5DD1079B1B68F1
:10242000D97B002907D04A00521819688C464946C2
:102430006244033A51704A46DA734B46079A013BAD
:10244000D168CA5C0132CA545B46079A136153686B
:10245000BFF35F8F5A461A6085F3108882E7002326
:102460000026984600279A460020A7E7002901D1B8
:1024700000289BD10021200000F036FD43461E6855
:102480005F689B68079A9A464346DB689846D3681C
:102490004B44013B1B780A931B020343136100204A
:1024A0008CE72369002BB9D033003C005B1A9441C0
:1024B0001A002300A74219D89F421BD05946049105
:1024C00001210391494602914146019151460798E5
:1024D0000091FFF7B5FEB7E700F002FB089A099BF1
:1024E00006000F0092197B419942E5D90122524220
:1024F000D317E3E79642E1D901225242D317DDE731
:10250000346E0220FFFFFF0FF8B557464E46454692
:10251000DE46E0B5404D81468A466A68EFF3108892
:1025200072B61368002BFCD0BFF35F8F2E68B47BAC
:10253000002C39D0670033683F19033FDB195A7804
:10254000B273002A00D1F273A968344A8C46494616
:10255000A2181201624411605146516030499160E5
:102560000021D160997059701970737B9B46002BC4
:1025700035D022001900B068736898473268002887
:1025800020D05B4658465B005B44D719033BB870CC
:10259000D118D35C002B00D07B705B460C7073733A
:1025A0005C451DD0002626E06B68BFF35F8F1C6082
:1025B00088F3108801204042F0BCBB46B246A946D1
:1025C000A046F8BD5B465B005B44033BD3189C70A0
:1025D000D119D25D002A00D05A705B460B7074731B
:1025E0004A465346287D00F0DBFA061EDAD0210069
:1025F000286800F0F7FCEB681B19013B19786B6841
:10260000BFF35F8F00221A6088F310880020002E2D
:10261000D2D108022043CFE71C040020FFFFFF0FA8
:102620001122001010B5124C6368002B04D00A214F
:102630001048FFF7CBFD10BD23000F4A1021206882
:1026400000F070FB032000F03FFA032000F018FBBD
:1026500003200A4900F05EFAFFF7EAFA084B9C46AD
:10266000032360442375074B80006060DC60DEE775
:102670001C040020506E0220DD21001041230010B8
:1026800040000034346E0220004870471C040020D3
:10269000F0B557464E464546DE46E0B585B0019357
:1026A00010AB1B780600039300239A4698460092CD
:1026B0007268EFF3108972B61368002BFCD0BFF379
:1026C0005F8F3568AC7B002C49D067002B683F19C1
:1026D000033FDB195A78AA73002A00D1EA73B16864
:1026E000504A8C4600980199A21812016244106069
:1026F00051600E9991600F99D16042469A705A705C
:102700001A706B7B9B46002B45D022001900A868ED
:102710006B6898472A68002830D05B4658465B00B3
:102720005B44D719033BB870D118D35C002B00D0A1
:102730007B705B460C706B735C452DD0F3681B1986
:10274000013B18787368BFF35F8F42461A6089F3C4
:1027500010885346002B2CD10002204307E07368F9
:10276000BFF35F8F1C6089F310880120404205B0E1
:10277000F0BCBB46B246A946A046F0BD5B465B0036
:102780005B44033BD3189C70D119D25D002A00D062
:102790005A705B460B706C73307D009A019B00F0A1
:1027A000FFF982460028C9D02100306800F01AFCE9
:1027B000C4E7039B002B32D00E9B00200F99984753
:1027C000030004000D000B4329D000290DDA009806
:1027D000019902000B00121BAB41994215D81AD087
:1027E00000920193039B9A4662E700F079F9020098
:1027F0000B00A4185D412000290000900191AB421C
:1028000003D8EFD100998A42ECD901235B42DC174F
:1028100000930194E6E700999142E1D9F5E70020A1
:10282000A5E7C046FFFFFF0FF0B504000D00062628
:102830007642F717C64636196F4100B58F4213D856
:1028400010D000F04DF932003B00121A8B41002BE2
:1028500014DC002B37D02900200000F04BF980BC9D
:10286000B846F0BD8642ECD90026002700F038F9C2
:1028700032003B00121A8B41002BEADD3000390098
:10288000FFF742FE0028E6DB00239846BC460F4ACD
:102890000F4F7B6A9C4504D8B96A8E42DBD99C45B0
:1028A000D9D11168EFF3108072B60B68002BFCD001
:1028B000BFF35F8F1368BFF35F8F4146196080F3EA
:1028C000108820BFE5E7002AC5D0D7E7506E022068
:1028D0000040054070B504000D0000F001F9020051
:1028E0000B0020002900801859418B4205D802D0E6
:1028F000FFF79AFF70BD8242FAD901204042C1170A
:10290000F6E7C04670B5060000F0EAF8FA220400C7
:102910000D00002330000021920000F069FF001933
:1029200069418D4205D802D0FFF77EFF70BD844219
:10293000FAD901204042C117F6E7C046F8B5CE46A5
:10294000474680B506000C00FFF7DEFD00280CDCD2
:102950002D4B0020596A8C4203D89B6A0130B34248
:1029600045D3C0BCB946B046F8BD20BF274D6A6804
:10297000EFF3108772B61368002BFCD0BFF35F8FA4
:102980002B68C1B29C465B7B8B4235D0FF23034052
:102990005A00914662461268994490464A4642441B
:1029A000033A9278002A1DD0EA68000A9046434410
:1029B000013B1B78C0B2834221D06B68BFF35F8FAD
:1029C00000221A6087F310880F4A0020536A9C4245
:1029D000C7D8926A0130B242C3D2E01A421E904177
:1029E000C0B2BEE72B699842E7D12A61E5E7601AD9
:1029F000431E9841C0B2B4E7FF230340D4E76046CA
:102A000000F0F0FAD9E7C046004005401C04002061
:102A1000F0B5D6464F464646C0B5EFF305833F2294
:102A2000134018001038EFF3108C72B6204D2A684E
:102A3000002AFCD0BFF35F8F0122110081401D4CA2
:102A4000884661631C4917000E788A463100C140F0
:102A50000F400A4209D1BFF35F8F2F608CF31088BB
:102A6000E0BCBA46B146A846F0BD14498200646A8B
:102A700051588C420FD3124BD25843469E43534673
:102A80001E70BFF35F8F00232B608CF31088002A29
:102A9000E6D09047E4E70B4A9B00904643441A680F
:102AA0001A60BFF35F8F00232B608CF31088D7E789
:102AB000280100D0004005408B6E02205C6E022091
:102AC0007C680220D03F054010B50100024A03484F
:102AD000FFF728F810BDC046A8670010876E0220D7
:102AE000034B596A0A00986A596A8A42FAD17047B8
:102AF00000400540064A536A9942FCD807D1044B6E
:102B000002E05A6A914202D19A6A8242F9D370472E
:102B10000040054070B504000D00EFF3108672B65A
:102B20001A4A1368002BFCD0BFF35F8F002D1BD017
:102B30002000FFF7C9F8164981420AD02000FFF7AC
:102B4000CBF801212000FFF78FF80123A340114AA1
:102B50001360114BA400E550BFF35F8F00220B4BB5
:102B60001A6086F3108870BD0B4BA200D55001226D
:102B7000A2400A4920000B7893430B700449FFF7E9
:102B8000C7F900212000FFF76FF8E5E7280100D022
:102B9000112A0010386005407C6802208B6E0220EC
:102BA000F0B54F46D6464646C0B507002F4C616A81
:102BB0000D00A66A616AA942FAD18B4208D805D0F5
:102BC0000120E0BCBA46B146A846F0BDB242F7D9F2
:102BD000EFF3108A72B6264801680029FCD0BFF3D3
:102BE0005F8F0125BD402349204C884609788946DE
:102BF0002943C9B28C46414660460870391D1E48BB
:102C0000890065630A51B9000B50216A00202942EE
:102C100019D0616A0800A66A616A8142FAD18B42C2
:102C200019D801D1B24216D8CC451DD00F4B1F2068
:102C30001D625D6301230740BB40104A1E381360CC
:102C400043464A461A70BFF35F8F0022084B1A6052
:102C50008AF31088B5E70020BFF35F8F0022044B92
:102C60001A608AF31088ACE70120ECE700400540C9
:102C7000280100D08B6E02205C6E022080E200E012
:102C8000EFF3108C72B60A490B68002BFCD0BFF32F
:102C90005F8F01238340074A0748136202789A43F3
:102CA0000270BFF35F8F00230B608CF310887047B6
:102CB000280100D0004005408B6E022070B5050051
:102CC00014001600002915D00C00002A12D08068CC
:102CD0006B689847296800280ED073009B19620022
:102CE000033B1219CB18033A9C7088188A5C002A9F
:102CF00015D10670200070BD63001B197200033BE4
:102D00009219CB18033A9E7088188A5C002A02D167
:102D100004703400EEE75A7004703400EAE75A7029
:102D20000670E7E730B583600023CCB2437301330C
:102D3000047342608373C4730D000068012C06D9CC
:102D4000421C0133DBB2137003329C42F9D1FF21E4
:102D500029404B005918002340180338437030BDF8
:102D6000F8B5CE46474606000C0080B5002907D0CE
:102D70004D0003686D18033D5A195778002F04D190
:102D80002000C0BCB946B046F8BD7900C919033966
:102D900088464344597889460021597051707368B8
:102DA0003A002100806898473368002814D04246D2
:102DB0009A18947059195B5D002B00D053700F70F6
:102DC000270049463000FFF7CBFF390002003000F2
:102DD000FFF774FF0400D3E7424641465D19AF7028
:102DE0009A185B5C002B00D06B701470E9E7C0464A
:102DF000F0B557464546DE464E46E0B50D006B0041
:102E000001685B19DF1E0400C85D83B00192CA1916
:102E100000284CD043001B18033BCB185E78B44607
:102E2000002E16D1019E002E3ED0E67B002E04D04F
:102E300073009B19CB18033B5D70E57300282FD1FD
:102E40000023537003B0F0BCBB46B246A946A0466F
:102E5000F0BD72006244033A89184A789046002215
:102E60004A7091465A70010032002000FFF726FF99
:102E700043468246002B07D05B0021684344033B56
:102E8000CB185A78002A16D1424651462000FFF747
:102E900015FF2168019BCA19002BC6D10028CFD08D
:102EA00043001B18033BCB1800219970C8E7019B16
:102EB000002BBAD1C4E750008018033809184878AD
:102EC000834648464870587041462000FFF7F6FE9A
:102ED000594680462000FFF743FF4146020020008C
:102EE000FFF7ECFE8046CFE7F0B557464546DE4695
:102EF0004E46E0B583B00191457B04006B0000684D
:102F00005B19DF1EC15DC21900294ED04B005B1852
:102F1000033BC3185E78B446002E18D1019E002EE4
:102F200040D0E67B002E04D073009B19C318033BEE
:102F30005D70E573002931D100232800537061735F
:102F400003B0F0BCBB46B246A946A046F0BD720035
:102F50006244033A801842789046002242709146BB
:102F60005A7020003200FFF7A9FE43468246002B2C
:102F700007D05B0021684344033BCB185A78002AF2
:102F800017D1424651462000FFF798FE019B0100F1
:102F90002068C219002BC4D10029CDD04B005B188A
:102FA000033BC31800209870C6E7019B002BB8D1E3
:102FB000C2E750008018033809184878834648460D
:102FC0004870587041462000FFF778FE5946804609
:102FD0002000FFF7C5FE414602002000FFF76EFE0D
:102FE0008046CEE770B5040000292CD0437B8B428D
:102FF0002ED0056848004018033828188278002A27
:1030000021D053009B18033BEA5CEE188A4202D1A0
:103010001BE0002A08D053009B18033BEB185A789A
:103020008A42F6D142785A7000230122837043709D
:103030002000FFF7DDFE617B02002000FFF73EFE6F
:103040006073012000E0002070BD43783370EBE72F
:1030500001221900FFF7CCFE60730120F4E7C0469F
:1030600010B50400FEF7E4FD01002000FFF7AEF804
:10307000FF232371BFF35F8F10BDC04610B504005E
:10308000FEF7D6FD01002000FFF7A0F8FF23A38084
:10309000BFF35F8F10BDC04610B504000120FEF7DE
:1030A000D3FD044B9C46604480002060BFF35F8FDB
:1030B00010BDC046400000342C4B2D4A70B51A603C
:1030C0002C4A2D4B2D491A6014008B689C43FBD170
:1030D0002B4D2C4EB54208D2013E761BB60808CDCA
:1030E000984723000134B342F9D100F07DF8264A15
:1030F000214B1A60214A9368DB43DB01DD09002B79
:10310000F9D14022214B224C224E9A675A671A6706
:10311000DA66B44208D223682000002B20D008349D
:10312000FFF7ACFFB442F6D31B4E1C4CC022A16883
:10313000300000F0CDFBA660FEF76CFDFFF71CF839
:10314000FFF770FA164C174EB44208D2013E361BF8
:10315000B60808CC98472B0001359E42F9D170BDC6
:103160000834FFF77DFFB442D5D3DDE700E000402F
:10317000BFCDFBFEFE7F3C0000F0004000C00040E1
:10318000E8080020F8080020FFFFFF0100F00140E0
:10319000E0080020E80800200000002000ED00E02A
:1031A000F80800200009002000BEFDE70FB400B5BC
:1031B000084883B000F0C2FC049B002B07D005A98F
:1031C0001800019100F03CFA034800F0B7FC00BE83
:1031D000FDE7C046CC670010DC67001010B5014861
:1031E000FFF7E4FFE067001030B50C2083B000F07B
:1031F000B7F9FEF707FD00280ED0944B944A1A60E9
:103200005A609A60DA601A615A619A61DA611A62E8
:10321000904A5A6203B030BD8F4CA06700F0F4F9B9
:1032200001228E4B1A60636C012BFCD103228C4B64
:103230001A60894A936B012BFCD101330121894A21
:1032400089480093043300F033F90523874A00933B
:103250000121874800F02CF9864B5A68FF2A02D8D2
:10326000802252005A608022784C7D4B21691201E5
:10327000804D1A60002905D0606900F033FA0130F2
:103280000138FDD1E0217B4B02201A6811408022D9
:1032900052012A431160196848400321014011601E
:1032A00004219A681142FCD08022802192012A4395
:1032B00009011160802252005A606F4B23616F4BED
:1032C0005968FF2900D85A600321644A6B4B11608A
:1032D00002399A681142FCD0E0201A68104080221E
:1032E00052011A431060186848400321014002202F
:1032F000116062498A681042FCD080229201134317
:10330000802212011A6080225D4B52004A60636184
:103310005C4B5968FF2900D85A6080225A4BE169FA
:103320001201584D1A60002905D0606900F0DAF9E1
:1033300001300138FDD1E02252490B681A40802348
:103340005B012B431A60802380229B012B431201D7
:103350001A6080223E4B52004A60E3614B4B596831
:10336000FF2900D85A608022494B216A1201474D3B
:103370001A60002905D0606900F0B4F90130013805
:10338000FDD1E02241490B681A4080235B012B43A9
:103390001A60802380229B012B4312011A60802334
:1033A00080225B004B602A4BD2022362394B596862
:1033B000914200D25A608022374B616A1201354D2A
:1033C0001A60002905D0606900F08CF901300138DD
:1033D000FDD1E0222F490B681A4080235B012B436B
:1033E0001A60802380229B012B4312011A608023E4
:1033F000DB024B60174B6362284B5A68FF2A02D8E6
:10340000802252005A608022254BA1691201234D6F
:103410001A60002905D0606900F064F901300138B4
:10342000FDD1E0221D490B681A4080235B012B432C
:103430001A60802380229B012B4312011A60802393
:103440005B004B600E4BA361E4E6C046906902202E
:10345000006CDC021BB70000008000403CB0004064
:1034600030B00040002F685900800240008C864731
:1034700000C0024030800040001BB7003C8000408C
:10348000405973075480004054B0004060800040B1
:1034900060B000406C8000406CB00040488000404C
:1034A00048B00040014B8000C0587047906902202E
:1034B000F0B5C646040000B50C2090461F000E0073
:1034C00000F010F94101091A8D01691AC9000918A3
:1034D0008901404600F006F9069B3F041A03236861
:1034E0001743002B22DB1A4B1A4DE21853425A4164
:1034F00080235B019C461203174B62441A60174BF2
:103500001A601100AB689943FBD1C022231D9201C0
:103510001A4321232660A06013602368002BFCDA85
:103520000823E760136080BCB846F0BD3F232268E3
:103530001340B342D7D1A3681B051B0D8342D2D1E0
:10354000EE22E368D2021340BB42CCD1EBE7C04687
:103550000040FDBF00C0004000E0004000F000401F
:103560008023024A9B000343D362704700800540DA
:1035700010B5140080221B4BD2051A6000281AD007
:103580000123194A1843194BDA61194A42401A6259
:10359000596298628022134BD2051A601549164A67
:1035A0001160E022D2041A60002C07D18022134B54
:1035B00012061A6010BD0D4BD861EBE763011B1BAF
:1035C0009A008023121912015B049A4200D30C4A1C
:1035D0000C4B1A60054B5A608022084BD2051A60CA
:1035E000E8E7C04600B00540D3C007B00080054002
:1035F0002D3FF84FFCFF01000820014000A00540CE
:10360000FFFFFF002C6E0220AA23064A1B01136055
:103610002F230549D360054B19605368002BFCDA52
:103620007047C0460040024000B0FA00006002400F
:1036300010B5002800D110BD00F030FAFBE7C046FD
:1036400010B5094A0300146884B0002C08D0012288
:1036500000910648524203A9A047012004B010BDC2
:1036600000F06CFA0020F9E7286E022031360010D5
:1036700001480421014B184750040020A1360010D6
:10368000142310B50100188804331B88984710BD17
:10369000162310B50100188802331B88984710BD07
:1036A000F8B54746CE4680B50F1E19D0142399466B
:1036B000043304000025012698464B4618884346EB
:1036C00021681B88984701C4431E98410135404238
:1036D0000640AF42F1D13000C0BCB946B046F8BD9B
:1036E0000126F8E7114A936F9B0813D210665166C2
:1036F000002905D0FFE7FFE7FFE7516F106F704724
:1037000004B5002801D00020C04303F001F80021D7
:1037100004BDC046F0B5146E556E576F166FFFF7B7
:10372000E5FF1466556657671667F0BD000000D0C8
:10373000132370B51D78012D15D010DD1C48FFF73F
:10374000A7FF1C4C01008022200000F0C1F8022DD0
:1037500006D01948FFF794FF184B186070BD154C40
:10376000174BA364F5E7164B124C23606360A3600C
:10377000E36023616361A361E36123626362A36227
:10378000E36223636363A363E36323646364A36407
:10379000E36423656365A365E36523666366A366E7
:1037A000E36623676367A367E367A364D1E7C04663
:1037B00053440000080A00204C3300004C6E0220E5
:1037C000C537001007B5604601880A0A0230DF2AB3
:1037D000FAD1C9B2820804D3028840880004104399
:1037E00000E00068014A5050039007BD080A00201D
:1037F00051434343C9188C46110C83B24B4310B458
:10380000040C614392B280B2504362431C041B0C0F
:10381000001910BC59411304120CC01851416144E5
:1038200070470000132310B512481C78FFF730FFD3
:103830000100012C0AD003DD80220F4800F048F877
:103840000E48FFF71DFF0E4B186010BD0A4C5422A6
:10385000200000F03DF80B4B6365A365E36523662C
:103860006366A366E36623676367A367E367236210
:10387000E361E5E753460000080B00204C330000ED
:103880004C6E02208938001007B5604601880A0A8C
:103890000230DF2AFAD1C9B2820804D302884088F4
:1038A0000004104300E00068014A5050039007BD37
:1038B000080B002001480421014B18476004002038
:1038C000A1360010014B1B6818470000600400205F
:1038D000014B5B681847000060040020030010B52E
:1038E000080011001B68984710BDC046F0B5464659
:1038F0004F46D646C0B5437C80460E001700002BCD
:1039000046D0002A3FDD4B1E9946244B012500245A
:1039100000209A460DE04B461B5D0D3B5A42534139
:10392000325DDBB20A2A0BD02B00013401359F42F5
:103930001ADD002CEFD14346325D1B7C0A2AF3D1FD
:10394000002BF1D1A04204DA4346211A1B6830183B
:103950009847434650461B68022198470134280087
:103960002B0001359F42E4DC874204DD4346391ACF
:103970001B6830189847F619013E33780D3B5A42C0
:10398000534142461374E0BCBA46B146A846F0BD66
:103990000368110030009847F5E7C04654680010EE
:1039A000F0B557464E464546DE461C00D023E0B5EE
:1039B0001B061F68344B83B006000D00180001A9D8
:1039C00091469A4602F0ACFE8046002808D1019B41
:1039D0007FB29F4204D0504602F0BAFE01239846BF
:1039E0006B1C03D1300002F053FE0500002C27D1E0
:1039F000264F274B1C68002C18D04B46002B21D19A
:103A0000244B994602E0E468002C0FD02368002B79
:103A1000F9D04B461B68002B01D0A342F3D1200004
:103A20002A003100B847E468002CEFD14346002B50
:103A300025D103B0F0BCBB46B246A946A046F0BDB6
:103A4000154FD6E7134B99460A239B4602E0E468DC
:103A5000002CEBD02368002BF9D04B461B68002BC1
:103A600001D0A342F3D12A0031002000B8475A46C2
:103A70006B4620001A7101A90122B847E7E75046BA
:103A800002F03EFED5E7C046E0080020ED38001009
:103A9000206A0220246A0220DD380010F0B5CE46EC
:103AA000474680B583B06B46DE1CD02330701B06C2
:103AB0001C681F4B804601A91800994602F030FE91
:103AC000071E20D01B4B1C68002C28D01A4D02E08A
:103AD000E468002C0FD02368002BF9D02B68002B52
:103AE00001D0A342F4D1200001223100FFF7FEFEF5
:103AF000E468002CEFD1002F11D1404603B0C0BCC8
:103B0000B946B046F0BD019B64B29C420BD048461A
:103B100002F01EFE074B01271C68002CD6D1484638
:103B200002F0EEFDE9E7034B1C68002CCED1E4E780
:103B3000E0080020206A0220246A022070B50400F8
:103B400002F0A6FD00230100050001222000FFF77E
:103B500027FF084B1C68002C06D06368002B05D09B
:103B60009847E468002CF8D1280070BDE468002C68
:103B7000F3D1F9E7206A02200A4A1368002B05D125
:103B80000CE01A00DB680C32002B07D09842F8D109
:103B9000002902D1C3681360C16070470029FCD0BE
:103BA0001060FAE7206A022010B500F03DF910BD60
:103BB0007047C0460022014B1A707047896E022080
:103BC0004B790020FF2B0BD18B79002B08D1CB79BF
:103BD000012B05D1082A03D98A78024B09301A70C3
:103BE0007047C046896E02200120704770B50029D9
:103BF00015D115495379107909781B020343002028
:103C0000994200D070BD5378012B0AD0022BF9D114
:103C1000002064220021FFF7ABFC0120F2E7012025
:103C2000F0E79478D278050012021443D20502D549
:103C3000620A93401D000548FFF722FD7F21030023
:103C4000214028009847C046896E02205542000056
:103C500001230370004870475868001048780B78BB
:103C60008A7800021843120410439622CB7810B5CC
:103C70001B060343D200934200D010BD0348FFF758
:103C8000FFFC0021030008009847C0465542000091
:103C900070B5184C82B006000D00200001A902F09A
:103CA0003FFD002808D1D0231B061B68019A9A42C9
:103CB0001CD0200002F04CFD002001F01FFE002867
:103CC00007D103256D42200002F01AFD280002B042
:103CD00070BD002001F02AFE0028F2D02A00310039
:103CE000002001F02FFE051EEBD0ECE703256D420E
:103CF000ECE7C046546E0220F0B5DE464F4646461D
:103D0000C0B5334B82B081460D00180001A99B4617
:103D100002F006FD002808D1D0231B061B68019A7B
:103D20009A424FD0584602F013FD002001F0E6FD04
:103D300000283FD00024002D41DD264E11E04B46E7
:103D40000020191901F072FE804600F065FE002087
:103D500001F030FEFEF7C4FE306071604444AC42B6
:103D60002DDA002001F07CFE2F1B0200B84200DD9E
:103D70003A00002AE3D100F04FFE002001F01AFEC5
:103D8000002001F0BBFD002819D0002001F068FEE2
:103D90000028E4D1FEF7A4FE326873680F0000210A
:103DA00084460D4812184B419F4208D8D7D19445FC
:103DB000D5D904E000200021064B18605960584610
:103DC00002F09EFC02B0E0BCBB46B146A846F0BD86
:103DD000546E0220000A002020A1070010B5044BF9
:103DE0001878FDF753FFFA200021800010BDC0466F
:103DF0008A6E022010B5024B1878FDF747FF10BD00
:103E00008A6E022010B5074C0021200002F088FCC9
:103E1000002800D110BD00F0FFFD200002F070FC72
:103E2000F8E7C046546E0220F0B5244B85B01B78ED
:103E300001F0FEFF2248FFF713F90120FEF7AEF96B
:103E4000FF23204C204920701840FDF745FF2078C3
:103E50000121FDF709FF0520FDF720FF041E0CD00E
:103E6000002205201949FDF761FF01211848FFF7DD
:103E700083FE0124200005B0F0BDFEF705FC05001F
:103E8000FEF72EFEFA2206000F0000239200921980
:103E90007B4199420ED80BD0012102910021019162
:103EA0000C4928000091FEF7F3FB0028E2D0DCE784
:103EB0009042F1D901225242D317EDE7846A0010F3
:103EC000546E02208A6E0220053E0010F53D00105F
:103ED00070040020DD3D001000487047106900109C
:103EE00000487047BC68001070B50400174803789C
:103EF000002B21D0002C06D1C1241548154BA4005D
:103F00004380048070BD052C1DD8134B1048A400BD
:103F1000E558811C002304E001330A800231132B91
:103F20000ED0EA5CDCB2002AF6D1C0230134E4B240
:103F300064009B001C43E4E7112102F00FFAD9E76B
:103F4000CA24A400DDE70020DCE7C0466C6E022036
:103F5000F86902200904000024690010F0B59823D4
:103F600057464546DE464E466C4AE0B5D758802552
:103F70003C006D02883B9A4683B02C402F420FD004
:103F800001222321664B00205A54DA70654901F062
:103F900073FA8022644B92021A65644B2C009A4695
:103FA000FB0617D480235B011F4245D18023DB0130
:103FB0001F4200D088E080231B021F4200D091E006
:103FC000BC4200D0A5E003B0F0BCBB46B246A94657
:103FD000A046F0BD514B9B6D9846002B27D0524B0D
:103FE00000249B460123994643460126B8461F00FC
:103FF00004E001347600E4B2202C17D03742F8D028
:104000005B469E654B466508A3436D00ED18444B27
:104010006D019C466544280000F08AFB00286CD1A5
:104020000134B743E4B27600002FE5D14746802340
:104030005B0154461F42B9D01C430023374A00217C
:104040001360384A3A489360D3603A4A9360D36029
:10405000394A9360D360394A9360D360384A936099
:10406000D360384A9360D360374A9360D360374A4D
:104070009360D360364A9360D360364A9360D360CE
:10408000354A9360D360354A9360D360344A936075
:10409000D360344A9360D360334A9360D360F02294
:1040A0009200FFF70FFC314B314A00211A600020CB
:1040B000012201F0B7F980221B4B12031A658023FD
:1040C000DB011F4200D176E70122042100201C43BE
:1040D00001F018F91022144B1A6580231B021F42AD
:1040E00000D16DE70122052100201C4301F00AF9EF
:1040F00080220D4B12011A6562E74B46AA8AA97805
:1041000000200093002301F0DFF9280000F04CFAB2
:1041100086E7210017487940FFF748F80000115062
:10412000286A0220000010500030115010000100D9
:10413000686A02200800105010001050180010503B
:10414000200010502800105030001050380010503F
:1041500040001050480010505000105058001050AF
:10416000600010506800105070001050306E022037
:10417000800110503C69001010B501210520FDF7A9
:1041800073FD10BD10B500220021024800F034FA82
:1041900010BDC046486A02208022024B5202DA64F7
:1041A0007047C04600201150F0B5C64600B5060065
:1041B00000F0D4F90C23354D0520AB673449FDF7E9
:1041C0008BFD40239846334C402200212000FFF70E
:1041D00079FB43460127A383212100232E4A6770E0
:1041E000A260136063545F3161844146A187023944
:1041F00063542A4A2A496360E260A1620B60E2626A
:10420000284A63629360D360274A20009360D3609A
:10421000264A00219360D360254A40309360D360E2
:10422000244A9360D360244A9360D360234A936006
:10423000D360234A9360D360224A9360D360224ABA
:104240009360D360214A9360D360214A9360D36026
:10425000204A9360D360204A9360D3601F4A9360E2
:10426000D360F0229200FFF72DFB1D4B1D4A30005A
:104270001A6080239B052F64EB6490231A4AEA504E
:10428000FFF78AFF80BCB846F0BDC0460000115061
:104290005D3F0010286A0220840010500001105079
:1042A00080001050000010500800105010001050F6
:1042B00018001050200010502800105030001050EE
:1042C000380010504000105048001050500010505E
:1042D00058001050600010506800105070001050CE
:1042E000306E02208001105010D001000B785B0668
:1042F00002D14B78052B00D070478A78014B1A60A9
:10430000FAE7C04600001150F0B5CE4647460723F5
:1043100080B548798E780A790340C8787F21800774
:1043200031401B02F40913434F00820F944691461B
:104330002A4D3A195201AA18967001266640567005
:10434000604600269383D6709077CA00012C29D04E
:1043500023488446880162448446AC4460468260B7
:104360001660002929D01F4AC90090464144416087
:104370003F223F3393434A46022A00D15B001A4949
:104380003F190A687F01D3180B60184BED19534091
:10439000EA604A469006184380231B0618436B6860
:1043A000186010E012488446880162448446AC4498
:1043B00060468262166000290AD1002364012D192B
:1043C0006B600C4BEB600120C0BCB946B046F0BD41
:1043D000064AC900904641444162C9E7286A022062
:1043E0008400105004001050306E02200000105065
:1043F000800010500001105000231C4A10B593603B
:10440000D3601B4A00219360D3601A4A1A48936014
:10441000D3601A4A9360D360194A9360D360194AF3
:104420009360D360184A9360D360184A9360D36056
:10443000174A9360D360174A9360D360164A93601B
:10444000D360164A9360D360154A9360D360154ACF
:104450009360D360144A9360D360F0229200FFF718
:1044600031FA124B124A1A6010BDC04600001050BB
:104470000800105010001050686A022018001050F8
:1044800020001050280010503000105038001050FC
:10449000400010504800105050001050580010506C
:1044A000600010506800105070001050306E0220F4
:1044B0008001105010B57F200C0020404000E4091E
:1044C000110000191A00034B4001C01800F094F8C5
:1044D000012010BD286A02207F22130010B50B4076
:1044E0000A420BD0C90980225800401806494001F1
:1044F00040181201002100F05DF810BD02220348AF
:10450000C909521A8266EEE7286A0220002011507B
:104510007F22100010B508400A4200D110BD0023D0
:10452000C909400040180449400108180022034905
:10453000C37000F03FF8F1E7286A0220FFF7FFFFA1
:104540007F21C309034A9B00014010B59A580248D5
:10455000FEF72CFE840400205069001080220D4BD1
:10456000520410B51A600C4B0C491A6010008B688D
:104570009843FBD10A4C9C2200212000FFF7A2F9AE
:104580008022002152010748FFF79CF90923636745
:1045900010BDC04600E0004000F0004000C00040F8
:1045A00000001150000010500023037443828382E6
:1045B0008361704710B58368002901D01C682140D1
:1045C000002A11D08024E400114322420CD01A6842
:1045D00022420BD1074A0A401A60FFE7FFE7FFE7D4
:1045E000FFE7FFE7FFE78368196010BD8078FFF7FA
:1045F000A7FFC046FFFBFFFFF0B5C646002300B58E
:10460000838201330374436804001E68838B8161D5
:104610001F1C934200D9171C8025BFB2D21B93B236
:10462000E278ED0063823D43002A02D09025AD017F
:104630003D4301204240E2706278002A51D0002BB5
:104640001DD1A023DB011D43354B1B6C354B334083
:104650008026B6051E436368A2681E6013685B056A
:104660005AD4314B2B401360FFE7FFE7FFE7FFE72A
:10467000FFE7FFE7A3681D6080BCB846F0BD80225D
:1046800052011543264A126C920703D4A278D2092C
:10469000012ADBD1A28B111C9A4200D9191C802758
:1046A0008AB2FF009B1A90461743E2789BB263825E
:1046B000002A03D090274146BF010F4301214A4001
:1046C000E2706278002A19D0002B02D18023DB012E
:1046D0001F43164B3F043340A026F6053D431E43BF
:1046E000B9E73A00E068FFF7F3F8A3699C46802336
:1046F00067441B021D43A761638AA0E7E068424646
:10470000A1694030FFF7E4F8A3694344A361802323
:104710001B021F43638AD7E7A078FFF711FFC0464B
:1047200000001150FFFFFFAFFFFBFFFFFFFFFFDFA8
:10473000F0B5C64600B5067C0400002E00D1D3E0DB
:1047400083681A681D684378AD05AD0D002B51D103
:10475000838AEB189BB28382A18B8D4207D2002300
:10476000638263681B68300080BCB846F0BD626835
:104770001268520002D58D4200D175E0638A002B89
:10478000F1D062681F1C16688B4200D90F1C80256F
:10479000BFB2DB1BE2789BB2ED0063823D43002A8F
:1047A00002D09025AD013D4301214A40E27062787C
:1047B000002A68D0002B2AD1A023DB011D434F4BD8
:1047C0001B6C4F4B33408026B6051E436368A268BE
:1047D0001E6013685B0500D58DE04A4B2B401360CB
:1047E000FFE7FFE7FFE7FFE7FFE7FFE7A368002634
:1047F0001D60B8E72A00C1688069FFF769F8A38ADD
:10480000A269EB189BB25219A382A261A4E780228D
:1048100052011543394A126C920703D4A278D20987
:10482000012ACED1A28B111C9A423FD880278AB28E
:10483000FF009B1A90461743E2789BB26382002ADE
:104840002FD101214A40E2706278002A3ED0002B2D
:1048500002D18023DB011F432B4B3F043340A026B2
:10486000F6053D431E43B1E7A26815686278AD01C5
:10487000AD0D002A1CD1EB18A3828D4200D37DE739
:10488000002363826FE73A00A169E068FFF720F830
:10489000A3699C46802367441B021D43A761638A6A
:1048A00088E790274146BF010F43CAE7191CBDE7BF
:1048B000E1682A004031A069FFF70AF8A38AA18BBA
:1048C000EB18A382A3695B19A361D6E7E0684246AF
:1048D000A1694030FEF7FCFFA3694344A361802334
:1048E0001B021F43638AB2E77F238178074A084887
:1048F0001940FEF75BFCA078FFF722FE0000115084
:10490000FFFFFFAFFFFBFFFFFFFFFFDF840400207F
:1049100070690010024B5878431E9841C0B270472E
:1049200060670220024B18784007C00F7047C046EE
:1049300060670220014B18787047C046856E0220E0
:10494000F8B54746CE4680B5294F05003B78002B89
:1049500004D00120C0BCB946B046F8BD53220021A6
:104960002448FEF7AFFF244C2000FEF779FB234BD1
:104970001C60234C20001C30FEF78EFB200001F051
:10498000A1FC204B204E1C60204B9846002B04D0ED
:104990003000FFF75DF91E4B186042460024337863
:1049A000002A1DD01B4A9046194A91469C4210D3BA
:1049B0001BD14346984701343378E4B2A342F5D281
:1049C0002800FFF7F1FB2800FFF7D6FB01233B701F
:1049D000BFE74A46630012681B19DB009B58E9E7F2
:1049E00001F04AF83378002BEAD000231B68FFDE81
:1049F000856E02206067022018670220B4670220DB
:104A00008C040020B8670220846E0220513C001004
:104A100028640220795A0010F0B5DE4657464E460B
:104A20004546E0B58BB001F009FA002800D144E119
:104A3000C24BC34E9B4607AC3568EA69EFF3108161
:104A400072B61368002BFCD0BFF35F8F2962280079
:104A5000210001F0ABFAEA692B6ABFF35F8F0021F6
:104A6000116083F31088002800D126E16378082BB9
:104A7000E2D85A469B00D3589F466368002BDBD090
:104A8000A0689847D8E77F222179AE4B0A405500AD
:104A9000C8095B191B18180001273030C578BD43C1
:104AA000C570C5780337BD43C570002A00D10BE13E
:104AB000A54ADB7C002A06D0A44A1278934200D291
:104AC00091E19B1ADBB2002B00D0F6E0A04D627999
:104AD0002078A368A847AFE701229A4F01213B78CD
:104AE000042013433B703323FA5C8A43FA54FA5C84
:104AF0008243FA540133FA5C8A43FA54FA5C8243E3
:104B0000FA54237800209A4600F066FE602223794A
:104B10001A40602A0DD0402A00D1F2E0DB06DB0EFD
:104B2000012B00D16AE1022B00D121E1002B00D141
:104B3000F6E020780021FFF7CFFC80212078FFF7F6
:104B4000CBFC79E77F4B1B78DB0700D474E7814B04
:104B5000002B00D170E700E000BF6DE7794B1A78B9
:104B6000D20700D468E77C4A002A00D164E71878AD
:104B70000007C00F00E000BF5EE7744D724A0027D7
:104B80002B78002A00D1B6E0744A90469F4208D3A1
:104B90009F4200D0B2E00137FFB29F4200D94BE7FD
:104BA000F6D2414609687A008C46D219D200624496
:104BB0005269002AEFD02078904701372B78FFB256
:104BC0009F42E3D938E72378604D5F4A9846002733
:104BD0002B78002A00D186E0614A91465F4A9246CE
:104BE0002A0045469046BB425ED800D078E04B464E
:104BF00028009847434601371B78FFB2BB42F2D2E8
:104C0000504D532200212800FEF75CFE1022FF21A8
:104C1000E81CFEF757FE28002022FF211330FEF784
:104C200051FE00F0CFFD4F4B002B00D104E700E018
:104C300000BF01E72378454D434A984600272B786B
:104C4000002A47D0464A9146444A92462A004546A1
:104C500090469F421FD343D14B4628009847434676
:104C600001371B78FFB2BB42F3D2364D53220021ED
:104C70002800FEF727FE1022FF21E81CFEF722FE87
:104C800028002022FF211330FEF71CFE00F09AFDC1
:104C90002379AB70D0E6524612687B009446DB194C
:104CA000DB0063445B68D8E7524612687B00944699
:104CB000DB19DB0063445B689AE70BB0F0BCBB46D2
:104CC000B246A946A046F0BD62792078A36800F0FC
:104CD00097FDB1E6404600F00DFF2B78002BC4D0C5
:104CE00000235B68FFDE404600F004FF2B78002BBA
:104CF00000D185E7F4E7002B00D19DE600235B6936
:104D0000FFDE1948002800D113E700F065FD0021FF
:104D1000504608AA00E000BF002800D08CE608E753
:104D2000202A00D19FE0002A00D002E76379092BF6
:104D300000D9FEE60D4A9B00D3589F46A469001097
:104D4000B867022060670220513C0010846E022088
:104D5000E95C001000000000000000002864022050
:104D6000F55A00100000000000000000C8690010A3
:104D70007023217A0B4200D0DBE60F330B405B003F
:104D8000F818CD090093C14B4019C07C002B06D008
:104D9000BF4B1B78984200D288E0C01AC0B20028EE
:104DA0007ED1002A00D015E1BA4B01936379984671
:104DB0000223424699469A43012A00D10EE1434616
:104DC000002B00D0B5E6009B06AAFB185D19303514
:104DD000EB7802329B07DB0F13805046022308A9B1
:104DE00000F092FC28E65A00D318AB4ADB001268A8
:104DF000D318002B00D160E71D6968E6237A0F2BDA
:104E000000D996E6A14AFB18DB78002A05D0A04A13
:104E10001278934264D39B1ADBB2002B00D088E651
:104E20009E489C4D00F0D8FC00215046EB6808AA33
:104E30009847002800D0FFE56022150023791D4027
:104E40001A4200D075E663790A3B012B00D970E65F
:104E500000F0C2FC63790A2B00D1EEE0504608A9AD
:104E600000F03AFCE8E5237A0F2B00D961E6874A87
:104E7000FB18DB78002A06D0854A1278934200D2CC
:104E8000D0E09B1ADBB2002B00D052E68348814D64
:104E900000F0A2FC00215046EB6808AA98473BE7C7
:104EA000002A00D045E6002301937FE743009C469B
:104EB000794B60441B68C0009C4603006344019327
:104EC000002A00D172E7002B00D132E6D86800F04A
:104ED00083FC019B00215046DB6808AA98471BE72A
:104EE0006D4A5D00EB181568DB00ED18002D00D150
:104EF0001FE6E86896E7E388012B00D019E6082250
:104F00003B785046934308A93B7000F0E5FB93E5DE
:104F10000220397806AB9A1C8B068908DB0F01400A
:104F20000B4359E7A37901931A007B789A4207D083
:104F30007B78002B00D01EE1019B002B00D0B3E05A
:104F4000019B504608A97B7000F0C6FB74E57B7896
:104F500006AA023213705046012308A900F0D4FBC0
:104F60006AE5E088030AC0B20F2B00D9E1E54C499D
:104F70009A008A58974608A800F034FC5046A17958
:104F8000FFF700F902223B7813433B7054E5E388B6
:104F9000012B00D0CDE508223B785046134308A9E9
:104FA0003B7000F099FB47E5022B00D194E13D4BAB
:104FB000002B00D1BDE500E000BF0200002A00D1B7
:104FC000B7E5D37891781B020B43504608A900F04F
:104FD0009BFBA1E62F4B3148019378E7E288002A3A
:104FE00009D14346012B3DD0009BFB185D1930359C
:104FF000EB789B072AD5019D002D00D11CE5EB68BD
:105000001800009300F0E8FBEB68002108AA504666
:105010009847002000F0E0FB3423FB5CDB0700D561
:105020000AE51BE71C4A5D00EB181568DB00ED186C
:10503000002D00D17DE5E8682AE706AB9A1C5046B2
:10504000012308A9157000F05FFBF5E45046FFF757
:1050500043FA0222EB7813430122EB70EB781343FF
:10506000EB70C8E7009BFB185D193035EB789B07A8
:10507000C1D55046FFF74CFA4A46EB789343424677
:10508000EB70EB789343EB70B5E7C046513C0010F2
:10509000846E0220306A001028640220055C001033
:1050A000F069001000000000581EC0B2FEF718FFA3
:1050B000002800D13DE543780493022B00D038E569
:1050C0000121C3799A115B110A400B4052011B0167
:1050D00013433A782F318A4313433B70092399468F
:1050E000C37882781B021343C31881440393039B44
:1050F0004B4500D8E9E04B4601225B7800920B2B30
:1051000007D14B46DB7800934B461B7899444B46BE
:105110005B78042B00D00CE54A46039B00259B1AC4
:105120009BB202936E4A6F4B1B78002A16D162E045
:10513000AB4271D16C4A6D4B904649465046029A3B
:1051400098478446082802D9029A824269D2654B60
:1051500001351B78EDB2AB4200D2EAE4AB42E7D9AD
:10516000634A6B0012685B199046DB009844434623
:1051700005929B68E1E75046FFF73EF9BB78594D31
:10518000574A009300212B78002A2DD0584A904688
:105190002A000D0091469D421DD300D0A0E5554B3D
:1051A000504698474B4601351B78EDB2AB42F2D2E0
:1051B000532200213800FEF785FB1022FF21F81C46
:1051C000FEF780FB38002022FF211330FEF77AFB28
:1051D000009BBB70B0E6424612686B0094465B19B8
:1051E000DB0063445B68DBE7504600F083FC2B7810
:1051F000002BDDD074E5029B49461A0050469846C4
:1052000000F08EFC8446082801D9404507D9354B6B
:105210001B78002B00D18CE400239B68FFDE324B0F
:105220009846009B012B48D0009B002B10D04B468A
:105230009978002305E0D5700133009ADBB29342E0
:1052400006D2CA18D2B2BA18D078FF28F3D070E4C8
:105250003800E0462B0049466246133000F02EFE2F
:10526000204BC1441B78AB4200D340E761E4224BA2
:10527000002B00D15DE400E000BF0200A1E6FEF7D4
:105280002BFE1223020008A9504600F03DFA43E528
:105290001A4B002B00D14CE400E000BF021E00D1ED
:1052A00047E45046137808A900F02EFA34E5218926
:1052B000FEF71AFE021EF4D13BE442460B4B926805
:1052C0009A42B4D1049B0093B1E70D4B002B00D15F
:1052D00036E600E000BF33E6FEF702FE02006DE6B0
:1052E000513C0010846E0220306A0010215B0010D7
:1052F00028640220F55A00100000000000000000A1
:105300000000000030B587B005000C000C22002121
:105310006846FEF7D7FA6B461D705C70042C4FD0C0
:1053200009D8022C34D0032C19D13C4B1A785207DF
:1053300058D407B030BD052C11D1384B1A78D2079C
:10534000F7D504211A788A431A70354B1C68E26934
:10535000EFF3108172B61368002B09D1FBE7304BD5
:105360001C68E269EFF3108172B61368002BFCD061
:10537000BFF35F8F21626946200000F0E5FEE2691D
:10538000236ABFF35F8F0021116083F31088D0E799
:105390000121224B1A788A431A701A780331A243EA
:1053A0001A7000225A701A788A431A701C4B1C68B3
:1053B000E269EFF3108172B61368002BD8D1FBE7D6
:1053C000164B1A78D207B4D504211A780A431A70FA
:1053D000134B1C68E269EFF3108172B61368002B5F
:1053E000C6D1FBE704211A7803A88A431A7000216A
:1053F0000C22FEF767FA6B466A461D73052353734A
:10540000074B1C68E269EFF3108172B61368002B3A
:10541000FCD0BFF35F8F216203A9ADE76067022074
:10542000B867022070B584B001AC06000D000C22F4
:1054300000212000FEF746FA012363700D4B257111
:105440001D682670EA69EFF3108372B611680029AF
:10545000FCD0BFF35F8F2B622100280000F074FEA8
:10546000EA692B6ABFF35F8F0021116083F3108814
:1054700004B070BDB8670220002330B585B001AD1F
:105480006B8028700633082202A86B70FEF720FAA2
:105490000C4B1C68E269EFF3108372B611680029A7
:1054A000FCD0BFF35F8F23622900200000F04CFE88
:1054B000E269236ABFF35F8F0021116083F31088D4
:1054C00005B030BDB8670220F0B5C646804600B5CD
:1054D00084B001AC0F0016000021082220001D003E
:1054E000FEF7F0F943462370072363700F4B657195
:1054F0001D682771A660EA69EFF3108372B6116820
:105500000029FCD0BFF35F8F2B622100280000F040
:105510001BFEEA692B6ABFF35F8F0021116083F3E2
:10552000108804B080BCB846F0BDC046B867022001
:10553000F0B54646D6464F468046C0B50C0015002D
:105540001E00002A2ED070239946184B00279A4639
:105550006378052B0FD1E1788907890FB1420AD111
:105560004A46A3781A4206D153462000997800F0A3
:1055700069FC002805D10020E0BCBA46B146A84627
:10558000F0BD21004046FEF7BFFE0028F3D0A3780F
:10559000DA09012A08D0089A137023780137E41831
:1055A000AF42D5DB0120E7E7099AF5E76067022003
:1055B000702270B58B7805000C001A4201D00020D3
:1055C00070BD064B2000997800F03CFC0028F6D016
:1055D00021002800FEF798FEF2E7C046606702202F
:1055E00070B57F240C406300144CC909E41864189A
:1055F0003034E378DB07DD0F002B18D1E3785B074D
:1056000001D5280070BD01210D4E4942306801F0DE
:105610008FF8E378DB07DD0F002B0AD1E3785B0717
:1056200008D40422E37801251343E37002E0002547
:10563000E7E70025306801F063F8E2E760670220E1
:10564000B467022070B50C0001210F4D4942286853
:1056500001F06EF87F2121404B000C49E409C91884
:1056600009193031CB780024DB0708D4CB785B07ED
:10567000DC0F002B03DA0422CB789343CB7028682D
:1056800001F03EF8200070BDB46702206067022080
:1056900070B57F250F4C0D406D0064190600C809D8
:1056A00024183034E5780020ED0700D570BD0125C1
:1056B000E0782843E0703000FEF7FCFE0028F5D1CA
:1056C0000122E3789343E370E37803329343E3707A
:1056D000ECE7C0466067022070B50A4E0500300056
:1056E00008220C00FEF7F4F800237F21F3602278F3
:1056F000B36091425B412800D90100220023FFF7EB
:10570000C7FF70BD04670220F8B5CE4647469146F4
:105710002A4E80B50822070030000D009846FEF79B
:10572000D7F84B46B3600023F381EC79A9792402C2
:105730000C43231C444500D943469AB29046B3819A
:10574000002C13D0002A1FD04B46002B34D0131C42
:10575000402A1FD89BB2984633787F2B20D800214F
:10576000174A43463800FFF793FF09E07F222B7862
:1057700038009A42644100230022E101FFF788FFCC
:10578000C0BCB946B046F8BD33787F2B11D9802113
:105790000022E6E740239BB2984633787F2BDED980
:1057A000074C424649462000FEF792F8802122002D
:1057B000D7E700210022D4E70020E1E704670220B8
:1057C0002067022010B5142200210248FEF77AF863
:1057D00010BDC04604670220014B18617047C046E7
:1057E0000467022010B5054C010008222000FEF7D6
:1057F0006FF80023A360E36010BDC0460467022079
:10580000F8B53B4C1D0023780600DA09C9098A4225
:1058100013D00020002D00D0F8BD364B002B03D054
:1058200021003000FEF762FD2369002B44D02200E6
:105830000221300098470120EEE77F2B06D8A068B0
:10584000002837D02A002C49FEF742F8A368E289E5
:1058500059195219E38892B2E281A160934214D09F
:105860003F2D12D9A589A81A071C80B240282FD82D
:105870002378BFB27F2B2DD80021AA4235D01E4AF3
:105880003B003000FFF704FFC6E72369002B05D07B
:10589000220001213000984700280FD07F220021EC
:1058A000237830009A42494100230022C901FFF7C2
:1058B000EFFEB1E70020AFE70120ADE700213000A7
:1058C000FEF70AFE30008021FEF706FE0120A3E766
:1058D0004027CDE7AA4207D0074C3A002000FDF749
:1058E000F7FF80212200CBE780210022C8E7C046D5
:1058F00004670220ED4200102067022010B504006A
:10590000FFF708F8002801D1002010BDFFF70AF8C2
:105910000028F9D1B62080004443034800190379D8
:1059200001201840F1E7C0462C640220B6239B00FA
:10593000584310B5024B1030C01800F011FB10BDD9
:105940002C640220F0B5B625AD0045432C00C646B8
:10595000174F1034E41900B5200092B200F074FB28
:105960000600200000F014FB3F2803D8300080BC64
:10597000B846F0BD7B190020D9789846FFF730FE75
:105980000028F3D0200000F003FB3F280AD996231B
:105990009B00EA184346D219D97800204023FFF72C
:1059A00077FEE3E743460020D978FFF74BFEDDE7BB
:1059B0002C640220F8B50400FEF7ACFF002801D1EA
:1059C0000020F8BDFEF7AEFF0028F9D1B620800018
:1059D00044432500144E2C35AD19280000F0C0FAC0
:1059E0000028EDD037190020B978FFF7F9FD00281D
:1059F000E6D0A6239B009C466444A41921002800FD
:105A0000402200F021FBB978051E08D003002200D7
:105A10000020FFF73DFE0028D2D02800D1E700206B
:105A2000FFF710FECCE7C0462C64022070B5B62408
:105A3000A4004443094B2C34E418050092B2200022
:105A400000F0C0FB0600200000F08AFA3F2801D8D1
:105A5000300070BD2800FFF7ADFFF9E72C6402208D
:105A6000B6239B00584310B5024B2C30C01800F0F1
:105A70008FFA10BD2C640220B622F0B51B4C83B007
:105A8000002120009200FDF71DFFFF236371184BDA
:105A900080260025E38001270823210020007600CE
:105AA00023733200278148310095073B103000F006
:105AB0001BFA2100200049313200FF3101230097F9
:105AC0002C3000F011FA92239B00E6183000FDF70D
:105AD000C7FA94239B00A662E61830006562FDF7C2
