:020000041000EA
:1000000000B5324B212058609868022188439860DF
:10001000D860186158612E4B002199600221596106
:100020000121F02299502B49196001219960352056
:1000300000F044F80222904214D00621196600F024
:1000400034F8196E01211966002018661A6600F04E
:100050002CF8196E196E196E052000F02FF8012189
:100060000842F9D1002199601B49196000215960AB
:100070001A491B48016001219960EB211966A021F2
:10008000196600F012F800219960164914480160C1
:100090000121996001BC002800D000471248134993
:1000A000086003C880F30888084703B5996A0420EC
:1000B0000142FBD001200142F8D103BD02B5186610
:1000C0001866FFF7F2FF186E186E02BD00000240BE
:1000D000000000180000070000035F00212200005C
:1000E000F4000018222000A00001001008ED00E03C
:1000F00000000000000000000000000074B24E7A12
:1001000000200420F7010010C3010010C5010010F9
:10011000C1010010C1010010C1010010C101001097
:10012000C1010010C1010010C1010010C701001081
:10013000C1010010C1010010C9010010CB01001065
:10014000CD010010CD010010CD010010CD01001037
:10015000CD010010CD010010CD010010CD01001027
:10016000CD010010CD010010CD010010CD01001017
:10017000CD010010CD010010CD010010CD01001007
:10018000CD010010CD010010CD010010CD010010F7
:10019000CD010010CD010010CD010010CD010010E7
:1001A000CD010010CD010010CD010010CD010010D7
:1001B000CD010010CD010010CD010010CD010010C7
:1001C00000BE00BE00BE00BE00BE00BE00F04BF888
:1001D000103800BEF2EB8871C8AF0210ECAF02100D
:1001E0003402001090A31AE700202149086006C8D5
:1001F00081F3088810471F48006800282FD10DA4FC
:100200000ECC002902D000F012F8F9E71A491B4A77
:10021000002000E001C19142FCD1194988471949E9
:1002200088471949884700BEFDE701C901C29A42C3
:10023000FBD37047ECAF0210C0000020A4030020E5
:10024000D0B202100000042000000420D0B202103E
:1002500000100420001004200000000070470B482C
:1002600002F052FE0047EFF30580C0B27047000075
:1002700008ED00E0000000D0A8030020F4070220F1
:10028000D9290010D1040010C92A001057560000C7
:1002900006005250ABB3605348AE021006005250F5
:1002A000861C030258AE0210060052505422A29D32
:1002B00068AE021005005250DE65F468D0B202103C
:1002C000F8B5C04610B5064C2378002B07D1054B76
:1002D000002B02D0044800E000BF0123237010BDB2
:1002E000A806002000000000B05C0010044B10B510
:1002F000002B03D00349044800E000BF10BDC046F6
:1003000000000000AC060020B05C0010F0B5DE4636
:1003100057464E464546E0B58DB000F0EFF8432312
:10032000099335330893624B002699461D00614BB3
:10033000F0279B46604B00249A4687239846434605
:100340000697079305940494039302973F2E00DCCD
:1003500085E07F2E26DC594B87220193F021002374
:100360002800009401F05EF8A42306930293544BF6
:10037000402201932323079200930594049403924F
:100380000333F0212800473201F04CF8013601F028
:10039000E9F800282BD1280000F0CCFE4D455CD0B8
:1003A0004D46CCE7474B8722F0212800019300946B
:1003B000002301F037F801F0D5F80028E7D05B46BC
:1003C00052461B681268069302933F4BF02101933B
:1003D00068232800079203920093872268330594CC
:1003E000049401F01FF801F0BDF80028D3D002A951
:1003F0008C46222363440BAA19000AA801F0B8F81E
:1004000002AB20229B5E089A94466344F02B3EDDAB
:10041000F023089302AB22229B5E099A9446634420
:10042000872B40DD872309935B4652461B68126881
:1004300006930293244B28000193099B0792039291
:1004400000938722F021089B0594049400F0EAFFB2
:10045000280000F06FFE4D45A2D11C4D6FE7174BF1
:1004600087220193F02100232800009400F0DAFF96
:10047000A42306930293124B4022019363239B1BF8
:1004800000930796262305940494039279E7DA43B0
:10049000D2171340089302AB22229B5E099A94461E
:1004A0006344872BBEDCDA43D21713400993BBE7C2
:1004B000D00600209C02002098020020D059011094
:1004C000F0560210B05C0010F0A80210F0030120FA
:1004D00010B505F073FB084803F0DEF8192001F0B1
:1004E00027F9D02380221B0692045A6205F032FAC3
:1004F00004F09AFBFCE7C0460D030010F0B5E84C91
:1005000083B0E849200002F0F1FF07222368802031
:100510005A40CF23400113402043036001210220B1
:1005200001F0EEF80121032001F0EAF8002003F0C9
:1005300059F8DD4A030010600020002B01DA00F0BA
:10054000F1FDDA48DB020340D948DA4A03430020D0
:10055000136001F0EDF8052001F0EAF8012001F048
:10056000E7F8042001F0E4F8162001F0E1F8D026C5
:10057000802301240221102220273606DB03746227
:100580000120776271627262736277617161726178
:10059000B461736101F0D6FD7461012001F0D2FDF8
:1005A0006B469D1D1123C44C2B802368002B00D16A
:1005B000B761D026022701333606236001222900C5
:1005C000B748B76105F064FB23687761013B23609E
:1005D000002B01D120337361012001F0B3FD1323FF
:1005E0002B802368002B03D1D02220211206916199
:1005F000D026022701333606236001222900A848AD
:10060000B76105F045FB23687761012B02D12022F9
:100610007261B261D0263622022736062A80236014
:1006200029009F48B761353A05F032FB23687761AE
:10063000012B02D120227261B261D02623600822F0
:10064000022336062A70290073619548073A05F09F
:100650001FFB2368012B02D120227261B261D026D8
:10066000B622022736062A80236029008C48B7610B
:10067000B53A05F00DFB23687761012B02D12022EA
:100680007261B261D02623600A22022336062A70E4
:10069000290073618248093A05F0FAFA2368012BB0
:1006A00002D120227261B261D0262360822202230D
:1006B00036062A70290073617948813A05F0E8FA14
:1006C0002368012B02D120227261B261D026B022B0
:1006D000022736062A80236029007148B761AF3AA5
:1006E00005F0D6FA23687761012B02D120227261CE
:1006F000B261D02623600022022336062A70290028
:1007000073616748013205F0C3FA2368012B02D1F7
:1007100020227261B261D0262360E02202233606D5
:100720002A70290073615E48DF3A05F0B1FA236848
:10073000012B02D120227261B261D0263A22022717
:1007400036062A80236029005548B761393A05F0FA
:100750009FFA23687761012B02D120227261B26176
:10076000D02623605522022336062A7029007361A1
:100770004B48543A05F08CFA2368013B2360002B68
:1007800001D1203373610A2001F0DCFCB2232B80FD
:100790002368002B03D1D022202112069161D0269C
:1007A0000227013336062360012229003C48B76145
:1007B00005F06EFA23687761012B02D12022726165
:1007C000B261D02623600C22022336062A7029004B
:1007D000736133480B3A05F05BFA2368012B02D1B1
:1007E00020227261B261D02623600C2202233606D9
:1007F0002A70290073612A480B3A05F049FA2368E8
:10080000012B02D120227261B261D0262360002226
:10081000022336062A70290073612148013205F04F
:1008200037FA2368012B02D120227261B261D026EF
:1008300023603322022336062A7029007361184888
:10084000323A05F025FA2368012B02D12022726189
:10085000B261D02623603322022336062A70290093
:1008600073610F48323A05F013FA2368012B02D165
:1008700020227261B261D026B722022736062A8072
:10088000236029000648B761B63A05F001FA2368EB
:100890007761012B12D120227261B2610EE0C04655
:1008A00000C00340005A6202C8060020FD7F00FF1E
:1008B00011000800C4060020CC060020D0262360CA
:1008C0003522022336062A7029007361E448343A3F
:1008D00005F0DEF92368012B02D120227261B2619A
:1008E000D026BB22022736062A8023602900DC4856
:1008F000B761BA3A05F0CCF923687761012B02D1D0
:1009000020227261B261D02623602822022336069B
:100910002A7029007361D248273A05F0B9F9236893
:10092000012B02D120227261B261D026C02202279F
:1009300036062A8023602900C948B761BF3A05F00E
:10094000A7F923687761012B02D120227261B2617D
:10095000D02623600C22022336062A7029007361F8
:10096000BF480B3A05F094F92368012B02D12022ED
:100970007261B261D026C222022736062A80236025
:100980002900B748B761C13A05F082F92368776159
:10099000012B02D120227261B261D0262360012294
:1009A000022336062A7029007361AD4805F070F9FC
:1009B0002368012B02D120227261B261D02623600C
:1009C000FF22022336062A7029007361A448FE3AEA
:1009D00005F05EF92368012B02D120227261B26119
:1009E000D026C322022736062A80236029009C488D
:1009F000B761C23A05F04CF923687761012B02D147
:100A000020227261B261D0262360102202233606B2
:100A10002A702900736192480F3A05F039F923686A
:100A2000012B02D120227261B261D026C42202279A
:100A300036062A80236029008948B761C33A05F049
:100A400027F923687761012B02D120227261B261FC
:100A5000D02623602027022336062F7001227361DF
:100A600029007F4805F014F92368012B01D1776133
:100A7000B761D026C622022736062A8023602900C5
:100A80007748B761C53A05F003F923687761012B10
:100A900002D120227261B261D02623600F2202238C
:100AA00036062A70290073616D480E3A05F0F0F899
:100AB0002368012B02D120227261B261D026D0229C
:100AC000022736062A80236029006548B761CF3A9D
:100AD00005F0DEF823687761012B02D120227261D4
:100AE000B261D0262360A422022336062A70290090
:100AF00073615B48A33A05F0CBF82368012B02D160
:100B000020227261B261D0262360A1220223360620
:100B10002A70290073615248A03A05F0B9F8236899
:100B2000012B02D120227261B261D026E02202277D
:100B300036062A80236029004948B761DF3A05F06C
:100B4000A7F823687761012B02D120227261B2617C
:100B5000D0262360D022022336062A702900736132
:100B60003F48CF3A05F094F82368012B02D12022A8
:100B70007261B261D02623600022022336062A70F9
:100B8000290001323648736105F082F82268012A93
:100B900002D120237361B361D026022336062B7065
:100BA00022602900736101222D4805F071F8236845
:100BB000012B02D120227261B261D026236007226C
:100BC000022336062A70290073612548063A05F08B
:100BD0005FF82368012B02D120227261B261D02616
:100BE00023600A22022336062A70290073611C48FA
:100BF000093A05F04DF82368012B02D120227261D9
:100C0000B261D02623602822022336062A702900EA
:100C100073611348273A05F03BF82368012B02D192
:100C200020227261B261D02623603222022336066E
:100C30002A70290073610A48313A05F029F82368BF
:100C4000012B02D120227261B261D026236044229E
:100C5000022336062A70290073610148433A01E0F5
:100C600000C0034005F014F82368012B02D12022B4
:100C70007261B261D02623604222022336062A70B6
:100C800029007361E448413A05F002F82368012B1A
:100C900002D120227261B261D02623600622022393
:100CA00036062A7029007361DB48053A04F0F0FF2C
:100CB0002368012B02D120227261B261D026236009
:100CC0000E22022336062A7029007361D2480D3A9B
:100CD00004F0DEFF2368012B02D120227261B26191
:100CE000D02623601222022336062A70290073615F
:100CF000C948113A04F0CCFF2368012B02D120220D
:100D00007261B261D02623601422022336062A7053
:100D100029007361C048133A04F0BAFF2368012B1D
:100D200002D120227261B261D026236017220223F1
:100D300036062A7029007361B748163A04F0A8FFF6
:100D40002368012B02D120227261B261D026E122F8
:100D5000022736062A8023602900AF48B761E03AAF
:100D600004F096FF23687761012B02D12022726183
:100D7000B261D0262360D022022336062A702900D1
:100D80007361A548CF3A04F083FF2368012B02D199
:100D900020227261B261D02623600022022336062F
:100DA0002A70290001329C48736104F071FF2268A7
:100DB000012A02D120237361B361D02602233606B3
:100DC0002B702260290073610122934804F060FFB8
:100DD0002368012B02D120227261B261D0262360E8
:100DE0000722022336062A70290073618A48063AD0
:100DF00004F04EFF2368012B02D120227261B26100
:100E0000D02623600A22022336062A702900736145
:100E10008148093A04F03CFF2368012B02D12022CB
:100E20007261B261D02623602822022336062A701E
:100E3000290073617848273A04F02AFF2368012BC0
:100E400002D120227261B261D026236031220223B6
:100E500036062A70290073616F48303A04F018FF93
:100E60002368012B02D120227261B261D026236057
:100E70005422022336062A70290073616648533AC9
:100E800004F006FF2368012B02D120227261B261B7
:100E9000D02623604722022336062A702900736178
:100EA0005D48463A04F0F4FE2368012B02D120226B
:100EB0007261B261D02623600E22022336062A70A8
:100EC0002900736154480D3A04F0E2FE2368012BB7
:100ED00002D120227261B261D02623601C2202233B
:100EE00036062A70290073614B481B3A04F0D0FE85
:100EF0002368012B02D120227261B261D0262360C7
:100F00001722022336062A70290073614248163AD6
:100F100004F0BEFE2368012B02D120227261B2616F
:100F2000D02623601B22022336062A702900736113
:100F300039481A3A04F0ACFE2368012B02D1202272
:100F40007261B261D02623601E22022336062A7007
:100F50002900736130481D3A04F09AFE2368012B82
:100F600002D120227261B261D026212202273606E8
:100F70002A80236029002848B761203A04F088FEBF
:100F800023687761012B02D120227261B261D026E1
:100F90002A22022736062A80236029001E48B761CC
:100FA000293A04F075FE23687761012B02D12022D3
:100FB0007261B261D02623600022022336062A70B5
:100FC000290073611448013204F062FE2368012B8A
:100FD00002D120227261B261D0262360282202232E
:100FE00036062A70290073610B48273A04F050FE38
:100FF0002368012B02D120227261B261D0262360C6
:101000000122022336062A7029007361024804F087
:101010003FFE236802E0C04600C00340012B02D11E
:1010200020227261B261D026236017220223360685
:101030002A70290073613E48163A04F029FE23689D
:10104000012B02D120227261B261D0262B2202270D
:1010500036062A80236029003548B7612A3A04F011
:1010600017FE23687761012B02D120227261B261E1
:10107000D02623600022022336062A7029007361DD
:101080002B48013204F004FE2368012B02D12022F8
:101090007261B261D02623603522022336062A709F
:1010A000290073612248343A04F0F2FD2368012BD1
:1010B00002D120227261B261D02623600022022375
:1010C00036062A70290073611948013204F0E0FDE8
:1010D0002368012B02D120227261B261D0262360E5
:1010E000BB22022336062A70290073611048BA3ADF
:1010F00004F0CEFD2368012B02D120227261B2617F
:10110000D0262922022736062A8023602900084893
:10111000B761283A04F0BCFD23687761012B03D046
:101120000120236003B0F0BD20227261B261F7E7B5
:1011300000C00340F0B54746CE4680B5B24F80218F
:101140003B6806009A01B14B83B09C464904624457
:1011500013680B42FCD11022AD49CB681A42FCD176
:10116000AC4C2368012B04D1D022202112065161FE
:1011700091612360D0231B066A4698460223951D81
:101180009946362243462A804A4629009A61A04859
:10119000013A04F07DFD43464A465A612368012B1B
:1011A00003D141461E324A618A612360D0231B0667
:1011B000682298462A7002234246290053619448C7
:1011C000012204F065FD2368012B00D013E12022E9
:1011D00041464A618A610A322A8001332360D02362
:1011E0001B0698460223994643464A4629009A61BF
:1011F0008748013A04F04CFD43464A465A61236849
:10120000012B03D141461E324A618A612360D023FB
:101210001B06002298462A70022342462900536189
:101220007B48012204F034FD2368012B03D12022E6
:1012300041464A618A612360D0231B0628229846D2
:101240002A7002234246290053617148012204F0AA
:101250001FFD2368012B03D1202241464A618A6188
:101260002360D0231B06012298462A70022342469F
:10127000290053616648012204F00AFD2368012B0E
:1012800003D1202241464A618A612360D0231B0694
:10129000172298462A7002234246290053615C486F
:1012A000012204F0F5FC2368012B03D120224146E2
:1012B0004A618A612360D0231B06984602232B22B1
:1012C00099462A8043464A4629009A615048013A85
:1012D00004F0DEFC43464A465A612368012B03D1E1
:1012E00041461E324A618A612360D0231B060022D8
:1012F00098462A700223424629005361444801223D
:1013000004F0C6FC2368012B03D1202241464A6128
:101310008A612360D0231B06352298462A70022357
:101320004246290053613A48012204F0B1FC236887
:10133000012B03D1202241464A618A612360D023D8
:101340001B06002298462A70022342462900536158
:101350002F48012204F09CFC2368012B03D120229A
:1013600041464A618A612360D0231B06BB2298460E
:101370002A7002234246290053612548012204F0C5
:1013800087FC2368012B03D1202241464A618A61F0
:101390002360D0231B06984602232C2299462A80DC
:1013A00043464A4629009A611948013A04F070FC04
:1013B00043464A465A612368013B2360002B02D111
:1013C00042462033536110221149CB681A42FCD1A6
:1013D000A022D20594463B680F4A9B0163441E60DD
:1013E0005A600E4A9A600E4A1268DA6003B0C0BCB6
:1013F000B946B046F0BD2A222A80002B00D0ECE688
:10140000202241468A61E8E6C8060020100000500C
:1014100000C00340CC06002008C0034020FD0000AF
:10142000C4060020F0B55746DE464E464546E0B5B8
:1014300089B00C00149901928A46199904930029E5
:1014400068DD0A0093461A005B00C31813989046A3
:101450008446169A05939146169B26005B006344CA
:101460000793189B574643449C46189B12994B443C
:101470009846179D4E436F438B44189B002B43DDCA
:10148000019B8B4240DD00293EDB002D29DB159BB3
:10149000AB4253DD079A7B009146059A4B44914637
:1014A000039373004B440293B14600204646049ACE
:1014B0008846169B51460695BA460EE099420EDDC7
:1014C000039F3F5A002A03DB944201DD029D2F5205
:1014D000013301320230B34223D0002BEEDA002771
:1014E000F0E7059B7200994660464A448946049B92
:1014F000002B03DB9C4201DD00211180013302320D
:101500009842F5D149468446013136195744013590
:101510008B45B2D109B0F0BCBB46B246A946A04645
:10152000F0BD57468A464146B0464E46069D0131BB
:101530003619574401358B459FD1EBE7059B720067
:10154000994660464A448946049B002B03DB9C4233
:1015500001DD00211180013302328342F5D1494679
:101560008446D1E7014B1878C0B27047F2070220D9
:101570000B4B10B51B78DCB2002B0CD0094B1B8831
:101580000380094B1B880B80084B1B6813600122EA
:10159000074B1A7010BD04800C801460F7E7C0463A
:1015A000F2070220EA070220EC0702208807022047
:1015B000F1070220F8B50C001F00160004F034F803
:1015C00005000F482301C01832003B00042104F03D
:1015D0005BF90C4B1855022D10D1D02380221B062D
:1015E00092045A610122084B1A700023074A1380A3
:1015F000074A1380074A1360074A1360F8BDC046C4
:10160000A4070220A0070220F2070220EA07022016
:10161000EC070220880702208C070220D0238022BA
:101620001B0692049A610022014B1A707047C04653
:10163000F207022070B52C4B2C4C5D5C090164183C
:10164000012D16D01678002D12D02100002304E0C1
:101650000133DBB204319D420AD908780C00B04254
:10166000F6D101326388012B02D16378022B05D0B9
:1016700070BD2378002BF5D01678E6E70125022609
:101680001B4B1078555796571A78002A25D1194CBC
:101690001949228812B2521B151C12B27F2A00DD92
:1016A0007F252BB27F3302DA7F235B421D1C0B8820
:1016B0002DB21BB29B1B1A1C1BB27F2B00DD7F229D
:1016C000131C12B27F3201DA7F235B4207221040E3
:1016D0000A4A258010600B80CAE70022054C0649A3
:1016E00022801A700A80D4E7A0070220A4070220F3
:1016F000F1070220EA070220EC07022088070220F7
:10170000094A830094464022634410B51C68C00017
:101710006240C02414408022520113431C60034BDA
:101720009C466044416010BD04C00140004001403F
:101730000123D0228340120693629361094A8300F9
:101740009446402263441968C0004A40C0211140B9
:101750008022520113431960034B9C4605236044C9
:101760004360704704C001400040014070B5EFF392
:10177000108C72B60D4D2B68002BFCD0BFF35F8F21
:101780000724CB08C618C05C01230C40A3401C00F2
:101790000440034207D103433370BFF35F8F2C60D3
:1017A0008CF3108870BD100001F090F92C0100D06E
:1017B000F8B54746CE46884680B5EFF3108C72B632
:1017C000214D2C68002CFCD0BFF35F8F9A422CD89F
:1017D000D4080727055D061901241740BC402C4298
:1017E0001FD007210127894609E0D408055D0619A5
:1017F0004C4639001440A1400C00294211D001325E
:101800009342F2D201204042BFF35F8F00220E4B81
:101810001A608CF3108800280FDBC0BCB946B046B4
:10182000F8BD2C4310003470EEE7BFF35F8F002348
:101830002B608CF31088012040424346002BECD0F3
:10184000089801F043F9C0462C0100D0024B1868FB
:101850008007C00F7047C04600C006400021044BFF
:10186000044ABFF35F8F02C39342FAD17047C04668
:10187000000100D0800100D0044A1078431CDBB284
:10188000172B00D9102313707047C046A002002008
:1018900000B5054B83B00100009318221F230348B5
:1018A000FFF786FF03B000BDD0AD0210C8040220D0
:1018B00001238340002904D0034A1360034A1360C4
:1018C0007047034A1360FBE780E200E000E100E0BC
:1018D00080E100E001228240034B1B6813405A1E46
:1018E0009341D8B27047C04600E100E0024B10308F
:1018F0009B688000C058704700ED00E070B50D0097
:10190000EFF3108672B60F4A1368002BFCD0BFF3BA
:101910005F8F0D4B10309B6884001B590B4A93421C
:1019200003D09D4201D001F0E9F8074B9B681D519F
:10193000BFF35F8FBFF35F8F0022024B1A6086F305
:10194000108870BD240100D000ED00E0CD01001032
:10195000F0B5DE4657464E464546E0B50C0083B02E
:10196000EFF3108A72B65A4A1368002BFCD0BFF30B
:101970005F8F1022914681444A46564B96009B68E1
:101980009D59554B98469D4205D0A54216D0534FC0
:10199000EB1B2F2B14D94F4B9B689D51BFF35F8FCF
:1019A000BFF35F8F00224A4B1A608AF3108803B09E
:1019B000F0BCBB46B246A946A046F0BD1D00EAE712
:1019C000012383409B465A46454B1B681A400092B0
:1019D0005A46444B1A60BFF35F8FFEF744FC0190F8
:1019E000002803D0814501D001F088F801232A00A6
:1019F0009A4393689C4208D15FE04B005B189B00C0
:101A0000FB189968A14211D01A00062151560029ED
:101A1000F3DA009B002B05D05A46334B1A60304B4B
:101A20001A60B8E75A462F4B1A60B4E70621595698
:101A3000002921DB4A00501880003C188046A0682D
:101A40009860E079D871062020569871002824DB30
:101A5000A488F81A6405241544440019E0240005FC
:101A6000400D2402204398805218204B9200BF184A
:101A70001A781970BA71CCE70199002910D1FF3199
:101A800091711B49918019490A789A71194ADB1B97
:101A90005B415A43120D0A70BBE7BD200002E2E72A
:101AA000154A1649D21A083A5002400D014399804E
:101AB000134952080A43DA80ABE706215156130056
:101AC0000029B7DA019A002AEAD14546DBE7C04689
:101AD000240100D000ED00E0CD010010A4020020A0
:101AE00000E100E080E100E080E200E0F007022099
:101AF00000BDFFFFAAAA0000DE02002000F0FFFFE9
:101B000000F8FFFFF8B5012504000543FEF7ABFB25
:101B1000EFF3108C72B6214A1368002BFCD0BFF390
:101B20005F8F1F4E2100B7681E4A1F4B891A49411B
:101B30004B431B0D59B28300F858A8421CD0062312
:101B4000D3568B421CD01223D3568B4222D01E2355
:101B5000D3568B4220D02A23D35603208B4210D059
:101B6000124B1A781970A271BFF35F8F00220B4BD2
:101B70001A608CF31088F8BDB2680D48D050EFE7BA
:101B8000002043001B189B00D218FF239371094BC0
:101B90009380E5E70120F4E70220F2E7240100D07A
:101BA00000ED00E0A4020020AAAA0000F007022035
:101BB000CD01001000BDFFFF054B064A1360064A29
:101BC000136053609360D3601361536193617047F6
:101BD0008080808000E400E004E400E0024B9C464A
:101BE00061448900016070474000003483680B48FD
:101BF00010B5844661446244090112019A185918CB
:101C000054684B6801209C4201D802D00020C0B229
:101C100010BD12680B689A42F9D8F7E7FFFFFF0F73
:101C20000A4B1968EFF3108072B60A68002AFCD0DC
:101C3000BFF35F8F1B68BFF35F8F00221A6080F3D2
:101C4000108840BF002000217047C046C80702200E
:101C5000F8B557464E464546DE46E0B599460CABCC
:101C60001C780DAB1B78060090469A460768002C3E
:101C700011D1BC7B002C42D065003B682D19033D7F
:101C800059194B78BB73002B00D1FB7300238B7069
:101C90004B700B7004E065003B682D19033D59192A
:101CA000B2682A4B94464246E3181B0163441A600B
:101CB0004A465A600A9A9A600B9ADA6000238B703F
:101CC0004B700B707B7B9B46002B2BD02200594620
:101CD000B8687B6898473A68002816D05B46584633
:101CE0005B005B445519033BA870D118D35C002BF3
:101CF00000D06B705B460C707B73A34513D0F0BCB7
:101D0000BB46B246A946A046F8BD5B465B005B44B5
:101D1000033BD3189C705119525D002A00D05A70B1
:101D20005B460B707C7342464B46307D00F058FB9F
:101D3000051E06D05346002B03D12100306800F069
:101D400071FD0E9B002BDAD01D70D8E7FFFFFF0F4F
:101D5000F0B5DE464E46574645460023E0B58DB009
:101D60000A936B4B8200D3580B90994600239B46F5
:101D70004B46079300F0D4FA079C06000F006268F8
:101D8000EFF3108572B61368002BFCD02200079485
:101D9000BFF35F8F2468637B9946002B67D09268FE
:101DA0005C4B90464B441B01984443461A685B6861
:101DB00010001900801BB94100295FDD0B9800F06D
:101DC0000FFB00230026984600279A46079C63686D
:101DD000BFF35F8F5A461A6085F310885346002B75
:101DE00008D10028C6D10DB0F0BCBB46B246A9460A
:101DF000A046F0BD0A9B414618024B461843D04707
:101E0000089009916268EFF3108572B61368002B91
:101E1000FCD00794BFF35F8F0899099A002A48DB2A
:101E2000114303D0079B1B69002B5DD1079B1B68E7
:101E3000D97B002907D04A00521819688C464946B8
:101E40006244033A51704A46DA734B46079A013BA3
:101E5000D168CA5C0132CA545B46079A1361536861
:101E6000BFF35F8F5A461A6085F3108882E700231C
:101E70000026984600279A460020A7E7002901D1AE
:101E800000289BD10021200000F04EFC43461E6834
:101E90005F689B68079A9A464346DB689846D36812
:101EA0004B44013B1B780A931B0203431361002040
:101EB0008CE72369002BB9D033003C005B1A9441B6
:101EC0001A002300A74219D89F421BD059460491FB
:101ED00001210391494602914146019151460798DB
:101EE0000091FFF7B5FEB7E700F01AFA089A099BD0
:101EF00006000F0092197B419942E5D90122524216
:101F0000D317E3E79642E1D901225242D317DDE726
:101F100090070220FFFFFF0FF8B557464E46454693
:101F2000DE46E0B5404D81468A466A68EFF3108888
:101F300072B61368002BFCD0BFF35F8F2E68B47BA2
:101F4000002C39D0670033683F19033FDB195A78FA
:101F5000B273002A00D1F273A968344A8C4649460C
:101F6000A2181201624411605146516030499160DB
:101F70000021D160997059701970737B9B46002BBA
:101F800035D022001900B06873689847326800287D
:101F900020D05B4658465B005B44D719033BB870C2
:101FA000D118D35C002B00D07B705B460C70737330
:101FB0005C451DD0002626E06B68BFF35F8F1C6078
:101FC00088F3108801204042F0BCBB46B246A946C7
:101FD000A046F8BD5B465B005B44033BD3189C7096
:101FE000D119D25D002A00D05A705B460B70747311
:101FF0004A465346287D00F0F3F9061EDAD0210048
:10200000286800F00FFCEB681B19013B19786B681E
:10201000BFF35F8F00221A6088F310880020002E23
:10202000D2D108022043CFE7EC020020FFFFFF0FD0
:10203000211C001010B5124C6368002B04D00A213B
:102040001048FFF7CBFD10BD23000F4A1021206878
:1020500000F088FA032000F057F9032000F030FA6E
:1020600003200A4900F076F9FFF706FC084B9C466E
:10207000032360442375074B80006060DC60DEE76B
:10208000EC020020C8070220ED1B0010511D0010BB
:102090004000003490070220F0B504000D00062631
:1020A0007642F717C64636196F4100B58F4213D8EE
:1020B00010D000F035F932003B00121A8B41002B92
:1020C00014DC002B37D02900200000F033F980BC4D
:1020D000B846F0BD8642ECD90026002700F020F972
:1020E00032003B00121A8B41002BEADD3000390030
:1020F000FFF712FF0028E6DB00239846BC460F4A94
:102100000F4F7B6A9C4504D8B96A8E42DBD99C4547
:10211000D9D11168EFF3108072B60B68002BFCD098
:10212000BFF35F8F1368BFF35F8F4146196080F381
:10213000108820BFE5E7002AC5D0D7E7C8070220EE
:102140000040054070B5060000F0EAF8FA220400ED
:102150000D00002330000021920000F08DFF0019D7
:1021600069418D4205D802D0FFF796FF70BD8442C9
:10217000FAD901204042C117F6E7C046F8B5CE466D
:10218000474680B506000C00FFF7C6FE00280CDCB1
:102190002D4B0020596A8C4203D89B6A0130B34210
:1021A00045D3C0BCB946B046F8BD20BF274D6A68CC
:1021B000EFF3108772B61368002BFCD0BFF35F8F6C
:1021C0002B68C1B29C465B7B8B4235D0FF2303401A
:1021D0005A00914662461268994490464A464244E3
:1021E000033A9278002A1DD0EA68000A90464344D8
:1021F000013B1B78C0B2834221D06B68BFF35F8F75
:1022000000221A6087F310880F4A0020536A9C420C
:10221000C7D8926A0130B242C3D2E01A421E90413E
:10222000C0B2BEE72B699842E7D12A61E5E7601AA0
:10223000431E9841C0B2B4E7FF230340D4E7604691
:1022400000F0F0FAD9E7C04600400540EC0200205B
:10225000F0B5D6464F464646C0B5EFF305833F225C
:10226000134018001038EFF3108C72B6204D2A6816
:10227000002AFCD0BFF35F8F0122110081401D4C6A
:10228000884661631C4917000E788A463100C140B8
:102290000F400A4209D1BFF35F8F2F608CF3108883
:1022A000E0BCBA46B146A846F0BD14498200646A53
:1022B00051588C420FD3124BD25843469E4353463B
:1022C0001E70BFF35F8F00232B608CF31088002AF1
:1022D000E6D09047E4E70B4A9B00904643441A68D7
:1022E0001A60BFF35F8F00232B608CF31088D7E751
:1022F000280100D000400540F3070220CC0702204F
:10230000B8040220D03F054010B50100024A03483E
:10231000FFF72CFA10BDC046ECAD0210EF0702200B
:10232000034B596A0A00986A596A8A42FAD170477F
:1023300000400540064A536A9942FCD807D1044B35
:1023400002E05A6A914202D19A6A8242F9D37047F6
:102350000040054070B504000D00EFF3108672B622
:102360001A4A1368002BFCD0BFF35F8F002D1BD0DF
:102370002000FFF7BBFA164981420AD02000FFF780
:10238000BDFA01212000FFF793FA0123A340114A6F
:102390001360114BA400E550BFF35F8F00220B4B7D
:1023A0001A6086F3108870BD0B4BA200D550012235
:1023B000A2400A4920000B7893430B700449FFF7B1
:1023C000C7FA00212000FFF773FAE5E7280100D0E3
:1023D0005122001038600540B8040220F3070220A3
:1023E000F0B54F46D6464646C0B507002F4C616A49
:1023F0000D00A66A616AA942FAD18B4208D805D0BD
:102400000120E0BCBA46B146A846F0BDB242F7D9B9
:10241000EFF3108A72B6264801680029FCD0BFF39A
:102420005F8F0125BD402349204C884609788946A5
:102430002943C9B28C46414660460870391D1E4882
:10244000890065630A51B9000B50216A00202942B6
:1024500019D0616A0800A66A616A8142FAD18B428A
:1024600019D801D1B24216D8CC451DD00F4B1F2030
:102470001D625D6301230740BB40104A1E38136094
:1024800043464A461A70BFF35F8F0022084B1A601A
:102490008AF31088B5E70020BFF35F8F0022044B5A
:1024A0001A608AF31088ACE70120ECE70040054091
:1024B000280100D0F3070220CC07022080E200E0D0
:1024C000EFF3108C72B60A490B68002BFCD0BFF3F7
:1024D0005F8F01238340074A0748136202789A43BB
:1024E0000270BFF35F8F00230B608CF3108870477E
:1024F000280100D000400540F307022070B5050018
:1025000014001600002915D00C00002A12D0806893
:102510006B689847296800280ED073009B196200E9
:10252000033B1219CB18033A9C7088188A5C002A66
:1025300015D10670200070BD63001B197200033BAB
:102540009219CB18033A9E7088188A5C002A02D12F
:1025500004703400EEE75A7004703400EAE75A70F1
:102560000670E7E730B583600023CCB243730133D4
:10257000047342608373C4730D000068012C06D994
:10258000421C0133DBB2137003329C42F9D1FF21AC
:1025900029404B005918002340180338437030BDC0
:1025A000F8B5CE46474606000C0080B5002907D096
:1025B0004D0003686D18033D5A195778002F04D158
:1025C0002000C0BCB946B046F8BD7900C91903392E
:1025D0008846434459788946002159705170736880
:1025E0003A002100806898473368002814D042469A
:1025F0009A18947059195B5D002B00D053700F70BE
:10260000270049463000FFF7CBFF390002003000B9
:10261000FFF774FF0400D3E7424641465D19AF70EF
:102620009A185B5C002B00D06B701470E9E7C04611
:10263000F0B557464546DE464E46E0B50D006B0008
:1026400001685B19DF1E0400C85D83B00192CA19DE
:1026500000284CD043001B18033BCB185E78B446CF
:10266000002E16D1019E002E3ED0E67B002E04D017
:1026700073009B19CB18033B5D70E57300282FD1C5
:102680000023537003B0F0BCBB46B246A946A04637
:10269000F0BD72006244033A89184A7890460022DD
:1026A0004A7091465A70010032002000FFF726FF61
:1026B00043468246002B07D05B0021684344033B1E
:1026C000CB185A78002A16D1424651462000FFF70F
:1026D00015FF2168019BCA19002BC6D10028CFD055
:1026E00043001B18033BCB1800219970C8E7019BDE
:1026F000002BBAD1C4E75000801803380918487875
:10270000834648464870587041462000FFF7F6FE61
:10271000594680462000FFF743FF41460200200053
:10272000FFF7ECFE8046CFE7F0B557464546DE465C
:102730004E46E0B583B00191457B04006B00006814
:102740005B19DF1EC15DC21900294ED04B005B181A
:10275000033BC3185E78B446002E18D1019E002EAC
:1027600040D0E67B002E04D073009B19C318033BB6
:102770005D70E573002931D1002328005370617327
:1027800003B0F0BCBB46B246A946A046F0BD7200FD
:102790006244033A80184278904600224270914683
:1027A0005A7020003200FFF7A9FE43468246002BF4
:1027B00007D05B0021684344033BCB185A78002ABA
:1027C00017D1424651462000FFF798FE019B0100B9
:1027D0002068C219002BC4D10029CDD04B005B1852
:1027E000033BC31800209870C6E7019B002BB8D1AB
:1027F000C2E75000801803380918487883464846D5
:102800004870587041462000FFF778FE59468046D0
:102810002000FFF7C5FE414602002000FFF76EFED4
:102820008046CEE770B5040000292CD0437B8B4254
:102830002ED0056848004018033828188278002AEE
:1028400021D053009B18033BEA5CEE188A4202D168
:102850001BE0002A08D053009B18033BEB185A7862
:102860008A42F6D142785A70002301228370437065
:102870002000FFF7DDFE617B02002000FFF73EFE37
:102880006073012000E0002070BD43783370EBE7F7
:1028900001221900FFF7CCFE60730120F4E7C04667
:1028A00010B50400FEF7E8FF01002000FFF796F9DD
:1028B000FF232371BFF35F8F10BDC04610B5040026
:1028C000FEF7DAFF01002000FFF788F9FF23A3805D
:1028D000BFF35F8F10BDC04610B504000120FEF7A6
:1028E000D7FF044B9C46604480002060BFF35F8F9D
:1028F00010BDC04640000034F8B5040006200D00AD
:1029000000F060FA002844D02A4B2B49E2185342C9
:102910005A418023DB039C469205284B62441A608F
:10292000274B1A6010008B689843FBD1214B802104
:10293000E3185A425341234A5B004900995206204A
:1029400000F040FA2900C00000F010FBC30921D1BB
:1029500040270121260080256162A36200232C36D6
:10296000AD0135432B60062000F02CFA39008000C1
:1029700000F0FCFA6023E26A53406E221A40802382
:102980005B0133431A60104B236310232B600D3B14
:10299000A364F8BD0D4A934203D900230C4F0D499F
:1029A000D8E77F221040013040089F0119003F18EE
:1029B0000300CFE70080FCBF00C0004000E0004003
:1029C00000F00040DC07022001030000FEFF0000D1
:1029D000C0FF3F00FFFF00002C4B2D4A70B51A606E
:1029E0002C4A2D4B2D491A6014008B689C43FBD157
:1029F0002B4D2C4EB54208D2013E761BB60808CDB1
:102A0000984723000134B342F9D100F07DF8264AFB
:102A1000214B1A60214A9368DB43DB01DD09002B5F
:102A2000F9D14022214B224C224E9A675A671A67ED
:102A3000DA66B44208D223682000002B20D0083484
:102A4000FFF73CFFB442F6D31B4E1C4CC022A168DA
:102A5000300000F081FBA660FEF700FFFFF7ACF846
:102A6000FFF7E8FA164C174EB44208D2013E361B67
:102A7000B60808CC98472B0001359E42F9D170BDAD
:102A80000834FFF70DFFB442D5D3DDE700E0004086
:102A9000BFCDFBFEFE7F3C0000F0004000C00040C8
:102AA00090030020A0030020FFFFFF0100F0014081
:102AB00080030020900300200000002000ED00E0D3
:102AC000A0030020A403002000BEFDE70FB400B562
:102AD000084883B000F076FC049B002B07D005A9C2
:102AE0001800019100F0F0F9034800F06BFC00BE03
:102AF000FDE7C04610AE021020AE021010B501482E
:102B0000FFF7E4FF24AE021030B50C2083B000F0D4
:102B1000B7F9FEF79BFE00280ED0944B944A1A603A
:102B20005A609A60DA601A615A619A61DA611A62CF
:102B3000904A5A6203B030BD8F4CA06700F0A8F9EC
:102B400001228E4B1A60636C012BFCD103228C4B4B
:102B50001A60894A936B012BFCD101330121894A08
:102B600089480093043300F033F90523874A009322
:102B70000121874800F02CF9864B5A68FF2A02D8B9
:102B8000802252005A608022784C7D4B21691201CC
:102B9000804D1A60002905D0606900F0E7F9013026
:102BA0000138FDD1E0217B4B02201A6811408022C0
:102BB00052012A4311601968484003210140116005
:102BC00004219A681142FCD08022802192012A437C
:102BD00009011160802252005A606F4B23616F4BD4
:102BE0005968FF2900D85A600321644A6B4B116071
:102BF00002399A681142FCD0E0201A681040802205
:102C000052011A4310601868484003210140022015
:102C1000116062498A681042FCD0802292011343FD
:102C2000802212011A6080225D4B52004A6063616B
:102C30005C4B5968FF2900D85A6080225A4BE169E1
:102C40001201584D1A60002905D0606900F08EF914
:102C500001300138FDD1E02252490B681A4080232F
:102C60005B012B431A60802380229B012B431201BE
:102C70001A6080223E4B52004A60E3614B4B596818
:102C8000FF2900D85A608022494B216A1201474D22
:102C90001A60002905D0606900F068F90130013838
:102CA000FDD1E02241490B681A4080235B012B4390
:102CB0001A60802380229B012B4312011A6080231B
:102CC00080225B004B602A4BD2022362394B596849
:102CD000914200D25A608022374B616A1201354D11
:102CE0001A60002905D0606900F040F90130013810
:102CF000FDD1E0222F490B681A4080235B012B4352
:102D00001A60802380229B012B4312011A608023CA
:102D1000DB024B60174B6362284B5A68FF2A02D8CC
:102D2000802252005A608022254BA1691201234D56
:102D30001A60002905D0606900F018F901300138E7
:102D4000FDD1E0221D490B681A4080235B012B4313
:102D50001A60802380229B012B4312011A6080237A
:102D60005B004B600E4BA361E4E6C046CC0402203E
:102D7000006CDC021BB70000008000403CB000404B
:102D800030B00040002F685900800240008C864718
:102D900000C0024030800040001BB7003C80004073
:102DA000405973075480004054B000406080004098
:102DB00060B000406C8000406CB000404880004033
:102DC00048B00040014B8000C0587047CC0402203E
:102DD000F0B5C646040000B50C2090461F000E005A
:102DE00000F0C4F84101091A8D01691AC9000918D7
:102DF0008901404600F0BAF8069B3F041A03236895
:102E00001743002B22DB1A4B1A4DE21853425A414A
:102E100080235B019C461203174B62441A60174BD8
:102E20001A601100AB689943FBD1C022231D9201A7
:102E30001A4321232660A06013602368002BFCDA6C
:102E40000823E760136080BCB846F0BD3F232268CA
:102E50001340B342D7D1A3681B051B0D8342D2D1C7
:102E6000EE22E368D2021340BB42CCD1EBE7C0466E
:102E70000040FDBF00C0004000E0004000F0004006
:102E80008023024A9B000343D362704700800540C1
:102E9000AA23064A1B0113602F230549D360054B63
:102EA00019605368002BFCDA7047C04600400240AE
:102EB00000B0FA000060024010B5002800D110BD3B
:102EC00000F030FAFBE7C04610B5094A0300146869
:102ED00084B0002C08D0012200910648524203A978
:102EE000A047012004B010BD00F06CFA0020F9E703
:102EF00084070220B92E001001480421014B184715
:102F000020030020292F0010142310B50100188879
:102F100004331B88984710BD162310B5010018888C
:102F200002331B88984710BDF8B54746CE4680B59A
:102F30000F1E19D0142399460433040000250126DE
:102F400098464B461888434621681B88984701C419
:102F5000431E9841013540420640AF42F1D1300056
:102F6000C0BCB946B046F8BD0126F8E7114A936FD8
:102F70009B0813D210665166002905D0FFE7FFE7D2
:102F8000FFE7516F106F704704B5002801D0002093
:102F9000C04302F065FE002104BDC046F0B5146ECA
:102FA000556E576F166FFFF7E5FF14665566576746
:102FB0001667F0BD000000D0132370B51D78012DF9
:102FC00015D010DD1C48FFF7A7FF1C4C0100802224
:102FD000200000F0C1F8022D06D01948FFF794FF39
:102FE000184B186070BD154C174BA364F5E7164BD2
:102FF000124C23606360A360E36023616361A3619B
:10300000E36123626362A362E36223636363A36396
:10301000E36323646364A364E36423656365A36576
:10302000E36523666366A366E36623676367A36756
:10303000E367A364D1E7C04653440000A80400201E
:103040004C330000C40702204D30001007B5604625
:1030500001880A0A0230DF2AFAD1C9B2820804D3F1
:10306000028840880004104300E00068014A505084
:10307000039007BDA804002051434343C9188C4660
:10308000110C83B24B4310B4040C614392B280B272
:10309000504362431C041B0C001910BC594113041B
:1030A000120CC0185141614470470000132310B541
:1030B00012481C78FFF730FF0100012C0AD003DD15
:1030C00080220F4800F048F80E48FFF71DFF0E4B16
:1030D000186010BD0A4C5422200000F03DF80B4B44
:1030E0006365A365E36523666366A366E36623679A
:1030F0006367A367E3672362E361E5E75346000084
:10310000A80500204C330000C40702201131001034
:1031100007B5604601880A0A0230DF2AFAD1C9B22F
:10312000820804D3028840880004104300E000684D
:10313000014A5050039007BDA80500200148042112
:10314000014B184730030020292F0010014B1B684A
:103150001847000030030020014B5B68184700004F
:1031600030030020030010B5080011001B689847C9
:1031700010BDC046F0B546464F46D646C0B5437C66
:1031800080460E001700002B46D0002A3FDD4B1E64
:103190009946244B0125002400209A460DE04B4619
:1031A0001B5D0D3B5A425341325DDBB20A2A0BD004
:1031B0002B00013401359F421ADD002CEFD143462C
:1031C000325D1B7C0A2AF3D1002BF1D1A04204DA34
:1031D0004346211A1B6830189847434650461B68DF
:1031E00002219847013428002B0001359F42E4DC7E
:1031F000874204DD4346391A1B6830189847F61990
:10320000013E33780D3B5A42534142461374E0BCB1
:10321000BA46B146A846F0BD036811003000984791
:10322000F5E7C04698AE0210F0B557464E46454603
:10323000DE461C00D023E0B51B061F68344B83B06C
:1032400006000D00180001A991469A4602F010FDF3
:103250008046002808D1019B7FB29F4204D050468F
:1032600002F01EFD012398466B1C03D1300002F0D2
:10327000BDFC0500002C27D1264F274B1C68002CD5
:1032800018D04B46002B21D1244B994602E0E4682C
:10329000002C0FD02368002BF9D04B461B68002B65
:1032A00001D0A342F3D120002A003100B847E468DE
:1032B000002CEFD14346002B25D103B0F0BCBB4618
:1032C000B246A946A046F0BD154FD6E7134B994626
:1032D0000A239B4602E0E468002CEBD02368002B15
:1032E000F9D04B461B68002B01D0A342F3D12A0032
:1032F00031002000B8475A466B4620001A7101A9D8
:103300000122B847E7E7504602F0A2FCD5E7C046E5
:103310008803002075310010340502207807022050
:1033200065310010F0B5CE46474680B583B06B4698
:10333000DE1CD02330701B061C681F4B804601A981
:103340001800994602F094FC071E20D01B4B1C6805
:10335000002C28D01A4D02E0E468002C0FD023681E
:10336000002BF9D02B68002B01D0A342F4D1200010
:1033700001223100FFF7FEFEE468002CEFD1002FA0
:1033800011D1404603B0C0BCB946B046F0BD019B68
:1033900064B29C420BD0484602F082FC074B0127E6
:1033A0001C68002CD6D1484602F052FCE9E7034BDA
:1033B0001C68002CCED1E4E78803002034050220ED
:1033C0007807022070B5040002F010FC0023010011
:1033D000050001222000FFF727FF084B1C68002C86
:1033E00006D06368002B05D09847E468002CF8D11C
:1033F000280070BDE468002CF3D1F9E73405022001
:103400000A4A1368002B05D10CE01A00DB680C3265
:10341000002B07D09842F8D1002902D1C36813606D
:10342000C16070470029FCD01060FAE73405022023
:10343000F0B50D1E15DD0E4B0D271A680D4B451905
:10344000D31859424B410C495B005E5E2021047841
:10345000A64207D093691942FCD101301460A842FA
:10346000F5D1F0BD93691942FCD11760F2E7C0466F
:10347000E40702200080FCBFDC07022030B5040016
:103480000D1E12DD00201021094B013C1A689369C2
:10349000194208D1013093691942FCD113682354B1
:1034A0008542F4D130BD0028FCD103204042F9E729
:1034B000E407022070B51C000A4B15001860FFF7E6
:1034C0001BFA002D03DB02212800FEF719F9002C5E
:1034D00003DB02212000FEF713F901210248FFF768
:1034E0008FFF70BDE407022040030020F8B5574667
:1034F0008246384B454653445A42534180229202F9
:103500009446DE464E465B421B0C334A1B04634422
:10351000E0B51360314A0D003149136018008A6824
:1035200090438146FAD10620FFF74CFC804680206C
:103530000221EF0D6E02AB0DAA02400005E090459E
:1035400007D392197B4181423FD00C000231002BFE
:10355000F5D0802627023F1B760002E03F1B012E9C
:1035600035D039004046B346013EFFF7FFFC8542A7
:10357000F4D2594633029946614353464A461C6188
:103580001B6850465340FF22120213408022520112
:1035900002431360036807205840CF2303401360A1
:1035A0005246802303209B0124321A431060524666
:1035B000101D1843022303604046FFF7D7FCF0BC00
:1035C000BB46B246A946A046F8BD0C00C1E72100A3
:1035D000D3E7C0460040FCBF00E0004000F00040E0
:1035E00000C0004000B5054B83B0010000930022ED
:1035F0000B230348FEF7DCF803B000BD9CAE0210BD
:10360000E807022003BDC04610B50400FEF7D4FA57
:10361000A04710BDF0B5040087B00F200E001700C2
:10362000FEF758F9002105000F20FEF741F90023AD
:1036300000220092019301230293D0230496059463
:10364000002600240121022003971B06002C14D021
:103650001A6D1042FCD05C6540BF1A6D114203D157
:1036600020BF1A6D1142FBD09A6DA2420AD00026EB
:103670006C46B200A458E9E79A6D1A6D1142FBD16D
:1036800040BFE5E70136052EF2D929000F20FEF7ED
:103690000FF907B0F0BDC0460B4B0C4A10B5934272
:1036A00001D201235B421900094A985004329B5011
:1036B000084A094B0948CA50094B9A68044B9C4672
:1036C0006144FFF7A7FF10BD00080420000004209C
:1036D000F407000009360010FC0700000536001052
:1036E00000ED00E0F0B598234546DE4657464E46CD
:1036F000954AE0B5D558973B1C008DB02C402B4225
:1037000000D19CE0136D01219B0500209B0F00D090
:10371000E8E001F00DFBC0228C4B92001A658C4A48
:1037200041239346492292468A4A8B4F9146092269
:1037300090468A4A8A4E039251220492894A0792FD
:10374000894A059259220692884A0A9219220992B8
:10375000083A0892EA0600D496E001247A4B9E6D5E
:10376000344200D0C3E001239846784B02249946A6
:10377000AA467F4F03E002342437202C22D0002EAB
:1037800000D1B2E04346A3401E42F4D04A4638007E
:1037900093659E4300F0CAFC0028ECD0BB78BA8A3F
:1037A00038009346FD7F0B9300F026FC4246002331
:1037B000009228005A460B99023401F06DFA243722
:1037C000202CDCD15546002E00D0B9E0059A039F8D
:1037D0009346069A049B92460A9A079E9146099A36
:1037E000089C90462A0719D58022584BD2021A65A8
:1037F000554BDB6C9B0751D55E488678878AC47F22
:1038000000F0FAFB01233A0031002000009300236E
:1038100001F042FA5F4653464E4644466A0543D499
:103820006A0659D4AB0600D583E0AC4200D07BE0F9
:103830000DB0F0BCBB46B246A946A046F0BD8922F9
:10384000D2009346482292468122D2009146082215
:1038500090468A22D2000392502204928222D20001
:10386000079248320592582206928322D2000A9289
:103870001822882780260992083A4023FF00F60084
:103880000892EA0600D568E72A07C7D580222F4BA1
:10389000D2021A652C4BDB6C9B07ADD45F465346B6
:1038A0004E4644466A05BBD58022284B31489205D6
:1038B0001A658378C47F9846838A994600F09CFBFA
:1038C0000123200000934A460133414601F0E4F908
:1038D00034003B006A06A5D580211C4A09051C005E
:1038E00011659FE701F0FEF915E755466EE7214F98
:1038F000A6437B6838001B68144B9C6500F016FCDF
:10390000002800D12FE7FB7F38009846BB78994606
:10391000BB8A9A4600F070FB002352464946404657
:10392000009401F0B9F91EE7210013486940FFF740
:10393000CDF88022054B120610481A65FFF7C6F82D
:1039400031000F48FFF7C2F800001150003011504D
:103950004904000009040000410400005104000073
:1039600001040000110400005904000019040000C3
:103970005C05022038050220E8AE0210D4AE021029
:10398000BCAE021010B500F011FB0C230A4C052050
:10399000A3670A49FDF7B2FF902200219200084870
:1039A000FFF7D4FB03232364064B074AE364902309
:1039B0000120E25010BDC04600001150E536001055
:1039C00038050220008600207B0400007047C046B6
:1039D000044B186DC0239B001840431E9841C0B291
:1039E0007047C04600001150064B10B5186D800599
:1039F000800F012802D0022801D1002010BD02480A
:103A0000FFF764F800001150FCAE02107047C0468A
:103A100010B501210520FDF74BFF10BDF8B5454657
:103A2000DE4657464E46D37808009B0711009A0F92
:103A300090461300E0B5714C032A59D0704A714F7B
:103A4000A260714ABB46E260C022520094466760A1
:103A50004D790E79A94607254F463D402D02354345
:103A60007F268A7889791640A270D20962707242E4
:103A70007241E2704246A27762469B061343A0223F
:103A800012060127E077A5831A43002926D00139C1
:103A90000B0413435A4613605C4B27701D6DAD0534
:103AA000AD0F012D03D0022D00D08CE0002536048F
:103AB000064301F045F8A84202D08023DB041E43F0
:103AC00020235249E35C8C469A00624456600122EE
:103AD00001339A4013004E4A536502E05B461A6078
:103AE00027700120F0BCBB46B246A946A046F8BDEF
:103AF0002422A25C002A5AD04822A25C002A65D067
:103B00006C22A25C002A63D09022A25C002A61D0C1
:103B1000B422A25C002A5FD0D822A25C002A5DD029
:103B2000FC22A25C002A5BD090225200A25C002AF8
:103B300058D0A2225200A25C002A55D0B4225200D2
:103B4000A25C002A3DD0C6225200A25C002A4DD0C1
:103B5000D8225200A25C002A4AD0EA225200A25C7B
:103B6000002A47D0FC225200A25C002A44D08722BF
:103B70009200A25C0F27002A1AD08F220F277825E7
:103B80009200A25CED19AD006419224DD7007D1999
:103B9000A560214D9201AC46204D6744AC46204DB6
:103BA00062445540AC46BB466760E26050E701277F
:103BB000FD00EE19B6007A1EA619D2B22036327078
:103BC000E0E70A27F4E71748FEF780FF0227EFE750
:103BD0000327EDE70427EBE70527E9E70627E7E7F3
:103BE0000727E5E70827E3E70927E1E70B27DFE7F2
:103BF0000C27DDE70D27DBE70E27D9E73805022084
:103C00008000105000011050800110500000115031
:103C10000020115088001050080010500002105071
:103C200000001050FCAE0210F0B5C64600B50C0006
:103C3000190006AB15001A887F231F00A7482F40E4
:103C4000EE092B4200D198E05B3BC35C002B04D013
:103C50004323C35CA34200D1C7E04823C35C002BCD
:103C600004D06723C35CA34200D1C5E06C23C35CCE
:103C7000002B04D08B23C35CA34200D1C3E090236C
:103C8000C35C002B04D0AF23C35CA34200D1C7E0C8
:103C9000B423C35C002B04D0D323C35CA34200D164
:103CA000C5E0D823C35C002B04D0F723C35CA34238
:103CB00000D1C3E0FC23C35C002B05D01C23FF33E1
:103CC000C35CA34200D1C0E090235B00C35C002B27
:103CD00005D04023FF33C35CA34200D1BCE0A22344
:103CE0005B00C35C002B05D06423FF33C35CA3429D
:103CF00000D1B9E0B4235B00C35C002B05D088235E
:103D0000FF33C35CA34200D1B6E0C6235B00C35CB3
:103D1000002B05D0AC23FF33C35CA34200D1B3E03A
:103D2000D8235B00C35C002B05D0D023FF33C35CDA
:103D3000A34200D1B0E0EA235B00C35C002B05D0B6
:103D4000F423FF33C35CA34200D1ADE0FC235B004E
:103D5000C35C002B04D0624BC35CA34200D1ABE038
:103D600087239B00C35C002B04D05E4BC35CA34243
:103D700000D1A9E000239B78FFDE8378AB421CD101
:103D800000F040F9584A594B94461C601B6DB60030
:103D90009B0566449B0F012B25D0022B00D09AE097
:103DA000200000F0CDFEB84201D040231E434F4B0F
:103DB000DE64012080BCB846F0BD837F85709846E4
:103DC0000123C5689C46C370494BC4776B40454688
:103DD000AD062B43A0252D062B43456846702B606E
:103DE00063460370CCE70127DAE72623C35CAB42C6
:103DF00000D032E701230CE04A23C35CAB4200D081
:103E000034E7022305E06E23C35CAB4200D036E703
:103E10000323DC00E418A400001900F0F3F8C8E75D
:103E20009223C35CAB4200D032E70423F1E7B62310
:103E3000C35CAB4200D034E70523EAE7DA23C35C76
:103E4000AB4200D036E70623E3E7FE23C35CAB4278
:103E500000D039E70723DCE791235B00C35CAB426A
:103E600000D03CE70823D4E7A3235B00C35CAB424C
:103E700000D03FE70923CCE7B5235B00C35CAB422E
:103E800000D042E70A23C4E7C7235B00C35CAB4210
:103E900000D045E70B23BCE7D9235B00C35CAB42F2
:103EA00000D048E70C23B4E7EB235B00C35CAB42D4
:103EB00000D04BE70D23ACE7FD235B00C35CAB42B6
:103EC00000D04DE70E23A4E70A4BC35CAB4200D001
:103ED00050E70F239DE70848FEF7F8FD380502205C
:103EE000170200003B020000058600200000115070
:103EF000000010501E020000FCAE021070B51B48FE
:103F00000D0011000822FFF727F9194B19498020ED
:103F1000D9600021184A59709A609977174A184950
:103F2000400058805A60DD771160012208211A7024
:103F300059821A74134B1D60186D8005840F012C73
:103F400002D0022C0ED10024280000F0F9FD001B45
:103F5000431E98410C4B80019C460A4B6044D86438
:103F6000012070BD0948FEF7B1FDC04600001050A9
:103F700038050220800110508000105000011050C0
:103F8000800100A00000115003860020FCAE02104A
:103F90007F21C309034A9B00014010B59A5802488B
:103FA000FEF794FD540300200CAF021080220D4B4D
:103FB000520410B51A600C4B0C491A6010008B6843
:103FC0009843FBD10A4C9C2200212000FFF7BEF849
:103FD0008022002152010748FFF7B8F809236367E0
:103FE00010BDC04600E0004000F0004000C00040AE
:103FF000000011500000105000230374438283829C
:1040000083617047F0B5C646002300B58382013353
:104010000374436804001E68838B81611F1C9342F4
:1040200000D9171C8025BFB2D21B93B2E278ED00F5
:1040300063823D43002A02D09025AD013D4301201B
:104040004240E2706278002A4AD0002B16D1A023A9
:10405000DB011D43314B1B6C314B33408026B605D1
:104060001E4363681E60A3681A68520553D42D4A24
:104070002A401A601D6080BCB846F0BD8022520103
:104080001543264A126C920703D4A278D209012A5A
:10409000E2D1A28B111C9A4200D9191C80278AB246
:1040A000FF009B1A90461743E2789BB26382002A76
:1040B00003D090274146BF010F4301214A40E270DF
:1040C0006278002A19D0002B02D18023DB011F4324
:1040D000154B3F043340A026F6053D431E43C0E781
:1040E0003A00E068FFF738F8A3699C4680236744EC
:1040F0001B021D43A761638AA7E7E0684246A169E6
:104100004030FFF729F8A3694344A36180231B02D1
:104110001F43638AD7E7A078FFF73AFF00001150EA
:10412000FFFFFFAFFFFBFFFFFFFFFFDFF0B5C6465E
:1041300000B5067C0400002E00D1CAE083681A682E
:104140001D684378AD05AD0D002B49D1838AEB186E
:104150009BB28382A18B8D4207D200236382636866
:104160001B68300080BCB846F0BD6268126852001F
:1041700001D58D426ED0638A002BF2D062681F1C7D
:1041800016688B4200D90F1C8025BFB2DB1BE2787A
:104190009BB2ED0063823D43002A02D09025AD0121
:1041A0003D4301214A40E2706278002A60D0002B32
:1041B00023D1A023DB011D434B4B1B6C4B4B3340E6
:1041C0008026B6051E4363681E60A3681A68520500
:1041D00000D585E0464A00262A401A601D60C0E7E7
:1041E0002A00C1688069FEF7B7FFA38AA269EB18AD
:1041F0009BB25219A382A261ACE7802252011543FF
:10420000394A126C920703D4A278D209012AD5D177
:10421000A28B111C9A423ED880278AB2FF009B1ABB
:1042200090461743E2789BB26382002A2ED1012187
:104230004A40E2706278002A3DD0002B02D18023F0
:10424000DB011F432B4B3F043340A026F6053D43C3
:104250001E43B8E7A26815686278AD01AD0D002A6B
:104260001BD1EB18A3828D4285D20023638278E7AD
:104270003A00A169E068FEF76FFFA3699C468023BE
:1042800067441B021D43A761638A90E7902741465C
:10429000BF010F43CBE7191CBEE7E1682A0040319C
:1042A000A069FEF759FFA38AA18BEB18A382A3692B
:1042B0005B19A361D7E7E0684246A1694030FEF789
:1042C0004BFFA3694344A36180231B021F43638AFE
:1042D000B3E77F238178084A08481940FEF7F6FBC8
:1042E000A078FFF755FEC04600001150FFFFFFAF5A
:1042F000FFFBFFFFFFFFFFDF540300202CAF021086
:1043000010B582B0002A16D1114B01321B680193FF
:10431000134219D06B4659790223480701D44B0840
:1043200013400C4A0124D3706B469B79DB0604D4FE
:10433000200002B010BD0024FAE791785078064BB7
:10434000142200F079FFF3E700F0EEFF0400EFE73E
:104350005402022024010220554A001000B583B007
:10436000002A0ED1084B01209B78DB0601D403B054
:1043700000BD064B143299785878054B00F05CFF6D
:10438000F5E70020F3E7C046540202202401022092
:10439000B94A001070B582B0002A1BD100281BD08A
:1043A0000E4A441EA30091681C190D4B240119519B
:1043B000917B043B1B195972D17B9972117CD97284
:1043C00069460C00074B60CB60C4074B00F0EAFD68
:1043D00002B070BD0020FBE78080FFDE54020220A7
:1043E0005803022060AF0210ED43001030B583B0D7
:1043F000002A19D180240D4A002351886400A1426B
:1044000002D9180003B030BD6D46803C2C707A3C58
:104410006C70FB34AB80E980054B6946FF346C80DF
:1044200000F0C0FD0300ECE70023EAE7540202209D
:10443000D1440010F0B5C64600B5104382B0002844
:1044400038D18E78002E30D00222731E9C001A4F75
:10445000E41824013D192B7B002113432B73174BC8
:104460001878FFF7D3FA2B7A6D469846052200217B
:10447000A81CFEF76BFE124B2A002B80434631002E
:10448000385DAB80FFF7CAFA00280AD02A000D4B2E
:10449000083303CB03C2290030000B4B0B4A00F05A
:1044A00081FD02B080BCB846F0BD0222337B93434D
:1044B0003373FFDE0020F4E75403022024010220BE
:1044C0000705000060AF021095430010540202205F
:1044D000F0B54F46D6464646C0B5814682B0002A62
:1044E00006D0002002B0E0BCBA46B146A846F0BDF6
:1044F000031E63D0013B9F00FF18314B3F01FF18A3
:10450000304B5A881C789046E4189844A04541D90D
:104510001E239A46BA4405E07B78002B19D0641913
:10452000A04537D9637801260B2B03D12378E67891
:10453000E4186378042BD4D143461A1B31002000C1
:1045400092B201F063FA05000828CAD96379092BF1
:10455000E2D02B0022004946387801F0E7F8002825
:1045600024D12B0022004946387800F0A1FE012317
:104570000028D4D0002E1BD0A278B618F6B204E0E2
:104580000132D2B28B73964212D0B918887BFF28C1
:10459000F6D0A6E769460A000B4B103311CB11C2C7
:1045A00000224846094B00F0FDFC9BE70023E1E7B1
:1045B0002A002100504601F013FAB0E700279FE7D8
:1045C000540302205402022060AF02105D49001023
:1045D000F0B5DE46574645464E469D4BE0B59A46F9
:1045E0009C4B89B09B466E23534400931E239A4DE7
:1045F000534405AC01932E68F269EFF3108172B653
:104600001368002BFCD0BFF35F8F316230002100B4
:1046100001F022FAF269336ABFF35F8F0021116063
:1046200083F31088002800D104E16378022B54D072
:1046300017D8002B1DD02378854F984663792679AB
:1046400099463B78434500D183E05023FB5C4345CA
:1046500000D1B5E02679002ECDD0300000F064FE08
:10466000C9E7032BC7D16368002BC4D0A068984763
:10467000C1E7FA20794E237962792178737031701D
:10468000B2704000002B36D1FDF75CFD3078FFF7AB
:104690009FF90028AFD03078FFF7A6F902AB0522CA
:1046A0000021F070981DFEF751FD6D4B03AF3B806C
:1046B00008233A0000213078BB80FFF7AFF90028CB
:1046C00099D03A00674B183303CB03C23900664BCD
:1046D000664A002000F066FC8DE77F232179A078F0
:1046E0000B40002810D1002B00D0A3E06279A36812
:1046F00000F07AFC7FE7FDF725FDB17870785C4B20
:104700005A4A00F0BBFD76E7421E94466746BF005A
:1047100067443F015A00D21952449046CE09B04432
:104720004646012230363778974337703778033260
:1047300097433770002BD9D043469E7F012E79D8FE
:10474000B3009B199B005B44DE686279A368B047A5
:1047500051E7002E44D07B78B34241D05023FB5C1C
:10476000434500D079E75123FB5CB3422AD03000A7
:1047700000F0DAFD3FE75D23FB5C002B00D169E729
:104780003C4B002B02D0022000E000BF022000F0D2
:10479000A3FF022000F0B6FD1022FF213648FEF7ED
:1047A000D5FC1222FF210098FEF7D0FC02214046E2
:1047B000FFF72CF95D2300212F4A5E3AD15449E7D7
:1047C000002E3ED14B46002BD5D05223FB5C4B45EF
:1047D00000D03FE75D23FB5C002B00D13AE7CFE739
:1047E0004B46002B03D0BB784B4500D02DE77B7B9D
:1047F000002B00D129E71F4B002B02D0012000E045
:1048000000BF012000F068FF012000F07BFD1022B6
:10481000FF211A48FEF79AFC1222FF210198FEF7A9
:1048200095FC01214046FFF7F1F80022134B0E3BA7
:104830005A730AE709B0F0BCBB46B246A946A04687
:10484000F0BD5123FB5CB34200D003E7BAE7C0469A
:104850005403022080AF0210F4030220240102203E
:104860000705000060AF02108148001054020220CA
:104870000143001000000000B20302206203022086
:1048800030B583B000281FD1002A19D12E4C63788F
:10489000012B19D12D4D6878002818D12878FFF701
:1048A00095F8FA204000FDF74DFC2379092B28D11B
:1048B0005D22274B9A5C002A43D10220012126E089
:1048C000224B5878002819D1002003B030BD0022B7
:1048D000A97800F0C1FC0028F6D0FA204000FDF7CE
:1048E00031FC01F03DF8002801D0FFF771FE2200F5
:1048F000A9786878174B00F0C1FCE6E700F014FDDA
:10490000E2E7134B5A7B002A1BD1012000218A00C9
:104910005218012112019B181A7B2D680A431D6051
:104920001A73E27969461A7200236A4613700522E7
:1049300048804A708B80CB8000220020064B00F01C
:1049400031FB0120C1E7C0465402022024010220AD
:10495000540302205D430010354400101100F8B5E7
:10496000002A46D1002850D00427461EB500364AFA
:10497000AC1924011419237B3B4323730123637374
:10498000A37BFF2B38D1E37BFF2B34D1237CFF2B80
:1049900042D1637CFF2B41D1A37CFF2B3AD1E37C36
:1049A000FF2B3DD1237DFF2B3CD1637DFF2B3BD1E2
:1049B000A37DFF2B3AD1E37DFF2B39D1237EFF2B43
:1049C00038D1637EFF2B37D1A37EFF2B36D1E37E18
:1049D000FF2B35D1237FFF2B34D1637F0F31FF2B8A
:1049E0000AD11A4B0124002B01D000E000BF2000A7
:1049F000F8BD0024FBE701219A00D318144A9B005C
:104A0000D3189B6898470124F1E70422037B934362
:104A10000373FFDE0421EFE70221EDE70321EBE75B
:104A20000521E9E70621E7E70721E5E70821E3E7B4
:104A30000921E1E70A21DFE70B21DDE70C21DBE7B4
:104A40000D21D9E70E21D7E7540302200000000012
:104A500080AF021030B5002483B0002A02D02000BD
:104A600003B030BD6D4600210532A81CFEF76EFB79
:104A70000C4B2A002B800823AB800B4B00211878AD
:104A8000FEF7CCFF041E0BD02A00084B183303CBD3
:104A900003C22900064B074A002000F083FADEE734
:104AA0000124DCE7070500002401022060AF0210AA
:104AB000814800105402022030B5002083B0002A43
:104AC00001D003B030BD1A490B79092B07D1194B1E
:104AD0005D329A5C002A28D10225012005E0154BA1
:104AE0005A7B002A21D101250020820012180120C2
:104AF000114C12019B1822681A601A7B02431A7328
:104B0000CA7969461A7200236A46137005228B809F
:104B10004A70CB8000220020084B4D8000F042FA02
:104B2000607800F001FC0120CBE7034CF8E7C046B9
:104B300054020220540302202401022035440010B4
:104B4000002807D0013883001818044B00011818FA
:104B5000C0787047024BD878FBE7C0465403022068
:104B600024010220014B18787047C046EE0702204E
:104B7000F8B5284D06002C78002C01D02000F8BD97
:104B8000254CA02200212000FEF7E0FA052200219A
:104B90002248FEF7DBFA224F38001C30FDF79CFE5E
:104BA000380000F0E5FF1F4B1F6027004437380036
:104BB000FDF776FE2000E7641022FF210E30FEF79D
:104BC000C5FA270020001222FF2194371E30FEF77D
:104BD000BDFA3800FDF764FE9C232000E750102248
:104BE000FF215E30FEF7B2FA20001222FF216E3064
:104BF000FEF7ACFA00F026FD00F050FB3000FEF7A7
:104C0000C1FE041EBAD03000FEF702FF01232B7054
:104C1000B4E7C046EE07022054030220240102201C
:104C20005C030020F403022010B500F099FE002878
:104C300001D0FFF7CDFC10BD002802D1044B18783D
:104C40007047013883001818024B0001C05CF7E779
:104C5000240102205403022000487047540202201D
:104C60000C4B10B51C680100E269EFF3108072B6BE
:104C70001368002BFCD0BFF35F8F2062200000F090
:104C800039FFE269236ABFF35F8F0021116083F36C
:104C9000108810BDF403022030B5802585B001AC2A
:104CA00063710F4BAD0025801D68A260A07021715B
:104CB000EA69EFF3108172B61368002BFCD0BFF3E2
:104CC0005F8F29622800210000F014FFEA692B6A37
:104CD000BFF35F8F0021116083F3108805B030BDF2
:104CE000F403022030B5040085B001AD0C22002190
:104CF0002800FEF72BFA0D4B2C701C68E269EFF3CD
:104D0000108172B61368002BFCD0BFF35F8F216255
:104D10002000290000F0EEFEE269236ABFF35F8FF6
:104D20000021116083F3108805B030BDF403022028
:104D300010B584B004000C22002101A8FEF706FA89
:104D40006B466A461C71012353710D4B1C68E26966
:104D5000EFF3108172B61368002BFCD0BFF35F8FA6
:104D60002162200001A900F0C5FEE269236ABFF3B9
:104D70005F8F0021116083F3108804B010BDC0461E
:104D8000F403022010B50C00002800D19EE0431E61
:104D90009A00D218504B1201D218611CC9B20F29C7
:104DA00000D995E053189B7BFF2B00D086E0A11C17
:104DB000C9B210297BD053189B7BFF2B00D07DE01C
:104DC000E11CC9B2102972D053189B7BFF2B00D075
:104DD00074E0211DC9B2102969D053189B7BFF2BA9
:104DE00000D06BE0611DC9B2102960D053189B7BC5
:104DF000FF2B63D1A11DC9B2102958D053189B7B3A
:104E0000FF2B5BD1E11DC9B2102950D053189B7BF9
:104E1000FF2B53D121000831C9B2102947D05318B4
:104E20009B7BFF2B4AD121000931C9B210293ED00A
:104E300053189B7BFF2B41D121000A31C9B21029A5
:104E400035D053189B7BFF2B38D121000B31C9B2D1
:104E500010292CD053189B7BFF2B2FD121000C3114
:104E6000C9B2102923D053189B7BFF2B26D12100D8
:104E70000D31C9B210291AD053189B7BFF2B1DD1BD
:104E800021000E31C9B2102911D053189B7BFF2B82
:104E900014D121000F31C9B2102908D053189B7BBF
:104EA000FF2B0BD1FF2C02D1537FFF2B05D10B4BD6
:104EB000002B01D000E000BF10BD0F219A00D318D5
:104EC000074A9B00D3189B689847F5E7002264E7E0
:104ED0001029F1D1EBE7C046540302200000000086
:104EE00080AF0210F0B5C6467F2400B5060082B040
:104EF0000C40C809002E2FD0751EAC46194D640019
:104F0000A8466546AD0065442D0164194444241843
:104F100030342078844667460020FF0703D502B06E
:104F200080BCB846F0BD0127BC46674620783843B0
:104F300020704046285C009313000A003100FEF701
:104F400073FE0028EBD1012223789343237023784A
:104F5000033293432370E2E763001B1830331B785E
:104F6000FFDEC0465403022070B506000C00150099
:104F7000002912D04A1E93009B18094A1B01D3181E
:104F80002800D97800F0F0FC002800D170BD2A007C
:104F900021003000FEF742FDF8E7CB78FFDEC04687
:104FA00054030220F8B5CE46474680B590461F0010
:104FB00005008946FFF740FE0A4C060049460822D4
:104FC0002000FEF7C9F84346E360002329003000C3
:104FD000220027612372FEF791FFC0BCB946B0469C
:104FE000F8BDC0461001022070B582B00400150063
:104FF000FFF722FE1F490600002D08D00B69002B89
:1050000029D02A0020009847012002B070BD0A7AFA
:10501000012A09D0022A16D00020002AF5D1012346
:10502000C8880B72002818D102230B720B78DB0999
:1050300000D1802500232A00210030000093FEF7D4
:10504000F3FD0120E1E70B69002B04D000222000D2
:1050500098470120D9E70120D7E70B78DB0900D07A
:105060008032CB68009021003000FEF7DDFD01208A
:10507000CBE7C0461001022070B5040084B00020C8
:10508000002A11D101AD0E790C3200212800FEF763
:105090005DF82000FFF7D0FD0021287028002C715A
:1050A0006E71FFF7DDFD012004B070BDF0B583B077
:1050B000002A1FD10126104C831EDB00E518AF79B2
:1050C0003E4208D10333E21869780123FFF70AFF53
:1050D000012003B0F0BD6C462323237010236670BB
:1050E00063800B796946A380044BE280FFF75AFF87
:1050F0000120EEE70020ECE77C070220C151001000
:1051000010B5040082B00020002A16D10C4BA21E5C
:10511000D2009B180B4A694692789A706A462323FC
:105120001370203B537005335380073B9380D0802E
:10513000054B00222000FFF735FF02B010BDC0462E
:105140007C070220480202204D510010F0B50400F7
:1051500083B0002A13D14B79851E174F0879ED00D3
:105160001B0279190343887898420CD1EA1C012369
:1051700020004978BA18FFF7B5FE061E16D10026A2
:10518000300003B0F0BD684623210133017020399F
:105190004170DBB2053141808380C28069460022C4
:1051A0002000064BFFF7FEFE0600E9E72000E95D60
:1051B000FFF7E8FDE4E7C0467C0702204D510010F0
:1051C000F0B5040085B0002A2FD101274D790B7965
:1051D0002D021D43811E164BC9005B181B791F420F
:1051E00013D101AE0C2200213000FDF7AFFF2000EB
:1051F000FFF722FD00213070300077703471757137
:10520000FFF72EFD012005B0F0BD232301A90B708F
:10521000203B4B7001334B80FB331D408D80054B91
:10522000CA80FFF7BFFE0120EDE70020EBE7C04694
:105230007C0702207950001030B583B06D462324DE
:105240006A8000222C70A980223C69466C70EA803A
:10525000FFF7A8FE03B030BD10B582B06C46130056
:1052600023222270203A6270013262800022A180E3
:105270006946E280FFF796FE02B010BD30B583B0FC
:105280006D46A324A98004212C700024E98069467E
:105290006C706C80FFF786FE03B030BD10B508223D
:1052A00000210248FDF752FF10BDC0467C070220D6
:1052B00070B5140052790D00092A10D1A279002A84
:1052C0000DD1E279012A0AD80F2B08D92678A61920
:1052D0007378052B03D1F378DB439B0701D00020C3
:1052E00070BD3200FFF740FE0028F8D0044BA278D2
:1052F000023DE900CA545918B3784B70F0E7C04634
:105300007C07022010B5012806D9064B0238C000E0
:1053100018184378002B00D110BD08220021FDF79A
:1053200015FFF9E77C07022010B5811E044BC90068
:10533000CA1C9A185B1859780123FFF7D3FD10BDDA
:105340007C07022030B5831E0A4ADB009B5C040008
:1053500083B000208B4201D003B030BD69460A0003
:10536000054B21CB21C22000044B054AFFF71AFE52
:10537000F2E7C0467C070220A8AF021001510010DE
:1053800048020220F0B583B0002A18D1164B871EC0
:10539000FF009C46DB199C78002C0DD0DD78AB0714
:1053A00020D40123012603E02900D9400E4208D170
:1053B0000133DBB2A342F7D9012003B0F0BD0020D6
:1053C000FBE79BB26946A3220A7000228B8004236C
:1053D0004A704A803A1DCB806244044BFFF7E2FDDD
:1053E0000120EAE70123EDE77C070220AD50001021
:1053F00070B54B78040082B00A2B01D0002A44D14A
:105400008D23661E5B0073432F4A4879D3180D79AC
:10541000997800022843A94239D08D235B00734359
:10542000D31819008E310978A94238D0FF23FF2103
:105430008C255D438D235B007343ED185519802245
:105440002B895200934215D8694681220A707B3A13
:105450004A70EA79CB8012024A80FF22104088808D
:10546000FFF7FAFB69460200184B2000FFF79AFD90
:1054700002B070BD002300222000FCF79BF8200042
:10548000A978FFF77FFC0120F2E70020F0E7D97848
:10549000002912D11B79002BBFD00023C8E71900C7
:1054A0008F31097800290BD190331D78FF31FF230C
:1054B000002DBDD0FE3BFE39BAE700230021B7E73F
:1054C00001230121B4E7C0462C01022069550010D8
:1054D0008D2370B55B00441E6343214A0D79D318B8
:1054E000997882B0A94222D08D235B006343D31800
:1054F00019008E310E78FF21AE4220D08C234B4311
:105500008D21490061435B18D21800236C4621218C
:10551000937192782170163961706380A280E38064
:10552000694600220F4BFFF73DFD02B070BDD978F0
:10553000002902D11B79002BD6D00021DEE719000B
:105540008F310978002908D1903319784B4259419D
:10555000FE23494219400131D0E70121CEE7C04680
:105560002C010220F1530010F8B5CE464746050045
:105570000E001400002080B5002A03D0C0BCB9463C
:10558000B046F8BD6B1E98468D230A7941465B00F4
:105590004B43244FFB189978914226D08D234146E6
:1055A0005B004B43FB1819008E310978914225D0DE
:1055B000FF23FF249946FFF74FFBF379B1791B02D4
:1055C00002000B4328002100FBF7F4FF4A468C231E
:1055D00053438D22414652004A439B18FB18280032
:1055E0009978FFF7CFFB0120C8E7D978002902D1CD
:1055F0001B79002BD2D000239946DCE71A008F32AA
:105600001278002A0AD190331B78FF329146FF248A
:10561000002BD0D00123FE3C9946CCE70123012486
:105620009946C8E72C010220421E8D208C234000A1
:1056300050434B4302491B18CB1858797047C0465A
:105640002C0102208D2210B5002102485200FDF7E6
:105650007DFD10BD2C010220F8B58D24471E64008D
:105660007C431A4DCA092C19E6788E4227D0267938
:105670008E4224D026008F3636788E4222D0903447
:1056800024788C421ED0FF21114E012A0DD0114AE0
:10569000002A08D08D2252007A434E3292199BB2D2
:1056A000AA1800E000BF0120F8BD1A32FF327A4389
:1056B0000E3292199BB2AA18FBF7BCFFF3E7002643
:1056C0000021E2E78C260121DFE7C0462C01022001
:1056D000748B000000000000F0B5C646050000B560
:1056E00001281CD88D26431E76005E430D4FBB1942
:1056F00098460D4B002B0CD0BB5D002B09D000242D
:1057000021002800FBF78AFF0134BB5DE4B2A3420D
:10571000F6D88D22002140465200FDF717FD80BCCF
:10572000B846F0BD2C0102201D160010F0B5C6468B
:1057300000B514005279032A0BD12579EA00521BD7
:10574000123292B29A4204D8257865196B78212BCF
:1057500003D0002080BCB846F0BD4F1EF9337B4318
:10576000204EF35C012BF4D82B789846A84443468E
:105770005B78052BEDD143469B78DB0906D1434688
:105780001B78984443465B78052BE2D14246FFF7ED
:10579000EBFB0028DDD08D235B007B438C27F25C84
:1057A0005743511CF154FF18A378F619B3704346C0
:1057B0009B78F370434659791A7907230B401B02F3
:1057C00013437381AB79E979F3712B7A1B020B4395
:1057D00033810023B371A379012BBBD1E3797371BA
:1057E000B8E7C0462C0102208D2370B55B00441E33
:1057F0006343224A82B0D3189D788D4225D08D23F1
:105800005B006343D3181D008E352E78FF258E4232
:1058100023D06E4621233370173B7370B180002371
:105820008D217380F38049008C336B4361435B1897
:10583000D3185B79002B06D1114B00226946FFF784
:10584000B1FB02B070BD0F4BF7E7DD78002D02D140
:105850001B79002BD3D00025DBE71D008F352D7879
:10586000002D08D190331D786B425D41FE236D42BF
:105870001D400135CDE70125CBE7C0462C010220B4
:10588000F1530010D1540010F0B5D6464F464646AD
:105890008A46C0B514008A0000211F008046FDF72B
:1058A00055FC002F53D05346002B50D00023002628
:1058B000994608E0002A2CD0EB43FF18BFB2002F16
:1058C0001AD0564518D22378611C1A0718099B076D
:1058D0009D0F920F63784C19012A13D0022AE9D147
:1058E0000028E9D14A46002AE6D142465370EB43EC
:1058F000FF18BFB2002FE4D13000E0BCBA46B14679
:10590000A846F0BD002814D00828D5D1424613700F
:10591000D2E70A2816D00C28CED14B46013BDBB289
:105920009946002BC8D104339C460136E044F6B2B8
:10593000C2E74B46002BBFD143462A00981CFDF717
:105940000BFCB9E74B460133DBB29946B4E70026BE
:10595000D2E7C04610B50020FFF70AF910BDC046D7
:1059600010B5FFF7FFF810BD072210B54479037991
:10597000224012021A43C3789B079B0F022B05D0CB
:10598000032B15D00020012B08D010BD02291CD0FC
:105990000020402393424041C0B2F6E702394B4217
:1059A00059410D4B9C46614491424041C0B2ECE7E5
:1059B00002394B425941F023002049429B001940D3
:1059C000403191424041C0B2DFE7044B9C46624403
:1059D00053425A41D0B2D8E7FF03000000FEFFFF58
:1059E000F0B5002A11D000247F274D78052D06D16F
:1059F0003D008E7835406D00F6094519AB550D78A0
:105A00006419A4B24919A242EFD8F0BD30B54C1EBA
:105A10000300E4B200291CD0017800200D002818F2
:105A200080B25B18904206D30DE01978401880B21E
:105A30005B18824207D959780B290BD00429F4D17D
:105A4000D9780029F1D1013CE4B2FF2C02D01978B9
:105A5000E5E7002030BDC04670B5040080690E0047
:105A6000002803D00121494200F00AF9E189228A85
:105A700088B28D1A93B2ADB2914202D26289AD1A48
:105A8000ADB2A288AA4207D2904225D261895118AC
:105A9000411A89B215002182002D02D122E09B1A01
:105AA0009BB29A42FBD9E288216853433000C9185F
:105AB000FDF752FB228A0125531C9BB29A4214D94E
:105AC000002362899B189BB2A0692382002801D021
:105AD00000F0BEF8280070BD811AA58989B28D42F8
